:020000041000EA
:1000000000B5324B212058609868022188439860DF
:10001000D860186158612E4B002199600221596106
:100020000121F02299502B49196001219960352056
:1000300000F044F80222904214D00621196600F024
:1000400034F8196E01211966002018661A6600F04E
:100050002CF8196E196E196E052000F02FF8012189
:100060000842F9D1002199601B49196000215960AB
:100070001A491B48016001219960EB211966A021F2
:10008000196600F012F800219960164914480160C1
:100090000121996001BC002800D000471248134993
:1000A000086003C880F30888084703B5996A0420EC
:1000B0000142FBD001200142F8D103BD02B5186610
:1000C0001866FFF7F2FF186E186E02BD00000240BE
:1000D000000000180000070000035F00212200005C
:1000E000F4000018222000A00001001008ED00E03C
:1000F00000000000000000000000000074B24E7A12
:1001000000200420F7010010C3010010C5010010F9
:10011000C1010010C1010010C1010010C101001097
:10012000C1010010C1010010C1010010C701001081
:10013000C1010010C1010010C9010010CB01001065
:10014000CD010010CD010010CD010010CD01001037
:10015000CD010010CD010010CD010010CD01001027
:10016000CD010010CD010010CD010010CD01001017
:10017000CD010010CD010010CD010010CD01001007
:10018000CD010010CD010010CD010010CD010010F7
:10019000CD010010CD010010CD010010CD010010E7
:1001A000CD010010CD010010CD010010CD010010D7
:1001B000CD010010CD010010CD010010CD010010C7
:1001C00000BE00BE00BE00BE00BE00BEEFF3058054
:1001D000103800BEF2EB8871E048051000490510A8
:1001E0003402001090A31AE700201F49086006C8D7
:1001F00081F3088810471D48006800282FD10DA4FE
:100200000ECC002902D000F012F8F9E71849194A7B
:10021000002000E001C19142FCD1174988471749ED
:1002200088471749884700BEFDE701C901C29A42C5
:10023000FBD3704700490510C0000020102D00209E
:1002400050750510000004200000042050750510B2
:10025000001004200010042000000000704709482E
:100260000DF01EF90047000008ED00E0000000D08E
:10027000102D00202C590320E5BB00105503001061
:1002800019BD00105756000006005250ABB3605322
:10029000D0A6041006005250861C0302E0A60410EB
:1002A000060052505422A29DECA6041005005250A4
:1002B000DE65F46850750510F8B5C0460448054B76
:1002C00010B5834203D0044B002B00D0984710BDDB
:1002D000102D0020102D00200000000006480749C6
:1002E000091A8B10C90FC91810B5491003D0044B57
:1002F000002B00D0984710BD102D0020102D00209D
:100300000000000010B5074C2378002B09D1FFF73F
:10031000D5FF054B002B02D0044800E000BF0123AD
:10032000237010BD582F00200000000028A20410E8
:10033000054B10B5002B03D00449054800E000BF71
:10034000FFF7CCFF10BDC046000000005C2F00206E
:1003500028A2041070B5192009F0E2FED0238022F3
:100360001B0692045A620FF009F800F047F806F0F5
:10037000BFFD08F0F3F806F0C5FF09F07DFA002292
:100380000524144B1A7006F09DF9134D013C210011
:1003900028000EF0E7FFFA2080000AF0CDFC002CC8
:1003A000F4D10A200EF03CFE012200210B480AF095
:1003B0007FF90B4811F0BEF901220A4B0A4C1A7062
:1003C0002378012BFCD108F085FA2378012BFAD091
:1003D000F6E7C0464856032028A2041080550320A3
:1003E000198B0010475603204C56032010B50248C5
:1003F00011F0C8FC10BDC04614370320092370B5A6
:1004000086B0059304330493023B0393013B0293AC
:10041000023B324D324C0193324B22003249334879
:1004200000932B0005F00CFE142005F005FEFA20C9
:1004300080000AF081FC2E4E21003200280006F0D8
:1004400017F83378682B08D02A4C20000EF034FEC1
:10045000FA2080000AF070FCF7E773783D2BF3D1A7
:1004600001222100280006F027F8234E3200210047
:10047000280006F05BF83378002BF7D10122210029
:10048000280005F0D7FE0121200005F0B5FE03216C
:10049000200005F047FE0321280005F071FF13211D
:1004A000200006F0B1F81221200006F0EBF8002140
:1004B000200006F0C9F80321200006F053F80221BD
:1004C000200006F06BF85521200005F049FE1821A8
:1004D000280005F0EFFE06B070BDC046001F0320E7
:1004E000D830002040420F001C21002014210020A1
:1004F0000C5603203CA204105E560320F0B5C646FD
:10050000334C344D344E22002900300000B505F044
:10051000C1FF6378DB439B0720D023781B0702D4FD
:1005200004BC9046F0BD2D4C0622002120000EF0A8
:1005300051FC2100300005F07DFF0023E05E05F056
:10054000E7FD274D28600223E05E05F0E1FD6860CD
:100550000423E05E05F0DCFDA860E1E7214B062204
:100560009846180000210EF035FC1F4F062200218E
:1005700038000EF02FFC4146280005F03DFF390001
:10058000280005F01BFF43460020185E05F0ACFD77
:100590004346164D28600220185E05F0A5FD43462F
:1005A00068600420185E05F09FFDA8600023F85ED7
:1005B00005F0A4FD0E4D28600223F85E05F09EFDB7
:1005C00068600423F85E05F099FDA860A5E7C046C1
:1005D000944B0320D8300020001F0320403C032010
:1005E000E0400320303C0320383C0320D43A032071
:1005F000F03A0320F0B55746DE464E464546E0B594
:100600008BB008919246190005900993DA170323DD
:100610008C46134063449B109B009846002B00DCE3
:100620008FE05246159B00249B000193149B0025EC
:100630009B1A159A9B1A089A9B000293536812689A
:100640001901944606929A0003925246013A92008A
:100650000792002291465A000491DF005146D318B8
:100660009B0042469B4623008E0066440092019AFE
:1006700094469C44039B5C19D8195346002B1EDDFD
:10068000069B05995A196346884600999B00434486
:1006900088460095116819600099511A0D59043265
:1006A0005D60CD599D600958D96010339642F1D1F3
:1006B0004346079A00936346944604339C440422BD
:1006C000029B5C4463449446049AE1449446009A35
:1006D00058442500070066444A45C8DC1C00904683
:1006E000099B434526DD149A1598089B151A524616
:1006F0000ACBAD1A002A1DDD42469E0053439B00E3
:10070000C91853469800059B47469C46099BAB4633
:100710009846159B994600234C44A2006244CD584C
:10072000D55004339842FAD1544401375C448919B6
:10073000B845F0D10BB03CBC90469946A246AB46BA
:10074000F0BD0024CCE7C046F0B5CE46474680B5A4
:10075000002B1DDD002A1BDD940000190C6800250C
:10076000A0464C689100D200494252428C469146C4
:10077000A400614646183100AA00424417681219C5
:1007800080C18142FAD14A460135B01AAB42F0D15C
:100790000CBC90469946F0BDF0B5DE4657464E4635
:1007A0004546E0B599B00B9024980C93259B0130F9
:1007B00001D122982490581C00D1229B2398C41761
:1007C00003202040239CA44660448010850007201D
:1007D000229C02958443200001940C9C002C00DC98
:1007E00085E20091190113912699249C0901511861
:1007F0001691411EC9080131C801490109919900AA
:10080000179126996B438C4663449B00D31812932F
:100810000023A400149415900493029B002B00DC89
:10082000C1E1099A009B944663441193169B03937C
:10083000002305930598049C0100A4460B9B039E8E
:100840000CCB59436144890051180D91411C594307
:100850006144890051180E91811C594361448900FB
:1008600051180F91C11C4B4363449B00D318109344
:10087000019B3400002B00DC44E2009B00259846DD
:1008800000234446A946AA46AB46A84607950695C6
:100890002F1C08950A9325683168281C0EF019F959
:1008A00059460EF0FFF871688346281C0EF011F9C6
:1008B00051460EF0F7F8B1688246281C0EF009F98F
:1008C00049460EF0EFF8F1688146281C0EF001F958
:1008D00008990EF0E7F8089065683169281C0EF059
:1008E000F8F8391C0EF0DEF87169071C281C0EF0B0
:1008F000F0F806990EF0D6F8B1690690281C0EF0B3
:10090000E8F807990EF0CEF8F1690790281C0EF070
:10091000E0F841460EF0C6F88046A568316A281C0A
:100920000EF0D7F859460EF0BDF8716A8346281CC0
:100930000EF0CFF851460EF0B5F8B16A8246281C89
:100940000EF0C7F849460EF0ADF8F16A8146281C52
:100950000EF0BFF808990EF0A5F80890E568316B25
:10096000281C0EF0B6F8391C0EF09CF8716B071CB1
:10097000281C0EF0AEF806990EF094F8B16B0690B4
:10098000281C0EF0A6F807990EF08CF8F16B079072
:10099000281C0EF09EF841460EF084F8804625692A
:1009A000316C281C0EF095F859460EF07BF8716CEE
:1009B0008346281C0EF08DF851460EF073F8B16C8A
:1009C0008246281C0EF085F849460EF06BF8F16C53
:1009D0008146281C0EF07DF808990EF063F8089007
:1009E0006569316D281C0EF074F8391C0EF05AF848
:1009F000716D071C281C0EF06CF806990EF052F869
:100A0000B16D0690281C0EF064F807990EF04AF8B4
:100A1000F16D0790281C0EF05CF841460EF042F88C
:100A20008046A569316E281C0EF053F859460EF029
:100A300039F8716E8346281C0EF04BF851460EF0C3
:100A400031F8B16E8246281C0EF043F849460EF08C
:100A500029F8F16E8146281C0EF03BF808990EF03B
:100A600021F80890E569316F281C0EF032F8391C26
:100A70000EF018F8716F071C281C0EF02AF8069962
:100A80000EF010F8B16F0690281C0EF022F80799AE
:100A90000EF008F8F16F0790281C0EF01AF8414686
:100AA0000EF000F88046803620340A9B019A083305
:100AB0000A939A4200DDEEE6159A039B9446594646
:100AC0006344381C1C000DF0EDFF5146071C0698CE
:100AD0000DF0E8FF4946061C07980DF0E3FF089962
:100AE000814640460DF0DEFF119B051C9B46229B74
:100AF0001900019B994230DD9A46A8465B4620CBFF
:100B00002168281C9B460DF0E4FF011C381C0DF0E9
:100B1000C9FF6168071C281C0DF0DBFF011C301C9D
:100B20000DF0C0FFA168061C281C0DF0D2FF011CAF
:100B300048460DF0B7FFE1688146281C0DF0C9FF5B
:100B4000011C40460DF0AEFF804601239C46229BCF
:100B5000E24410345345D1D1051C311C0E9E30683F
:100B60000DF09DFF391C0D9F041C38680DF097FF98
:100B7000291C109D3860346028680DF090FF0F9E8E
:100B80004946041C30680DF08AFF1399039A8C467D
:100B9000059B62440392029A0433306005932C60F3
:100BA0009A4200DD46E6239B029A934200DC92E0E3
:100BB000099A009B944663440593029B129D9846B4
:100BC0000B9B9B465B465E6843465E43049BA9467F
:100BD0009C465B461A6866449446B600019B664490
:100BE0000396002B00DC89E000232E0000249A46A7
:100BF000009F316838680DF06CFF211C0DF052FF2A
:100C0000041C716878680DF064FF211C0DF04AFF28
:100C1000041CB168B8680DF05CFF211C0DF042FFA8
:100C2000041CF168F8680DF054FF211C0DF03AFF28
:100C3000041C316938690DF04CFF211C0DF032FFA6
:100C4000041C716978690DF044FF211C0DF02AFF26
:100C5000041CB169B8690DF03CFF211C0DF022FFA6
:100C6000041CF169F8690DF034FF211C0DF01AFF26
:100C7000041C2036203708239C46019BE244534540
:100C8000B7DC099B9946059BA9449A46229B019E85
:100C9000B34210DD00274B46D9595346D8590DF0C1
:100CA00018FF011C201C0DF0FDFE041C229B0136C8
:100CB0000437B342EFD1211C039C20680DF0EFFEF6
:100CC00001239C46179BE0449C46239B206065447F
:100CD000434500D076E71499009A8C46049B624401
:100CE00000920C9A013304939A4200D095E519B012
:100CF0003CBC90469946A246AB46F0BD009B002402
:100D00009A46C3E70025009BA9469B462E1C2F1C34
:100D1000EDE6C04630B587B00C4B02AD00951A68C1
:100D2000694602929A880400AA809B796A46AB7150
:100D3000072301930023D3732DF0D8FF0098A84216
:100D400001D00EF05BF8200007B030BD50A20410B7
:100D5000F0B5DE4657464E464546E0B50E00016802
:100D6000C7688946416805698A4681688DB08B46A7
:100D700041698069079306905068136892680591ED
:100D80000A90291C30680B92099308950DF087FE94
:100D90000599039070680DF082FE0699051CB068F5
:100DA0000DF07DFE804607980DF016FF80231B0690
:100DB0009C46039E009001916644514630000DF020
:100DC00088FE5946061C281C0DF083FE011C301CB1
:100DD0000DF065FE391C061C404604970DF079FEA7
:100DE000011C301C0DF05BFE0DF0F6FE0022684B7E
:100DF0000CF023FE009A019B0CF01FFE06004846F3
:100E00000F000DF0E9FE02000B0030003900169CC7
:100E10000CF0ECFD0CF016FF4946206003980DF035
:100E200058FE5946061C40460DF053FE011C301C6E
:100E30000DF038FE0499061C281C0DF04AFE011C1A
:100E4000301C0DF02CFE0DF0C7FE0022504B0CF0B4
:100E5000F4FD009A019B0CF0F0FD060050460F00D7
:100E60000DF0BAFE02000B00300039000CF0BEFDA0
:100E70000CF0E8FE49466060281C0DF02AFE514641
:100E8000061C40460DF025FE011C301C0DF007FE2F
:100E90000499061C03980DF01CFE011C301C0DF07B
:100EA00001FE0DF099FE0022394B0CF0C6FD009AB0
:100EB000019B0CF0C2FD060058460F000DF08CFEA1
:100EC00002000B00300039000CF090FD0CF0BAFE6F
:100ED0004946A06040460DF0FCFD5146061C281C0A
:100EE0000DF0F7FD011C301C0DF0DCFD5946051C12
:100EF00003980DF0EEFD011C281C0DF0D0FD0DF047
:100F00006BFE0022224B0CF098FD009A019B0CF026
:100F100094FD060004980F000DF05EFE02000B0029
:100F2000300039000CF062FD0CF08CFE089B099932
:100F3000E060181C98460DF0CCFD079D291C0DF0B3
:100F4000C8FD011C40460DF0AAFD059F0A992061CD
:100F5000381C0DF0BEFD291C0DF0BBFD011C381C1A
:100F60000DF09DFD069E0B996061301C0DF0B1FDEA
:100F7000291C0DF0AEFD011C301C0DF090FDA06190
:100F800000200DB03CBC90469946A246AB46F0BD51
:100F90000000E03FF0B5DE4657464E4645468A46DD
:100FA0004168E0B58846C768816891B0066889469F
:100FB0004046391C141C04930DF08BFD4946051C5A
:100FC000301C0DF086FD0A90011C281C09950DF0BF
:100FD00066FD0DF001FE02000B000CF007FD06900F
:100FE0000791201C02940DF0F7FD0B000200040095
:100FF0000D00069807990CF020FD0CF023FE5246D8
:10100000391C106048460DF064FD83464146301C93
:101010000DF05FFD5A460E90011C58460B920DF0E4
:1010200041FD0DF0D9FD02000B000CF0DFFC0200C9
:101030000B00200029000C920D930CF0FEFC0CF02C
:1010400001FE5446311C6060301C0DF042FD4146EB
:10105000041C40460DF03DFD051C011C201C0DF03C
:101060001EFD4946089048460DF033FD391C834665
:10107000381C0DF02EFD5946019008980DF00FFD1B
:1010800001990DF00FFD02990F900DF022FD5346CE
:101090004946986040460DF01CFD391C8046301CC6
:1010A0000DF017FD81461A980DF096FD06001B986D
:1010B0000F000DF091FD02900391291C201C0DF0F2
:1010C000F1FC59460DF0EBFC01990DF0E8FC049998
:1010D0000DF0FFFC0DF080FD04000D004046494678
:1010E0000DF0E0FC0DF078FD02000B000CF07EFC32
:1010F00032003B000CF0A1FC02000B002000290094
:101100000CF074FC029A039B04000D0006980799EA
:101110000CF093FC02000B00200029000CF066FC90
:101120000CF090FD5346D86004980DF055FD040076
:101130000D00404649460DF0B2FC0DF04DFD020099
:101140000B000CF053FC22002B00049405950CF0CE
:1011500074FC04000D00089859460DF0A3FC019999
:101160000DF09DFC1A990DF0B4FC0DF035FD020058
:101170000B00200029000CF039FC029A039B0400AC
:101180000D000C980D990CF058FC02000B0020008B
:1011900029000CF02BFC0CF055FD53460A99186100
:1011A00009980DF07FFC0DF017FD02000B000CF00C
:1011B0001DFC049A059B0CF040FC04000D000B98EC
:1011C0000E990DF06CFC0DF007FD02000B000CF009
:1011D0000DFC32003B000CF030FC02000B00200044
:1011E00029000CF003FC04000D000F981B990DF072
:1011F00070FC0DF0F1FC02000B00200029000CF047
:10120000F5FB0CF01FFD53465861002011B03CBCAB
:1012100090469946A246AB46F0BDC046F0B50400E4
:10122000DE4657464E4645460800E0B54568096823
:10123000AA46856895B0AB46C5684669876910912E
:101240000E950169556810689268049690461A6870
:10125000069711925A689B6812921393FE239B057E
:10126000236099460DF01BFC0DF0B6FC0090019137
:101270001E980DF0B1FC06000F00009801990022A5
:10128000924B0CF0DAFB32003B000CF0D6FB0CF07A
:10129000D9FC04990390E061281C0DF000FC0DF0CE
:1012A0009BFC0022894B049005910CF0C6FB320098
:1012B0003B000CF0C2FB0CF0C5FC0699051CA063BA
:1012C00040460DF0ECFB0DF087FC00227F4B0690B2
:1012D00007910CF0B2FB32003B000CF0AEFB0CF0BF
:1012E000B1FC0A90606550460DF076FC0022784B08
:1012F000089009910CF0A1FB32003B000CF09DFB23
:101300000CF0A0FC0B90206758460DF065FC002205
:101310006F4B0C900D910CF090FB32003B000CF0E9
:101320008CFB0CF08FFC8C238246E0500E980DF065
:1013300053FC0022664B0E900F910CF07EFB3200A6
:101340003B000CF07AFB0CF07DFCA8238346E050B8
:101350000022009801995E4B0CF06FFB32003B00BD
:101360000CF06BFB0CF06EFC494600906060216253
:10137000002206980799564B0CF05FFB32003B00A9
:101380000CF05BFB0CF05EFCA5658046E0631098FA
:101390000DF022FC00224D4B0CF04FFB32003B00C5
:1013A0000CF04BFB0CF04EFC59469023051C60677B
:1013B0000022E1500C980D99444B0CF03EFB32009A
:1013C0003B000CF03AFB0CF03DFCAC230022E0505B
:1013D000049805993E4B0CF030FB32003B000CF0BA
:1013E0002CFB0CF02FFC49460A9A83466262009A55
:1013F000A0602164E2650E980F990022334B0CF037
:101400001CFB32003B000CF018FB0CF01BFC94237F
:101410000B99A067E5501C33E1504146E160594605
:10142000A162494621665146039BE16763640898BF
:1014300009990022254B0CF000FB32003B000CF018
:10144000FCFA0CF0FFFB9823E0501C33E55000251C
:101450001E9911982561E562A56465660DF039FB5A
:10146000011C48460DF01BFB8023E0501C33E55067
:101470001C33E550343B1E99129865612563E56481
:10148000A566E5500DF025FB011C48460DF007FB55
:10149000A023E0501C33E550343BA561656325650E
:1014A000E566E5501C33E5501E9913980DF011FBCD
:1014B000011C48460DF0F3FAC023E050002015B09F
:1014C0003CBC90469946A246AB46F0BD0000E0BF4A
:1014D0000000E03FF0B5DE4657464E464546E0B5D3
:1014E0009A460B68141C8A689B464B68C9688BB087
:1014F0000500101C8846009301920DF06DFB0290D0
:101500000391201C0DF068FBC02306000F00029819
:10151000039900221B060CF090FA32003B000CF0FD
:101520008CFA0CF08FFB0890286040460DF054FBBD
:1015300002000B000CF05AFA32003B000CF07DFA6E
:101540000CF080FB041CA86158460DF045FBC0233D
:1015500000221B06049005910CF06FFA32003B004C
:101560000CF06BFA0CF06EFB286300980DF034FB66
:1015700002000B00069007910CF038FA32003B0095
:101580000CF05BFA0CF05EFB002190238946A86406
:101590002966A967E95068600498059902000B0064
:1015A0000CF024FA32003B000CF047FA0CF04AFB36
:1015B0006C630490E8610298039902000B000CF040
:1015C00015FA32003B000CF038FA0CF03BFB4946B0
:1015D0009423E8646966E967E950C023069807998F
:1015E000049A1B06AA6000220CF027FA32003B0086
:1015F0000CF023FA0CF026FB089B4946AB638023D2
:1016000028622C65A966E9501833E95040461499C0
:101610000DF05FFA019F1599061C381C0DF059FA60
:101620005146041C58460DF054FA311C0DF03AFA9C
:10163000211C06940DF033FA011C0DF033FA5146CB
:101640000990E86000980DF044FA1499041C381CC5
:1016500001970DF03EFA011C201C0DF023FA15999C
:10166000041C40460DF035FA011C201C0DF01AFA3E
:10167000011C0DF017FA14990290686200980DF0A1
:1016800028FA1599089058460DF023FA019A8024FB
:10169000944624066444071C514620000DF019FAB4
:1016A00008990DF0FFF9391C0DF0F9F9011C0DF046
:1016B000F9F91499E86358460DF00BFA159904905E
:1016C00000980DF006FA802212064244041C51468E
:1016D00010000DF0FEF904990DF0E4F9211C0DF055
:1016E000E1F9011C0DF0DEF94A468423EA666865DB
:1016F000EA501833EA505146286101980DF0E9F993
:1017000008990DF0CCF9391C0DF0CCF9011C0DF045
:10171000C9F9071CA8628020029B00062B64514671
:1017200058440DF0D6F9311C0DF0B9F906990DF0B9
:10173000B9F9011C0DF0B6F98823A8654846286759
:10174000E8501833E850514640466F610DF0C1F93A
:1017500004990DF0A4F9211C0DF0A1F9011C0DF064
:10176000A1F9099AE8626A64029B4A46EB654B4616
:101770006B678C230020EA501833EA500BB03CBC56
:1017800090469946A246AB46F0BDC046F0B54546E8
:10179000DE4657464E46E0B53B4CC723A54434AA27
:1017A000944663441B091B0105938B680490319395
:1017B0000B6833911A6864462A929A692B921A6BC5
:1017C0002C929A6C2D921A6E2E929A6F2F929022D2
:1017D0009A5830925A680692DA6908925A6B0992BE
:1017E000DA6C0A925A6E0B92DA6F0C9294229A5823
:1017F0000D929A680E921A6A0F929A6B10921A6D55
:1018000011929A6E129280229A58139298229A58A4
:101810001492DA6815925A6A1692DA6B17925A6D18
:101820001892DA6E199284229A581A929C229A5827
:101830001B921A6932941C929A6A1D921A6C1E921B
:101840009A6D1F921A6F209288229A582192A02294
:101850009A5822925A692392DA6A24925A6C2592F3
:10186000DA6D26925A6F27928C229A582892A422D7
:101870009B5829934B689846C42343440793434697
:10188000E0461C0002E0C046ACFDFFFFE168A26834
:10189000894621692368484603912D990292019354
:1018A0000DF017F92E99824603980DF012F9011CDC
:1018B00050460DF0F7F8676982462F99381C0DF0F5
:1018C00008F9A66983463099301C0DF002F9011C15
:1018D00058460DF0E7F8011C50460DF0E3F8656836
:1018E00082462B99281C0DF0F4F82C998346029817
:1018F0000DF0EFF8011C58460DF0D4F82A998346F4
:1019000001980DF0E6F8011C58460DF0CBF8011CCB
:1019100050460DF0C7F84346494618600A980DF046
:10192000D8F8039982460B980DF0D3F8011C504665
:101930000DF0B8F8391C82460C980DF0CAF8311C2D
:1019400083460D980DF0C5F8011C58460DF0AAF815
:10195000011C50460DF0A6F8291C824608980DF08F
:10196000B8F80299834609980DF0B3F8011C58465F
:101970000DF098F80199834606980DF0AAF8011C1D
:1019800058460DF08FF8011C50460DF08BF8434679
:101990004946586011980DF09CF8039982461298B8
:1019A0000DF097F8011C50460DF07CF8391C82466A
:1019B00013980DF08EF8311C834614980DF089F8B9
:1019C000011C58460DF06EF8011C50460DF06AF8E7
:1019D000291C82460F980DF07CF8029983461098D6
:1019E0000DF077F8011C58460DF05CF8019983461C
:1019F0000E980DF06EF8011C58460DF053F8011CBE
:101A000050460DF04FF843464946986018980DF03F
:101A100060F80399824619980DF05BF8011C504656
:101A20000DF040F8391C82461A980DF052F8311C1E
:101A300083461B980DF04DF8011C58460DF032F806
:101A4000011C50460DF02EF8291C824616980DF008
:101A500040F80299834617980DF03BF8011C584650
:101A60000DF020F80199834615980DF032F8011C0D
:101A700058460DF017F8011C50460DF013F8434678
:101A80004946D8601F980DF024F8039982462098A3
:101A90000DF01FF8011C50460DF004F8391C824669
:101AA00021980DF016F8311C834622980DF011F89C
:101AB000011C58460CF0F6FF011C50460CF0F2FFDA
:101AC000291C82461D980DF004F8029983461E9841
:101AD0000CF0FFFF011C58460CF0E4FF019983460F
:101AE0001C980CF0F6FF011C58460CF0DBFF011CA3
:101AF00050460CF0D7FF43464946186126980CF033
:101B0000E8FF0399814627980CF0E3FF011C484643
:101B10000CF0C8FF391C814628980CF0DAFF311C04
:101B2000071C29980CF0D5FF011C381C0CF0BAFFDB
:101B3000011C48460CF0B6FF291C061C24980CF02A
:101B4000C8FF0299051C25980CF0C3FF011C281C36
:101B50000CF0A8FF0199051C23980CF0BAFF011C9A
:101B6000281C0CF09FFF011C301C0CF09BFF43460F
:101B7000586118239C46079B1C34E044A34200D0C4
:101B800084E6319A1368089393690993136B0A9357
:101B9000936C0B93136E0C93936F0D939023D35808
:101BA0000E9353680F93D3691093536B1193D36CB7
:101BB0001293536E1393D36F14939423D3581593A6
:101BC00093681693136A1793936B1893136D199375
:101BD000936E1A938023D3581B939823D3581C9346
:101BE000D3681D93536A1E93D36B1F93536D209339
:101BF000D36E21938423D35822939C23D3582393C9
:101C000013692493936A2593136C2693936D2793FA
:101C1000136F059C28938823D35820342993A0233D
:101C2000D358A1462A9353692B93D36A2C93536CB0
:101C30002D93D36D2E93536F2F938C23D3583093C2
:101C4000A423D358319358AB0693329B1A0098467D
:101C50001832079243464246414640461B68956902
:101C60000193069B146B096E926C40CB876F0291B7
:101C7000101C0B99039206930CF02BFF0C998246D3
:101C800002980CF026FF011C50460CF00BFF0D993A
:101C90008246381C0CF01DFF0E998346301C0CF058
:101CA00018FF011C58460CF0FDFE011C50460CF0BC
:101CB000F9FE09998246281C0CF00BFF0A9983460D
:101CC000201C0CF006FF011C58460CF0EBFE089996
:101CD000834601980CF0FDFE011C58460CF0E2FE14
:101CE000011C50460CF0DEFE4B461299186003981A
:101CF0000CF0EFFE1399824602980CF0EAFE011CEC
:101D000050460CF0CFFE14998246381C0CF0E1FED0
:101D100015998346301C0CF0DCFE011C58460CF073
:101D2000C1FE011C50460CF0BDFE10998246281CD5
:101D30000CF0CFFE11998346201C0CF0CAFE011C4A
:101D400058460CF0AFFE0F99834601980CF0C1FE87
:101D5000011C58460CF0A6FE011C50460CF0A2FED9
:101D60004B461999586003980CF0B3FE1A998246B5
:101D700002980CF0AEFE011C50460CF093FE1B992D
:101D80008246381C0CF0A5FE1C998346301C0CF0D2
:101D9000A0FE011C58460CF085FE011C50460CF0BC
:101DA00081FE17998246281C0CF093FE18998346F1
:101DB000201C0CF08EFE011C58460CF073FE169988
:101DC000834601980CF085FE011C58460CF06AFE13
:101DD000011C50460CF066FE4B4620999860039813
:101DE0000CF077FE2199824602980CF072FE011CDD
:101DF00050460CF057FE22998246381C0CF069FEC2
:101E000023998346301C0CF064FE011C58460CF0EC
:101E100049FE011C50460CF045FE1E998246281CC6
:101E20000CF057FE1F998346201C0CF052FE011C3B
:101E300058460CF037FE1D99834601980CF049FE78
:101E4000011C58460CF02EFE011C50460CF02AFED8
:101E50004B462799D86003980CF03BFE28998246A0
:101E600002980CF036FE011C50460CF01BFE29991E
:101E70008246381C0CF02DFE2A998346301C0CF04B
:101E800028FE011C58460CF00DFE011C50460CF0BB
:101E900009FE25998246281C0CF01BFE26998346D4
:101EA000201C0CF016FE011C58460CF0FBFD24997A
:101EB000834601980CF00DFE011C58460CF0F2FD13
:101EC000011C50460CF0EEFD4B462E99186103980C
:101ED0000CF0FFFD2F99824602980CF0FAFD011CD0
:101EE00050460CF0DFFD30998246381C0CF0F1FDB5
:101EF0003199071C301C0CF0ECFD011C381C0CF057
:101F0000D1FD011C50460CF0CDFD2C99061C281C5F
:101F10000CF0DFFD2D99051C201C0CF0DAFD011CD6
:101F2000281C0CF0BFFD2B99041C01980CF0D1FD6E
:101F3000011C201C0CF0B6FD011C301C0CF0B2FD85
:101F40004B46586104239C461433E0449C46079B4F
:101F5000E144984500D07DE6339B059DDC68296A05
:101F600020680CF09FFD049EA96B306060680CF047
:101F700099FD7060A068296D0CF094FDB060E06878
:101F8000A96E0CF08FFD8023F0602069E958984617
:101F90000CF088FD98233061E95860690CF082FDEF
:101FA0007061A069696A0CF07DFDB061E069E96B60
:101FB0000CF078FDF061206A696D0CF073FD306201
:101FC000E96E606A0CF06EFD84277062A06AE959C0
:101FD0000CF068FD9C23B062E958E06A0CF062FDE9
:101FE000F062206BA96A0CF05DFD3063606B296CB8
:101FF0000CF058FD7063A06BA96D0CF053FDB0633D
:10200000E06B296F0CF04EFD0496F0638826206C7F
:10201000A9590CF047FD049B1864A023606CE95893
:102020000CF040FD049BE96A5864A06C0CF03AFD8A
:10203000049B696C9864E06C0CF034FD049BE96DC2
:10204000D864206D0CF02EFD049B696F1865606DDF
:1020500005950CF027FD8C25049A059B5065A06D15
:1020600059590CF01FFDA423049A9065059AE06D60
:10207000D1580CF017FD0499059AC865206E116BB4
:102080000CF010FD0499059A0866916C606E0CF0D6
:1020900009FD0499059A4866A06E116E0CF002FDC8
:1020A0000499059A8866E06E916F0CF0FBFC902312
:1020B0000499059AC866206FD1580CF0F3FCA82348
:1020C0000499059A0867606FD1580CF0EBFC0499ED
:1020D000059A4867A16F506B0CF0E4FC0499059ACF
:1020E0008867E16FD06C0CF0DDFC0499059AC86735
:1020F00040462158506E0CF0D5FC4146049B059A91
:102100005850E159D06F0CF0CDFC049BD85194236A
:10211000059FA159F8580CF0C5FC049B9851AC23BD
:102120006159F8580CF0BEFC049B585195239B0054
:102130009D443CBC90469946A246AB46F0BDC04685
:10214000F0B54E464546DE4657460023E0B51360DF
:10215000836887B09846049200230268052691465A
:102160000093013B019003910293052345469B1B7D
:102170009A465D434B46002B00D197E15544AD0094
:102180004D442B685C006B6864085F007F08391C55
:10219000381C0CF0E8FC002800D0E8E0211C381CBA
:1021A0000CF0DCFC002800D0E8E00027731C9B4604
:1021B000012E53D0AB685B005B08191C181C9846B5
:1021C0000CF0D1FC002800D04DE14046211C0CF061
:1021D000C5FC002801D0444602275B46032B3DD0B6
:1021E000EB685B005B08191C181C98460CF0BBFCE4
:1021F000002800D03FE14146201C0CF0A1FC002843
:1022000001D0444603275B46042B27D02B695B0093
:102210005B08191C181C98460CF0A5FC002800D07F
:1022200031E14146201C0CF08BFC002801D04446D3
:1022300004275B46052B11D06D696D006D08291CC4
:10224000281C0CF090FC002800D024E1291C201C44
:102250000CF076FC002801D005272C1C039B009A6B
:10226000574400219F50201C0CF062FC002800D134
:1022700087E0029B013300D1EBE05746019B9B684E
:1022800098465F4306239C1B06239B1BDF1943468E
:10229000424663439D001C19002392009346009A16
:1022A0009A469446BF006544A4004F444D444C44B4
:1022B000396828680CF00DFC011C20680CF0EFFB5D
:1022C0002060012E29D0796828680CF002FC011CDE
:1022D00060680CF0E4FB6060022E1ED02968B868CC
:1022E0000CF0F7FB011CA0680CF0D9FBA060032EDA
:1022F00013D02968F8680CF0ECFB011CE0680CF0C6
:10230000CEFBE060052E08D1296838690CF0E1FBAE
:10231000011C20690CF0C3FB206101239C46E244B0
:102320005D445C445645C3D1009B013E0433009399
:10233000002E00D019E70523039A00215361019B69
:102340009A68013293009B184A469B0098580CF0FB
:10235000EFFB002803D0029B013300D1A3E00298D9
:1023600007B03CBC90469946A246AB46F0BD211C46
:10237000201C0CF0F8FB002800D00FE73C1C0127C4
:1023800014E757452FD049464C46019ABB000098A8
:102390004B441D68926809589200255048441960C2
:1023A00081189B1808681C680C60186089189B18B5
:1023B00008681C680C60186089189B1808681C68FD
:1023C0000C60186089189B1808681C680C601860FD
:1023D00089189B1818680A6808601A60049A1368BC
:1023E0000593013313605746019B4A469B685F4340
:1023F000984606239C1B5346FB183D199B009B588F
:10240000AD004D442868191C9A460CF04EFB28601C
:10241000012E00D138E7686851460CF046FB686031
:10242000022E00D130E7A86851460CF03EFBA860B0
:10243000032E00D128E7E86851460CF036FBE8602F
:10244000042E00D120E7286951460CF02EFB2861AC
:102450001AE75746019B9B6898465F4306239C1BDF
:102460005346029310E7211C201C0CF07CFB002833
:1024700000D1B0E6A9E6211C201C0CF074FB00285A
:1024800000D1BEE6B7E6211C201C0CF06CFB002836
:1024900000D1CCE6C5E6211C201C0CF064FB002812
:1024A00000D1D9E6D2E60523029358E71B68FFDE88
:1024B000F0B5DE464E4645465746E0B589B001AF19
:1024C0003A000500059005AB03CB03C26B682C00F6
:1024D0005800AB684008590049080CF0E3FA2B6833
:1024E000590049080CF0DEFA2B69061C58006B698C
:1024F0004008590049080CF0D5FAEB685900490822
:102500000CF0D0FA011C301C0CF0CCFAEB698046C0
:1025100058002B6A4008590049080CF0C3FAAB690F
:10252000590049080CF0BEFAAB6A061C5800EB6A69
:102530004008590049080CF0B5FA6B6A590049087F
:102540000CF0B0FA011C301C0CF0ACFA6B6B81463D
:102550005800AB6B4008590049080CF0A3FA2B6BEC
:10256000590049080CF09EFA2B6C061C58006B6C45
:102570004008590049080CF095FAEB6B59004908DE
:102580000CF090FA011C301C0CF08CFA061C011C9B
:1025900048460CF0D5FA002800D14E464046311C82
:1025A0000CF0CEFA002800D14646E36C5800236DAB
:1025B0004008590049080CF075FAA36C5900490805
:1025C0000CF070FAA36D80465800E36D4008590086
:1025D00049080CF067FA636D590049080CF062FA7B
:1025E000011C40460CF05EFA636E80465800A36EF4
:1025F0004008590049080CF055FA236E5900490863
:102600000CF050FA236F81465800636F4008590060
:1026100049080CF047FAE36E590049080CF042FAF9
:10262000011C48460CF03EFAE36F814658008023B7
:10263000E1584008490049080CF034FAA36F5900EA
:1026400049080CF02FFA88238246E0580433E158F9
:1026500040004900490840080CF024FA8423E1585E
:10266000490049080CF01EFA011C50460CF01AFAF9
:10267000041C011C48460CF063FA002800D14C46AB
:102680004046211C0CF05CFA002800D14446211C75
:10269000301C0CF055FA002800D1341CC02329004E
:1026A000EC503A00BA3BA83104A806930495FFF712
:1026B00047FD0121C422019B98260B405B428B43BE
:1026C0000133AB54343A9246002250469C272A509C
:1026D0009432A9509346923AAA510132EA519D325E
:1026E000944660469C3A2A50A03291469F3A9046C2
:1026F0004A4640462B00A85048461832AA58903304
:1027000092009A1814682C50404610606046B82217
:102710002858AA588046604692009A1814682C508F
:1027200040461060B422E859AA58844692009A188C
:1027300010685C46E85160461060B022AA58AF5954
:1027400092009A181068A8511760AC225846AA58EF
:102750002E5892009A18106828511660A822AA587C
:10276000544692009B1852461868AA5828511A607D
:10277000C523E95409B03CBC90469946A246AB46F5
:10278000F0BDC046C023002210B5C2500022043361
:10279000C2520B68040003604B6843608B6883601F
:1027A000CB68C3600B6903614B6943618B698361CB
:1027B000CB69C3610B6A03624B6A43628B6A8362B3
:1027C000CB6AC3620B6B03634B6B43638B6B83639B
:1027D000CB6BC3630B6C03644B6C43648B6C836483
:1027E000CB6CC3640B6D03654B6D43658B6D83656B
:1027F000CB6DC3650B6E03664B6E43668B6E836653
:10280000CB6EC3660B6F03674B6F43678B6F83673A
:10281000CB6FC3678023CA58C2500433CA58C25012
:102820000433CA58C2500433CA58C250FFF740FE9E
:10283000200010BD10B5037A0400002B07D00068FB
:10284000002804D0431E1B78C01A0CF0ABFA2000FD
:1028500010BDC046F0B557464E464546DE46E0B58B
:10286000B5B006AFFB64EC23E84DF861F9633A6755
:10287000FB181E682B78BFF35B8FDB0700D484E264
:10288000E34C6368FA699A4633697B62B3683B62DA
:10289000934200DD3A627A6A3B6A53439946FB6B86
:1028A000534398468023DB05994500D351E23368B2
:1028B0003B65002B00D155E24B4600249D00A02330
:1028C000A422FB181C604B46BA18136080239B029D
:1028D000AB42AD41A8236D42FB181D708023DB0580
:1028E000984500D319E27368FB60002B00D11DE20C
:1028F000434600249D00AC23B022FB181C604346D5
:10290000BA18136080239B02AB42AD41B4236D42E1
:10291000FB181D7004237B64FB6B002B15DDE82086
:102920003A18FB6912681900934200DAF3E1504645
:1029300009010AF00BFE0323C21713401B189B105A
:102940009B007B64042B00DAE2E1F969002900DCDA
:102950007BE17B6AB9611A00C91A9C463961E8219A
:10296000F86C9B0042433B60BA607B1862441B6872
:102970007A607A6C5343BB628300FB650433BB65AA
:10298000431C9B00BB667B181B689B007B66E02397
:10299000FB181B683B6300237B63BB637B613B6667
:1029A0008C20BB693A1813607A6A934201DD3B18A8
:1029B0001A60FB6B002B00DC18E18C23FB181B68F2
:1029C000002B00DC12E1FA6BBA647A6C53439B0073
:1029D000FB62FB687B6700237B653B6498339A4608
:1029E000BA448020BB6C3A1813607A6C934201DDC4
:1029F0003B181A603A6B7B6D944690229B006344AF
:102A0000BA18136084227B6BBA181360BB6BFB6728
:102A1000002399468C234A46FB181B689B1A98464C
:102A2000BB67042B01DD042398463B6E94224B4484
:102A3000FB6643465E1E8423FB181B68BA189D0084
:102A40003B6F9C469023FB181B6865441360002E67
:102A500046D094238822FB181C680023B3462E001E
:102A6000BA18136025687168281C0CF032F8011C34
:102A700060680CF014F85B466060012B14D0B168FC
:102A8000281C0CF026F8011CA0680CF008F85B4626
:102A9000A060022B08D0F168281C0CF01AF8011C69
:102AA000E0680BF0FCFFE0608822BB181B68BA18D6
:102AB000013313607A6E94468022BA181268644417
:102AC0009342CFD19422BB6E35005E469C46BB1824
:102AD0001B68BA180433013E65441360002EB8D158
:102AE0004246BB6F51469C1A90225346BA18126850
:102AF0001A60E822BA1812685A604B4601938C2378
:102B0000FB181B68424600938023FB181B68786FF4
:102B1000FDF770FD002C37DDFB6E3A6F43441D005E
:102B200094465246FB6F3E6D5B199B0063441360F5
:102B30005346FA6C51465A60300023004246FDF776
:102B400003FE7B6DE8229C46E023FB181B6865446E
:102B50009C465346BA181268AD0065441D605A6021
:102B60004B4604938C23FB181B68310003934346A8
:102B700002938023FB181B68504601934346009341
:102B80007A6F2300FDF708FE04239C46FA6DE144AA
:102B900094469022FB6F84216344FB67BB181B683B
:102BA000BA1810331360BA6D7B1894461B687A18F4
:102BB000634413608C23FB181B684B4500DD29E739
:102BC0007A6CB96C94463B6C8A1AB96A63448C4639
:102BD000BA64F96A7A6D3B6462448C467A657A6FAE
:102BE00062447A67FA6B9A4200DDFAE67A6A3B6ED3
:102BF0009446FA6963443B669A4226DD3A6A002AA3
:102C000036DCF9699B189942FCDC03E0682103205B
:102C10002C370320BA697B6A7969D21ABA61BA681B
:102C20000800944639697A68CB1A3B61BB6B6044F3
:102C300063449446BB633A687B6B78616344944613
:102C40007B633B6B63443B63AAE6982414233A19E5
:102C5000D018FFF7EFFD08233A19D018FFF7EAFD67
:102C6000BD462FB03CBC90469946A246AB46F0BD4F
:102C70003A6F7B69944694229B006344BA181360B0
:102C80003B6E3E69984698239A4600239B46013B3B
:102C900099463300BA444646544698463B6AC24673
:102CA000984500DD9A4694238C22FB181B68B500DA
:102CB000EB182360FB6CB9180A68386D210063605B
:102CC0005346FDF741FDE02179180B68E82179189A
:102CD0009C460B68654463605B46256004934B46E5
:102CE00003930293FB6B200001938C23FB181B685A
:102CF0000093FA685346396DFDF74EFD42463B6A34
:102D00009C46D31A9846FB696644B342C6DC81E709
:102D100004237B6419E6110009E6012040420CF00F
:102D200065F87368FB60002B00D0E1E543469D0029
:102D300080239B029D424AD82B006A461633DB084B
:102D4000DB00D31A9D4627240F236C449C43FC6070
:102D5000D1E5012040420CF049F833683B65002B77
:102D600000D0A9E54B469D0080239B029D421ED8C2
:102D70002B006A461633DB08DB00D31A9D46272456
:102D80000F236C449C433C6599E528000EF0F8FC49
:102D90001D4C002800D174E58023DB0123608023D3
:102DA0001B0328006360A3600EF006FD69E52800A0
:102DB00010300BF0D9FF041E19D00F22102302404F
:102DC0009B1ADBB2C418621E13703C6577E52800BD
:102DD00010300BF0C9FF041E0FD00F221023024049
:102DE0009B1ADBB2C418621E1370FC6083E50120DD
:102DF00040420BF0FBFF3C6561E5012040420BF0D7
:102E0000F5FFFC6077E5C0462C370320F0B5DE46C1
:102E100057464E464546E0B5B9B006AFFB67FC23C2
:102E2000384DB963BA64FB181E682B788346BFF32C
:102E30005B8FDB0700D4C1E2334C63689A46336989
:102E40007B61B3683B615B4501DD5B463B617A6951
:102E50003B6953439946BB6B534398468023DB053C
:102E6000994500D38EE233683B65002B00D192E296
:102E70004B4600249D00B023B422FB181C604B4637
:102E8000BA18136080239B02AB42AD41B8236D4258
:102E9000FB181D708023DB05984500D356E273684C
:102EA000FB61002B00D15AE2434600249D00BC2365
:102EB000C022FB181C604346BA18136080239B0293
:102EC000AB42AD41C4236D42FB181D7004233B642B
:102ED000BB6B002B1ADDF823FB181B6859469B457A
:102EE00000DA2FE2504609010AF030FB0323C21733
:102EF00013401B189B109B003B64042B00DA1EE25E
:102F000004E0C046682103202C3703205B46002BD9
:102F100000DC00E2FA6F78691100434259430B006C
:102F2000F96059460C1A110062431B1A9B00BA61E2
:102F3000BB600A000B0059464B43B96C5B448C469E
:102F4000F0219B006344FB627918830009685B42AF
:102F50007B605B468C46F8219B00634479180968C6
:102F60003B633B6C7C634B433B6293005B423B6641
:102F7000043B7B659B00BB65D3439B00A422BB66DF
:102F80008B007B665B46BA1813600300A422BA1854
:102F900012683B67934200DD3A67BB6B002B00DC95
:102FA00058E13A6F002A00DC54E17B643B6C396BDA
:102FB00053439B007B62FB69FB669300CB1ABB62A9
:102FC00000237B67FB63A433FB181B6803219B1A58
:102FD000BB671300013B043A8B43D31AFB65902275
:102FE0007B6CBA1813603A6C934202DD9023FB1895
:102FF0001A60BA6A7B6F94469B009C446246FA64EE
:103000003A6B944698226344BA1813609422FB6A80
:10301000BA1813603B6F9A465346D346042B01DD22
:1030200004239B468022BB6FBA18534413605B464F
:103030005E1E7B6DF96F99469423FB181A685B46F8
:1030400090465B425B1A9B00A422C1449844012332
:10305000BA185B4213604B46FE20196880050BF0DE
:1030600024FD8C239821FB181860A4237918096883
:10307000FB188C4684211A687918931B9C009B00CE
:103080005B420B6093009C22BA181360A0220023BD
:10309000BA18644413608423FB181B6888229C467A
:1030A000A4446346BA1813609C22BA18126899584F
:1030B0008C23FB1818680BF00CFD88239C22FB184E
:1030C000BA181B681268051C9850002E20D0434681
:1030D00019680BF0FEFC011C20680BF0E0FC20607E
:1030E000012E15D04346281C59680BF0F2FC011C38
:1030F00060680BF0D4FC6060022E09D04346281CA7
:1031000099680BF0E6FC011CA0680BF0C8FCA060FD
:10311000A023A022FB181B68BA18013313607A6E33
:1031200094469022BA18126864449342B3D1A423FF
:10313000A422FB181B68BA18013B1360BB6E9C46A7
:103140003B6EE1449C46E044013E84D25A465346DD
:103150009C1A8023FB181B68A8219D1AF022BA181C
:1031600012687B6F9446A8225B199B006344BA18CF
:103170001360F823AC22FB181B68BA181360902365
:1031800001943E6FFB1800961B68F86E5A4679183A
:1031900099468046FDF72EFA002C2DDDBA6FF96FA7
:1031A00094464D43BA6C6544A8239446AD006544EB
:1031B000FB181D60AC23FB181960A82123005A4698
:1031C000386D7918FDF7C0FAA823FD6CFB181D6057
:1031D000F823FB181D68AC23FB181D605D464B46A9
:1031E000A82001930494039602950095230042467B
:1031F000396D3818FDF7D0FA04235B429C46BA6D4E
:10320000E244944694229833FB181B68BA1863442E
:10321000136098239822FB181B68BA18103B1360A0
:10322000FB6D534500D0F7E63A6C796C9446FB6B26
:103230008A1A796A63448C467A64396AFA6EFB6347
:1032400062448C46FA667A6F62447A67BA6B9A4235
:1032500000DDC4E6A4227B6BBA181360002B5ADD94
:10326000BA6C1C009146BB6900259B009944002361
:10327000CB469A463E69A046B44200DDB04643467E
:10328000002B2EDDA822AB009946BA185B441360D0
:10329000AC22A821FB6FBA181360386D43463A6F11
:1032A0007918FDF751FAF023A822FB181B68BA1809
:1032B0004B441360F823AC22FB181B68BA18136048
:1032C000534604930123A8205B4203930293BB6BF4
:1032D000381801933B6F0093FA694346396DFDF747
:1032E0005BFA7B6BAD19A41BAB42C4DCFA68BB690B
:1032F0009446BA6863449446BB617A68FB6A634447
:103300009446FB623B6B7A6963443B637B6B9B1A1D
:103310007B6313003AE6A8221423BA18D018FFF7EB
:1033200089FAA8220823BA18D018FFF783FABD46F5
:1033300033B03CBC90469946A246AB46F0BD042350
:103340003B64E3E5F823FB181968CBE50120404214
:103350000BF04CFD7368FB61002B00D0A4E54346E5
:103360009D0080239B029D424AD82B006A4616335B
:10337000DB08DB00D31A9D4627240F236C449C43B3
:10338000FC6194E5012040420BF030FD33683B6561
:10339000002B00D06CE54B469D0080239B029D4294
:1033A0001ED82B006A461633DB08DB00D31A9D4675
:1033B00027240F236C449C433C655CE528000EF0F9
:1033C000DFF91D4C002800D137E58023DB012360A5
:1033D00080231B0328006360A3600EF0EDF92CE549
:1033E000280010300BF0C0FC041E19D00F2210234F
:1033F00002409B1ADBB2C418621E13703C653AE5AA
:10340000280010300BF0B0FC041E0FD00F22102348
:1034100002409B1ADBB2C418621E1370FC6146E5C1
:10342000012040420BF0E2FC3C6524E501204042D3
:103430000BF0DCFCFC613AE52C370320F0B5DE46EE
:1034400045464E465746E0B5214C1600A5443AAADB
:1034500094460A000B931F4B099063441B09049187
:103460001D01FDAB13CA13C313CA13C31268FDA910
:103470001A60194B194A1B6847A80593184B47ACAB
:103480001B680193174B1B6806930093059BFEF77F
:1034900021F83AAA944647ABFD93FF93124BFFAA3B
:1034A00063441B680432FE9613608623DB009C464F
:1034B000AC446046CCAAFDA90D90FEF767F96BAB52
:1034C0000C9323000A9498462C000E950EE0C046FB
:1034D0006CF6FFFFEF030000FC1E03200AE81C410E
:1034E000F41E0320F81E0320D8080000434640467F
:1034F00045461B68806C05930C9BAF6F814620CBC3
:103500004146404642460C93A823096B006E9269DF
:1035100007910890F158281C06920BF0DAFA8C23D8
:103520008246F158381C0BF0D4FA011C50460BF0BF
:10353000B9FA316F824608980BF0CBFA716D834669
:1035400048460BF0C6FA011C58460BF0ABFA011CBA
:1035500050460BF0A7FAB16B824607980BF0B9FA08
:10356000F169834606980BF0B4FA011C58460BF03B
:1035700099FA3168834605980BF0ABFA011C58465E
:103580000BF090FA011C50460BF08CFAAC23206033
:10359000F158281C0BF09DFA90238246F158381CF4
:1035A0000BF097FA011C50460BF07CFA716F8246C3
:1035B00008980BF08EFAB16D834648460BF089FAF5
:1035C000011C58460BF06EFA011C50460BF06AFACB
:1035D000F16B824607980BF07CFA316A83460698B5
:1035E0000BF077FA011C58460BF05CFA71688346C1
:1035F00005980BF06EFA011C58460BF053FA011CAB
:1036000050460BF04FFAB0236060F158281C0BF0C5
:1036100060FA94238246F158381C0BF05AFA011CC8
:1036200050460BF03FFAB16F824608980BF051FA02
:10363000F16D834648460BF04CFA011C58460BF0DE
:1036400031FA011C50460BF02DFA316C8246079876
:103650000BF03FFA716A834606980BF03AFA011CA8
:1036600058460BF01FFAB168834605980BF031FA03
:10367000011C58460BF016FA011C50460BF012FACA
:10368000B423A060F158281C0BF023FA982382463B
:10369000F158381C0BF01DFA011C50460BF002FAD1
:1036A000F16F824608980BF014FA316E8346484653
:1036B0000BF00FFA011C58460BF0F4F9011C5046B0
:1036C0000BF0F0F9716C824607980BF002FAB16AC0
:1036D000834606980BF0FDF9011C58460BF0E2F901
:1036E000F168834605980BF0F4F9011C58460BF07D
:1036F000D9F9011C50460BF0D5F9B823E060F15818
:10370000281C0BF0E6F99C238246F158381C0BF07C
:10371000E0F9011C50460BF0C5F980238246F158B0
:1037200008980BF0D6F9716E834648460BF0D1F934
:10373000011C58460BF0B6F9011C50460BF0B2F9CB
:10374000B16C824607980BF0C4F9F16A834606987B
:103750000BF0BFF9011C58460BF0A4F93169834600
:1037600005980BF0B6F9011C58460BF09BF9011CAB
:1037700050460BF097F9BC232061F158281C0BF040
:10378000A8F9A0238246F158381C0BF0A2F9011CBD
:1037900050460BF087F984238246F15808980BF0C5
:1037A00098F9B16E834648460BF093F9011C5846D0
:1037B0000BF078F9011C50460BF074F9F16C82465D
:1037C00007980BF086F9316B834606980BF081F968
:1037D000011C58460BF066F97169834605980BF099
:1037E00078F9011C58460BF05DF9011C50460BF0AE
:1037F00059F9F16E606148460BF06BF988238146F8
:10380000F15808980BF065F9011C48460BF04AF98D
:10381000A4238146F158381C9A460BF05AF9C0236C
:10382000071CF158281C0BF054F9011C381C0BF034
:1038300039F9011C48460BF035F9716B051C0698E7
:103840000BF047F9316D071C07980BF042F9011C8A
:10385000381C0BF027F9B169071C05980BF039F9F2
:10386000011C381C0BF01EF9011C281C0BF01AF966
:1038700004239C464DABE044A0611C34984500D025
:1038800034E6D8230E9D9B00EC1820000D99FEF71E
:1038900079FFA4239B009B46AB442100902258460D
:1038A0000BF09EFAC8239B00EC18D033E9181822BD
:1038B00020000BF095FACE239B00E818D033E918CE
:1038C00018220BF08DFA8422D423D200AA18126891
:1038D0009B00EB181A60D523744A2F00AA1812888F
:1038E0009B00EB18FE211A8000232268B03792005B
:1038F000BA18890511609361136393641366936723
:10390000C9229200AA181268D13C9200BA1813601A
:1039100091611363936413669367CA229200AA1895
:103920001268FF3C9200BA181360936111639364AC
:1039300013669367CB229200AA18126806209200A1
:10394000BA18136093611363916413669367CC2272
:103950009200AA1812689200BA1813609361136358
:10396000936411669367CD229200AA1812689200A0
:10397000BA18136093611363936413660623A360FC
:10398000E360236198466B33FF339946A9449167FE
:103990004A46203BEA50802292009446AC4462465C
:1039A000414662604B3B02910539059203945A46A9
:1039B0000191FF3B05310097FEF74CFF4046A823DD
:1039C000A060E060206148465B00E850012143466A
:1039D000059A062062600394029301915A4600976B
:1039E0000531FFF713FA2B68B8461C93EB69FDAC61
:1039F0001D93AB6B1E936B6D1F932B6F20938C23CA
:103A0000EB5821936B682B932B6A2C93EB6B2D93C4
:103A1000AB6D22936B6F23939023EB582493AB6889
:103A200025936B6A26932B6C2793EB6D2893AB6FD2
:103A300029939423EB582A93EB682E93AB6A1B933C
:103A40006B6C07932B6E0C93EB6F0D939823EB58D5
:103A50000E932B690F93EB6A1093AB6C11936B6E03
:103A60002F938023EB5830939C23EB5831936B6951
:103A700012932B6B1393EB6C34961493AB6E1593DC
:103A80008423EB581693A023EB581793AB69189334
:103A90006B6B19932B6D1A93EB6E32938823EB5853
:103AA00008935346EB58339302E0C04624040000C9
:103AB00043461F685B6842469946434641469B68B9
:103AC000D2680E694D691D984946059306920BF020
:103AD00000F8059982461E980AF0FBFF011C50462B
:103AE0000AF0E0FF391C82461C980AF0F2FF011C24
:103AF00050460AF0D7FF311C824620980AF0E9FFB1
:103B0000291C834621980AF0E4FF011C58460AF05C
:103B1000C9FF069983461F980AF0DBFF011C58462F
:103B20000AF0C0FF011C50460AF0BCFF4946206065
:103B30002C980AF0CEFF059982462D980AF0C9FF0D
:103B4000011C50460AF0AEFF391C82462B980AF041
:103B5000C0FF011C50460AF0A5FF311C8246239885
:103B60000AF0B7FF291C834624980AF0B2FF011C13
:103B700058460AF097FF0699834622980AF0A9FF53
:103B8000011C58460AF08EFF011C50460AF08AFFBD
:103B90004946606026980AF09CFF0599824627985E
:103BA0000AF097FF011C50460AF07CFF391C824640
:103BB00025980AF08EFF011C50460AF073FF311C55
:103BC000824629980AF085FF291C83462A980AF024
:103BD00080FF011C58460AF065FF06998346289825
:103BE0000AF077FF011C58460AF05CFF011C5046A2
:103BF0000AF058FF4946A0601B980AF06AFF059931
:103C0000824607980AF065FF011C50460AF04AFFF9
:103C1000391C82462E980AF05CFF011C50460AF0BF
:103C200041FF311C82460D980AF053FF291C834640
:103C30000E980AF04EFF011C58460AF033FF069911
:103C400083460C980AF045FF011C58460AF02AFFEB
:103C5000011C50460AF026FF4946E06010980AF021
:103C600038FF0599824611980AF033FF011C50462F
:103C70000AF018FF391C82460F980AF02AFF011C2F
:103C800050460AF00FFF311C824630980AF021FF9F
:103C9000291C834631980AF01CFF011C58460AF083
:103CA00001FF069983462F980AF013FF011C58461E
:103CB0000AF0F8FE011C50460AF0F4FE4946206165
:103CC00013980AF006FF0599824614980AF001FF3E
:103CD000011C50460AF0E6FE391C824612980AF092
:103CE000F8FE011C50460AF0DDFE311C8246169893
:103CF0000AF0EFFE291C834617980AF0EAFE011C21
:103D000058460AF0CFFE0699834615980AF0E1FE60
:103D1000011C58460AF0C6FE011C50460AF0C2FEBD
:103D20004946606119980AF0D4FE059981461A98AF
:103D30000AF0CFFE011C48460AF0B4FE391C814649
:103D400018980AF0C6FE011C48460AF0ABFE311C6A
:103D5000071C08980AF0BDFE291C061C33980AF0BF
:103D6000B8FE011C301C0AF09DFE0699051C329815
:103D70000AF0AFFE011C281C0AF094FE011C381C3E
:103D80000AF090FE18239C46FFABA061A0331C34C0
:103D9000E044A34200D08BE6FD9BFE9A069371930C
:103DA000FFAB5C680433FFAB9D680833FFABDF6893
:103DB0000C33FFAB10331B68FF990F937793FFAB66
:103DC0001433079272921A68FFAB183308917391FB
:103DD0001968FFAB1C330C9474941C68FFAB203340
:103DE0000D9575951D68FFAB2433349E0E9776971D
:103DF000109278921191799112947A9413951F6888
:103E0000FFAB28331B687B9515937D93FFABDA6A74
:103E10002C33FFAB196B3033FFAB5C6B3433FFAB30
:103E20009D6B3833FFAB3C3314977C971F68FFAB17
:103E300040331B6816921B938393FFAB44337E92EF
:103E40001A68FFAB483317917F911968FFAB4C3369
:103E5000189480941C68FFAB5033199581951A977C
:103E600082971C9284921D9185911E941D68FFABD0
:103E70005F6D5433FFAB58331B688694219389934D
:103E8000FFABDA6D5C33FFAB196E6033FFAB5C6E7A
:103E90006433FFAB68331F9587951D68FFAB6C33A8
:103EA000209788971F68FFAB70331B682292279377
:103EB0008F93FFAB74338A921A68FFAB78332391E8
:103EC0008B911968FFAB7C3324948C9425958D9548
:103ED00026978E972892909229911C68FFAB803389
:103EE0001D68FFAB84331F68FFAB88331B6891915B
:103EF0002D939593FFAB8C331A68FFAB9033196801
:103F0000FFAB94332A9492941C68FFAB98332B95A3
:103F100093951D68FFAB9C332C9794971F682E9246
:103F20009692049A2F9197913094989431959995FF
:103F300032979A97FDAB32CA32C332CA32C3116884
:103F4000FDAC1960FD49FE4B09681B680191FD49F4
:103F5000FD4A09682000009141A9FDF71BF80B9F5D
:103F6000419938680AF09BFD4299834678680AF0C7
:103F700096FD4399041CB8680AF091FD4499051C0C
:103F8000F8680AF08CFD4599824638690B970AF06B
:103F900086FD0B9B071C469958690AF080FD8046F8
:103FA000011C2D980AF095FD391C814626980AF0CF
:103FB00090FD011C48460AF075FD53468146514666
:103FC0001F9805930AF085FD011C48460AF06AFD1A
:103FD000291C814618980AF07CFD211C8246119804
:103FE0000AF077FD011C50460AF05CFD59468246F6
:103FF00007980AF06EFD011C50460AF053FD011CA3
:1040000048460AF04FFD049A51680AF04BFD4146BC
:104010000B902E980AF05DFD391C814627980AF016
:1040200058FD011C48460AF03DFD0599814620983F
:104030000AF04FFD011C48460AF034FD291C814658
:1040400019980AF046FD211C824612980AF041FD9B
:10405000011C50460AF026FD5946824608980AF08F
:1040600038FD011C50460AF01DFD011C48460AF0AF
:1040700019FD049A91680AF015FD414633902F9876
:104080000AF027FD391C814628980AF022FD011C00
:1040900048460AF007FD0599814621980AF019FD66
:1040A000011C48460AF0FEFC291C81461A980AF0B9
:1040B00010FD211C824613980AF00BFD011C50468E
:1040C0000AF0F0FC594682460C980AF002FD011CE9
:1040D00050460AF0E7FC011C48460AF0E3FC049A4B
:1040E000D1680AF0DFFC4146349030980AF0F1FCC8
:1040F000391C814629980AF0ECFC011C48460AF05C
:10410000D1FC0599814622980AF0E3FC011C48463F
:104110000AF0C8FC291C81461B980AF0DAFC211C15
:10412000824614980AF0D5FC011C50460AF0BAFCED
:10413000594682460D980AF0CCFC011C50460AF004
:10414000B1FC011C48460AF0ADFC049A11690AF062
:10415000A9FC4146359031980AF0BBFC391C8146D8
:104160002A980AF0B6FC011C48460AF09BFC059907
:10417000814623980AF0ADFC011C48460AF092FCE7
:10418000291C81461C980AF0A4FC211C8246159823
:104190000AF09FFC011C50460AF084FC59468246F6
:1041A0000E980AF096FC011C50460AF07BFC011C9C
:1041B00048460AF077FC049A51690AF073FC211C06
:1041C000369016980AF085FC291C81461D980AF045
:1041D00080FC011C48460AF065FC594681460F9850
:1041E0000AF077FC011C48460AF05CFC391C814649
:1041F0002B980AF06EFC4146824632980AF069FC20
:10420000011C50460AF04EFC0599824624980AF09B
:1042100060FC011C50460AF045FC011C48460AF0AF
:1042200041FC049A91690AF03DFC414681462C9874
:104230000AF04FFC391C804625980AF04AFC011C04
:1042400040460AF02FFC0599071C1E980AF041FC15
:10425000011C381C0AF026FC291C071C17980AF0C0
:1042600038FC211C051C10980AF033FC011C281C8A
:104270000AF018FC5946041C06980AF02AFC011C96
:10428000201C0AF00FFC011C381C0AF00BFC049ADD
:10429000FDAC11680AF006FC099B0B9A18605A6085
:1042A000339A9A60349ADA60359A1A61369A5A616A
:1042B0004A469A613368CC937368CD93B368CE93C2
:1042C000F368CF933369D0937369D193B369D29371
:1042D000F369D393336AD493736AD593B36AD6934D
:1042E000F36AD793336BD893736BD993B36BDA9329
:1042F000F36BDB93336CDC93736CDD93B36CDE9305
:10430000F36CDF93336DE093736DE193B36DE293E0
:10431000F36DE393336EE493736EE593B36EE693BC
:10432000F36EE793336FE893736FE993B36FEA9398
:10433000F36FEB938023F358EC9307E0F41E032014
:10434000FC1E0320F81E03200AE81C418423F358B6
:10435000ED938823F358EE938C23F358EF93902337
:10436000F358F0939423F358F1939823F358F2936E
:104370009C23F3580B96F393A023F358F493A423B0
:10438000F358F593A823F358F693AC23F358F79317
:10439000B023F358F893B423F358F993B823F358A0
:1043A000FA93BC23F358FB93C023F358FC930A9B66
:1043B00010985A681F6891469A6849469046DA688C
:1043C0001E695D6905920AF084FB41468246179892
:1043D0000AF07FFB011C50460AF064FB391C824640
:1043E00006980AF076FB011C50460AF05BFB311C74
:1043F000824625980AF06DFB291C83462C980AF00A
:1044000068FB011C58460AF04DFB059983461E982F
:104410000AF05FFB011C58460AF044FB011C5046A1
:104420000AF040FB4946206011980AF052FB4146D1
:10443000824618980AF04DFB011C50460AF032FBE8
:10444000391C824607980AF044FB011C50460AF0CA
:1044500029FB311C824626980AF03BFB291C834627
:104460002D980AF036FB011C58460AF01BFB0599F3
:1044700083461F980AF02DFB011C58460AF012FBD8
:10448000011C50460AF00EFB4946606012980AF083
:1044900020FB4146824619980AF01BFB011C50463E
:1044A0000AF000FB391C824608980AF012FB011C36
:1044B00050460AF0F7FA311C824627980AF009FBA9
:1044C000291C83462E980AF004FB011C58460AF06A
:1044D000E9FA0599834620980AF0FBFA011C584630
:1044E0000AF0E0FA011C50460AF0DCFA4946A060E6
:1044F00013980AF0EEFA414682461A980AF0E9FA51
:10450000011C50460AF0CEFA391C82460C980AF07B
:10451000E0FA011C50460AF0C5FA311C8246289880
:104520000AF0D7FA291C83462F980AF0D2FA011C08
:1045300058460AF0B7FA0599834621980AF0C9FA55
:10454000011C58460AF0AEFA011C50460AF0AAFABD
:104550004946E06014980AF0BCFA414682461B982E
:104560000AF0B7FA011C50460AF09CFA391C824640
:104570000D980AF0AEFA011C50460AF093FA311C6D
:10458000824629980AF0A5FA291C834630980AF039
:10459000A0FA011C58460AF085FA0599834622982C
:1045A0000AF097FA011C58460AF07CFA011C5046A2
:1045B0000AF078FA4946206115980AF08AFA4146CD
:1045C00082461C980AF085FA011C50460AF06AFAE5
:1045D000391C82460E980AF07CFA011C50460AF0FB
:1045E00061FA311C82462A980AF073FA291C834624
:1045F00031980AF06EFA011C58460AF053FA0599F0
:10460000834623980AF065FA011C58460AF04AFAD4
:10461000011C50460AF046FA4946606116980AF0B5
:1046200058FA414681461D980AF053FA011C484643
:104630000AF038FA391C80460F980AF04AFA011C31
:1046400040460AF02FFA311C071C2B980AF041FA59
:10465000291C061C32980AF03CFA011C301C0AF096
:1046600021FA0599051C24980AF033FA011C281C2C
:104670000AF018FA011C381C0AF014FA0A9BA0610F
:1046800018330A93FFAB1C34BC33A34200D08EE630
:10469000C4239C460B9ECCADB444634634003C9688
:1046A0000A9308962369A6699846E36821689946A3
:1046B000A36862680793FFABA0330591301C1968AB
:1046C00006920AF006FA6769FFAB843319688246DE
:1046D000381C0AF0FEF9011C50460AF0E3F9FFAB62
:1046E000996E8246404668330AF0F3F9FFABD96C05
:1046F000834648464C330AF0ECF9011C58460AF050
:10470000D1F9011C50460AF0CDF9FFAB196B824676
:10471000079830330AF0DDF9FFAB596983460698F4
:1047200014330AF0D6F9011C58460AF0BBF9FD997A
:10473000834605980AF0CDF9011C58460AF0B2F9F3
:10474000011C50460AF0AEF9011C28680AF0A7F9CE
:10475000FFABA43328601968301C0AF0BAF9FFAB2C
:10476000883319688246381C0AF0B3F9011C504698
:104770000AF098F9FFABD96E824640466C330AF0D6
:10478000A8F9FFAB196D8346484650330AF0A1F9EA
:10479000011C58460AF086F9011C50460AF082F9BD
:1047A000FFAB596B8246079834330AF092F9FFAB9E
:1047B00099698346069818330AF08BF9011C58460C
:1047C0000AF070F9FE99834605980AF082F9011CF7
:1047D00058460AF067F9011C50460AF063F9011CBB
:1047E00068680AF05CF9FFABA83319686860301C90
:1047F0000AF06FF9FFAB8C3319688246381C0AF057
:1048000068F9011C50460AF04DF9FFAB8246196F5A
:10481000404670330AF05DF9FFAB596D8346484658
:1048200054330AF056F9011C58460AF03BF9011CB2
:1048300050460AF037F9FFAB996B82460798383338
:104840000AF047F9FFABD969834606981C330AF092
:1048500040F9011C58460AF025F9FF99834605984E
:104860000AF037F9011C58460AF01CF9011C5046A1
:104870000AF018F9011CA8680AF011F9FFABAC3373
:104880001968A860301C0AF024F9FFAB903319684E
:104890008246381C0AF01DF9011C50460AF002F944
:1048A000FFAB596F8246404674330AF012F9FFABF2
:1048B000996D8346484658330AF00BF9011C584657
:1048C0000AF0F0F8011C50460AF0ECF8FFAB824603
:1048D000D96B07983C330AF0FCF8FFAB196A8346A2
:1048E000069820330AF0F5F8011C58460AF0DAF869
:1048F000FFAB59688346059804330AF0EAF8011CB7
:1049000058460AF0CFF8011C50460AF0CBF8011CBB
:10491000E8680AF0C4F8FFABB0331968E860301CEF
:104920000AF0D7F8FFAB943319688246381C0AF0B6
:10493000D0F8011C50460AF0B5F8FFAB996F8246DB
:10494000404678330AF0C5F8FFABD96D8346484638
:104950005C330AF0BEF8011C58460AF0A3F8011CAB
:1049600050460AF09FF8FFAB196C82460798403317
:104970000AF0AFF8FFAB596A8346069824330AF071
:10498000A8F8011C58460AF08DF8FFAB99688346D9
:10499000059808330AF09DF8011C58460AF082F881
:1049A000011C50460AF07EF8011C28690AF077F8CD
:1049B000FFABB43319682861301C0AF08AF8FFABEA
:1049C000983319688246381C0AF083F8011C504657
:1049D0000AF068F8FFABD96F824640467C330AF094
:1049E00078F8FFAB196E8346484660330AF071F8D9
:1049F000011C58460AF056F8011C50460AF052F8BD
:104A0000FFAB596C8246079844330AF062F8FFAB5B
:104A1000996A8346069828330AF05BF8011C5846C9
:104A20000AF040F8FFABD968834605980C330AF0CA
:104A300050F8011C58460AF035F8011C50460AF09F
:104A400031F8011C68690AF02AF8FFAB596E6861F9
:104A5000484664330AF03DF8FFAB8033196881465D
:104A600040460AF036F8011C48460AF01BF8FFAB36
:104A70009C3319688046381C0AF02BF8FFABB8331A
:104A80001968071C301C0AF024F8011C381C0AF0B5
:104A900009F8011C40460AF005F8FFABD96A061C6C
:104AA00006982C330AF015F8FFAB996C071C079891
:104AB00048330AF00EF8011C381C09F0F3FFFFAB75
:104AC0001969071C059810330AF003F8011C381CFB
:104AD00009F0E8FF011C301C09F0E4FF011CA86983
:104AE00009F0DDFF0A9B1C34A8611C359C4200D0F4
:104AF000D8E5089ECC9B3360CD9B7360CE9BB360A2
:104B0000CF9BF360D09B3361D19B7361D29BB36128
:104B1000D39BF361D49B3362D59B7362D69BB36204
:104B2000D79BF362D89B3363D99B7363DA9BB363E0
:104B3000DB9BF363DC9B3364DD9B7364DE9BB364BC
:104B4000DF9BF364E09B3365E19B7365E29BB36598
:104B5000E39BF365E49B3366E59B7366E69BB36674
:104B6000E79BF366E89B3367E99B7367EA9BB36750
:104B7000EB9BF3678023EC9AF250ED9A0433F250EA
:104B8000EE9A0433F250EF9A0433F250F09A043361
:104B9000F250F19A0433F250F29A0433F250F39A3D
:104BA0000433F250F49A0433F250F59A0433F2507D
:104BB000F69A0433F250F79A0433F250F89A043319
:104BC000F250F99A0433F250FA9A0433F250FB9AF5
:104BD0000433F250FC9A0433F2503AAA8D239446DF
:104BE0001B0163441B68CCAA13CB13C28E231B0189
:104BF00063441B68FDAC07CB07C4049B099D00936D
:104C0000494B28006344CCA91B68FDAAFCF7A0F817
:104C10002B00FDAA23CB23C2220013CB13C21B6897
:104C20003AA913608D238C463EAA11001B016344F0
:104C30001B6831CB31C18E231B0163441B68CCA997
:104C400031CB31C1384BFDA963441B689BA800934D
:104C5000CCABFCF7E3FAFDAB08931C009B9B0B93DA
:104C6000A29B1293A99B1993B09B2093B79B279368
:104C7000BE9B2E93C59B35939C9B0C93A39B139338
:104C8000AA9B1A93B19B2193B89B2893BF9B2F9308
:104C9000C69B36939D9B0D93A49B1493AB9B1B9338
:104CA000B29B2293B99B2993C09B3093C79B3793A8
:104CB0009E9B0E93A59B1593AC9B1C93B39B239338
:104CC000BA9B2A93C19B3193C89B38939F9B0F93A8
:104CD000A69B1693AD9B1D93B49B2493BB9B2B93D8
:104CE000C29B3293C99B3993A09B1093A79B1793A8
:104CF000AE9B1E93B59B2593BC9B2C93C39B339378
:104D0000CA9B3A93A19B1193A89B1893AF9B1F93A7
:104D1000B69B2693BD9B2D93C49B3493CB9B3B9317
:104D20003C9B3C96984601E0E40800004146C96877
:104D300040468946414642464346866909691B68A2
:104D40005568926847690791301C3599059306921A
:104D500009F0BFFE2E998246381C09F0BAFE011CEC
:104D6000504609F09FFE27998246079809F0B1FE48
:104D700020998346484609F0ACFE011C584609F0CC
:104D800091FE011C504609F08DFE19998246069845
:104D900009F09FFE12998346281C09F09AFE011C17
:104DA000584609F07FFE0B998346059809F091FE5D
:104DB000011C584609F076FE011C504609F072FEAF
:104DC00036992060301C09F084FE2F998246381CE9
:104DD00009F07FFE011C504609F064FE28998246C6
:104DE000079809F076FE21998346484609F071FE3E
:104DF000011C584609F056FE011C504609F052FEAF
:104E00001A998246069809F064FE13998346281C75
:104E100009F05FFE011C584609F044FE0C998346D8
:104E2000059809F056FE011C584609F03BFE011C8E
:104E3000504609F037FE311C6060379809F049FE92
:104E4000391C8246309809F044FE011C504609F096
:104E500029FE29998246079809F03BFE229983464C
:104E6000484609F036FE011C584609F01BFE011C9D
:104E7000504609F017FE1B998246069809F029FE54
:104E800014998346281C09F024FE011C584609F099
:104E900009FE0D998346059809F01BFE011C584632
:104EA00009F000FE011C504609F0FCFD311CA06019
:104EB000389809F00EFE391C8246319809F009FE37
:104EC000011C504609F0EEFD079982462A9809F028
:104ED00000FE49468346239809F0FBFD011C584615
:104EE00009F0E0FD011C504609F0DCFD0699824600
:104EF0001C9809F0EEFD291C8346159809F0E9FD80
:104F0000011C584609F0CEFD059983460E9809F01C
:104F1000E0FD011C584609F0C5FD011C504609F092
:104F2000C1FD311CE060399809F0D3FD391C82467F
:104F3000329809F0CEFD011C504609F0B3FD0799E7
:104F400082462B9809F0C5FD49468346249809F00E
:104F5000C0FD011C584609F0A5FD011C504609F092
:104F6000A1FD069982461D9809F0B3FD291C8346D0
:104F7000169809F0AEFD011C584609F093FD0599FD
:104F800083460F9809F0A5FD011C584609F08AFDDB
:104F9000011C504609F086FD311C20613A9809F049
:104FA00098FD391C8246339809F093FD011C504648
:104FB00009F078FD079982462C9809F08AFD494648
:104FC0008346259809F085FD011C584609F06AFDC5
:104FD000011C504609F066FD069982461E9809F0AC
:104FE00078FD291C8346179809F073FD011C58466B
:104FF00009F058FD05998346109809F06AFD011CD7
:10500000584609F04FFD011C504609F04BFD49463A
:105010006061269809F05DFD079981462D9809F099
:1050200058FD011C484609F03DFD391C8146349865
:1050300009F04FFD311C071C3B9809F04AFD011C8B
:10504000381C09F02FFD011C484609F02BFD291CD6
:10505000061C189809F03DFD0699051C1F9809F0DB
:1050600038FD011C281C09F01DFD0599051C11982F
:1050700009F02FFD011C281C09F014FD011C301C37
:1050800009F010FD1C239C460A9BE044A0611C34DF
:10509000984500D04AE6FFAB84333C9E0793FFABB4
:1050A000CCAC14333C940A933D96089B1A68586D17
:1050B0000592079A996BD6698146186F06918046CA
:1050C000311C3598DD69176809F003FD391C8246EB
:1050D0002E9809F0FEFC011C504609F0E3FC414605
:1050E0008246279809F0F5FC20998346484609F046
:1050F000F0FC011C584609F0D5FC011C504609F093
:10510000D1FC19998246069809F0E3FC129983466E
:10511000281C09F0DEFC011C584609F0C3FC0B9961
:105120008346059809F0D5FC011C584609F0BAFCE5
:10513000011C504609F0B6FC311C2060369809F07D
:10514000C8FC391C82462F9809F0C3FC011C50464C
:1051500009F0A8FC41468246289809F0BAFC494665
:105160008346219809F0B5FC011C584609F09AFCC9
:10517000011C504609F096FC069982461A9809F0DF
:10518000A8FC291C8346139809F0A3FC011C58466F
:1051900009F088FC059983460C9809F09AFC011CDB
:1051A000584609F07FFC011C504609F07BFC311C7D
:1051B0006060379809F08DFC391C8246309809F000
:1051C00088FC011C504609F06DFC41468246299836
:1051D00009F07FFC49468346229809F07AFC011CBD
:1051E000584609F05FFC011C504609F05BFC06992B
:1051F00082461B9809F06DFC291C8346149809F01F
:1052000068FC011C584609F04DFC059983460D9831
:1052100009F05FFC011C584609F044FC011C504693
:1052200009F040FC311CA060389809F052FC391C90
:105230008246319809F04DFC011C504609F032FCC1
:10524000414682462A9809F044FC49468346239801
:1052500009F03FFC011C584609F024FC011C504693
:1052600009F020FC069982461C9809F032FC291CA2
:105270008346159809F02DFC011C584609F012FCD4
:10528000059983460E9809F024FC011C584609F044
:1052900009FC011C504609F005FC311CE0603998FE
:1052A00009F017FC391C8246329809F012FC011CE7
:1052B000504609F0F7FB414682462B9809F009FC5D
:1052C00049468346249809F004FC011C584609F01D
:1052D000E9FB011C504609F0E5FB069982461D9842
:1052E00009F0F7FB291C8346169809F0F2FB011C14
:1052F000584609F0D7FB059983460F9809F0E9FB5A
:10530000011C584609F0CEFB011C504609F0CAFBAF
:10531000311C20613A9809F0DCFB391C8246339835
:1053200009F0D7FB011C504609F0BCFB4146824600
:105330002C9809F0CEFB49468346259809F0C9FB15
:10534000011C584609F0AEFB011C504609F0AAFBAF
:10535000069982461E9809F0BCFB291C83461798C3
:1053600009F0B7FB011C584609F09CFB05998346E0
:10537000109809F0AEFB011C584609F093FB011C84
:10538000504609F08FFB49466061269809F0A1FB61
:10539000414681462D9809F09CFB011C484609F0C6
:1053A00081FB391C8046349809F093FB311C071CA3
:1053B0003B9809F08EFB011C381C09F073FB011CA3
:1053C000404609F06FFB291C061C189809F081FB68
:1053D0000699051C1F9809F07CFB011C281C09F08C
:1053E00061FB0599051C119809F073FB011C281C31
:1053F00009F058FB011C301C09F054FB079A089B6C
:10540000043207920A9A0433A06108931C349A422A
:1054100000D04AE63AAA9446744B744A63441B6827
:1054200062441B6812680893704B3D9E63441B687E
:10543000FDACDB690A936D4B63441B689B6B0B935C
:105440006A4B63441B685B6D0C93684B63441B6839
:105450001B6F0D938C23D358644A0E93634B6244A5
:1054600063441B685B680F93604B63441B681B6A53
:1054700010935E4B63441B68DB6B11935B4B63447F
:105480001B689B6D1293594B63441B685B6F1268DA
:1054900013939023D358554A1493544B6244634456
:1054A0001B6812689B681593504B63441B685B6ACA
:1054B00016934E4B63441B681B6C17934B4B634412
:1054C0001B68DB6D1893494B63441B689B6F1993F2
:1054D0009423D358454A1A93444B624463441B684F
:1054E000DB681B93414B63441B689B6A1C933F4BD7
:1054F00063441B685B6C1D933C4B63441B681268E0
:105500001B6E1E93394B63441B68DB6F1F939823FC
:10551000D358364A2093354B624463441B68126863
:105520001B692193314B63441B68DB6A22932F4B29
:1055300063441B689B6C23932C4B63441B685B6E1A
:1055400024938023D358294A25939C2362441268CC
:10555000D358264A2693254B624463441B685B69F3
:105560002793224B63441B681B6B28931F4B1268C5
:1055700063441B68DB6C29931C4B63441B689B6E64
:105580002A938423D358194A2B93A0236244126888
:10559000D358164A2C93154B624463441B68126817
:1055A0009B692D93114B63441B685B6B2E930F4BD0
:1055B00063441B681B6D2F930C4B63441B68DB6EAD
:1055C00030938823D358094A3193A4236244126844
:1055D000D3583293064B63441B689846FDAB079340
:1055E000902343443393349604E0C046DC08000023
:1055F000D408000043461F685B684246994643460C
:1056000041469B68D2680E694D6948460A990593E0
:10561000069209F05EFA0B998246059809F059FA4C
:10562000011C504609F03EFA08998246381C09F0E0
:1056300050FA011C504609F035FA0D998246301C8B
:1056400009F047FA0E998346281C09F042FA011C1A
:10565000584609F027FA0C998346069809F039FA5A
:10566000011C584609F01EFA011C504609F01AFAAE
:1056700010992060484609F02CFA11998246059845
:1056800009F027FA011C504609F00CFA0F998246DE
:10569000381C09F01EFA011C504609F003FA139950
:1056A0008246301C09F015FA14998346281C09F02B
:1056B00010FA011C584609F0F5F91299834606982C
:1056C00009F007FA011C584609F0ECF9011C504694
:1056D00009F0E8F916996060484609F0FAF9179957
:1056E0008246059809F0F5F9011C504609F0DAF9EF
:1056F00015998246381C09F0ECF9011C504609F056
:10570000D1F919998246301C09F0E3F91A998346B8
:10571000281C09F0DEF9011C584609F0C3F9189954
:105720008346069809F0D5F9011C584609F0BAF9E4
:10573000011C504609F0B6F9A0601C99484609F0D2
:10574000C8F91D998246059809F0C3F9011C504615
:1057500009F0A8F91B998246381C09F0BAF9011C16
:10576000504609F09FF91F998246301C09F0B1F9A3
:1057700020998346281C09F0ACF9011C584609F011
:1057800091F91E998346069809F0A3F9011C584621
:1057900009F088F9011C504609F084F92299E0606B
:1057A000484609F096F923998246059809F091F93F
:1057B000011C504609F076F921998246381C09F0FF
:1057C00088F9011C504609F06DF925998246301C74
:1057D00009F07FF926998346281C09F07AF9011C03
:1057E000584609F05FF924998346069809F071F943
:1057F000011C584609F056F9011C504609F052F9AF
:1058000028992061484609F064F92999824605984B
:1058100009F05FF9011C504609F044F927998246C6
:10582000381C09F056F9011C504609F03BF92B9938
:105830008246301C09F04DF92C998346281C09F04A
:1058400048F9011C584609F02DF92A998346069813
:1058500009F03FF9011C584609F024F9011C504693
:1058600009F020F92E996061484609F032F92F9924
:105870008146059809F02DF9011C484609F012F9F6
:105880002D998146381C09F024F9011C484609F07D
:1058900009F93199071C301C09F01BF93299061CD3
:1058A000281C09F016F9011C301C09F0FBF830998E
:1058B000051C069809F00DF9011C281C09F0F2F8E6
:1058C000011C381C09F0EEF818239C46339BE04479
:1058D000A0611C34434500D08CE6FFAB84330693B3
:1058E000FFAB14333C9C3393079B0D99DA691E6F11
:1058F00091469A6B301C90465A6D1F680592069A25
:1059000020CA069209F0E5F80E998246281C09F093
:10591000E0F8011C504609F0C5F80C99824605983C
:1059200009F0D7F8011C504609F0BCF80A998246E4
:10593000484609F0CEF80B998346404609F0C9F86D
:10594000011C584609F0AEF808998346381C09F046
:10595000C0F8011C584609F0A5F8011C504609F092
:10596000A1F8011C206809F09DF8109920604846B4
:1059700009F0AFF811998246404609F0AAF8011CD7
:10598000504609F08FF80F998246381C09F0A1F8AB
:10599000011C504609F086F813998246301C09F024
:1059A00098F814998346281C09F093F8011C58466E
:1059B00009F078F812998346059809F08AF8011CD5
:1059C000584609F06FF8011C504609F06BF8011CAD
:1059D000606809F067F816996060484609F079F840
:1059E00017998246404609F074F8011C504609F0A8
:1059F00059F815998246381C09F06BF8011C50467D
:105A000009F050F819998246301C09F062F81A9989
:105A10008346281C09F05DF8011C584609F042F83D
:105A200018998346059809F054F8011C584609F066
:105A300039F8011C504609F035F8011CA06809F03E
:105A400031F81C99A060484609F043F81D99824638
:105A5000404609F03EF8011C504609F023F81B9916
:105A60008246381C09F035F8011C504609F01AF836
:105A70001F998246301C09F02CF820998346281C77
:105A800009F027F8011C584609F00CF81E998346C6
:105A9000059809F01EF8011C584609F003F8011C8E
:105AA000504608F0FFFF011CE06808F0FBFF229958
:105AB000E060484609F00DF823998246404609F017
:105AC00008F8011C504608F0EDFF21998246381C69
:105AD00008F0FFFF011C504608F0E4FF25998246BC
