:020000041000EA
:1000000000B5324B212058609868022188439860DF
:10001000D860186158612E4B002199600221596106
:100020000121F02299502B49196001219960352056
:1000300000F044F80222904214D00621196600F024
:1000400034F8196E01211966002018661A6600F04E
:100050002CF8196E196E196E052000F02FF8012189
:100060000842F9D1002199601B49196000215960AB
:100070001A491B48016001219960EB211966A021F2
:10008000196600F012F800219960164914480160C1
:100090000121996001BC002800D000471248134993
:1000A000086003C880F30888084703B5996A0420EC
:1000B0000142FBD001200142F8D103BD02B5186610
:1000C0001866FFF7F2FF186E186E02BD00000240BE
:1000D000000000180000070000035F00212200005C
:1000E000F4000018222000A00001001008ED00E03C
:1000F00000000000000000000000000074B24E7A12
:1001000000200420F7010010C3010010C5010010F9
:10011000C1010010C1010010C1010010C101001097
:10012000C1010010C1010010C1010010C701001081
:10013000C1010010C1010010C9010010CB01001065
:10014000CD010010CD010010CD010010CD01001037
:10015000CD010010CD010010CD010010CD01001027
:10016000CD010010CD010010CD010010CD01001017
:10017000CD010010CD010010CD010010CD01001007
:10018000CD010010CD010010CD010010CD010010F7
:10019000CD010010CD010010CD010010CD010010E7
:1001A000CD010010CD010010CD010010CD010010D7
:1001B000CD010010CD010010CD010010CD010010C7
:1001C00000BE00BE00BE00BE00BE00BEEFF3058054
:1001D000103800BEF2EB8871B0490510D049051007
:1001E0003402001090A31AE700201F49086006C8D7
:1001F00081F3088810471D48006800282FD10DA4FE
:100200000ECC002902D000F012F8F9E71849194A7B
:10021000002000E001C19142FCD1174988471749ED
:1002200088471749884700BEFDE701C901C29A42C5
:10023000FBD37047D0490510C0000020102D0020CE
:100240002076051000000420000004202076051010
:10025000001004200010042000000000704709482E
:100260000DF084F90047000008ED00E0000000D028
:10027000102D00202C590320B1BC00105503001094
:10028000E5BD00105756000006005250ABB3605356
:10029000A0A7041006005250861C0302B0A7041049
:1002A000060052505422A29DBCA7041005005250D3
:1002B000DE65F46820760510F8B5C0460448054BA5
:1002C00010B5834203D0044B002B00D0984710BDDB
:1002D000102D0020102D00200000000006480749C6
:1002E000091A8B10C90FC91810B5491003D0044B57
:1002F000002B00D0984710BD102D0020102D00209D
:100300000000000010B5074C2378002B09D1FFF73F
:10031000D5FF054B002B02D0044800E000BF0123AD
:10032000237010BD582F002000000000F0A2041020
:10033000054B10B5002B03D00449054800E000BF71
:10034000FFF7CCFF10BDC046000000005C2F00206E
:10035000F0A2041070B5192009F048FFD0238022C4
:100360001B0692045A620FF06FF800F047F806F08F
:10037000BFFD08F00DFA06F0B1FF09F0D3FB002233
:100380000524144B1A7006F09DF9134D013C210011
:1003900028000FF04DF8FA2080000AF033FD002C01
:1003A000F4D10A200EF0A2FE012200210B480AF02F
:1003B000E5F90B4811F024FA01220A4B0A4C1A7095
:1003C0002378012BFCD108F09FFB2378012BFAD076
:1003D000F6E7C04648560320F0A2041080550320DB
:1003E000AD8E0010475603204C56032010B502482E
:1003F00011F02EFD10BDC04614370320092370B53F
:1004000086B0059304330493023B0393013B0293AC
:10041000023B324D324C0193324B22003249334879
:1004200000932B0005F00CFE142005F005FEFA20C9
:1004300080000AF0E7FC2E4E21003200280006F072
:1004400017F83378682B08D02A4C20000EF09AFE5B
:10045000FA2080000AF0D6FCF7E773783D2BF3D141
:1004600001222100280006F027F8234E3200210047
:10047000280006F05BF83378002BF7D10122210029
:10048000280005F0D7FE0121200005F0B5FE03216C
:10049000200005F047FE0321280005F071FF13211D
:1004A000200006F0B1F81221200006F0EBF8002140
:1004B000200006F0C9F80321200006F053F80221BD
:1004C000200006F06BF85521200005F049FE1821A8
:1004D000280005F0EFFE06B070BDC046001F0320E7
:1004E000D830002040420F001C21002014210020A1
:1004F0000C56032004A304105E560320F0B5C64634
:10050000334C344D344E22002900300000B505F044
:10051000C1FF6378DB439B0720D023781B0702D4FD
:1005200004BC9046F0BD2D4C0622002120000EF0A8
:10053000B7FC2100300005F07DFF0023E05E05F0F0
:10054000E7FD274D28600223E05E05F0E1FD6860CD
:100550000423E05E05F0DCFDA860E1E7214B062204
:100560009846180000210EF09BFC1F4F0622002128
:1005700038000EF095FC4146280005F03DFF39009B
:10058000280005F01BFF43460020185E05F0ACFD77
:100590004346164D28600220185E05F0A5FD43462F
:1005A00068600420185E05F09FFDA8600023F85ED7
:1005B00005F0A4FD0E4D28600223F85E05F09EFDB7
:1005C00068600423F85E05F099FDA860A5E7C046C1
:1005D000944B0320D8300020001F0320403C032010
:1005E000E0400320303C0320383C0320D43A032071
:1005F000F03A0320F0B55746DE464E464546E0B594
:100600008BB008919246190005900993DA170323DD
:100610008C46134063449B109B009846002B00DCE3
:100620008FE05246159B00249B000193149B0025EC
:100630009B1A159A9B1A089A9B000293536812689A
:100640001901944606929A0003925246013A92008A
:100650000792002291465A000491DF005146D318B8
:100660009B0042469B4623008E0066440092019AFE
:1006700094469C44039B5C19D8195346002B1EDDFD
:10068000069B05995A196346884600999B00434486
:1006900088460095116819600099511A0D59043265
:1006A0005D60CD599D600958D96010339642F1D1F3
:1006B0004346079A00936346944604339C440422BD
:1006C000029B5C4463449446049AE1449446009A35
:1006D00058442500070066444A45C8DC1C00904683
:1006E000099B434526DD149A1598089B151A524616
:1006F0000ACBAD1A002A1DDD42469E0053439B00E3
:10070000C91853469800059B47469C46099BAB4633
:100710009846159B994600234C44A2006244CD584C
:10072000D55004339842FAD1544401375C448919B6
:10073000B845F0D10BB03CBC90469946A246AB46BA
:10074000F0BD0024CCE7C046F0B5CE46474680B5A4
:10075000002B1DDD002A1BDD940000190C6800250C
:10076000A0464C689100D200494252428C469146C4
:10077000A400614646183100AA00424417681219C5
:1007800080C18142FAD14A460135B01AAB42F0D15C
:100790000CBC90469946F0BDF0B5DE4657464E4635
:1007A0004546E0B599B00B9024980C93259B0130F9
:1007B00001D122982490581C00D1229B2398C41761
:1007C00003202040239CA44660448010850007201D
:1007D000229C02958443200001940C9C002C00DC98
:1007E00085E20091190113912699249C0901511861
:1007F0001691411EC9080131C801490109919900AA
:10080000179126996B438C4663449B00D31812932F
:100810000023A400149415900493029B002B00DC89
:10082000C1E1099A009B944663441193169B03937C
:10083000002305930598049C0100A4460B9B039E8E
:100840000CCB59436144890051180D91411C594307
:100850006144890051180E91811C594361448900FB
:1008600051180F91C11C4B4363449B00D318109344
:10087000019B3400002B00DC44E2009B00259846DD
:1008800000234446A946AA46AB46A84607950695C6
:100890002F1C08950A9325683168281C0EF07FF9F3
:1008A00059460EF065F971688346281C0EF077F9F9
:1008B00051460EF05DF9B1688246281C0EF06FF9C2
:1008C00049460EF055F9F1688146281C0EF067F98B
:1008D00008990EF04DF9089065683169281C0EF0F2
:1008E0005EF9391C0EF044F97169071C281C0EF0E2
:1008F00056F906990EF03CF9B1690690281C0EF0E5
:100900004EF907990EF034F9F1690790281C0EF0A2
:1009100046F941460EF02CF98046A568316A281C3C
:100920000EF03DF959460EF023F9716A8346281CF2
:100930000EF035F951460EF01BF9B16A8246281CBB
:100940000EF02DF949460EF013F9F16A8146281C84
:100950000EF025F908990EF00BF90890E568316B57
:10096000281C0EF01CF9391C0EF002F9716B071CE3
:10097000281C0EF014F906990EF0FAF8B16B0690E7
:10098000281C0EF00CF907990EF0F2F8F16B0790A5
:10099000281C0EF004F941460EF0EAF8804625695D
:1009A000316C281C0EF0FBF859460EF0E1F8716C22
:1009B0008346281C0EF0F3F851460EF0D9F8B16CBE
:1009C0008246281C0EF0EBF849460EF0D1F8F16C87
:1009D0008146281C0EF0E3F808990EF0C9F808903B
:1009E0006569316D281C0EF0DAF8391C0EF0C0F87C
:1009F000716D071C281C0EF0D2F806990EF0B8F89D
:100A0000B16D0690281C0EF0CAF807990EF0B0F8E8
:100A1000F16D0790281C0EF0C2F841460EF0A8F8C0
:100A20008046A569316E281C0EF0B9F859460EF0C3
:100A30009FF8716E8346281C0EF0B1F851460EF0F7
:100A400097F8B16E8246281C0EF0A9F849460EF0C0
:100A50008FF8F16E8146281C0EF0A1F808990EF06F
:100A600087F80890E569316F281C0EF098F8391C5A
:100A70000EF07EF8716F071C281C0EF090F8069996
:100A80000EF076F8B16F0690281C0EF088F80799E2
:100A90000EF06EF8F16F0790281C0EF080F84146BA
:100AA0000EF066F88046803620340A9B019A08339F
:100AB0000A939A4200DDEEE6159A039B9446594646
:100AC0006344381C1C000EF053F85146071C06986E
:100AD0000EF04EF84946061C07980EF049F80899A2
:100AE000814640460EF044F8119B051C9B46229B14
:100AF0001900019B994230DD9A46A8465B4620CBFF
:100B00002168281C9B460EF04AF8011C381C0EF088
:100B10002FF86168071C281C0EF041F8011C301CDE
:100B20000EF026F8A168061C281C0EF038F8011CEF
:100B300048460EF01DF8E1688146281C0EF02FF89B
:100B4000011C40460EF014F8804601239C46229B6F
:100B5000E24410345345D1D1051C311C0E9E30683F
:100B60000EF003F8391C0D9F041C38680DF0FDFFD2
:100B7000291C109D3860346028680DF0F6FF0F9E28
:100B80004946041C30680DF0F0FF1399039A8C4617
:100B9000059B62440392029A0433306005932C60F3
:100BA0009A4200DD46E6239B029A934200DC92E0E3
:100BB000099A009B944663440593029B129D9846B4
:100BC0000B9B9B465B465E6843465E43049BA9467F
:100BD0009C465B461A6866449446B600019B664490
:100BE0000396002B00DC89E000232E0000249A46A7
:100BF000009F316838680DF0D2FF211C0DF0B8FF5E
:100C0000041C716878680DF0CAFF211C0DF0B0FF5C
:100C1000041CB168B8680DF0C2FF211C0DF0A8FFDC
:100C2000041CF168F8680DF0BAFF211C0DF0A0FF5C
:100C3000041C316938690DF0B2FF211C0DF098FFDA
:100C4000041C716978690DF0AAFF211C0DF090FF5A
:100C5000041CB169B8690DF0A2FF211C0DF088FFDA
:100C6000041CF169F8690DF09AFF211C0DF080FF5A
:100C7000041C2036203708239C46019BE244534540
:100C8000B7DC099B9946059BA9449A46229B019E85
:100C9000B34210DD00274B46D9595346D8590DF0C1
:100CA0007EFF011C201C0DF063FF041C229B0136FB
:100CB0000437B342EFD1211C039C20680DF055FF8F
:100CC00001239C46179BE0449C46239B206065447F
:100CD000434500D076E71499009A8C46049B624401
:100CE00000920C9A013304939A4200D095E519B012
:100CF0003CBC90469946A246AB46F0BD009B002402
:100D00009A46C3E70025009BA9469B462E1C2F1C34
:100D1000EDE6C04630B587B00C4B02AD00951A68C1
:100D2000694602929A880400AA809B796A46AB7150
:100D3000072301930023D3732EF03EF80098A842B6
:100D400001D00EF0C1F8200007B030BD18A3041088
:100D5000F0B5DE4657464E464546E0B50E00016802
:100D6000C7688946416805698A4681688DB08B46A7
:100D700041698069079306905068136892680591ED
:100D80000A90291C30680B92099308950DF0EDFE2E
:100D90000599039070680DF0E8FE0699051CB0688F
:100DA0000DF0E3FE804607980DF07CFF80231B06C4
:100DB0009C46039E009001916644514630000DF020
:100DC000EEFE5946061C281C0DF0E9FE011C301CE5
:100DD0000DF0CBFE391C061C404604970DF0DFFEDB
:100DE000011C301C0DF0C1FE0DF05CFF0022684BB1
:100DF0000CF089FE009A019B0CF085FE0600484627
:100E00000F000DF04FFF02000B0030003900169C60
:100E10000CF052FE0CF07CFF4946206003980DF068
:100E2000BEFE5946061C40460DF0B9FE011C301CA2
:100E30000DF09EFE0499061C281C0DF0B0FE011C4E
:100E4000301C0DF092FE0DF02DFF0022504B0CF0E7
:100E50005AFE009A019B0CF056FE060050460F0009
:100E60000DF020FF02000B00300039000CF024FED2
:100E70000CF04EFF49466060281C0DF090FE514674
:100E8000061C40460DF08BFE011C301C0DF06DFE63
:100E90000499061C03980DF082FE011C301C0DF015
:100EA00067FE0DF0FFFE0022394B0CF02CFE009A7D
:100EB000019B0CF028FE060058460F000DF0F2FED4
:100EC00002000B00300039000CF0F6FD0CF020FFA2
:100ED0004946A06040460DF062FE5146061C281CA3
:100EE0000DF05DFE011C301C0DF042FE5946051C44
:100EF00003980DF054FE011C281C0DF036FE0DF079
:100F0000D1FE0022224B0CF0FEFD009A019B0CF05A
:100F1000FAFD060004980F000DF0C4FE02000B005D
:100F2000300039000CF0C8FD0CF0F2FE089B099966
:100F3000E060181C98460DF032FE079D291C0DF04C
:100F40002EFE011C40460DF010FE059F0A992061FF
:100F5000381C0DF024FE291C0DF021FE011C381C4C
:100F60000DF003FE069E0B996061301C0DF017FE1C
:100F7000291C0DF014FE011C301C0DF0F6FDA061C3
:100F800000200DB03CBC90469946A246AB46F0BD51
:100F90000000E03FF0B5DE4657464E4645468A46DD
:100FA0004168E0B58846C768816891B0066889469F
:100FB0004046391C141C04930DF0F1FD4946051CF4
:100FC000301C0DF0ECFD0A90011C281C09950DF059
:100FD000CCFD0DF067FE02000B000CF06DFD0690DD
:100FE0000791201C02940DF05DFE0B00020004002E
:100FF0000D00069807990CF086FD0CF089FE52460C
:10100000391C106048460DF0CAFD83464146301C2D
:101010000DF0C5FD5A460E90011C58460B920DF07E
:10102000A7FD0DF03FFE02000B000CF045FD020095
:101030000B00200029000C920D930CF064FD0CF0C5
:1010400067FE5446311C6060301C0DF0A8FD41461F
:10105000041C40460DF0A3FD051C011C201C0DF0D6
:1010600084FD4946089048460DF099FD391C834699
:10107000381C0DF094FD5946019008980DF075FD4F
:1010800001990DF075FD02990F900DF088FD534602
:101090004946986040460DF082FD391C8046301C60
:1010A0000DF07DFD81461A980DF0FCFD06001B98A1
:1010B0000F000DF0F7FD02900391291C201C0DF08C
:1010C00057FD59460DF051FD01990DF04EFD049963
:1010D0000DF065FD0DF0E6FD04000D0040464946AB
:1010E0000DF046FD0DF0DEFD02000B000CF0E4FCFF
:1010F00032003B000CF007FD02000B00200029002D
:101100000CF0DAFC029A039B04000D000698079984
:101110000CF0F9FC02000B00200029000CF0CCFCC4
:101120000CF0F6FD5346D86004980DF0BBFD0400AA
:101130000D00404649460DF018FD0DF0B3FD0200CC
:101140000B000CF0B9FC22002B00049405950CF068
:10115000DAFC04000D00089859460DF009FD0199CC
:101160000DF003FD1A990DF01AFD0DF09BFD020024
:101170000B00200029000CF09FFC029A039B040046
:101180000D000C980D990CF0BEFC02000B00200025
:1011900029000CF091FC0CF0BBFD53460A99186134
:1011A00009980DF0E5FC0DF07DFD02000B000CF040
:1011B00083FC049A059B0CF0A6FC04000D000B9820
:1011C0000E990DF0D2FC0DF06DFD02000B000CF03D
:1011D00073FC32003B000CF096FC02000B00200078
:1011E00029000CF069FC04000D000F981B990DF00C
:1011F000D6FC0DF057FD02000B00200029000CF07A
:101200005BFC0CF085FD53465861002011B03CBCDE
:1012100090469946A246AB46F0BDC046F0B50400E4
:10122000DE4657464E4645460800E0B54568096823
:10123000AA46856895B0AB46C5684669876910912E
:101240000E950169556810689268049690461A6870
:10125000069711925A689B6812921393FE239B057E
:10126000236099460DF081FC0DF01CFD009001916A
:101270001E980DF017FD06000F000098019900223E
:10128000924B0CF040FC32003B000CF03CFC0CF0AC
:101290003FFD04990390E061281C0DF066FC0DF001
:1012A00001FD0022894B049005910CF02CFC3200CA
:1012B0003B000CF028FC0CF02BFD0699051CA063EC
:1012C00040460DF052FC0DF0EDFC00227F4B0690E5
:1012D00007910CF018FC32003B000CF014FC0CF0F1
:1012E00017FD0A90606550460DF0DCFC0022784B3B
:1012F000089009910CF007FC32003B000CF003FC55
:101300000CF006FD0B90206758460DF0CBFC002238
:101310006F4B0C900D910CF0F6FB32003B000CF083
:10132000F2FB0CF0F5FC8C238246E0500E980DF099
:10133000B9FC0022664B0E900F910CF0E4FB3200DA
:101340003B000CF0E0FB0CF0E3FCA8238346E050EC
:101350000022009801995E4B0CF0D5FB32003B0057
:101360000CF0D1FB0CF0D4FC494600906060216287
:10137000002206980799564B0CF0C5FB32003B0043
:101380000CF0C1FB0CF0C4FCA5658046E06310982E
:101390000DF088FC00224D4B0CF0B5FB32003B00F9
:1013A0000CF0B1FB0CF0B4FC59469023051C6067AF
:1013B0000022E1500C980D99444B0CF0A4FB320034
:1013C0003B000CF0A0FB0CF0A3FCAC230022E0508F
:1013D000049805993E4B0CF096FB32003B000CF054
:1013E00092FB0CF095FC49460A9A83466262009A89
:1013F000A0602164E2650E980F990022334B0CF037
:1014000082FB32003B000CF07EFB0CF081FC94234D
:101410000B99A067E5501C33E1504146E160594605
:10142000A162494621665146039BE16763640898BF
:1014300009990022254B0CF066FB32003B000CF0B2
:1014400062FB0CF065FC9823E0501C33E55000254E
:101450001E9911982561E562A56465660DF09FFBF4
:10146000011C48460DF081FB8023E0501C33E55001
:101470001C33E550343B1E99129865612563E56481
:10148000A566E5500DF08BFB011C48460DF06DFB89
:10149000A023E0501C33E550343BA561656325650E
:1014A000E566E5501C33E5501E9913980DF077FB67
:1014B000011C48460DF059FBC023E050002015B038
:1014C0003CBC90469946A246AB46F0BD0000E0BF4A
:1014D0000000E03FF0B5DE4657464E464546E0B5D3
:1014E0009A460B68141C8A689B464B68C9688BB087
:1014F0000500101C8846009301920DF0D3FB02906A
:101500000391201C0DF0CEFBC02306000F000298B3
:10151000039900221B060CF0F6FA32003B000CF097
:10152000F2FA0CF0F5FB0890286040460DF0BAFB8B
:1015300002000B000CF0C0FA32003B000CF0E3FAA2
:101540000CF0E6FB041CA86158460DF0ABFBC02371
:1015500000221B06049005910CF0D5FA32003B00E6
:101560000CF0D1FA0CF0D4FB286300980DF09AFB34
:1015700002000B00069007910CF09EFA32003B002F
:101580000CF0C1FA0CF0C4FB002190238946A8643A
:101590002966A967E95068600498059902000B0064
:1015A0000CF08AFA32003B000CF0ADFA0CF0B0FB04
:1015B0006C630490E8610298039902000B000CF040
:1015C0007BFA32003B000CF09EFA0CF0A1FB49467E
:1015D0009423E8646966E967E950C023069807998F
:1015E000049A1B06AA6000220CF08DFA32003B0020
:1015F0000CF089FA0CF08CFB089B4946AB63802306
:1016000028622C65A966E9501833E95040461499C0
:101610000DF0C5FA019F1599061C381C0DF0BFFA94
:101620005146041C58460DF0BAFA311C0DF0A0FAD0
:10163000211C06940DF099FA011C0DF099FA5146FF
:101640000990E86000980DF0AAFA1499041C381C5F
:1016500001970DF0A4FA011C201C0DF089FA1599D0
:10166000041C40460DF09BFA011C201C0DF080FA72
:10167000011C0DF07DFA14990290686200980DF03B
:101680008EFA1599089058460DF089FA019A80242F
:10169000944624066444071C514620000DF07FFA4E
:1016A00008990DF065FA391C0DF05FFA011C0DF078
:1016B0005FFA1499E86358460DF071FA1599049091
:1016C00000980DF06CFA802212064244041C514628
:1016D00010000DF064FA04990DF04AFA211C0DF087
:1016E00047FA011C0DF044FA4A468423EA6668650D
:1016F000EA501833EA505146286101980DF04FFA2C
:1017000008990DF032FA391C0DF032FA011C0DF077
:101710002FFA071CA8628020029B00062B6451460A
:1017200058440DF03CFA311C0DF01FFA06990DF0EB
:101730001FFA011C0DF01CFA8823A865484628678B
:10174000E8501833E850514640466F610DF027FAD3
:1017500004990DF00AFA211C0DF007FA011C0DF096
:1017600007FA099AE8626A64029B4A46EB654B46AF
:101770006B678C230020EA501833EA500BB03CBC56
:1017800090469946A246AB46F0BDC046F0B54546E8
:10179000DE4657464E46E0B53B4CC723A54434AA27
:1017A000944663441B091B0105938B680490319395
:1017B0000B6833911A6864462A929A692B921A6BC5
:1017C0002C929A6C2D921A6E2E929A6F2F929022D2
:1017D0009A5830925A680692DA6908925A6B0992BE
:1017E000DA6C0A925A6E0B92DA6F0C9294229A5823
:1017F0000D929A680E921A6A0F929A6B10921A6D55
:1018000011929A6E129280229A58139298229A58A4
:101810001492DA6815925A6A1692DA6B17925A6D18
:101820001892DA6E199284229A581A929C229A5827
:101830001B921A6932941C929A6A1D921A6C1E921B
:101840009A6D1F921A6F209288229A582192A02294
:101850009A5822925A692392DA6A24925A6C2592F3
:10186000DA6D26925A6F27928C229A582892A422D7
:101870009B5829934B689846C42343440793434697
:10188000E0461C0002E0C046ACFDFFFFE168A26834
:10189000894621692368484603912D990292019354
:1018A0000DF07DF92E99824603980DF078F9011C10
:1018B00050460DF05DF9676982462F99381C0DF08E
:1018C0006EF9A66983463099301C0DF068F9011C49
:1018D00058460DF04DF9011C50460DF049F9656868
:1018E00082462B99281C0DF05AF92C9983460298B0
:1018F0000DF055F9011C58460DF03AF92A99834626
:1019000001980DF04CF9011C58460DF031F9011CFD
:1019100050460DF02DF94346494618600A980DF0DF
:101920003EF9039982460B980DF039F9011C504697
:101930000DF01EF9391C82460C980DF030F9311C5F
:1019400083460D980DF02BF9011C58460DF010F947
:10195000011C50460DF00CF9291C824608980DF028
:101960001EF90299834609980DF019F9011C584691
:101970000DF0FEF80199834606980DF010F9011C50
:1019800058460DF0F5F8011C50460DF0F1F84346AD
:101990004946586011980DF002F903998246129851
:1019A0000DF0FDF8011C50460DF0E2F8391C82469E
:1019B00013980DF0F4F8311C834614980DF0EFF8ED
:1019C000011C58460DF0D4F8011C50460DF0D0F81B
:1019D000291C82460F980DF0E2F802998346109870
:1019E0000DF0DDF8011C58460DF0C2F80199834650
:1019F0000E980DF0D4F8011C58460DF0B9F8011CF2
:101A000050460DF0B5F843464946986018980DF0D9
:101A1000C6F80399824619980DF0C1F8011C50468A
:101A20000DF0A6F8391C82461A980DF0B8F8311C52
:101A300083461B980DF0B3F8011C58460DF098F83A
:101A4000011C50460DF094F8291C824616980DF0A2
:101A5000A6F80299834617980DF0A1F8011C584684
:101A60000DF086F80199834615980DF098F8011C41
:101A700058460DF07DF8011C50460DF079F84346AC
:101A80004946D8601F980DF08AF80399824620983D
:101A90000DF085F8011C50460DF06AF8391C82469D
:101AA00021980DF07CF8311C834622980DF077F8D0
:101AB000011C58460DF05CF8011C50460DF058F81A
:101AC000291C82461D980DF06AF8029983461E98DB
:101AD0000DF065F8011C58460DF04AF8019983464F
:101AE0001C980DF05CF8011C58460DF041F8011CE3
:101AF00050460DF03DF843464946186126980DF0D2
:101B00004EF80399814627980DF049F8011C484684
:101B10000DF02EF8391C814628980DF040F8311C44
:101B2000071C29980DF03BF8011C381C0DF020F81B
:101B3000011C48460DF01CF8291C061C24980DF0C9
:101B40002EF80299051C25980DF029F8011C281C77
:101B50000DF00EF80199051C23980DF020F8011CDA
:101B6000281C0DF005F8011C301C0DF001F843464F
:101B7000586118239C46079B1C34E044A34200D0C4
:101B800084E6319A1368089393690993136B0A9357
:101B9000936C0B93136E0C93936F0D939023D35808
:101BA0000E9353680F93D3691093536B1193D36CB7
:101BB0001293536E1393D36F14939423D3581593A6
:101BC00093681693136A1793936B1893136D199375
:101BD000936E1A938023D3581B939823D3581C9346
:101BE000D3681D93536A1E93D36B1F93536D209339
:101BF000D36E21938423D35822939C23D3582393C9
:101C000013692493936A2593136C2693936D2793FA
:101C1000136F059C28938823D35820342993A0233D
:101C2000D358A1462A9353692B93D36A2C93536CB0
:101C30002D93D36D2E93536F2F938C23D3583093C2
:101C4000A423D358319358AB0693329B1A0098467D
:101C50001832079243464246414640461B68956902
:101C60000193069B146B096E926C40CB876F0291B7
:101C7000101C0B99039206930CF091FF0C9982466D
:101C800002980CF08CFF011C50460CF071FF0D996E
:101C90008246381C0CF083FF0E998346301C0CF0F2
:101CA0007EFF011C58460CF063FF011C50460CF0EF
:101CB0005FFF09998246281C0CF071FF0A99834640
:101CC000201C0CF06CFF011C58460CF051FF0899C9
:101CD000834601980CF063FF011C58460CF048FF46
:101CE000011C50460CF044FF4B46129918600398B3
:101CF0000CF055FF1399824602980CF050FF011C1E
:101D000050460CF035FF14998246381C0CF047FF02
:101D100015998346301C0CF042FF011C58460CF00C
:101D200027FF011C50460CF023FF10998246281C07
:101D30000CF035FF11998346201C0CF030FF011C7C
:101D400058460CF015FF0F99834601980CF027FFB9
:101D5000011C58460CF00CFF011C50460CF008FF0B
:101D60004B461999586003980CF019FF1A9982464E
:101D700002980CF014FF011C50460CF0F9FE1B9960
:101D80008246381C0CF00BFF1C998346301C0CF06B
:101D900006FF011C58460CF0EBFE011C50460CF0EF
:101DA000E7FE17998246281C0CF0F9FE1899834625
:101DB000201C0CF0F4FE011C58460CF0D9FE1699BC
:101DC000834601980CF0EBFE011C58460CF0D0FE47
:101DD000011C50460CF0CCFE4B46209998600398AD
:101DE0000CF0DDFE2199824602980CF0D8FE011C11
:101DF00050460CF0BDFE22998246381C0CF0CFFEF6
:101E000023998346301C0CF0CAFE011C58460CF086
:101E1000AFFE011C50460CF0ABFE1E998246281CFA
:101E20000CF0BDFE1F998346201C0CF0B8FE011C6F
:101E300058460CF09DFE1D99834601980CF0AFFEAC
:101E4000011C58460CF094FE011C50460CF090FE0C
:101E50004B462799D86003980CF0A1FE289982463A
:101E600002980CF09CFE011C50460CF081FE299952
:101E70008246381C0CF093FE2A998346301C0CF0E5
:101E80008EFE011C58460CF073FE011C50460CF0EF
:101E90006FFE25998246281C0CF081FE2699834608
:101EA000201C0CF07CFE011C58460CF061FE2499AD
:101EB000834601980CF073FE011C58460CF058FE46
:101EC000011C50460CF054FE4B462E9918610398A5
:101ED0000CF065FE2F99824602980CF060FE011C02
:101EE00050460CF045FE30998246381C0CF057FEE7
:101EF0003199071C301C0CF052FE011C381C0CF0F0
:101F000037FE011C50460CF033FE2C99061C281C91
:101F10000CF045FE2D99051C201C0CF040FE011C08
:101F2000281C0CF025FE2B99041C01980CF037FEA0
:101F3000011C201C0CF01CFE011C301C0CF018FEB7
:101F40004B46586104239C461433E0449C46079B4F
:101F5000E144984500D07DE6339B059DDC68296A05
:101F600020680CF005FE049EA96B306060680CF0E0
:101F7000FFFD7060A068296D0CF0FAFDB060E068AC
:101F8000A96E0CF0F5FD8023F0602069E9589846B1
:101F90000CF0EEFD98233061E95860690CF0E8FD23
:101FA0007061A069696A0CF0E3FDB061E069E96BFA
:101FB0000CF0DEFDF061206A696D0CF0D9FD306235
:101FC000E96E606A0CF0D4FD84277062A06AE9595A
:101FD0000CF0CEFD9C23B062E958E06A0CF0C8FD1D
:101FE000F062206BA96A0CF0C3FD3063606B296C52
:101FF0000CF0BEFD7063A06BA96D0CF0B9FDB06371
:10200000E06B296F0CF0B4FD0496F0638826206C19
:10201000A9590CF0ADFD049B1864A023606CE9582D
:102020000CF0A6FD049BE96A5864A06C0CF0A0FDBE
:10203000049B696C9864E06C0CF09AFD049BE96D5C
:10204000D864206D0CF094FD049B696F1865606D79
:1020500005950CF08DFD8C25049A059B5065A06DAF
:1020600059590CF085FDA423049A9065059AE06DFA
:10207000D1580CF07DFD0499059AC865206E116B4E
:102080000CF076FD0499059A0866916C606E0CF070
:102090006FFD0499059A4866A06E116E0CF068FDFC
:1020A0000499059A8866E06E916F0CF061FD9023AB
:1020B0000499059AC866206FD1580CF059FDA823E1
:1020C0000499059A0867606FD1580CF051FD049986
:1020D000059A4867A16F506B0CF04AFD0499059A68
:1020E0008867E16FD06C0CF043FD0499059AC867CE
:1020F00040462158506E0CF03BFD4146049B059A2A
:102100005850E159D06F0CF033FD049BD851942303
:10211000059FA159F8580CF02BFD049B9851AC2356
:102120006159F8580CF024FD049B585195239B00ED
:102130009D443CBC90469946A246AB46F0BDC04685
:10214000F0B54E464546DE4657460023E0B51360DF
:10215000836887B09846049200230268052691465A
:102160000093013B019003910293052345469B1B7D
:102170009A465D434B46002B00D197E15544AD0094
:102180004D442B685C006B6864085F007F08391C55
:10219000381C0CF04EFD002800D0E8E0211C381C53
:1021A0000CF042FD002800D0E8E00027731C9B469D
:1021B000012E53D0AB685B005B08191C181C9846B5
:1021C0000CF037FD002800D04DE14046211C0CF0FA
:1021D0002BFD002801D0444602275B46032B3DD04F
:1021E000EB685B005B08191C181C98460CF021FD7D
:1021F000002800D03FE14146201C0CF007FD0028DC
:1022000001D0444603275B46042B27D02B695B0093
:102210005B08191C181C98460CF00BFD002800D018
:1022200031E14146201C0CF0F1FC002801D044466D
:1022300004275B46052B11D06D696D006D08291CC4
:10224000281C0CF0F6FC002800D024E1291C201CDE
:102250000CF0DCFC002801D005272C1C039B009A05
:10226000574400219F50201C0CF0C8FC002800D1CE
:1022700087E0029B013300D1EBE05746019B9B684E
:1022800098465F4306239C1B06239B1BDF1943468E
:10229000424663439D001C19002392009346009A16
:1022A0009A469446BF006544A4004F444D444C44B4
:1022B000396828680CF073FC011C20680CF055FC90
:1022C0002060012E29D0796828680CF068FC011C78
:1022D00060680CF04AFC6060022E1ED02968B86865
:1022E0000CF05DFC011CA0680CF03FFCA060032E0C
:1022F00013D02968F8680CF052FC011CE0680CF05F
:1023000034FCE060052E08D1296838690CF047FCE0
:10231000011C20690CF029FC206101239C46E24449
:102320005D445C445645C3D1009B013E0433009399
:10233000002E00D019E70523039A00215361019B69
:102340009A68013293009B184A469B0098580CF0FB
:1023500055FC002803D0029B013300D1A3E0029872
:1023600007B03CBC90469946A246AB46F0BD211C46
:10237000201C0CF05EFC002800D00FE73C1C01275D
:1023800014E757452FD049464C46019ABB000098A8
:102390004B441D68926809589200255048441960C2
:1023A00081189B1808681C680C60186089189B18B5
:1023B00008681C680C60186089189B1808681C68FD
:1023C0000C60186089189B1808681C680C601860FD
:1023D00089189B1818680A6808601A60049A1368BC
:1023E0000593013313605746019B4A469B685F4340
:1023F000984606239C1B5346FB183D199B009B588F
:10240000AD004D442868191C9A460CF0B4FB2860B6
:10241000012E00D138E7686851460CF0ACFB6860CB
:10242000022E00D130E7A86851460CF0A4FBA8604A
:10243000032E00D128E7E86851460CF09CFBE860C9
:10244000042E00D120E7286951460CF094FB286146
:102450001AE75746019B9B6898465F4306239C1BDF
:102460005346029310E7211C201C0CF0E2FB0028CD
:1024700000D1B0E6A9E6211C201C0CF0DAFB0028F4
:1024800000D1BEE6B7E6211C201C0CF0D2FB0028D0
:1024900000D1CCE6C5E6211C201C0CF0CAFB0028AC
:1024A00000D1D9E6D2E60523029358E71B68FFDE88
:1024B000F0B5DE464E4645465746E0B589B001AF19
:1024C0003A000500059005AB03CB03C26B682C00F6
:1024D0005800AB684008590049080CF049FB2B68CC
:1024E000590049080CF044FB2B69061C58006B6925
:1024F0004008590049080CF03BFBEB6859004908BB
:102500000CF036FB011C301C0CF032FBEB698046F2
:1025100058002B6A4008590049080CF029FBAB69A8
:10252000590049080CF024FBAB6A061C5800EB6A02
:102530004008590049080CF01BFB6B6A5900490818
:102540000CF016FB011C301C0CF012FB6B6B81466F
:102550005800AB6B4008590049080CF009FB2B6B85
:10256000590049080CF004FB2B6C061C58006B6CDE
:102570004008590049080CF0FBFAEB6B5900490878
:102580000CF0F6FA011C301C0CF0F2FA061C011CCF
:1025900048460CF03BFB002800D14E464046311C1B
:1025A0000CF034FB002800D14646E36C5800236D44
:1025B0004008590049080CF0DBFAA36C590049089F
:1025C0000CF0D6FAA36D80465800E36D4008590020
:1025D00049080CF0CDFA636D590049080CF0C8FAAF
:1025E000011C40460CF0C4FA636E80465800A36E8E
:1025F0004008590049080CF0BBFA236E59004908FD
:102600000CF0B6FA236F81465800636F40085900FA
:1026100049080CF0ADFAE36E590049080CF0A8FA2D
:10262000011C48460CF0A4FAE36F81465800802351
:10263000E1584008490049080CF09AFAA36F590084
:1026400049080CF095FA88238246E0580433E15893
:1026500040004900490840080CF08AFA8423E158F8
:10266000490049080CF084FA011C50460CF080FA2D
:10267000041C011C48460CF0C9FA002800D14C4645
:102680004046211C0CF0C2FA002800D14446211C0F
:10269000301C0CF0BBFA002800D1341CC0232900E8
:1026A000EC503A00BA3BA83104A806930495FFF712
:1026B00047FD0121C422019B98260B405B428B43BE
:1026C0000133AB54343A9246002250469C272A509C
:1026D0009432A9509346923AAA510132EA519D325E
:1026E000944660469C3A2A50A03291469F3A9046C2
:1026F0004A4640462B00A85048461832AA58903304
:1027000092009A1814682C50404610606046B82217
:102710002858AA588046604692009A1814682C508F
:1027200040461060B422E859AA58844692009A188C
:1027300010685C46E85160461060B022AA58AF5954
:1027400092009A181068A8511760AC225846AA58EF
:102750002E5892009A18106828511660A822AA587C
:10276000544692009B1852461868AA5828511A607D
:10277000C523E95409B03CBC90469946A246AB46F5
:10278000F0BDC046C023002210B5C2500022043361
:10279000C2520B68040003604B6843608B6883601F
:1027A000CB68C3600B6903614B6943618B698361CB
:1027B000CB69C3610B6A03624B6A43628B6A8362B3
:1027C000CB6AC3620B6B03634B6B43638B6B83639B
:1027D000CB6BC3630B6C03644B6C43648B6C836483
:1027E000CB6CC3640B6D03654B6D43658B6D83656B
:1027F000CB6DC3650B6E03664B6E43668B6E836653
:10280000CB6EC3660B6F03674B6F43678B6F83673A
:10281000CB6FC3678023CA58C2500433CA58C25012
:102820000433CA58C2500433CA58C250FFF740FE9E
:10283000200010BD10B5037A0400002B07D00068FB
:10284000002804D0431E1B78C01A0CF011FB200096
:1028500010BDC046F0B557464E464546DE46E0B58B
:10286000B5B006AFFB64EC23E84DF861F9633A6755
:10287000FB181E682B78BFF35B8FDB0700D484E264
:10288000E34C6368FA699A4633697B62B3683B62DA
:10289000934200DD3A627A6A3B6A53439946FB6B86
:1028A000534398468023DB05994500D351E23368B2
:1028B0003B65002B00D155E24B4600249D00A02330
:1028C000A422FB181C604B46BA18136080239B029D
:1028D000AB42AD41A8236D42FB181D708023DB0580
:1028E000984500D319E27368FB60002B00D11DE20C
:1028F000434600249D00AC23B022FB181C604346D5
:10290000BA18136080239B02AB42AD41B4236D42E1
:10291000FB181D7004237B64FB6B002B15DDE82086
:102920003A18FB6912681900934200DAF3E1504645
:1029300009010AF071FE0323C21713401B189B10F4
:102940009B007B64042B00DAE2E1F969002900DCDA
:102950007BE17B6AB9611A00C91A9C463961E8219A
:10296000F86C9B0042433B60BA607B1862441B6872
:102970007A607A6C5343BB628300FB650433BB65AA
:10298000431C9B00BB667B181B689B007B66E02397
:10299000FB181B683B6300237B63BB637B613B6667
:1029A0008C20BB693A1813607A6A934201DD3B18A8
:1029B0001A60FB6B002B00DC18E18C23FB181B68F2
:1029C000002B00DC12E1FA6BBA647A6C53439B0073
:1029D000FB62FB687B6700237B653B6498339A4608
:1029E000BA448020BB6C3A1813607A6C934201DDC4
:1029F0003B181A603A6B7B6D944690229B006344AF
:102A0000BA18136084227B6BBA181360BB6BFB6728
:102A1000002399468C234A46FB181B689B1A98464C
:102A2000BB67042B01DD042398463B6E94224B4484
:102A3000FB6643465E1E8423FB181B68BA189D0084
:102A40003B6F9C469023FB181B6865441360002E67
:102A500046D094238822FB181C680023B3462E001E
:102A6000BA18136025687168281C0CF098F8011CCE
:102A700060680CF07AF85B466060012B14D0B16896
:102A8000281C0CF08CF8011CA0680CF06EF85B465A
:102A9000A060022B08D0F168281C0CF080F8011C03
:102AA000E0680CF062F8E0608822BB181B68BA1876
:102AB000013313607A6E94468022BA181268644417
:102AC0009342CFD19422BB6E35005E469C46BB1824
:102AD0001B68BA180433013E65441360002EB8D158
:102AE0004246BB6F51469C1A90225346BA18126850
:102AF0001A60E822BA1812685A604B4601938C2378
:102B0000FB181B68424600938023FB181B68786FF4
:102B1000FDF770FD002C37DDFB6E3A6F43441D005E
:102B200094465246FB6F3E6D5B199B0063441360F5
:102B30005346FA6C51465A60300023004246FDF776
:102B400003FE7B6DE8229C46E023FB181B6865446E
:102B50009C465346BA181268AD0065441D605A6021
:102B60004B4604938C23FB181B68310003934346A8
:102B700002938023FB181B68504601934346009341
:102B80007A6F2300FDF708FE04239C46FA6DE144AA
:102B900094469022FB6F84216344FB67BB181B683B
:102BA000BA1810331360BA6D7B1894461B687A18F4
:102BB000634413608C23FB181B684B4500DD29E739
:102BC0007A6CB96C94463B6C8A1AB96A63448C4639
:102BD000BA64F96A7A6D3B6462448C467A657A6FAE
:102BE00062447A67FA6B9A4200DDFAE67A6A3B6ED3
:102BF0009446FA6963443B669A4226DD3A6A002AA3
:102C000036DCF9699B189942FCDC03E0682103205B
:102C10002C370320BA697B6A7969D21ABA61BA681B
:102C20000800944639697A68CB1A3B61BB6B6044F3
:102C300063449446BB633A687B6B78616344944613
:102C40007B633B6B63443B63AAE6982414233A19E5
:102C5000D018FFF7EFFD08233A19D018FFF7EAFD67
:102C6000BD462FB03CBC90469946A246AB46F0BD4F
:102C70003A6F7B69944694229B006344BA181360B0
:102C80003B6E3E69984698239A4600239B46013B3B
:102C900099463300BA444646544698463B6AC24673
:102CA000984500DD9A4694238C22FB181B68B500DA
:102CB000EB182360FB6CB9180A68386D210063605B
:102CC0005346FDF741FDE02179180B68E82179189A
:102CD0009C460B68654463605B46256004934B46E5
:102CE00003930293FB6B200001938C23FB181B685A
:102CF0000093FA685346396DFDF74EFD42463B6A34
:102D00009C46D31A9846FB696644B342C6DC81E709
:102D100004237B6419E6110009E6012040420CF00F
:102D2000CBF87368FB60002B00D0E1E543469D00C3
:102D300080239B029D424AD82B006A461633DB084B
:102D4000DB00D31A9D4627240F236C449C43FC6070
:102D5000D1E5012040420CF0AFF833683B65002B11
:102D600000D0A9E54B469D0080239B029D421ED8C2
:102D70002B006A461633DB08DB00D31A9D46272456
:102D80000F236C449C433C6599E528000EF05EFDE2
:102D90001D4C002800D174E58023DB0123608023D3
:102DA0001B0328006360A3600EF06CFD69E528003A
:102DB00010300CF03FF8041E19D00F2210230240EF
:102DC0009B1ADBB2C418621E13703C6577E52800BD
:102DD00010300CF02FF8041E0FD00F2210230240E9
:102DE0009B1ADBB2C418621E1370FC6083E50120DD
:102DF00040420CF061F83C6561E5012040420CF076
:102E00005BF8FC6077E5C0462C370320F0B5DE4662
:102E100057464E464546E0B5B9B006AFFB67FC23C2
:102E2000384DB963BA64FB181E682B788346BFF32C
:102E30005B8FDB0700D4C1E2334C63689A46336989
:102E40007B61B3683B615B4501DD5B463B617A6951
:102E50003B6953439946BB6B534398468023DB053C
:102E6000994500D38EE233683B65002B00D192E296
:102E70004B4600249D00B023B422FB181C604B4637
:102E8000BA18136080239B02AB42AD41B8236D4258
:102E9000FB181D708023DB05984500D356E273684C
:102EA000FB61002B00D15AE2434600249D00BC2365
:102EB000C022FB181C604346BA18136080239B0293
:102EC000AB42AD41C4236D42FB181D7004233B642B
:102ED000BB6B002B1ADDF823FB181B6859469B457A
:102EE00000DA2FE2504609010AF096FB0323C217CD
:102EF00013401B189B109B003B64042B00DA1EE25E
:102F000004E0C046682103202C3703205B46002BD9
:102F100000DC00E2FA6F78691100434259430B006C
:102F2000F96059460C1A110062431B1A9B00BA61E2
:102F3000BB600A000B0059464B43B96C5B448C469E
:102F4000F0219B006344FB627918830009685B42AF
:102F50007B605B468C46F8219B00634479180968C6
:102F60003B633B6C7C634B433B6293005B423B6641
:102F7000043B7B659B00BB65D3439B00A422BB66DF
:102F80008B007B665B46BA1813600300A422BA1854
:102F900012683B67934200DD3A67BB6B002B00DC95
:102FA00058E13A6F002A00DC54E17B643B6C396BDA
:102FB00053439B007B62FB69FB669300CB1ABB62A9
:102FC00000237B67FB63A433FB181B6803219B1A58
:102FD000BB671300013B043A8B43D31AFB65902275
:102FE0007B6CBA1813603A6C934202DD9023FB1895
:102FF0001A60BA6A7B6F94469B009C446246FA64EE
:103000003A6B944698226344BA1813609422FB6A80
:10301000BA1813603B6F9A465346D346042B01DD22
:1030200004239B468022BB6FBA18534413605B464F
:103030005E1E7B6DF96F99469423FB181A685B46F8
:1030400090465B425B1A9B00A422C1449844012332
:10305000BA185B4213604B46FE20196880050BF0DE
:103060008AFD8C239821FB181860A423791809681D
:10307000FB188C4684211A687918931B9C009B00CE
:103080005B420B6093009C22BA181360A0220023BD
:10309000BA18644413608423FB181B6888229C467A
:1030A000A4446346BA1813609C22BA18126899584F
:1030B0008C23FB1818680BF072FD88239C22FB18E8
:1030C000BA181B681268051C9850002E20D0434681
:1030D00019680BF064FD011C20680BF046FD2060B0
:1030E000012E15D04346281C59680BF058FD011CD1
:1030F00060680BF03AFD6060022E09D04346281C40
:1031000099680BF04CFD011CA0680BF02EFDA0602F
:10311000A023A022FB181B68BA18013313607A6E33
:1031200094469022BA18126864449342B3D1A423FF
:10313000A422FB181B68BA18013B1360BB6E9C46A7
:103140003B6EE1449C46E044013E84D25A465346DD
:103150009C1A8023FB181B68A8219D1AF022BA181C
:1031600012687B6F9446A8225B199B006344BA18CF
:103170001360F823AC22FB181B68BA181360902365
:1031800001943E6FFB1800961B68F86E5A4679183A
:1031900099468046FDF72EFA002C2DDDBA6FF96FA7
:1031A00094464D43BA6C6544A8239446AD006544EB
:1031B000FB181D60AC23FB181960A82123005A4698
:1031C000386D7918FDF7C0FAA823FD6CFB181D6057
:1031D000F823FB181D68AC23FB181D605D464B46A9
:1031E000A82001930494039602950095230042467B
:1031F000396D3818FDF7D0FA04235B429C46BA6D4E
:10320000E244944694229833FB181B68BA1863442E
:10321000136098239822FB181B68BA18103B1360A0
:10322000FB6D534500D0F7E63A6C796C9446FB6B26
:103230008A1A796A63448C467A64396AFA6EFB6347
:1032400062448C46FA667A6F62447A67BA6B9A4235
:1032500000DDC4E6A4227B6BBA181360002B5ADD94
:10326000BA6C1C009146BB6900259B009944002361
:10327000CB469A463E69A046B44200DDB04643467E
:10328000002B2EDDA822AB009946BA185B441360D0
:10329000AC22A821FB6FBA181360386D43463A6F11
:1032A0007918FDF751FAF023A822FB181B68BA1809
:1032B0004B441360F823AC22FB181B68BA18136048
:1032C000534604930123A8205B4203930293BB6BF4
:1032D000381801933B6F0093FA694346396DFDF747
:1032E0005BFA7B6BAD19A41BAB42C4DCFA68BB690B
:1032F0009446BA6863449446BB617A68FB6A634447
:103300009446FB623B6B7A6963443B637B6B9B1A1D
:103310007B6313003AE6A8221423BA18D018FFF7EB
:1033200089FAA8220823BA18D018FFF783FABD46F5
:1033300033B03CBC90469946A246AB46F0BD042350
:103340003B64E3E5F823FB181968CBE50120404214
:103350000BF0B2FD7368FB61002B00D0A4E543467F
:103360009D0080239B029D424AD82B006A4616335B
:10337000DB08DB00D31A9D4627240F236C449C43B3
:10338000FC6194E5012040420BF096FD33683B65FB
:10339000002B00D06CE54B469D0080239B029D4294
:1033A0001ED82B006A461633DB08DB00D31A9D4675
:1033B00027240F236C449C433C655CE528000EF0F9
:1033C00045FA1D4C002800D137E58023DB0123603E
:1033D00080231B0328006360A3600EF053FA2CE5E2
:1033E000280010300BF026FD041E19D00F221023E8
:1033F00002409B1ADBB2C418621E13703C653AE5AA
:10340000280010300BF016FD041E0FD00F221023E1
:1034100002409B1ADBB2C418621E1370FC6146E5C1
:10342000012040420BF048FD3C6524E5012040426C
:103430000BF042FDFC613AE52C370320F0B5DE4687
:1034400045464E465746E0B5214C1600A5443AAADB
:1034500094460A000B931F4B099063441B09049187
:103460001D01FDAB13CA13C313CA13C31268FDA910
:103470001A60194B194A1B6847A80593184B47ACAB
:103480001B680193174B1B6806930093059BFEF77F
:1034900021F83AAA944647ABFD93FF93124BFFAA3B
:1034A00063441B680432FE9613608623DB009C464F
:1034B000AC446046CCAAFDA90D90FEF767F96BAB52
:1034C0000C9323000A9498462C000E950EE0C046FB
:1034D0006CF6FFFFEF030000FC1E03200AE81C410E
:1034E000F41E0320F81E0320D8080000434640467F
:1034F00045461B68806C05930C9BAF6F814620CBC3
:103500004146404642460C93A823096B006E9269DF
:1035100007910890F158281C06920BF040FB8C2371
:103520008246F158381C0BF03AFB011C50460BF058
:103530001FFB316F824608980BF031FB716D83469B
:1035400048460BF02CFB011C58460BF011FB011CEC
:1035500050460BF00DFBB16B824607980BF01FFB3A
:10356000F169834606980BF01AFB011C58460BF0D4
:10357000FFFA3168834605980BF011FB011C584691
:103580000BF0F6FA011C50460BF0F2FAAC23206067
:10359000F158281C0BF003FB90238246F158381C8D
:1035A0000BF0FDFA011C50460BF0E2FA716F8246F7
:1035B00008980BF0F4FAB16D834648460BF0EFFA29
:1035C000011C58460BF0D4FA011C50460BF0D0FAFF
:1035D000F16B824607980BF0E2FA316A834606984F
:1035E0000BF0DDFA011C58460BF0C2FA71688346F5
:1035F00005980BF0D4FA011C58460BF0B9FA011CDF
:1036000050460BF0B5FAB0236060F158281C0BF05F
:10361000C6FA94238246F158381C0BF0C0FA011CFC
:1036200050460BF0A5FAB16F824608980BF0B7FA36
:10363000F16D834648460BF0B2FA011C58460BF078
:1036400097FA011C50460BF093FA316C82460798AA
:103650000BF0A5FA716A834606980BF0A0FA011CDC
:1036600058460BF085FAB168834605980BF097FA37
:10367000011C58460BF07CFA011C50460BF078FAFE
:10368000B423A060F158281C0BF089FA98238246D5
:10369000F158381C0BF083FA011C50460BF068FA05
:1036A000F16F824608980BF07AFA316E83464846ED
:1036B0000BF075FA011C58460BF05AFA011C5046E3
:1036C0000BF056FA716C824607980BF068FAB16AF3
:1036D000834606980BF063FA011C58460BF048FA33
:1036E000F168834605980BF05AFA011C58460BF016
:1036F0003FFA011C50460BF03BFAB823E060F1584A
:10370000281C0BF04CFA9C238246F158381C0BF015
:1037100046FA011C50460BF02BFA80238246F158E2
:1037200008980BF03CFA716E834648460BF037FA66
:10373000011C58460BF01CFA011C50460BF018FAFD
:10374000B16C824607980BF02AFAF16A8346069814
:103750000BF025FA011C58460BF00AFA3169834632
:1037600005980BF01CFA011C58460BF001FA011CDD
:1037700050460BF0FDF9BC232061F158281C0BF0DA
:103780000EFAA0238246F158381C0BF008FA011CEF
:1037900050460BF0EDF984238246F15808980BF05F
:1037A000FEF9B16E834648460BF0F9F9011C584604
:1037B0000BF0DEF9011C50460BF0DAF9F16C824691
:1037C00007980BF0ECF9316B834606980BF0E7F99C
:1037D000011C58460BF0CCF97169834605980BF033
:1037E000DEF9011C58460BF0C3F9011C50460BF0E2
:1037F000BFF9F16E606148460BF0D1F9882381462C
:10380000F15808980BF0CBF9011C48460BF0B0F9C1
:10381000A4238146F158381C9A460BF0C0F9C02306
:10382000071CF158281C0BF0BAF9011C381C0BF0CE
:103830009FF9011C48460BF09BF9716B051C06981B
:103840000BF0ADF9316D071C07980BF0A8F9011CBE
:10385000381C0BF08DF9B169071C05980BF09FF926
:10386000011C381C0BF084F9011C281C0BF080F99A
:1038700004239C464DABE044A0611C34984500D025
:1038800034E6D8230E9D9B00EC1820000D99FEF71E
:1038900079FFA4239B009B46AB442100902258460D
:1038A0000BF004FBC8239B00EC18D033E918182256
:1038B00020000BF0FBFACE239B00E818D033E91868
:1038C00018220BF0F3FA8422D423D200AA1812682B
:1038D0009B00EB181A60D523744A2F00AA1812888F
:1038E0009B00EB18FE211A8000232268B03792005B
:1038F000BA18890511609361136393641366936723
:10390000C9229200AA181268D13C9200BA1813601A
:1039100091611363936413669367CA229200AA1895
:103920001268FF3C9200BA181360936111639364AC
:1039300013669367CB229200AA18126806209200A1
:10394000BA18136093611363916413669367CC2272
:103950009200AA1812689200BA1813609361136358
:10396000936411669367CD229200AA1812689200A0
:10397000BA18136093611363936413660623A360FC
:10398000E360236198466B33FF339946A9449167FE
:103990004A46203BEA50802292009446AC4462465C
:1039A000414662604B3B02910539059203945A46A9
:1039B0000191FF3B05310097FEF74CFF4046A823DD
:1039C000A060E060206148465B00E850012143466A
:1039D000059A062062600394029301915A4600976B
:1039E0000531FFF713FA2B68B8461C93EB69FDAC61
:1039F0001D93AB6B1E936B6D1F932B6F20938C23CA
:103A0000EB5821936B682B932B6A2C93EB6B2D93C4
:103A1000AB6D22936B6F23939023EB582493AB6889
:103A200025936B6A26932B6C2793EB6D2893AB6FD2
:103A300029939423EB582A93EB682E93AB6A1B933C
:103A40006B6C07932B6E0C93EB6F0D939823EB58D5
:103A50000E932B690F93EB6A1093AB6C11936B6E03
:103A60002F938023EB5830939C23EB5831936B6951
:103A700012932B6B1393EB6C34961493AB6E1593DC
:103A80008423EB581693A023EB581793AB69189334
:103A90006B6B19932B6D1A93EB6E32938823EB5853
:103AA00008935346EB58339302E0C04624040000C9
:103AB00043461F685B6842469946434641469B68B9
:103AC000D2680E694D691D984946059306920BF020
:103AD00066F8059982461E980BF061F8011C504665
:103AE0000BF046F8391C82461C980BF058F8011C64
:103AF00050460BF03DF8311C824620980BF04FF8F1
:103B0000291C834621980BF04AF8011C58460BF0FB
:103B10002FF8069983461F980BF041F8011C584670
:103B20000BF026F8011C50460BF022F849462060A5
:103B30002C980BF034F8059982462D980BF02FF84D
:103B4000011C50460BF014F8391C82462B980BF0E0
:103B500026F8011C50460BF00BF8311C82462398C6
:103B60000BF01DF8291C834624980BF018F8011C53
:103B700058460AF0FDFF0699834622980BF00FF88D
:103B8000011C58460AF0F4FF011C50460AF0F0FFF1
:103B90004946606026980BF002F8059982462798FE
:103BA0000AF0FDFF011C50460AF0E2FF391C824674
:103BB00025980AF0F4FF011C50460AF0D9FF311C89
:103BC000824629980AF0EBFF291C83462A980AF0BE
:103BD000E6FF011C58460AF0CBFF06998346289859
:103BE0000AF0DDFF011C58460AF0C2FF011C5046D6
:103BF0000AF0BEFF4946A0601B980AF0D0FF059965
:103C0000824607980AF0CBFF011C50460AF0B0FF2D
:103C1000391C82462E980AF0C2FF011C50460AF059
:103C2000A7FF311C82460D980AF0B9FF291C834674
:103C30000E980AF0B4FF011C58460AF099FF069945
:103C400083460C980AF0ABFF011C58460AF090FF1F
:103C5000011C50460AF08CFF4946E06010980AF0BB
:103C60009EFF0599824611980AF099FF011C504663
:103C70000AF07EFF391C82460F980AF090FF011C63
:103C800050460AF075FF311C824630980AF087FFD3
:103C9000291C834631980AF082FF011C58460AF01D
:103CA00067FF069983462F980AF079FF011C584652
:103CB0000AF05EFF011C50460AF05AFF4946206197
:103CC00013980AF06CFF0599824614980AF067FF72
:103CD000011C50460AF04CFF391C824612980AF02B
:103CE0005EFF011C50460AF043FF311C82461698C5
:103CF0000AF055FF291C834617980AF050FF011C53
:103D000058460AF035FF0699834615980AF047FF92
:103D1000011C58460AF02CFF011C50460AF028FFEF
:103D20004946606119980AF03AFF059981461A9848
:103D30000AF035FF011C48460AF01AFF391C81467B
:103D400018980AF02CFF011C48460AF011FF311C9C
:103D5000071C08980AF023FF291C061C33980AF058
:103D60001EFF011C301C0AF003FF0699051C329847
:103D70000AF015FF011C281C0AF0FAFE011C381C71
:103D80000AF0F6FE18239C46FFABA061A0331C345A
:103D9000E044A34200D08BE6FD9BFE9A069371930C
:103DA000FFAB5C680433FFAB9D680833FFABDF6893
:103DB0000C33FFAB10331B68FF990F937793FFAB66
:103DC0001433079272921A68FFAB183308917391FB
:103DD0001968FFAB1C330C9474941C68FFAB203340
:103DE0000D9575951D68FFAB2433349E0E9776971D
:103DF000109278921191799112947A9413951F6888
:103E0000FFAB28331B687B9515937D93FFABDA6A74
:103E10002C33FFAB196B3033FFAB5C6B3433FFAB30
:103E20009D6B3833FFAB3C3314977C971F68FFAB17
:103E300040331B6816921B938393FFAB44337E92EF
:103E40001A68FFAB483317917F911968FFAB4C3369
:103E5000189480941C68FFAB5033199581951A977C
:103E600082971C9284921D9185911E941D68FFABD0
:103E70005F6D5433FFAB58331B688694219389934D
:103E8000FFABDA6D5C33FFAB196E6033FFAB5C6E7A
:103E90006433FFAB68331F9587951D68FFAB6C33A8
:103EA000209788971F68FFAB70331B682292279377
:103EB0008F93FFAB74338A921A68FFAB78332391E8
:103EC0008B911968FFAB7C3324948C9425958D9548
:103ED00026978E972892909229911C68FFAB803389
:103EE0001D68FFAB84331F68FFAB88331B6891915B
:103EF0002D939593FFAB8C331A68FFAB9033196801
:103F0000FFAB94332A9492941C68FFAB98332B95A3
:103F100093951D68FFAB9C332C9794971F682E9246
:103F20009692049A2F9197913094989431959995FF
:103F300032979A97FDAB32CA32C332CA32C3116884
:103F4000FDAC1960FD49FE4B09681B680191FD49F4
:103F5000FD4A09682000009141A9FDF71BF80B9F5D
:103F6000419938680AF001FE4299834678680AF060
:103F7000FCFD4399041CB8680AF0F7FD4499051C40
:103F8000F8680AF0F2FD4599824638690B970AF005
:103F9000ECFD0B9B071C469958690AF0E6FD80462C
:103FA000011C2D980AF0FBFD391C814626980AF069
:103FB000F6FD011C48460AF0DBFD5346814651469A
:103FC0001F9805930AF0EBFD011C48460AF0D0FD4E
:103FD000291C814618980AF0E2FD211C824611989E
:103FE0000AF0DDFD011C50460AF0C2FD594682462A
:103FF00007980AF0D4FD011C50460AF0B9FD011CD7
:1040000048460AF0B5FD049A51680AF0B1FD4146F0
:104010000B902E980AF0C3FD391C814627980AF0B0
:10402000BEFD011C48460AF0A3FD05998146209873
:104030000AF0B5FD011C48460AF09AFD291C81468C
:1040400019980AF0ACFD211C824612980AF0A7FDCF
:10405000011C50460AF08CFD5946824608980AF029
:104060009EFD011C50460AF083FD011C48460AF0E3
:104070007FFD049A91680AF07BFD414633902F98AA
:104080000AF08DFD391C814628980AF088FD011C34
:1040900048460AF06DFD0599814621980AF07FFD9A
:1040A000011C48460AF064FD291C81461A980AF052
:1040B00076FD211C824613980AF071FD011C5046C2
:1040C0000AF056FD594682460C980AF068FD011C1C
:1040D00050460AF04DFD011C48460AF049FD049A7D
:1040E000D1680AF045FD4146349030980AF057FDFA
:1040F000391C814629980AF052FD011C48460AF0F5
:1041000037FD0599814622980AF049FD011C484671
:104110000AF02EFD291C81461B980AF040FD211C47
:10412000824614980AF03BFD011C50460AF020FD1F
:10413000594682460D980AF032FD011C50460AF09D
:1041400017FD011C48460AF013FD049A11690AF094
:104150000FFD4146359031980AF021FD391C81460A
:104160002A980AF01CFD011C48460AF001FD059939
:10417000814623980AF013FD011C48460AF0F8FC1A
:10418000291C81461C980AF00AFD211C82461598BC
:104190000AF005FD011C50460AF0EAFC5946824629
:1041A0000E980AF0FCFC011C50460AF0E1FC011CD0
:1041B00048460AF0DDFC049A51690AF0D9FC211C3A
:1041C000369016980AF0EBFC291C81461D980AF0DF
:1041D000E6FC011C48460AF0CBFC594681460F9884
:1041E0000AF0DDFC011C48460AF0C2FC391C81467D
:1041F0002B980AF0D4FC4146824632980AF0CFFC54
:10420000011C50460AF0B4FC0599824624980AF035
:10421000C6FC011C50460AF0ABFC011C48460AF0E3
:10422000A7FC049A91690AF0A3FC414681462C98A8
:104230000AF0B5FC391C804625980AF0B0FC011C38
:1042400040460AF095FC0599071C1E980AF0A7FC49
:10425000011C381C0AF08CFC291C071C17980AF05A
:104260009EFC211C051C10980AF099FC011C281CBE
:104270000AF07EFC5946041C06980AF090FC011CCA
:10428000201C0AF075FC011C381C0AF071FC049A11
:10429000FDAC11680AF06CFC099B0B9A18605A601F
:1042A000339A9A60349ADA60359A1A61369A5A616A
:1042B0004A469A613368CC937368CD93B368CE93C2
:1042C000F368CF933369D0937369D193B369D29371
:1042D000F369D393336AD493736AD593B36AD6934D
:1042E000F36AD793336BD893736BD993B36BDA9329
:1042F000F36BDB93336CDC93736CDD93B36CDE9305
:10430000F36CDF93336DE093736DE193B36DE293E0
:10431000F36DE393336EE493736EE593B36EE693BC
:10432000F36EE793336FE893736FE993B36FEA9398
:10433000F36FEB938023F358EC9307E0F41E032014
:10434000FC1E0320F81E03200AE81C418423F358B6
:10435000ED938823F358EE938C23F358EF93902337
:10436000F358F0939423F358F1939823F358F2936E
:104370009C23F3580B96F393A023F358F493A423B0
:10438000F358F593A823F358F693AC23F358F79317
:10439000B023F358F893B423F358F993B823F358A0
:1043A000FA93BC23F358FB93C023F358FC930A9B66
:1043B00010985A681F6891469A6849469046DA688C
:1043C0001E695D6905920AF0EAFB4146824617982C
:1043D0000AF0E5FB011C50460AF0CAFB391C824674
:1043E00006980AF0DCFB011C50460AF0C1FB311CA8
:1043F000824625980AF0D3FB291C83462C980AF0A4
:10440000CEFB011C58460AF0B3FB059983461E9863
:104410000AF0C5FB011C58460AF0AAFB011C5046D5
:104420000AF0A6FB4946206011980AF0B8FB414605
:10443000824618980AF0B3FB011C50460AF098FB1C
:10444000391C824607980AF0AAFB011C50460AF064
:104450008FFB311C824626980AF0A1FB291C83465B
:104460002D980AF09CFB011C58460AF081FB059927
:1044700083461F980AF093FB011C58460AF078FB0C
:10448000011C50460AF074FB4946606012980AF01D
:1044900086FB4146824619980AF081FB011C504672
:1044A0000AF066FB391C824608980AF078FB011C6A
:1044B00050460AF05DFB311C824627980AF06FFBDC
:1044C000291C83462E980AF06AFB011C58460AF004
:1044D0004FFB0599834620980AF061FB011C584662
:1044E0000AF046FB011C50460AF042FB4946A06018
:1044F00013980AF054FB414682461A980AF04FFB83
:10450000011C50460AF034FB391C82460C980AF014
:1045100046FB011C50460AF02BFB311C82462898B2
:104520000AF03DFB291C83462F980AF038FB011C3A
:1045300058460AF01DFB0599834621980AF02FFB87
:10454000011C58460AF014FB011C50460AF010FBEF
:104550004946E06014980AF022FB414682461B98C7
:104560000AF01DFB011C50460AF002FB391C824672
:104570000D980AF014FB011C50460AF0F9FA311CA0
:10458000824629980AF00BFB291C834630980AF0D2
:1045900006FB011C58460AF0EBFA0599834622985F
:1045A0000AF0FDFA011C58460AF0E2FA011C5046D6
:1045B0000AF0DEFA4946206115980AF0F0FA414601
:1045C00082461C980AF0EBFA011C50460AF0D0FA19
:1045D000391C82460E980AF0E2FA011C50460AF095
:1045E000C7FA311C82462A980AF0D9FA291C834658
:1045F00031980AF0D4FA011C58460AF0B9FA059924
:10460000834623980AF0CBFA011C58460AF0B0FA08
:10461000011C50460AF0ACFA4946606116980AF04F
:10462000BEFA414681461D980AF0B9FA011C484677
:104630000AF09EFA391C80460F980AF0B0FA011C65
:1046400040460AF095FA311C071C2B980AF0A7FA8D
:10465000291C061C32980AF0A2FA011C301C0AF030
:1046600087FA0599051C24980AF099FA011C281C60
:104670000AF07EFA011C381C0AF07AFA0A9BA06143
:1046800018330A93FFAB1C34BC33A34200D08EE630
:10469000C4239C460B9ECCADB444634634003C9688
:1046A0000A9308962369A6699846E36821689946A3
:1046B000A36862680793FFABA0330591301C1968AB
:1046C00006920AF06CFA6769FFAB84331968824678
:1046D000381C0AF064FA011C50460AF049FAFFAB94
:1046E000996E8246404668330AF059FAFFABD96C9E
:1046F000834648464C330AF052FA011C58460AF0E9
:1047000037FA011C50460AF033FAFFAB196B8246A8
:10471000079830330AF043FAFFAB5969834606988D
:1047200014330AF03CFA011C58460AF021FAFD99AC
:10473000834605980AF033FA011C58460AF018FA25
:10474000011C50460AF014FA011C28680AF00DFA00
:10475000FFABA43328601968301C0AF020FAFFABC5
:10476000883319688246381C0AF019FA011C504631
:104770000AF0FEF9FFABD96E824640466C330AF070
:104780000EFAFFAB196D8346484650330AF007FA1C
:10479000011C58460AF0ECF9011C50460AF0E8F9F1
:1047A000FFAB596B8246079834330AF0F8F9FFAB38
:1047B00099698346069818330AF0F1F9011C5846A6
:1047C0000AF0D6F9FE99834605980AF0E8F9011C2B
:1047D00058460AF0CDF9011C50460AF0C9F9011CEF
:1047E00068680AF0C2F9FFABA83319686860301C2A
:1047F0000AF0D5F9FFAB8C3319688246381C0AF0F1
:10480000CEF9011C50460AF0B3F9FFAB8246196F8E
:10481000404670330AF0C3F9FFAB596D83464846F2
:1048200054330AF0BCF9011C58460AF0A1F9011CE6
:1048300050460AF09DF9FFAB996B824607983833D2
:104840000AF0ADF9FFABD969834606981C330AF02C
:10485000A6F9011C58460AF08BF9FF998346059882
:104860000AF09DF9011C58460AF082F9011C5046D5
:104870000AF07EF9011CA8680AF077F9FFABAC33A7
:104880001968A860301C0AF08AF9FFAB90331968E8
:104890008246381C0AF083F9011C50460AF068F978
:1048A000FFAB596F8246404674330AF078F9FFAB8C
:1048B000996D8346484658330AF071F9011C5846F1
:1048C0000AF056F9011C50460AF052F9FFAB824635
:1048D000D96B07983C330AF062F9FFAB196A83463B
:1048E000069820330AF05BF9011C58460AF040F99B
:1048F000FFAB59688346059804330AF050F9011C50
:1049000058460AF035F9011C50460AF031F9011CED
:10491000E8680AF02AF9FFABB0331968E860301C88
:104920000AF03DF9FFAB943319688246381C0AF04F
:1049300036F9011C50460AF01BF9FFAB996F82460D
:10494000404678330AF02BF9FFABD96D83464846D1
:104950005C330AF024F9011C58460AF009F9011CDD
:1049600050460AF005F9FFAB196C824607984033B0
:104970000AF015F9FFAB596A8346069824330AF00A
:104980000EF9011C58460AF0F3F8FFAB996883460C
:10499000059808330AF003F9011C58460AF0E8F8B4
:1049A000011C50460AF0E4F8011C28690AF0DDF801
:1049B000FFABB43319682861301C0AF0F0F8FFAB84
:1049C000983319688246381C0AF0E9F8011C5046F1
:1049D0000AF0CEF8FFABD96F824640467C330AF02E
:1049E000DEF8FFAB196E8346484660330AF0D7F80D
:1049F000011C58460AF0BCF8011C50460AF0B8F8F1
:104A0000FFAB596C8246079844330AF0C8F8FFABF5
:104A1000996A8346069828330AF0C1F8011C584663
:104A20000AF0A6F8FFABD968834605980C330AF064
:104A3000B6F8011C58460AF09BF8011C50460AF0D3
:104A400097F8011C68690AF090F8FFAB596E68612D
:104A5000484664330AF0A3F8FFAB803319688146F7
:104A600040460AF09CF8011C48460AF081F8FFAB6A
:104A70009C3319688046381C0AF091F8FFABB833B4
:104A80001968071C301C0AF08AF8011C381C0AF04F
:104A90006FF8011C40460AF06BF8FFABD96A061CA0
:104AA00006982C330AF07BF8FFAB996C071C07982B
:104AB00048330AF074F8011C381C0AF059F8FFABAF
:104AC0001969071C059810330AF069F8011C381C95
:104AD0000AF04EF8011C301C0AF04AF8011CA869C3
:104AE0000AF043F80A9B1C34A8611C359C4200D094
:104AF000D8E5089ECC9B3360CD9B7360CE9BB360A2
:104B0000CF9BF360D09B3361D19B7361D29BB36128
:104B1000D39BF361D49B3362D59B7362D69BB36204
:104B2000D79BF362D89B3363D99B7363DA9BB363E0
:104B3000DB9BF363DC9B3364DD9B7364DE9BB364BC
:104B4000DF9BF364E09B3365E19B7365E29BB36598
:104B5000E39BF365E49B3366E59B7366E69BB36674
:104B6000E79BF366E89B3367E99B7367EA9BB36750
:104B7000EB9BF3678023EC9AF250ED9A0433F250EA
:104B8000EE9A0433F250EF9A0433F250F09A043361
:104B9000F250F19A0433F250F29A0433F250F39A3D
:104BA0000433F250F49A0433F250F59A0433F2507D
:104BB000F69A0433F250F79A0433F250F89A043319
:104BC000F250F99A0433F250FA9A0433F250FB9AF5
:104BD0000433F250FC9A0433F2503AAA8D239446DF
:104BE0001B0163441B68CCAA13CB13C28E231B0189
:104BF00063441B68FDAC07CB07C4049B099D00936D
:104C0000494B28006344CCA91B68FDAAFCF7A0F817
:104C10002B00FDAA23CB23C2220013CB13C21B6897
:104C20003AA913608D238C463EAA11001B016344F0
:104C30001B6831CB31C18E231B0163441B68CCA997
:104C400031CB31C1384BFDA963441B689BA800934D
:104C5000CCABFCF7E3FAFDAB08931C009B9B0B93DA
:104C6000A29B1293A99B1993B09B2093B79B279368
:104C7000BE9B2E93C59B35939C9B0C93A39B139338
:104C8000AA9B1A93B19B2193B89B2893BF9B2F9308
:104C9000C69B36939D9B0D93A49B1493AB9B1B9338
:104CA000B29B2293B99B2993C09B3093C79B3793A8
:104CB0009E9B0E93A59B1593AC9B1C93B39B239338
:104CC000BA9B2A93C19B3193C89B38939F9B0F93A8
:104CD000A69B1693AD9B1D93B49B2493BB9B2B93D8
:104CE000C29B3293C99B3993A09B1093A79B1793A8
:104CF000AE9B1E93B59B2593BC9B2C93C39B339378
:104D0000CA9B3A93A19B1193A89B1893AF9B1F93A7
:104D1000B69B2693BD9B2D93C49B3493CB9B3B9317
:104D20003C9B3C96984601E0E40800004146C96877
:104D300040468946414642464346866909691B68A2
:104D40005568926847690791301C3599059306921A
:104D500009F025FF2E998246381C09F020FF011C1E
:104D6000504609F005FF27998246079809F017FF7A
:104D700020998346484609F012FF011C584609F065
:104D8000F7FE011C504609F0F3FE19998246069879
:104D900009F005FF12998346281C09F000FF011C49
:104DA000584609F0E5FE0B998346059809F0F7FE91
:104DB000011C584609F0DCFE011C504609F0D8FEE3
:104DC00036992060301C09F0EAFE2F998246381C83
:104DD00009F0E5FE011C504609F0CAFE28998246FA
:104DE000079809F0DCFE21998346484609F0D7FE72
:104DF000011C584609F0BCFE011C504609F0B8FEE3
:104E00001A998246069809F0CAFE13998346281C0F
:104E100009F0C5FE011C584609F0AAFE0C9983460C
:104E2000059809F0BCFE011C584609F0A1FE011CC2
:104E3000504609F09DFE311C6060379809F0AFFEC6
:104E4000391C8246309809F0AAFE011C504609F030
:104E50008FFE29998246079809F0A1FE2299834680
:104E6000484609F09CFE011C584609F081FE011CD1
:104E7000504609F07DFE1B998246069809F08FFE88
:104E800014998346281C09F08AFE011C584609F033
:104E90006FFE0D998346059809F081FE011C584666
:104EA00009F066FE011C504609F062FE311CA0604C
:104EB000389809F074FE391C8246319809F06FFE6B
:104EC000011C504609F054FE079982462A9809F0C1
:104ED00066FE49468346239809F061FE011C584648
:104EE00009F046FE011C504609F042FE0699824632
:104EF0001C9809F054FE291C8346159809F04FFEB2
:104F0000011C584609F034FE059983460E9809F0B5
:104F100046FE011C584609F02BFE011C504609F0C4
:104F200027FE311CE060399809F039FE391C8246B1
:104F3000329809F034FE011C504609F019FE079919
:104F400082462B9809F02BFE49468346249809F0A7
:104F500026FE011C584609F00BFE011C504609F0C4
:104F600007FE069982461D9809F019FE291C834602
:104F7000169809F014FE011C584609F0F9FD059930
:104F800083460F9809F00BFE011C584609F0F0FD0E
:104F9000011C504609F0ECFD311C20613A9809F0E3
:104FA000FEFD391C8246339809F0F9FD011C50467C
:104FB00009F0DEFD079982462C9809F0F0FD49467C
:104FC0008346259809F0EBFD011C584609F0D0FDF9
:104FD000011C504609F0CCFD069982461E9809F046
:104FE000DEFD291C8346179809F0D9FD011C58469F
:104FF00009F0BEFD05998346109809F0D0FD011C0B
:10500000584609F0B5FD011C504609F0B1FD49466E
:105010006061269809F0C3FD079981462D9809F033
:10502000BEFD011C484609F0A3FD391C8146349899
:1050300009F0B5FD311C071C3B9809F0B0FD011CBF
:10504000381C09F095FD011C484609F091FD291C0A
:10505000061C189809F0A3FD0699051C1F9809F075
:105060009EFD011C281C09F083FD0599051C119863
:1050700009F095FD011C281C09F07AFD011C301C6B
:1050800009F076FD1C239C460A9BE044A0611C3479
:10509000984500D04AE6FFAB84333C9E0793FFABB4
:1050A000CCAC14333C940A933D96089B1A68586D17
:1050B0000592079A996BD6698146186F06918046CA
:1050C000311C3598DD69176809F069FD391C824685
:1050D0002E9809F064FD011C504609F049FD414637
:1050E0008246279809F05BFD20998346484609F0DF
:1050F00056FD011C584609F03BFD011C504609F0C5
:1051000037FD19998246069809F049FD12998346A0
:10511000281C09F044FD011C584609F029FD0B9993
:105120008346059809F03BFD011C584609F020FD17
:10513000011C504609F01CFD311C2060369809F016
:105140002EFD391C82462F9809F029FD011C50467E
:1051500009F00EFD41468246289809F020FD494697
:105160008346219809F01BFD011C584609F000FDFB
:10517000011C504609F0FCFC069982461A9809F079
:105180000EFD291C8346139809F009FD011C5846A1
:1051900009F0EEFC059983460C9809F000FD011C0E
:1051A000584609F0E5FC011C504609F0E1FC311CB1
:1051B0006060379809F0F3FC391C8246309809F09A
:1051C000EEFC011C504609F0D3FC4146824629986A
:1051D00009F0E5FC49468346229809F0E0FC011CF1
:1051E000584609F0C5FC011C504609F0C1FC06995F
:1051F00082461B9809F0D3FC291C8346149809F0B9
:10520000CEFC011C584609F0B3FC059983460D9865
:1052100009F0C5FC011C584609F0AAFC011C5046C7
:1052200009F0A6FC311CA060389809F0B8FC391CC4
:105230008246319809F0B3FC011C504609F098FCF5
:10524000414682462A9809F0AAFC4946834623989B
:1052500009F0A5FC011C584609F08AFC011C5046C7
:1052600009F086FC069982461C9809F098FC291CD6
:105270008346159809F093FC011C584609F078FC08
:10528000059983460E9809F08AFC011C584609F0DE
:105290006FFC011C504609F06BFC311CE060399832
:1052A00009F07DFC391C8246329809F078FC011C1B
:1052B000504609F05DFC414682462B9809F06FFC90
:1052C00049468346249809F06AFC011C584609F0B7
:1052D0004FFC011C504609F04BFC069982461D9874
:1052E00009F05DFC291C8346169809F058FC011C46
:1052F000584609F03DFC059983460F9809F04FFC8C
:10530000011C584609F034FC011C504609F030FCE1
:10531000311C20613A9809F042FC391C82463398CE
:1053200009F03DFC011C504609F022FC4146824632
:105330002C9809F034FC49468346259809F02FFC47
:10534000011C584609F014FC011C504609F010FCE1
:10535000069982461E9809F022FC291C834617985C
:1053600009F01DFC011C584609F002FC0599834612
:10537000109809F014FC011C584609F0F9FB011CB7
:10538000504609F0F5FB49466061269809F007FC94
:10539000414681462D9809F002FC011C484609F05F
:1053A000E7FB391C8046349809F0F9FB311C071CD7
:1053B0003B9809F0F4FB011C381C09F0D9FB011CD7
:1053C000404609F0D5FB291C061C189809F0E7FB9C
:1053D0000699051C1F9809F0E2FB011C281C09F026
:1053E000C7FB0599051C119809F0D9FB011C281C65
:1053F00009F0BEFB011C301C09F0BAFB079A089BA0
:10540000043207920A9A0433A06108931C349A422A
:1054100000D04AE63AAA9446744B744A63441B6827
:1054200062441B6812680893704B3D9E63441B687E
:10543000FDACDB690A936D4B63441B689B6B0B935C
:105440006A4B63441B685B6D0C93684B63441B6839
:105450001B6F0D938C23D358644A0E93634B6244A5
:1054600063441B685B680F93604B63441B681B6A53
:1054700010935E4B63441B68DB6B11935B4B63447F
:105480001B689B6D1293594B63441B685B6F1268DA
:1054900013939023D358554A1493544B6244634456
:1054A0001B6812689B681593504B63441B685B6ACA
:1054B00016934E4B63441B681B6C17934B4B634412
:1054C0001B68DB6D1893494B63441B689B6F1993F2
:1054D0009423D358454A1A93444B624463441B684F
:1054E000DB681B93414B63441B689B6A1C933F4BD7
:1054F00063441B685B6C1D933C4B63441B681268E0
:105500001B6E1E93394B63441B68DB6F1F939823FC
:10551000D358364A2093354B624463441B68126863
:105520001B692193314B63441B68DB6A22932F4B29
:1055300063441B689B6C23932C4B63441B685B6E1A
:1055400024938023D358294A25939C2362441268CC
:10555000D358264A2693254B624463441B685B69F3
:105560002793224B63441B681B6B28931F4B1268C5
:1055700063441B68DB6C29931C4B63441B689B6E64
:105580002A938423D358194A2B93A0236244126888
:10559000D358164A2C93154B624463441B68126817
:1055A0009B692D93114B63441B685B6B2E930F4BD0
:1055B00063441B681B6D2F930C4B63441B68DB6EAD
:1055C00030938823D358094A3193A4236244126844
:1055D000D3583293064B63441B689846FDAB079340
:1055E000902343443393349604E0C046DC08000023
:1055F000D408000043461F685B684246994643460C
:1056000041469B68D2680E694D6948460A990593E0
:10561000069209F0C4FA0B998246059809F0BFFA80
:10562000011C504609F0A4FA08998246381C09F07A
:10563000B6FA011C504609F09BFA0D998246301CBF
:1056400009F0ADFA0E998346281C09F0A8FA011C4E
:10565000584609F08DFA0C998346069809F09FFA8E
:10566000011C584609F084FA011C504609F080FAE2
:1056700010992060484609F092FA119982460598DF
:1056800009F08DFA011C504609F072FA0F99824612
:10569000381C09F084FA011C504609F069FA139984
:1056A0008246301C09F07BFA14998346281C09F0C5
:1056B00076FA011C584609F05BFA1299834606985F
:1056C00009F06DFA011C584609F052FA011C5046C7
:1056D00009F04EFA16996060484609F060FA179989
:1056E0008246059809F05BFA011C504609F040FA21
:1056F00015998246381C09F052FA011C504609F0EF
:1057000037FA19998246301C09F049FA1A998346EA
:10571000281C09F044FA011C584609F029FA189986
:105720008346069809F03BFA011C584609F020FA16
:10573000011C504609F01CFAA0601C99484609F06B
:105740002EFA1D998246059809F029FA011C504647
:1057500009F00EFA1B998246381C09F020FA011C48
:10576000504609F005FA1F998246301C09F017FAD5
:1057700020998346281C09F012FA011C584609F0AA
:10578000F7F91E998346069809F009FA011C584654
:1057900009F0EEF9011C504609F0EAF92299E0609F
:1057A000484609F0FCF923998246059809F0F7F973
:1057B000011C504609F0DCF921998246381C09F099
:1057C000EEF9011C504609F0D3F925998246301CA8
:1057D00009F0E5F926998346281C09F0E0F9011C37
:1057E000584609F0C5F924998346069809F0D7F977
:1057F000011C584609F0BCF9011C504609F0B8F9E3
:1058000028992061484609F0CAF9299982460598E5
:1058100009F0C5F9011C504609F0AAF927998246FA
:10582000381C09F0BCF9011C504609F0A1F92B996C
:105830008246301C09F0B3F92C998346281C09F0E4
:10584000AEF9011C584609F093F92A998346069847
:1058500009F0A5F9011C584609F08AF9011C5046C7
:1058600009F086F92E996061484609F098F92F9958
:105870008146059809F093F9011C484609F078F92A
:105880002D998146381C09F08AF9011C484609F017
:105890006FF93199071C301C09F081F93299061C07
:1058A000281C09F07CF9011C301C09F061F93099C1
:1058B000051C069809F073F9011C281C09F058F919
:1058C000011C381C09F054F918239C46339BE04412
:1058D000A0611C34434500D08CE6FFAB84330693B3
:1058E000FFAB14333C9C3393079B0D99DA691E6F11
:1058F00091469A6B301C90465A6D1F680592069A25
:1059000020CA069209F04BF90E998246281C09F02C
:1059100046F9011C504609F02BF90C99824605986E
:1059200009F03DF9011C504609F022F90A99824616
:10593000484609F034F90B998346404609F02FF99F
:10594000011C584609F014F908998346381C09F0DF
:1059500026F9011C584609F00BF9011C504609F0C4
:1059600007F9011C206809F003F9109920604846E6
:1059700009F015F911998246404609F010F9011C09
:10598000504609F0F5F80F998246381C09F007F9DE
:10599000011C504609F0ECF813998246301C09F0BE
:1059A000FEF814998346281C09F0F9F8011C5846A2
:1059B00009F0DEF812998346059809F0F0F8011C09
:1059C000584609F0D5F8011C504609F0D1F8011CE1
:1059D000606809F0CDF816996060484609F0DFF874
:1059E00017998246404609F0DAF8011C504609F042
:1059F000BFF815998246381C09F0D1F8011C5046B1
:105A000009F0B6F819998246301C09F0C8F81A99BD
:105A10008346281C09F0C3F8011C584609F0A8F871
:105A200018998346059809F0BAF8011C584609F000
:105A30009FF8011C504609F09BF8011CA06809F072
:105A400097F81C99A060484609F0A9F81D9982466C
:105A5000404609F0A4F8011C504609F089F81B994A
:105A60008246381C09F09BF8011C504609F080F86A
:105A70001F998246301C09F092F820998346281C11
:105A800009F08DF8011C584609F072F81E998346FA
:105A9000059809F084F8011C584609F069F8011CC2
:105AA000504609F065F8011CE06809F061F8229998
:105AB000E060484609F073F823998246404609F0B1
:105AC0006EF8011C504609F053F821998246381CA3
:105AD00009F065F8011C504609F04AF825998246FC
