:020000041000EA
:1000000000B5324B212058609868022188439860DF
:10001000D860186158612E4B002199600221596106
:100020000121F02299502B49196001219960352056
:1000300000F044F80222904214D00621196600F024
:1000400034F8196E01211966002018661A6600F04E
:100050002CF8196E196E196E052000F02FF8012189
:100060000842F9D1002199601B49196000215960AB
:100070001A491B48016001219960EB211966A021F2
:10008000196600F012F800219960164914480160C1
:100090000121996001BC002800D000471248134993
:1000A000086003C880F30888084703B5996A0420EC
:1000B0000142FBD001200142F8D103BD02B5186610
:1000C0001866FFF7F2FF186E186E02BD00000240BE
:1000D000000000180000070000035F00212200005C
:1000E000F4000018222000A00001001008ED00E03C
:1000F00000000000000000000000000074B24E7A12
:1001000000200420F7010010C3010010C5010010F9
:10011000C1010010C1010010C1010010C101001097
:10012000C1010010C1010010C1010010C701001081
:10013000C1010010C1010010C9010010CB01001065
:10014000CD010010CD010010CD010010CD01001037
:10015000CD010010CD010010CD010010CD01001027
:10016000CD010010CD010010CD010010CD01001017
:10017000CD010010CD010010CD010010CD01001007
:10018000CD010010CD010010CD010010CD010010F7
:10019000CD010010CD010010CD010010CD010010E7
:1001A000CD010010CD010010CD010010CD010010D7
:1001B000CD010010CD010010CD010010CD010010C7
:1001C00000BE00BE00BE00BE00BE00BEEFF3058054
:1001D000103800BEF2EB8871803F0510A03F05107B
:1001E0003402001090A31AE700201F49086006C8D7
:1001F00081F3088810471D48006800282FD10DA4FE
:100200000ECC002902D000F012F8F9E71849194A7B
:10021000002000E001C19142FCD1174988471749ED
:1002200088471749884700BEFDE701C901C29A42C5
:10023000FBD37047A03F0510C0000020102D002008
:10024000F06B05100000042000000420F06B051086
:10025000001004200010042000000000704709482E
:100260000CF0FAFF0047000008ED00E0000000D0AD
:10027000102D00201C5903209DB9001055030010BB
:10028000D1BA00105756000006005250ABB360536D
:10029000709D041006005250861C0302809D0410BD
:1002A000060052505422A29D8C9D0410050052500D
:1002B000DE65F468F06B0510F8B5C0460448054BE0
:1002C00010B5834203D0044B002B00D0984710BDDB
:1002D000102D0020102D00200000000006480749C6
:1002E000091A8B10C90FC91810B5491003D0044B57
:1002F000002B00D0984710BD102D0020102D00209D
:100300000000000010B5074C2378002B09D1FFF73F
:10031000D5FF054B002B02D0044800E000BF0123AD
:10032000237010BD582F002000000000C898041052
:10033000054B10B5002B03D00449054800E000BF71
:10034000FFF7CCFF10BDC046000000005C2F00206E
:10035000C898041070B5192009F0BEFDD023802282
:100360001B0692045A620EF05BFB00F047F806F0A1
:10037000C1FD07F0ABFF06F0C9FF09F03BF9002211
:100380000524144B1A7006F09DF9134D013C210011
:1003900028000EF039FBFA2080000AF0A9FB002C9F
:1003A000F4D10A200EF08EF9012200210B480AF048
:1003B0005BF80B4810F010FD01220A4B0A4C1A7032
:1003C0002378012BFCD108F03DF92378012BFAD0DA
:1003D000F6E7C04638560320C8980410705503202D
:1003E00089880010375603203C56032010B5024878
:1003F00011F01AF810BDC04604370320092370B568
:1004000086B0059304330493023B0393013B0293AC
:10041000023B324D324C0193324B22003249334879
:1004200000932B0005F00CFE142005F005FEFA20C9
:1004300080000AF05DFB2E4E21003200280006F0FD
:1004400017F83378682B08D02A4C20000EF086F974
:10045000FA2080000AF04CFBF7E773783D2BF3D1CC
:1004600001222100280006F027F8234E3200210047
:10047000280006F05BF83378002BF7D10122210029
:10048000280005F0D7FE0121200005F0B5FE03216C
:10049000200005F047FE0321280005F071FF13211D
:1004A000200006F0B1F81221200006F0EBF8002140
:1004B000200006F0C9F80321200006F053F80221BD
:1004C000200006F06BF85521200005F049FE1821A8
:1004D000280005F0EFFE06B070BDC046F41E0320F4
:1004E000D830002040420F001C21002014210020A1
:1004F000FC550320DC98041050560320F0B5C64686
:10050000334C344D344E22002900300000B505F044
:10051000C1FF6378DB439B0720D023781B0702D4FD
:1005200004BC9046F0BD2D4C0622002120000DF0A9
:10053000A3FF2100300005F07DFF0023E05E05F001
:10054000E7FD274D28600223E05E05F0E1FD6860CD
:100550000423E05E05F0DCFDA860E1E7214B062204
:100560009846180000210DF087FF1F4F062200213A
:1005700038000DF081FF4146280005F03DFF3900AD
:10058000280005F01BFF43460020185E05F0ACFD77
:100590004346164D28600220185E05F0A5FD43462F
:1005A00068600420185E05F09FFDA8600023F85ED7
:1005B00005F0A4FD0E4D28600223F85E05F09EFDB7
:1005C00068600423F85E05F099FDA860A5E7C046C1
:1005D000844B0320D8300020F41E0320303C03203D
:1005E000D0400320203C0320283C0320C43A0320B1
:1005F000E03A0320F0B55746DE464E464546E0B5A4
:100600008BB008919246190005900993DA170323DD
:100610008C46134063449B109B009846002B00DCE3
:100620008FE05246159B00249B000193149B0025EC
:100630009B1A159A9B1A089A9B000293536812689A
:100640001901944606929A0003925246013A92008A
:100650000792002291465A000491DF005146D318B8
:100660009B0042469B4623008E0066440092019AFE
:1006700094469C44039B5C19D8195346002B1EDDFD
:10068000069B05995A196346884600999B00434486
:1006900088460095116819600099511A0D59043265
:1006A0005D60CD599D600958D96010339642F1D1F3
:1006B0004346079A00936346944604339C440422BD
:1006C000029B5C4463449446049AE1449446009A35
:1006D00058442500070066444A45C8DC1C00904683
:1006E000099B434526DD149A1598089B151A524616
:1006F0000ACBAD1A002A1DDD42469E0053439B00E3
:10070000C91853469800059B47469C46099BAB4633
:100710009846159B994600234C44A2006244CD584C
:10072000D55004339842FAD1544401375C448919B6
:10073000B845F0D10BB03CBC90469946A246AB46BA
:10074000F0BD0024CCE7C046F0B5CE46474680B5A4
:10075000002B1DDD002A1BDD940000190C6800250C
:10076000A0464C689100D200494252428C469146C4
:10077000A400614646183100AA00424417681219C5
:1007800080C18142FAD14A460135B01AAB42F0D15C
:100790000CBC90469946F0BDF0B5DE4657464E4635
:1007A0004546E0B599B00B9024980C93259B0130F9
:1007B00001D122982490581C00D1229B2398C41761
:1007C00003202040239CA44660448010850007201D
:1007D000229C02958443200001940C9C002C00DC98
:1007E00085E20091190113912699249C0901511861
:1007F0001691411EC9080131C801490109919900AA
:10080000179126996B438C4663449B00D31812932F
:100810000023A400149415900493029B002B00DC89
:10082000C1E1099A009B944663441193169B03937C
:10083000002305930598049C0100A4460B9B039E8E
:100840000CCB59436144890051180D91411C594307
:100850006144890051180E91811C594361448900FB
:1008600051180F91C11C4B4363449B00D318109344
:10087000019B3400002B00DC44E2009B00259846DD
:1008800000234446A946AA46AB46A84607950695C6
:100890002F1C08950A9325683168281C0DF06BFC05
:1008A00059460DF051FC71688346281C0DF063FC1D
:1008B00051460DF049FCB1688246281C0DF05BFCE6
:1008C00049460DF041FCF1688146281C0DF053FCAF
:1008D00008990DF039FC089065683169281C0DF005
:1008E0004AFC391C0DF030FC7169071C281C0DF006
:1008F00042FC06990DF028FCB1690690281C0DF009
:100900003AFC07990DF020FCF1690790281C0DF0C6
:1009100032FC41460DF018FC8046A568316A281C5F
:100920000DF029FC59460DF00FFC716A8346281C16
:100930000DF021FC51460DF007FCB16A8246281CDF
:100940000DF019FC49460DF0FFFBF16A8146281CA9
:100950000DF011FC08990DF0F7FB0890E568316B7C
:10096000281C0DF008FC391C0DF0EEFB716B071C08
:10097000281C0DF000FC06990DF0E6FBB16B06900B
:10098000281C0DF0F8FB07990DF0DEFBF16B0790CA
:10099000281C0DF0F0FB41460DF0D6FB8046256982
:1009A000316C281C0DF0E7FB59460DF0CDFB716C46
:1009B0008346281C0DF0DFFB51460DF0C5FBB16CE2
:1009C0008246281C0DF0D7FB49460DF0BDFBF16CAB
:1009D0008146281C0DF0CFFB08990DF0B5FB08905F
:1009E0006569316D281C0DF0C6FB391C0DF0ACFBA0
:1009F000716D071C281C0DF0BEFB06990DF0A4FBC1
:100A0000B16D0690281C0DF0B6FB07990DF09CFB0C
:100A1000F16D0790281C0DF0AEFB41460DF094FBE4
:100A20008046A569316E281C0DF0A5FB59460DF0D6
:100A30008BFB716E8346281C0DF09DFB51460DF01B
:100A400083FBB16E8246281C0DF095FB49460DF0E4
:100A50007BFBF16E8146281C0DF08DFB08990DF093
:100A600073FB0890E569316F281C0DF084FB391C7D
:100A70000DF06AFB716F071C281C0DF07CFB0699BA
:100A80000DF062FBB16F0690281C0DF074FB079906
:100A90000DF05AFBF16F0790281C0DF06CFB4146DE
:100AA0000DF052FB8046803620340A9B019A0833B1
:100AB0000A939A4200DDEEE6159A039B9446594646
:100AC0006344381C1C000DF03FFB5146071C069880
:100AD0000DF03AFB4946061C07980DF035FB0899C6
:100AE000814640460DF030FB119B051C9B46229B26
:100AF0001900019B994230DD9A46A8465B4620CBFF
:100B00002168281C9B460DF036FB011C381C0DF09B
:100B10001BFB6168071C281C0DF02DFB011C301C01
:100B20000DF012FBA168061C281C0DF024FB011C13
:100B300048460DF009FBE1688146281C0DF01BFBBF
:100B4000011C40460DF000FB804601239C46229B81
:100B5000E24410345345D1D1051C311C0E9E30683F
:100B60000DF0EFFA391C0D9F041C38680DF0E9FAFE
:100B7000291C109D3860346028680DF0E2FA0F9E41
:100B80004946041C30680DF0DCFA1399039A8C4630
:100B9000059B62440392029A0433306005932C60F3
:100BA0009A4200DD46E6239B029A934200DC92E0E3
:100BB000099A009B944663440593029B129D9846B4
:100BC0000B9B9B465B465E6843465E43049BA9467F
:100BD0009C465B461A6866449446B600019B664490
:100BE0000396002B00DC89E000232E0000249A46A7
:100BF000009F316838680DF0BEFA211C0DF0A4FA90
:100C0000041C716878680DF0B6FA211C0DF09CFA8E
:100C1000041CB168B8680DF0AEFA211C0DF094FA0E
:100C2000041CF168F8680DF0A6FA211C0DF08CFA8E
:100C3000041C316938690DF09EFA211C0DF084FA0C
:100C4000041C716978690DF096FA211C0DF07CFA8C
:100C5000041CB169B8690DF08EFA211C0DF074FA0C
:100C6000041CF169F8690DF086FA211C0DF06CFA8C
:100C7000041C2036203708239C46019BE244534540
:100C8000B7DC099B9946059BA9449A46229B019E85
:100C9000B34210DD00274B46D9595346D8590DF0C1
:100CA0006AFA011C201C0DF04FFA041C229B01362D
:100CB0000437B342EFD1211C039C20680DF041FAA8
:100CC00001239C46179BE0449C46239B206065447F
:100CD000434500D076E71499009A8C46049B624401
:100CE00000920C9A013304939A4200D095E519B012
:100CF0003CBC90469946A246AB46F0BD009B002402
:100D00009A46C3E70025009BA9469B462E1C2F1C34
:100D1000EDE6C04630B587B00C4B02AD00951A68C1
:100D2000694602929A880400AA809B796A46AB7150
:100D3000072301930023D3732DF02AFB0098A842C8
:100D400001D00DF0ADFB200007B030BDF0980410CD
:100D5000F0B5DE4657464E464546E0B50E00016802
:100D6000C7688946416805698A4681688DB08B46A7
:100D700041698069079306905068136892680591ED
:100D80000A90291C30680B92099308950DF0D9F947
:100D90000599039070680DF0D4F90699051CB068A8
:100DA0000DF0CFF9804607980DF068FA80231B06F6
:100DB0009C46039E009001916644514630000DF020
:100DC000DAF95946061C281C0DF0D5F9011C301C17
:100DD0000DF0B7F9391C061C404604970DF0CBF90D
:100DE000011C301C0DF0ADF90DF048FA0022684BE3
:100DF0000CF0F3FC009A019B0CF0EFFC0600484657
:100E00000F000DF03BFA02000B0030003900169C79
:100E10000CF0BCFC0CF0DAFD4946206003980DF0A4
:100E2000AAF95946061C40460DF0A5F9011C301CD4
:100E30000DF08AF90499061C281C0DF09CF9011C80
:100E4000301C0DF07EF90DF019FA0022504B0CF019
:100E5000C4FC009A019B0CF0C0FC060050460F0039
:100E60000DF00CFA02000B00300039000CF08EFC83
:100E70000CF0ACFD49466060281C0DF07CF9514631
:100E8000061C40460DF077F9011C301C0DF059F995
:100E90000499061C03980DF06EF9011C301C0DF02E
:100EA00053F90DF0EBF90022394B0CF096FC009A47
:100EB000019B0CF092FC060058460F000DF0DEF985
:100EC00002000B00300039000CF060FC0CF07EFDDD
:100ED0004946A06040460DF04EF95146061C281CBC
:100EE0000DF049F9011C301C0DF02EF95946051C76
:100EF00003980DF040F9011C281C0DF022F90DF0AB
:100F0000BDF90022224B0CF068FC009A019B0CF00A
:100F100064FC060004980F000DF0B0F902000B000D
:100F2000300039000CF032FC0CF050FD089B0999A0
:100F3000E060181C98460DF01EF9079D291C0DF065
:100F40001AF9011C40460DF0FCF8059F0A99206132
:100F5000381C0DF010F9291C0DF00DF9011C381C7E
:100F60000DF0EFF8069E0B996061301C0DF003F94F
:100F7000291C0DF000F9011C301C0DF0E2F8A061F5
:100F800000200DB03CBC90469946A246AB46F0BD51
:100F90000000E03FF0B5DE4657464E4645468A46DD
:100FA0004168E0B58846C768816891B0066889469F
:100FB0004046391C141C04930DF0DDF84946051C0D
:100FC000301C0DF0D8F80A90011C281C09950DF072
:100FD000B8F80DF053F902000B000CF0D7FB0690A7
:100FE0000791201C02940DF049F90B000200040047
:100FF0000D00069807990CF0F0FB0CF0E7FC524648
:10100000391C106048460DF0B6F883464146301C46
:101010000DF0B1F85A460E90011C58460B920DF097
:1010200093F80DF02BF902000B000CF0AFFB02005F
:101030000B00200029000C920D930CF0CEFB0CF05D
:10104000C5FC5446311C6060301C0DF094F84146DC
:10105000041C40460DF08FF8051C011C201C0DF0EF
:1010600070F84946089048460DF085F8391C8346CB
:10107000381C0DF080F85946019008980DF061F881
:1010800001990DF061F802990F900DF074F8534634
:101090004946986040460DF06EF8391C8046301C79
:1010A0000DF069F881461A980DF0E8F806001B98D3
:1010B0000F000DF0E3F802900391291C201C0DF0A5
:1010C00043F859460DF03DF801990DF03AF80499AE
:1010D0000DF051F80DF0D2F804000D0040464946DD
:1010E0000DF032F80DF0CAF802000B000CF04EFBC8
:1010F00032003B000CF071FB02000B0020002900C5
:101100000CF044FB029A039B04000D00069807991B
:101110000CF063FB02000B00200029000CF036FBF2
:101120000CF054FC5346D86004980DF0A7F8040066
:101130000D00404649460DF004F80DF09FF80200FE
:101140000B000CF023FB22002B00049405950CF0FF
:1011500044FB04000D00089859460CF0F5FF019976
:101160000CF0EFFF1A990DF006F80DF087F8020069
:101170000B00200029000CF009FB029A039B0400DD
:101180000D000C980D990CF028FB02000B002000BC
:1011900029000CF0FBFA0CF019FC53460A9918616F
:1011A00009980CF0D1FF0DF069F802000B000CF06B
:1011B000EDFA049A059B0CF010FB04000D000B984F
:1011C0000E990CF0BEFF0DF059F802000B000CF068
:1011D000DDFA32003B000CF000FB02000B002000A7
:1011E00029000CF0D3FA04000D000F981B990CF0A5
:1011F000C2FF0DF043F802000B00200029000CF0A4
:10120000C5FA0CF0E3FB53465861002011B03CBC1A
:1012100090469946A246AB46F0BDC046F0B50400E4
:10122000DE4657464E4645460800E0B54568096823
:10123000AA46856895B0AB46C5684669876910912E
:101240000E950169556810689268049690461A6870
:10125000069711925A689B6812921393FE239B057E
:10126000236099460CF06DFF0DF008F80090019195
:101270001E980DF003F806000F0000980199002257
:10128000924B0CF0AAFA32003B000CF0A6FA0CF0DC
:101290009DFB04990390E061281C0CF052FF0CF0B8
:1012A000EDFF0022894B049005910CF096FA320074
:1012B0003B000CF092FA0CF089FB0699051CA06328
:1012C00040460CF03EFF0CF0D9FF00227F4B069009
:1012D00007910CF082FA32003B000CF07EFA0CF021
:1012E00075FB0A90606550460CF0C8FF0022784BF1
:1012F000089009910CF071FA32003B000CF06DFA85
:101300000CF064FB0B90206758460CF0B7FF0022EE
:101310006F4B0C900D910CF060FA32003B000CF01A
:101320005CFA0CF053FB8C238246E0500E980CF0D4
:10133000A5FF0022664B0E900F910CF04EFA320082
:101340003B000CF04AFA0CF041FBA8238346E05026
:101350000022009801995E4B0CF03FFA32003B00EE
:101360000CF03BFA0CF032FB4946009060602162C1
:10137000002206980799564B0CF02FFA32003B00DA
:101380000CF02BFA0CF022FBA5658046E063109868
:101390000CF074FF00224D4B0CF01FFA32003B00A2
:1013A0000CF01BFA0CF012FB59469023051C6067E9
:1013B0000022E1500C980D99444B0CF00EFA3200CB
:1013C0003B000CF00AFA0CF001FBAC230022E050C9
:1013D000049805993E4B0CF000FA32003B000CF0EB
:1013E000FCF90CF0F3FA49460A9A83466262009AC5
:1013F000A0602164E2650E980F990022334B0CF037
:10140000ECF932003B000CF0E8F90CF0DFFA942321
:101410000B99A067E5501C33E1504146E160594605
:10142000A162494621665146039BE16763640898BF
:1014300009990022254B0CF0D0F932003B000CF04A
:10144000CCF90CF0C3FA9823E0501C33E55000258A
:101450001E9911982561E562A56465660CF08BFE06
:10146000011C48460CF06DFE8023E0501C33E55013
:101470001C33E550343B1E99129865612563E56481
:10148000A566E5500CF077FE011C48460CF059FEAD
:10149000A023E0501C33E550343BA561656325650E
:1014A000E566E5501C33E5501E9913980CF063FE79
:1014B000011C48460CF045FEC023E050002015B04A
:1014C0003CBC90469946A246AB46F0BD0000E0BF4A
:1014D0000000E03FF0B5DE4657464E464546E0B5D3
:1014E0009A460B68141C8A689B464B68C9688BB087
:1014F0000500101C8846009301920CF0BFFE02907C
:101500000391201C0CF0BAFEC02306000F000298C5
:10151000039900221B060CF060F932003B000CF02E
:101520005CF90CF053FA0890286040460CF0A6FED7
:1015300002000B000CF02AF932003B000CF04DF9D0
:101540000CF044FA041CA86158460CF097FEC02326
:1015500000221B06049005910CF03FF932003B007D
:101560000CF03BF90CF032FA286300980CF086FE80
:1015700002000B00069007910CF008F932003B00C6
:101580000CF02BF90CF022FA002190238946A86474
:101590002966A967E95068600498059902000B0064
:1015A0000CF0F4F832003B000CF017F90CF00EFAD6
:1015B0006C630490E8610298039902000B000CF040
:1015C000E5F832003B000CF008F90CF0FFF9494651
:1015D0009423E8646966E967E950C023069807998F
:1015E000049A1B06AA6000220CF0F7F832003B00B8
:1015F0000CF0F3F80CF0EAF9089B4946AB63802342
:1016000028622C65A966E9501833E95040461499C0
:101610000CF0B1FD019F1599061C381C0CF0ABFDB8
:101620005146041C58460CF0A6FD311C0CF08CFDF4
:10163000211C06940CF085FD011C0CF085FD514623
:101640000990E86000980CF096FD1499041C381C71
:1016500001970CF090FD011C201C0CF075FD1599F4
:10166000041C40460CF087FD011C201C0CF06CFD96
:10167000011C0CF069FD14990290686200980CF04E
:101680007AFD1599089058460CF075FD019A802452
:10169000944624066444071C514620000CF06BFD60
:1016A00008990CF051FD391C0CF04BFD011C0CF09D
:1016B0004BFD1499E86358460CF05DFD15990490B4
:1016C00000980CF058FD802212064244041C51463A
:1016D00010000CF050FD04990CF036FD211C0CF0AC
:1016E00033FD011C0CF030FD4A468423EA66686530
:1016F000EA501833EA505146286101980CF03BFD3E
:1017000008990CF01EFD391C0CF01EFD011C0CF09C
:101710001BFD071CA8628020029B00062B6451461B
:1017200058440CF028FD311C0CF00BFD06990CF010
:101730000BFD011C0CF008FD8823A86548462867AE
:10174000E8501833E850514640466F610CF013FDE5
:1017500004990CF0F6FC211C0CF0F3FC011C0CF0BD
:10176000F3FC099AE8626A64029B4A46EB654B46C1
:101770006B678C230020EA501833EA500BB03CBC56
:1017800090469946A246AB46F0BDC046F0B54546E8
:10179000DE4657464E46E0B53B4CC723A54434AA27
:1017A000944663441B091B0105938B680490319395
:1017B0000B6833911A6864462A929A692B921A6BC5
:1017C0002C929A6C2D921A6E2E929A6F2F929022D2
:1017D0009A5830925A680692DA6908925A6B0992BE
:1017E000DA6C0A925A6E0B92DA6F0C9294229A5823
:1017F0000D929A680E921A6A0F929A6B10921A6D55
:1018000011929A6E129280229A58139298229A58A4
:101810001492DA6815925A6A1692DA6B17925A6D18
:101820001892DA6E199284229A581A929C229A5827
:101830001B921A6932941C929A6A1D921A6C1E921B
:101840009A6D1F921A6F209288229A582192A02294
:101850009A5822925A692392DA6A24925A6C2592F3
:10186000DA6D26925A6F27928C229A582892A422D7
:101870009B5829934B689846C42343440793434697
:10188000E0461C0002E0C046ACFDFFFFE168A26834
:10189000894621692368484603912D990292019354
:1018A0000CF069FC2E99824603980CF064FC011C34
:1018B00050460CF049FC676982462F99381C0CF0A1
:1018C0005AFCA66983463099301C0CF054FC011C6C
:1018D00058460CF039FC011C50460CF035FC65688C
:1018E00082462B99281C0CF046FC2C9983460298C2
:1018F0000CF041FC011C58460CF026FC2A9983464A
:1019000001980CF038FC011C58460CF01DFC011C21
:1019100050460CF019FC4346494618600A980CF0F2
:101920002AFC039982460B980CF025FC011C5046BA
:101930000CF00AFC391C82460C980CF01CFC311C83
:1019400083460D980CF017FC011C58460CF0FCFB6C
:10195000011C50460CF0F8FB291C824608980CF03C
:101960000AFC0299834609980CF005FC011C5846B4
:101970000CF0EAFB0199834606980CF0FCFB011C75
:1019800058460CF0E1FB011C50460CF0DDFB4346D1
:101990004946586011980CF0EEFB03998246129864
:1019A0000CF0E9FB011C50460CF0CEFB391C8246C2
:1019B00013980CF0E0FB311C834614980CF0DBFB11
:1019C000011C58460CF0C0FB011C50460CF0BCFB3F
:1019D000291C82460F980CF0CEFB02998346109882
:1019E0000CF0C9FB011C58460CF0AEFB0199834674
:1019F0000E980CF0C0FB011C58460CF0A5FB011C16
:101A000050460CF0A1FB43464946986018980CF0EC
:101A1000B2FB0399824619980CF0ADFB011C5046AD
:101A20000CF092FB391C82461A980CF0A4FB311C76
:101A300083461B980CF09FFB011C58460CF084FB5E
:101A4000011C50460CF080FB291C824616980CF0B5
:101A500092FB0299834617980CF08DFB011C5846A7
:101A60000CF072FB0199834615980CF084FB011C65
:101A700058460CF069FB011C50460CF065FB4346D0
:101A80004946D8601F980CF076FB0399824620984F
:101A90000CF071FB011C50460CF056FB391C8246C1
:101AA00021980CF068FB311C834622980CF063FBF4
:101AB000011C58460CF048FB011C50460CF044FB3E
:101AC000291C82461D980CF056FB029983461E98ED
:101AD0000CF051FB011C58460CF036FB0199834673
:101AE0001C980CF048FB011C58460CF02DFB011C07
:101AF00050460CF029FB43464946186126980CF0E5
:101B00003AFB0399814627980CF035FB011C4846A7
:101B10000CF01AFB391C814628980CF02CFB311C68
:101B2000071C29980CF027FB011C381C0CF00CFB3F
:101B3000011C48460CF008FB291C061C24980CF0DC
:101B40001AFB0299051C25980CF015FB011C281C9A
:101B50000CF0FAFA0199051C23980CF00CFB011CFF
:101B6000281C0CF0F1FA011C301C0CF0EDFA434675
:101B7000586118239C46079B1C34E044A34200D0C4
:101B800084E6319A1368089393690993136B0A9357
:101B9000936C0B93136E0C93936F0D939023D35808
:101BA0000E9353680F93D3691093536B1193D36CB7
:101BB0001293536E1393D36F14939423D3581593A6
:101BC00093681693136A1793936B1893136D199375
:101BD000936E1A938023D3581B939823D3581C9346
:101BE000D3681D93536A1E93D36B1F93536D209339
:101BF000D36E21938423D35822939C23D3582393C9
:101C000013692493936A2593136C2693936D2793FA
:101C1000136F059C28938823D35820342993A0233D
:101C2000D358A1462A9353692B93D36A2C93536CB0
:101C30002D93D36D2E93536F2F938C23D3583093C2
:101C4000A423D358319358AB0693329B1A0098467D
:101C50001832079243464246414640461B68956902
:101C60000193069B146B096E926C40CB876F0291B7
:101C7000101C0B99039206930CF07DFA0C99824686
:101C800002980CF078FA011C50460CF05DFA0D99A0
:101C90008246381C0CF06FFA0E998346301C0CF00B
:101CA0006AFA011C58460CF04FFA011C50460CF021
:101CB0004BFA09998246281C0CF05DFA0A99834672
:101CC000201C0CF058FA011C58460CF03DFA0899FB
:101CD000834601980CF04FFA011C58460CF034FA78
:101CE000011C50460CF030FA4B46129918600398CC
:101CF0000CF041FA1399824602980CF03CFA011C50
:101D000050460CF021FA14998246381C0CF033FA34
:101D100015998346301C0CF02EFA011C58460CF025
:101D200013FA011C50460CF00FFA10998246281C39
:101D30000CF021FA11998346201C0CF01CFA011CAE
:101D400058460CF001FA0F99834601980CF013FAEB
:101D5000011C58460CF0F8F9011C50460CF0F4F93F
:101D60004B461999586003980CF005FA1A99824667
:101D700002980CF000FA011C50460CF0E5F91B9992
:101D80008246381C0CF0F7F91C998346301C0CF085
:101D9000F2F9011C58460CF0D7F9011C50460CF022
:101DA000D3F917998246281C0CF0E5F91899834657
:101DB000201C0CF0E0F9011C58460CF0C5F91699EE
:101DC000834601980CF0D7F9011C58460CF0BCF979
:101DD000011C50460CF0B8F94B46209998600398C6
:101DE0000CF0C9F92199824602980CF0C4F9011C43
:101DF00050460CF0A9F922998246381C0CF0BBF928
:101E000023998346301C0CF0B6F9011C58460CF09F
:101E10009BF9011C50460CF097F91E998246281C2C
:101E20000CF0A9F91F998346201C0CF0A4F9011CA1
:101E300058460CF089F91D99834601980CF09BF9DE
:101E4000011C58460CF080F9011C50460CF07CF93E
:101E50004B462799D86003980CF08DF92899824653
:101E600002980CF088F9011C50460CF06DF9299984
:101E70008246381C0CF07FF92A998346301C0CF0FE
:101E80007AF9011C58460CF05FF9011C50460CF021
:101E90005BF925998246281C0CF06DF9269983463A
:101EA000201C0CF068F9011C58460CF04DF92499DF
:101EB000834601980CF05FF9011C58460CF044F978
:101EC000011C50460CF040F94B462E9918610398BE
:101ED0000CF051F92F99824602980CF04CF9011C34
:101EE00050460CF031F930998246381C0CF043F919
:101EF0003199071C301C0CF03EF9011C381C0CF009
:101F000023F9011C50460CF01FF92C99061C281CC3
:101F10000CF031F92D99051C201C0CF02CF9011C3A
:101F2000281C0CF011F92B99041C01980CF023F9D2
:101F3000011C201C0CF008F9011C301C0CF004F9E9
:101F40004B46586104239C461433E0449C46079B4F
:101F5000E144984500D07DE6339B059DDC68296A05
:101F600020680CF0F1F8049EA96B306060680CF0FA
:101F7000EBF87060A068296D0CF0E6F8B060E068DE
:101F8000A96E0CF0E1F88023F0602069E9589846CA
:101F90000CF0DAF898233061E95860690CF0D4F855
:101FA0007061A069696A0CF0CFF8B061E069E96B13
:101FB0000CF0CAF8F061206A696D0CF0C5F8306267
:101FC000E96E606A0CF0C0F884277062A06AE95973
:101FD0000CF0BAF89C23B062E958E06A0CF0B4F84F
:101FE000F062206BA96A0CF0AFF83063606B296C6B
:101FF0000CF0AAF87063A06BA96D0CF0A5F8B063A3
:10200000E06B296F0CF0A0F80496F0638826206C32
:10201000A9590CF099F8049B1864A023606CE95846
:102020000CF092F8049BE96A5864A06C0CF08CF8F0
:10203000049B696C9864E06C0CF086F8049BE96D75
:10204000D864206D0CF080F8049B696F1865606D92
:1020500005950CF079F88C25049A059B5065A06DC8
:1020600059590CF071F8A423049A9065059AE06D13
:10207000D1580CF069F80499059AC865206E116B67
:102080000CF062F80499059A0866916C606E0CF089
:102090005BF80499059A4866A06E116E0CF054F82E
:1020A0000499059A8866E06E916F0CF04DF89023C4
:1020B0000499059AC866206FD1580CF045F8A823FA
:1020C0000499059A0867606FD1580CF03DF804999F
:1020D000059A4867A16F506B0CF036F80499059A81
:1020E0008867E16FD06C0CF02FF80499059AC867E7
:1020F00040462158506E0CF027F84146049B059A43
:102100005850E159D06F0CF01FF8049BD85194231C
:10211000059FA159F8580CF017F8049B9851AC236F
:102120006159F8580CF010F8049B585195239B0006
:102130009D443CBC90469946A246AB46F0BDC04685
:10214000F0B54E464546DE4657460023E0B51360DF
:10215000836887B09846049200230268052691465A
:102160000093013B019003910293052345469B1B7D
:102170009A465D434B46002B00D197E15544AD0094
:102180004D442B685C006B6864085F007F08391C55
:10219000381C0CF03AF8002800D0E8E0211C381C6C
:1021A0000CF02EF8002800D0E8E00027731C9B46B6
:1021B000012E53D0AB685B005B08191C181C9846B5
:1021C0000CF023F8002800D04DE14046211C0CF013
:1021D00017F8002801D0444602275B46032B3DD068
:1021E000EB685B005B08191C181C98460CF00DF896
:1021F000002800D03FE14146201C0BF0F3FF0028EF
:1022000001D0444603275B46042B27D02B695B0093
:102210005B08191C181C98460BF0F7FF002800D02B
:1022200031E14146201C0BF0DDFF002801D044467F
:1022300004275B46052B11D06D696D006D08291CC4
:10224000281C0BF0E2FF002800D024E1291C201CF0
:102250000BF0C8FF002801D005272C1C039B009A17
:10226000574400219F50201C0BF0B4FF002800D1E0
:1022700087E0029B013300D1EBE05746019B9B684E
:1022800098465F4306239C1B06239B1BDF1943468E
:10229000424663439D001C19002392009346009A16
:1022A0009A469446BF006544A4004F444D444C44B4
:1022B000396828680BF05FFF011C20680BF041FFB4
:1022C0002060012E29D0796828680BF054FF011C8A
:1022D00060680BF036FF6060022E1ED02968B86877
:1022E0000BF049FF011CA0680BF02BFFA060032E30
:1022F00013D02968F8680BF03EFF011CE0680BF072
:1023000020FFE060052E08D1296838690BF033FF03
:10231000011C20690BF015FF206101239C46E2445B
:102320005D445C445645C3D1009B013E0433009399
:10233000002E00D019E70523039A00215361019B69
:102340009A68013293009B184A469B0098580BF0FC
:1023500041FF002803D0029B013300D1A3E0029883
:1023600007B03CBC90469946A246AB46F0BD211C46
:10237000201C0BF04AFF002800D00FE73C1C01276F
:1023800014E757452FD049464C46019ABB000098A8
:102390004B441D68926809589200255048441960C2
:1023A00081189B1808681C680C60186089189B18B5
:1023B00008681C680C60186089189B1808681C68FD
:1023C0000C60186089189B1808681C680C601860FD
:1023D00089189B1818680A6808601A60049A1368BC
:1023E0000593013313605746019B4A469B685F4340
:1023F000984606239C1B5346FB183D199B009B588F
:10240000AD004D442868191C9A460BF0A0FE2860C8
:10241000012E00D138E7686851460BF098FE6860DD
:10242000022E00D130E7A86851460BF090FEA8605C
:10243000032E00D128E7E86851460BF088FEE860DB
:10244000042E00D120E7286951460BF080FE286158
:102450001AE75746019B9B6898465F4306239C1BDF
:102460005346029310E7211C201C0BF0CEFE0028DF
:1024700000D1B0E6A9E6211C201C0BF0C6FE002806
:1024800000D1BEE6B7E6211C201C0BF0BEFE0028E2
:1024900000D1CCE6C5E6211C201C0BF0B6FE0028BE
:1024A00000D1D9E6D2E60523029358E71B68FFDE88
:1024B000F0B5DE464E4645465746E0B589B001AF19
:1024C0003A000500059005AB03CB03C26B682C00F6
:1024D0005800AB684008590049080BF035FE2B68DE
:1024E000590049080BF030FE2B69061C58006B6937
:1024F0004008590049080BF027FEEB6859004908CD
:102500000BF022FE011C301C0BF01EFEEB69804616
:1025100058002B6A4008590049080BF015FEAB69BA
:10252000590049080BF010FEAB6A061C5800EB6A14
:102530004008590049080BF007FE6B6A590049082A
:102540000BF002FE011C301C0BF0FEFD6B6B814694
:102550005800AB6B4008590049080BF0F5FD2B6B98
:10256000590049080BF0F0FD2B6C061C58006B6CF1
:102570004008590049080BF0E7FDEB6B590049088A
:102580000BF0E2FD011C301C0BF0DEFD061C011CF3
:1025900048460BF027FE002800D14E464046311C2D
:1025A0000BF020FE002800D14646E36C5800236D56
:1025B0004008590049080BF0C7FDA36C59004908B1
:1025C0000BF0C2FDA36D80465800E36D4008590032
:1025D00049080BF0B9FD636D590049080BF0B4FDD3
:1025E000011C40460BF0B0FD636E80465800A36EA0
:1025F0004008590049080BF0A7FD236E590049080F
:102600000BF0A2FD236F81465800636F400859000C
:1026100049080BF099FDE36E590049080BF094FD51
:10262000011C48460BF090FDE36F81465800802363
:10263000E1584008490049080BF086FDA36F590096
:1026400049080BF081FD88238246E0580433E158A5
:1026500040004900490840080BF076FD8423E1580A
:10266000490049080BF070FD011C50460BF06CFD51
:10267000041C011C48460BF0B5FD002800D14C4657
:102680004046211C0BF0AEFD002800D14446211C21
:10269000301C0BF0A7FD002800D1341CC0232900FA
:1026A000EC503A00BA3BA83104A806930495FFF712
:1026B00047FD0121C422019B98260B405B428B43BE
:1026C0000133AB54343A9246002250469C272A509C
:1026D0009432A9509346923AAA510132EA519D325E
:1026E000944660469C3A2A50A03291469F3A9046C2
:1026F0004A4640462B00A85048461832AA58903304
:1027000092009A1814682C50404610606046B82217
:102710002858AA588046604692009A1814682C508F
:1027200040461060B422E859AA58844692009A188C
:1027300010685C46E85160461060B022AA58AF5954
:1027400092009A181068A8511760AC225846AA58EF
:102750002E5892009A18106828511660A822AA587C
:10276000544692009B1852461868AA5828511A607D
:10277000C523E95409B03CBC90469946A246AB46F5
:10278000F0BDC046C023002210B5C2500022043361
:10279000C2520B68040003604B6843608B6883601F
:1027A000CB68C3600B6903614B6943618B698361CB
:1027B000CB69C3610B6A03624B6A43628B6A8362B3
:1027C000CB6AC3620B6B03634B6B43638B6B83639B
:1027D000CB6BC3630B6C03644B6C43648B6C836483
:1027E000CB6CC3640B6D03654B6D43658B6D83656B
:1027F000CB6DC3650B6E03664B6E43668B6E836653
:10280000CB6EC3660B6F03674B6F43678B6F83673A
:10281000CB6FC3678023CA58C2500433CA58C25012
:102820000433CA58C2500433CA58C250FFF740FE9E
:10283000200010BD10B5037A0400002B07D00068FB
:10284000002804D0431E1B78C01A0BF0FDFD2000A9
:1028500010BDC046F0B557464E464546DE46E0B58B
:10286000B5B006AFFB64EC23E84DF861F9633A6755
:10287000FB181E682B78BFF35B8FDB0700D484E264
:10288000E34C6368FA699A4633697B62B3683B62DA
:10289000934200DD3A627A6A3B6A53439946FB6B86
:1028A000534398468023DB05994500D351E23368B2
:1028B0003B65002B00D155E24B4600249D00A02330
:1028C000A422FB181C604B46BA18136080239B029D
:1028D000AB42AD41A8236D42FB181D708023DB0580
:1028E000984500D319E27368FB60002B00D11DE20C
:1028F000434600249D00AC23B022FB181C604346D5
:10290000BA18136080239B02AB42AD41B4236D42E1
:10291000FB181D7004237B64FB6B002B15DDE82086
:102920003A18FB6912681900934200DAF3E1504645
:1029300009010AF0E7FC0323C21713401B189B1080
:102940009B007B64042B00DAE2E1F969002900DCDA
:102950007BE17B6AB9611A00C91A9C463961E8219A
:10296000F86C9B0042433B60BA607B1862441B6872
:102970007A607A6C5343BB628300FB650433BB65AA
:10298000431C9B00BB667B181B689B007B66E02397
:10299000FB181B683B6300237B63BB637B613B6667
:1029A0008C20BB693A1813607A6A934201DD3B18A8
:1029B0001A60FB6B002B00DC18E18C23FB181B68F2
:1029C000002B00DC12E1FA6BBA647A6C53439B0073
:1029D000FB62FB687B6700237B653B6498339A4608
:1029E000BA448020BB6C3A1813607A6C934201DDC4
:1029F0003B181A603A6B7B6D944690229B006344AF
:102A0000BA18136084227B6BBA181360BB6BFB6728
:102A1000002399468C234A46FB181B689B1A98464C
:102A2000BB67042B01DD042398463B6E94224B4484
:102A3000FB6643465E1E8423FB181B68BA189D0084
:102A40003B6F9C469023FB181B6865441360002E67
:102A500046D094238822FB181C680023B3462E001E
:102A6000BA18136025687168281C0BF084FB011CE0
:102A700060680BF066FB5B466060012B14D0B168A8
:102A8000281C0BF078FB011CA0680BF05AFB5B467E
:102A9000A060022B08D0F168281C0BF06CFB011C15
:102AA000E0680BF04EFBE0608822BB181B68BA1888
:102AB000013313607A6E94468022BA181268644417
:102AC0009342CFD19422BB6E35005E469C46BB1824
:102AD0001B68BA180433013E65441360002EB8D158
:102AE0004246BB6F51469C1A90225346BA18126850
:102AF0001A60E822BA1812685A604B4601938C2378
:102B0000FB181B68424600938023FB181B68786FF4
:102B1000FDF770FD002C37DDFB6E3A6F43441D005E
:102B200094465246FB6F3E6D5B199B0063441360F5
:102B30005346FA6C51465A60300023004246FDF776
:102B400003FE7B6DE8229C46E023FB181B6865446E
:102B50009C465346BA181268AD0065441D605A6021
:102B60004B4604938C23FB181B68310003934346A8
:102B700002938023FB181B68504601934346009341
:102B80007A6F2300FDF708FE04239C46FA6DE144AA
:102B900094469022FB6F84216344FB67BB181B683B
:102BA000BA1810331360BA6D7B1894461B687A18F4
:102BB000634413608C23FB181B684B4500DD29E739
:102BC0007A6CB96C94463B6C8A1AB96A63448C4639
:102BD000BA64F96A7A6D3B6462448C467A657A6FAE
:102BE00062447A67FA6B9A4200DDFAE67A6A3B6ED3
:102BF0009446FA6963443B669A4226DD3A6A002AA3
:102C000036DCF9699B189942FCDC03E0582103206B
:102C10001C370320BA697B6A7969D21ABA61BA682B
:102C20000800944639697A68CB1A3B61BB6B6044F3
:102C300063449446BB633A687B6B78616344944613
:102C40007B633B6B63443B63AAE6982414233A19E5
:102C5000D018FFF7EFFD08233A19D018FFF7EAFD67
:102C6000BD462FB03CBC90469946A246AB46F0BD4F
:102C70003A6F7B69944694229B006344BA181360B0
:102C80003B6E3E69984698239A4600239B46013B3B
:102C900099463300BA444646544698463B6AC24673
:102CA000984500DD9A4694238C22FB181B68B500DA
:102CB000EB182360FB6CB9180A68386D210063605B
:102CC0005346FDF741FDE02179180B68E82179189A
:102CD0009C460B68654463605B46256004934B46E5
:102CE00003930293FB6B200001938C23FB181B685A
:102CF0000093FA685346396DFDF74EFD42463B6A34
:102D00009C46D31A9846FB696644B342C6DC81E709
:102D100004237B6419E6110009E6012040420BF010
:102D2000B7FB7368FB60002B00D0E1E543469D00D4
:102D300080239B029D424AD82B006A461633DB084B
:102D4000DB00D31A9D4627240F236C449C43FC6070
:102D5000D1E5012040420BF09BFB33683B65002B23
:102D600000D0A9E54B469D0080239B029D421ED8C2
:102D70002B006A461633DB08DB00D31A9D46272456
:102D80000F236C449C433C6599E528000EF04AF8FB
:102D90001D4C002800D174E58023DB0123608023D3
:102DA0001B0328006360A3600EF058F869E5280053
:102DB00010300BF02BFB041E19D00F221023024001
:102DC0009B1ADBB2C418621E13703C6577E52800BD
:102DD00010300BF01BFB041E0FD00F2210230240FB
:102DE0009B1ADBB2C418621E1370FC6083E50120DD
:102DF00040420BF04DFB3C6561E5012040420BF089
:102E000047FBFC6077E5C0461C370320F0B5DE4683
:102E100057464E464546E0B5B9B006AFFB67FC23C2
:102E2000384DB963BA64FB181E682B788346BFF32C
:102E30005B8FDB0700D4C1E2334C63689A46336989
:102E40007B61B3683B615B4501DD5B463B617A6951
:102E50003B6953439946BB6B534398468023DB053C
:102E6000994500D38EE233683B65002B00D192E296
:102E70004B4600249D00B023B422FB181C604B4637
:102E8000BA18136080239B02AB42AD41B8236D4258
:102E9000FB181D708023DB05984500D356E273684C
:102EA000FB61002B00D15AE2434600249D00BC2365
:102EB000C022FB181C604346BA18136080239B0293
:102EC000AB42AD41C4236D42FB181D7004233B642B
:102ED000BB6B002B1ADDF823FB181B6859469B457A
:102EE00000DA2FE2504609010AF00CFA0323C21758
:102EF00013401B189B109B003B64042B00DA1EE25E
:102F000004E0C046582103201C3703205B46002BF9
:102F100000DC00E2FA6F78691100434259430B006C
:102F2000F96059460C1A110062431B1A9B00BA61E2
:102F3000BB600A000B0059464B43B96C5B448C469E
:102F4000F0219B006344FB627918830009685B42AF
:102F50007B605B468C46F8219B00634479180968C6
:102F60003B633B6C7C634B433B6293005B423B6641
:102F7000043B7B659B00BB65D3439B00A422BB66DF
:102F80008B007B665B46BA1813600300A422BA1854
:102F900012683B67934200DD3A67BB6B002B00DC95
:102FA00058E13A6F002A00DC54E17B643B6C396BDA
:102FB00053439B007B62FB69FB669300CB1ABB62A9
:102FC00000237B67FB63A433FB181B6803219B1A58
:102FD000BB671300013B043A8B43D31AFB65902275
:102FE0007B6CBA1813603A6C934202DD9023FB1895
:102FF0001A60BA6A7B6F94469B009C446246FA64EE
:103000003A6B944698226344BA1813609422FB6A80
:10301000BA1813603B6F9A465346D346042B01DD22
:1030200004239B468022BB6FBA18534413605B464F
:103030005E1E7B6DF96F99469423FB181A685B46F8
:1030400090465B425B1A9B00A422C1449844012332
:10305000BA185B4213604B46FE20196880050BF0DE
:1030600076F88C239821FB181860A4237918096836
:10307000FB188C4684211A687918931B9C009B00CE
:103080005B420B6093009C22BA181360A0220023BD
:10309000BA18644413608423FB181B6888229C467A
:1030A000A4446346BA1813609C22BA18126899584F
:1030B0008C23FB1818680BF05EF888239C22FB1801
:1030C000BA181B681268051C9850002E20D0434681
:1030D00019680BF050F8011C20680BF032F82060E2
:1030E000012E15D04346281C59680BF044F8011CEA
:1030F00060680BF026F86060022E09D04346281C59
:1031000099680BF038F8011CA0680BF01AF8A06061
:10311000A023A022FB181B68BA18013313607A6E33
:1031200094469022BA18126864449342B3D1A423FF
:10313000A422FB181B68BA18013B1360BB6E9C46A7
:103140003B6EE1449C46E044013E84D25A465346DD
:103150009C1A8023FB181B68A8219D1AF022BA181C
:1031600012687B6F9446A8225B199B006344BA18CF
:103170001360F823AC22FB181B68BA181360902365
:1031800001943E6FFB1800961B68F86E5A4679183A
:1031900099468046FDF72EFA002C2DDDBA6FF96FA7
:1031A00094464D43BA6C6544A8239446AD006544EB
:1031B000FB181D60AC23FB181960A82123005A4698
:1031C000386D7918FDF7C0FAA823FD6CFB181D6057
:1031D000F823FB181D68AC23FB181D605D464B46A9
:1031E000A82001930494039602950095230042467B
:1031F000396D3818FDF7D0FA04235B429C46BA6D4E
:10320000E244944694229833FB181B68BA1863442E
:10321000136098239822FB181B68BA18103B1360A0
:10322000FB6D534500D0F7E63A6C796C9446FB6B26
:103230008A1A796A63448C467A64396AFA6EFB6347
:1032400062448C46FA667A6F62447A67BA6B9A4235
:1032500000DDC4E6A4227B6BBA181360002B5ADD94
:10326000BA6C1C009146BB6900259B009944002361
:10327000CB469A463E69A046B44200DDB04643467E
:10328000002B2EDDA822AB009946BA185B441360D0
:10329000AC22A821FB6FBA181360386D43463A6F11
:1032A0007918FDF751FAF023A822FB181B68BA1809
:1032B0004B441360F823AC22FB181B68BA18136048
:1032C000534604930123A8205B4203930293BB6BF4
:1032D000381801933B6F0093FA694346396DFDF747
:1032E0005BFA7B6BAD19A41BAB42C4DCFA68BB690B
:1032F0009446BA6863449446BB617A68FB6A634447
:103300009446FB623B6B7A6963443B637B6B9B1A1D
:103310007B6313003AE6A8221423BA18D018FFF7EB
:1033200089FAA8220823BA18D018FFF783FABD46F5
:1033300033B03CBC90469946A246AB46F0BD042350
:103340003B64E3E5F823FB181968CBE50120404214
:103350000BF09EF87368FB61002B00D0A4E5434698
:103360009D0080239B029D424AD82B006A4616335B
:10337000DB08DB00D31A9D4627240F236C449C43B3
:10338000FC6194E5012040420BF082F833683B6514
:10339000002B00D06CE54B469D0080239B029D4294
:1033A0001ED82B006A461633DB08DB00D31A9D4675
:1033B00027240F236C449C433C655CE528000DF0FA
:1033C00031FD1D4C002800D137E58023DB0123604F
:1033D00080231B0328006360A3600DF03FFD2CE5F4
:1033E000280010300BF012F8041E19D00F22102301
:1033F00002409B1ADBB2C418621E13703C653AE5AA
:10340000280010300BF002F8041E0FD00F221023FA
:1034100002409B1ADBB2C418621E1370FC6146E5C1
:10342000012040420BF034F83C6524E50120404285
:103430000BF02EF8FC613AE51C370320F0B5DE46B0
:1034400045464E465746E0B5214C1600A5443AAADB
:1034500094460A000B931F4B099063441B09049187
:103460001D01FDAB13CA13C313CA13C31268FDA910
:103470001A60194B194A1B6847A80593184B47ACAB
:103480001B680193174B1B6806930093059BFEF77F
:1034900021F83AAA944647ABFD93FF93124BFFAA3B
:1034A00063441B680432FE9613608623DB009C464F
:1034B000AC446046CCAAFDA90D90FEF767F96BAB52
:1034C0000C9323000A9498462C000E950EE0C046FB
:1034D0006CF6FFFFEF030000F01E03200AE81C411A
:1034E000E81E0320EC1E0320D80800004346404697
:1034F00045461B68806C05930C9BAF6F814620CBC3
:103500004146404642460C93A823096B006E9269DF
:1035100007910890F158281C06920AF02CFE8C2383
:103520008246F158381C0AF026FE011C50460AF06B
:103530000BFE316F824608980AF01DFE716D8346BE
:1035400048460AF018FE011C58460AF0FDFD011C11
:1035500050460AF0F9FDB16B824607980AF00BFE5F
:10356000F169834606980AF006FE011C58460AF0E7
:10357000EBFD3168834605980AF0FDFD011C5846B5
:103580000AF0E2FD011C50460AF0DEFDAC2320608B
:10359000F158281C0AF0EFFD90238246F158381CA0
:1035A0000AF0E9FD011C50460AF0CEFD716F82461B
:1035B00008980AF0E0FDB16D834648460AF0DBFD4D
:1035C000011C58460AF0C0FD011C50460AF0BCFD23
:1035D000F16B824607980AF0CEFD316A8346069861
:1035E0000AF0C9FD011C58460AF0AEFD7168834619
:1035F00005980AF0C0FD011C58460AF0A5FD011C03
:1036000050460AF0A1FDB0236060F158281C0AF072
:10361000B2FD94238246F158381C0AF0ACFD011C1F
:1036200050460AF091FDB16F824608980AF0A3FD5A
:10363000F16D834648460AF09EFD011C58460AF08B
:1036400083FD011C50460AF07FFD316C82460798CD
:103650000AF091FD716A834606980AF08CFD011C00
:1036600058460AF071FDB168834605980AF083FD5B
:10367000011C58460AF068FD011C50460AF064FD22
:10368000B423A060F158281C0AF075FD98238246E7
:10369000F158381C0AF06FFD011C50460AF054FD29
:1036A000F16F824608980AF066FD316E83464846FF
:1036B0000AF061FD011C58460AF046FD011C504607
:1036C0000AF042FD716C824607980AF054FDB16A17
:1036D000834606980AF04FFD011C58460AF034FD57
:1036E000F168834605980AF046FD011C58460AF029
:1036F0002BFD011C50460AF027FDB823E060F1586D
:10370000281C0AF038FD9C238246F158381C0AF028
:1037100032FD011C50460AF017FD80238246F15805
:1037200008980AF028FD716E834648460AF023FD8A
:10373000011C58460AF008FD011C50460AF004FD21
:10374000B16C824607980AF016FDF16A8346069826
:103750000AF011FD011C58460AF0F6FC3169834657
:1037600005980AF008FD011C58460AF0EDFC011C02
:1037700050460AF0E9FCBC232061F158281C0AF0ED
:10378000FAFCA0238246F158381C0AF0F4FC011C14
:1037900050460AF0D9FC84238246F15808980AF072
:1037A000EAFCB16E834648460AF0E5FC011C584627
:1037B0000AF0CAFC011C50460AF0C6FCF16C8246B5
:1037C00007980AF0D8FC316B834606980AF0D3FCC0
:1037D000011C58460AF0B8FC7169834605980AF046
:1037E000CAFC011C58460AF0AFFC011C50460AF006
:1037F000ABFCF16E606148460AF0BDFC882381464F
:10380000F15808980AF0B7FC011C48460AF09CFCE5
:10381000A4238146F158381C9A460AF0ACFCC02318
:10382000071CF158281C0AF0A6FC011C381C0AF0E1
:103830008BFC011C48460AF087FC716B051C06983E
:103840000AF099FC316D071C07980AF094FC011CE2
:10385000381C0AF079FCB169071C05980AF08BFC4A
:10386000011C381C0AF070FC011C281C0AF06CFCBE
:1038700004239C464DABE044A0611C34984500D025
:1038800034E6D8230E9D9B00EC1820000D99FEF71E
:1038900079FFA4239B009B46AB442100902258460D
:1038A0000AF0F0FDC8239B00EC18D033E918182269
:1038B00020000AF0E7FDCE239B00E818D033E9187A
:1038C00018220AF0DFFD8422D423D200AA1812683D
:1038D0009B00EB181A60D523744A2F00AA1812888F
:1038E0009B00EB18FE211A8000232268B03792005B
:1038F000BA18890511609361136393641366936723
:10390000C9229200AA181268D13C9200BA1813601A
:1039100091611363936413669367CA229200AA1895
:103920001268FF3C9200BA181360936111639364AC
:1039300013669367CB229200AA18126806209200A1
:10394000BA18136093611363916413669367CC2272
:103950009200AA1812689200BA1813609361136358
:10396000936411669367CD229200AA1812689200A0
:10397000BA18136093611363936413660623A360FC
:10398000E360236198466B33FF339946A9449167FE
:103990004A46203BEA50802292009446AC4462465C
:1039A000414662604B3B02910539059203945A46A9
:1039B0000191FF3B05310097FEF74CFF4046A823DD
:1039C000A060E060206148465B00E850012143466A
:1039D000059A062062600394029301915A4600976B
:1039E0000531FFF713FA2B68B8461C93EB69FDAC61
:1039F0001D93AB6B1E936B6D1F932B6F20938C23CA
:103A0000EB5821936B682B932B6A2C93EB6B2D93C4
:103A1000AB6D22936B6F23939023EB582493AB6889
:103A200025936B6A26932B6C2793EB6D2893AB6FD2
:103A300029939423EB582A93EB682E93AB6A1B933C
:103A40006B6C07932B6E0C93EB6F0D939823EB58D5
:103A50000E932B690F93EB6A1093AB6C11936B6E03
:103A60002F938023EB5830939C23EB5831936B6951
:103A700012932B6B1393EB6C34961493AB6E1593DC
:103A80008423EB581693A023EB581793AB69189334
:103A90006B6B19932B6D1A93EB6E32938823EB5853
:103AA00008935346EB58339302E0C04624040000C9
:103AB00043461F685B6842469946434641469B68B9
:103AC000D2680E694D691D984946059306920AF021
:103AD00052FB059982461E980AF04DFB011C504688
:103AE0000AF032FB391C82461C980AF044FB011C88
:103AF00050460AF029FB311C824620980AF03BFB15
:103B0000291C834621980AF036FB011C58460AF00E
:103B10001BFB069983461F980AF02DFB011C584693
:103B20000AF012FB011C50460AF00EFB49462060C9
:103B30002C980AF020FB059982462D980AF01BFB71
:103B4000011C50460AF000FB391C82462B980AF0F3
:103B500012FB011C50460AF0F7FA311C82462398EA
:103B60000AF009FB291C834624980AF004FB011C77
:103B700058460AF0E9FA0699834622980AF0FBFAB9
:103B8000011C58460AF0E0FA011C50460AF0DCFA23
:103B90004946606026980AF0EEFA05998246279811
:103BA0000AF0E9FA011C50460AF0CEFA391C8246A6
:103BB00025980AF0E0FA011C50460AF0C5FA311CBB
:103BC000824629980AF0D7FA291C83462A980AF0D7
:103BD000D2FA011C58460AF0B7FA0699834628988B
:103BE0000AF0C9FA011C58460AF0AEFA011C504608
:103BF0000AF0AAFA4946A0601B980AF0BCFA059997
:103C0000824607980AF0B7FA011C50460AF09CFA5F
:103C1000391C82462E980AF0AEFA011C50460AF072
:103C200093FA311C82460D980AF0A5FA291C8346A6
:103C30000E980AF0A0FA011C58460AF085FA069977
:103C400083460C980AF097FA011C58460AF07CFA51
:103C5000011C50460AF078FA4946E06010980AF0D4
:103C60008AFA0599824611980AF085FA011C504695
:103C70000AF06AFA391C82460F980AF07CFA011C95
:103C800050460AF061FA311C824630980AF073FA05
:103C9000291C834631980AF06EFA011C58460AF036
:103CA00053FA069983462F980AF065FA011C584684
:103CB0000AF04AFA011C50460AF046FA49462061C9
:103CC00013980AF058FA0599824614980AF053FAA4
:103CD000011C50460AF038FA391C824612980AF044
:103CE0004AFA011C50460AF02FFA311C82461698F7
:103CF0000AF041FA291C834617980AF03CFA011C85
:103D000058460AF021FA0699834615980AF033FAC4
:103D1000011C58460AF018FA011C50460AF014FA21
:103D20004946606119980AF026FA059981461A9861
:103D30000AF021FA011C48460AF006FA391C8146AD
:103D400018980AF018FA011C48460AF0FDF9311CCF
:103D5000071C08980AF00FFA291C061C33980AF071
:103D60000AFA011C301C0AF0EFF90699051C32987A
:103D70000AF001FA011C281C0AF0E6F9011C381CA3
:103D80000AF0E2F918239C46FFABA061A0331C3473
:103D9000E044A34200D08BE6FD9BFE9A069371930C
:103DA000FFAB5C680433FFAB9D680833FFABDF6893
:103DB0000C33FFAB10331B68FF990F937793FFAB66
:103DC0001433079272921A68FFAB183308917391FB
:103DD0001968FFAB1C330C9474941C68FFAB203340
:103DE0000D9575951D68FFAB2433349E0E9776971D
:103DF000109278921191799112947A9413951F6888
:103E0000FFAB28331B687B9515937D93FFABDA6A74
:103E10002C33FFAB196B3033FFAB5C6B3433FFAB30
:103E20009D6B3833FFAB3C3314977C971F68FFAB17
:103E300040331B6816921B938393FFAB44337E92EF
:103E40001A68FFAB483317917F911968FFAB4C3369
:103E5000189480941C68FFAB5033199581951A977C
:103E600082971C9284921D9185911E941D68FFABD0
:103E70005F6D5433FFAB58331B688694219389934D
:103E8000FFABDA6D5C33FFAB196E6033FFAB5C6E7A
:103E90006433FFAB68331F9587951D68FFAB6C33A8
:103EA000209788971F68FFAB70331B682292279377
:103EB0008F93FFAB74338A921A68FFAB78332391E8
:103EC0008B911968FFAB7C3324948C9425958D9548
:103ED00026978E972892909229911C68FFAB803389
:103EE0001D68FFAB84331F68FFAB88331B6891915B
:103EF0002D939593FFAB8C331A68FFAB9033196801
:103F0000FFAB94332A9492941C68FFAB98332B95A3
:103F100093951D68FFAB9C332C9794971F682E9246
:103F20009692049A2F9197913094989431959995FF
:103F300032979A97FDAB32CA32C332CA32C3116884
:103F4000FDAC1960FD49FE4B09681B680191FD49F4
:103F5000FD4A09682000009141A9FDF71BF80B9F5D
:103F6000419938680AF0EDF84299834678680AF07A
:103F7000E8F84399041CB8680AF0E3F84499051C72
:103F8000F8680AF0DEF84599824638690B970AF01E
:103F9000D8F80B9B071C469958690AF0D2F880465E
:103FA000011C2D980AF0E7F8391C814626980AF082
:103FB000E2F8011C48460AF0C7F8534681465146CC
:103FC0001F9805930AF0D7F8011C48460AF0BCF880
:103FD000291C814618980AF0CEF8211C82461198B7
:103FE0000AF0C9F8011C50460AF0AEF8594682465C
:103FF00007980AF0C0F8011C50460AF0A5F8011C09
:1040000048460AF0A1F8049A51680AF09DF8414622
:104010000B902E980AF0AFF8391C814627980AF0C9
:10402000AAF8011C48460AF08FF8059981462098A5
:104030000AF0A1F8011C48460AF086F8291C8146BE
:1040400019980AF098F8211C824612980AF093F801
:10405000011C50460AF078F85946824608980AF042
:104060008AF8011C50460AF06FF8011C48460AF015
:104070006BF8049A91680AF067F8414633902F98DC
:104080000AF079F8391C814628980AF074F8011C66
:1040900048460AF059F80599814621980AF06BF8CC
:1040A000011C48460AF050F8291C81461A980AF06B
:1040B00062F8211C824613980AF05DF8011C5046F4
:1040C0000AF042F8594682460C980AF054F8011C4E
:1040D00050460AF039F8011C48460AF035F8049AAF
:1040E000D1680AF031F84146349030980AF043F82C
:1040F000391C814629980AF03EF8011C48460AF00E
:1041000023F80599814622980AF035F8011C4846A3
:104110000AF01AF8291C81461B980AF02CF8211C79
:10412000824614980AF027F8011C50460AF00CF851
:10413000594682460D980AF01EF8011C50460AF0B6
:1041400003F8011C484609F0FFFF049A116909F0C1
:10415000FBFF4146359031980AF00DF8391C814635
:104160002A980AF008F8011C484609F0EDFF059965
:104170008146239809F0FFFF011C484609F0E4FF3F
:10418000291C81461C9809F0F6FF211C82461598CF
:1041900009F0F1FF011C504609F0D6FF594682464E
:1041A0000E9809F0E8FF011C504609F0CDFF011CF4
:1041B000484609F0C9FF049A516909F0C5FF211C5E
:1041C0003690169809F0D7FF291C81461D9809F0F2
:1041D000D2FF011C484609F0B7FF594681460F98A7
:1041E00009F0C9FF011C484609F0AEFF391C8146A1
:1041F0002B9809F0C0FF41468246329809F0BBFF78
:10420000011C504609F0A0FF05998246249809F048
:10421000B2FF011C504609F097FF011C484609F007
:1042200093FF049A916909F08FFF414681462C98CB
:1042300009F0A1FF391C8046259809F09CFF011C5C
:10424000404609F081FF0599071C1E9809F093FF6D
:10425000011C381C09F078FF291C071C179809F06D
:104260008AFF211C051C109809F085FF011C281CE1
:1042700009F06AFF5946041C069809F07CFF011CEE
:10428000201C09F061FF011C381C09F05DFF049A35
:10429000FDAC116809F058FF099B0B9A18605A6031
:1042A000339A9A60349ADA60359A1A61369A5A616A
:1042B0004A469A613368CC937368CD93B368CE93C2
:1042C000F368CF933369D0937369D193B369D29371
:1042D000F369D393336AD493736AD593B36AD6934D
:1042E000F36AD793336BD893736BD993B36BDA9329
:1042F000F36BDB93336CDC93736CDD93B36CDE9305
:10430000F36CDF93336DE093736DE193B36DE293E0
:10431000F36DE393336EE493736EE593B36EE693BC
:10432000F36EE793336FE893736FE993B36FEA9398
:10433000F36FEB938023F358EC9307E0E81E032020
:10434000F01E0320EC1E03200AE81C418423F358CE
:10435000ED938823F358EE938C23F358EF93902337
:10436000F358F0939423F358F1939823F358F2936E
:104370009C23F3580B96F393A023F358F493A423B0
:10438000F358F593A823F358F693AC23F358F79317
:10439000B023F358F893B423F358F993B823F358A0
:1043A000FA93BC23F358FB93C023F358FC930A9B66
:1043B00010985A681F6891469A6849469046DA688C
:1043C0001E695D69059209F0D6FE4146824617983E
:1043D00009F0D1FE011C504609F0B6FE391C824698
:1043E000069809F0C8FE011C504609F0ADFE311CCC
:1043F0008246259809F0BFFE291C83462C9809F0B7
:10440000BAFE011C584609F09FFE059983461E9886
:1044100009F0B1FE011C584609F096FE011C5046F9
:1044200009F092FE49462060119809F0A4FE414629
:104430008246189809F09FFE011C504609F084FE40
:10444000391C8246079809F096FE011C504609F077
:104450007BFE311C8246269809F08DFE291C83467E
:104460002D9809F088FE011C584609F06DFE05994B
:1044700083461F9809F07FFE011C584609F064FE30
:10448000011C504609F060FE49466060129809F030
:1044900072FE41468246199809F06DFE011C504695
:1044A00009F052FE391C8246089809F064FE011C8E
:1044B000504609F049FE311C8246279809F05BFE00
:1044C000291C83462E9809F056FE011C584609F017
:1044D0003BFE05998346209809F04DFE011C584685
:1044E00009F032FE011C504609F02EFE4946A0603C
:1044F000139809F040FE414682461A9809F03BFEA7
:10450000011C504609F020FE391C82460C9809F027
:1045100032FE011C504609F017FE311C82462898D5
:1045200009F029FE291C83462F9809F024FE011C5E
:10453000584609F009FE05998346219809F01BFEAB
:10454000011C584609F000FE011C504609F0FCFD14
:104550004946E060149809F00EFE414682461B98D9
:1045600009F009FE011C504609F0EEFD391C824697
:104570000D9809F000FE011C504609F0E5FD311CC4
:104580008246299809F0F7FD291C8346309809F0E6
:10459000F2FD011C584609F0D7FD05998346229883
:1045A00009F0E9FD011C584609F0CEFD011C5046FA
:1045B00009F0CAFD49462061159809F0DCFD414625
:1045C00082461C9809F0D7FD011C504609F0BCFD3D
:1045D000391C82460E9809F0CEFD011C504609F0A8
:1045E000B3FD311C82462A9809F0C5FD291C83467B
:1045F000319809F0C0FD011C584609F0A5FD059948
:104600008346239809F0B7FD011C584609F09CFD2C
:10461000011C504609F098FD49466061169809F062
:10462000AAFD414681461D9809F0A5FD011C48469A
:1046300009F08AFD391C80460F9809F09CFD011C89
:10464000404609F081FD311C071C2B9809F093FDB1
:10465000291C061C329809F08EFD011C301C09F043
:1046600073FD0599051C249809F085FD011C281C83
:1046700009F06AFD011C381C09F066FD0A9BA06167
:1046800018330A93FFAB1C34BC33A34200D08EE630
:10469000C4239C460B9ECCADB444634634003C9688
:1046A0000A9308962369A6699846E36821689946A3
:1046B000A36862680793FFABA0330591301C1968AB
:1046C000069209F058FD6769FFAB8433196882468A
:1046D000381C09F050FD011C504609F035FDFFABB8
:1046E000996E82464046683309F045FDFFABD96CB0
:1046F000834648464C3309F03EFD011C584609F0FC
:1047000023FD011C504609F01FFDFFAB196B8246CB
:104710000798303309F02FFDFFAB5969834606989F
:10472000143309F028FD011C584609F00DFDFD99D0
:104730008346059809F01FFD011C584609F004FD49
:10474000011C504609F000FD011C286809F0F9FC25
:10475000FFABA43328601968301C09F00CFDFFABD7
:10476000883319688246381C09F005FD011C504643
:1047700009F0EAFCFFABD96E824640466C3309F083
:10478000FAFCFFAB196D83464846503309F0F3FC41
:10479000011C584609F0D8FC011C504609F0D4FC15
:1047A000FFAB596B82460798343309F0E4FCFFAB4A
:1047B000996983460698183309F0DDFC011C5846B8
:1047C00009F0C2FCFE998346059809F0D4FC011C4F
:1047D000584609F0B9FC011C504609F0B5FC011C13
:1047E000686809F0AEFCFFABA83319686860301C3C
:1047F00009F0C1FCFFAB8C3319688246381C09F004
:10480000BAFC011C504609F09FFCFFAB8246196FB1
:104810004046703309F0AFFCFFAB596D8346484604
:10482000543309F0A8FC011C584609F08DFC011C0A
:10483000504609F089FCFFAB996B824607983833E4
:1048400009F099FCFFABD969834606981C3309F03F
:1048500092FC011C584609F077FCFF9983460598A5
:1048600009F089FC011C584609F06EFC011C5046F9
:1048700009F06AFC011CA86809F063FCFFABAC33CB
:104880001968A860301C09F076FCFFAB90331968FA
:104890008246381C09F06FFC011C504609F054FC9C
:1048A000FFAB596F82464046743309F064FCFFAB9E
:1048B000996D83464846583309F05DFC011C584603
:1048C00009F042FC011C504609F03EFCFFAB824659
:1048D000D96B07983C3309F04EFCFFAB196A83464D
:1048E0000698203309F047FC011C584609F02CFCBF
:1048F000FFAB596883460598043309F03CFC011C62
:10490000584609F021FC011C504609F01DFC011C11
:10491000E86809F016FCFFABB0331968E860301C9A
:1049200009F029FCFFAB943319688246381C09F062
:1049300022FC011C504609F007FCFFAB996F824630
:104940004046783309F017FCFFABD96D83464846E3
:104950005C3309F010FC011C584609F0F5FB011C02
:10496000504609F0F1FBFFAB196C824607984033C3
:1049700009F001FCFFAB596A83460698243309F01D
:10498000FAFB011C584609F0DFFBFFAB9968834630
:104990000598083309F0EFFB011C584609F0D4FBD9
:1049A000011C504609F0D0FB011C286909F0C9FB25
:1049B000FFABB43319682861301C09F0DCFBFFAB96
:1049C000983319688246381C09F0D5FB011C504603
:1049D00009F0BAFBFFABD96F824640467C3309F041
:1049E000CAFBFFAB196E83464846603309F0C3FB30
:1049F000011C584609F0A8FB011C504609F0A4FB15
:104A0000FFAB596C82460798443309F0B4FBFFAB07
:104A1000996A83460698283309F0ADFB011C584675
:104A200009F092FBFFABD968834605980C3309F077
:104A3000A2FB011C584609F087FB011C504609F0F7
:104A400083FB011C686909F07CFBFFAB596E686150
:104A50004846643309F08FFBFFAB80331968814609
:104A6000404609F088FB011C484609F06DFBFFAB8E
:104A70009C3319688046381C09F07DFBFFABB833C6
:104A80001968071C301C09F076FB011C381C09F062
:104A90005BFB011C404609F057FBFFABD96A061CC3
:104AA00006982C3309F067FBFFAB996C071C07983D
:104AB000483309F060FB011C381C09F045FBFFABD3
:104AC0001969071C0598103309F055FB011C381CA7
:104AD00009F03AFB011C301C09F036FB011CA869E7
:104AE00009F02FFB0A9B1C34A8611C359C4200D0A6
:104AF000D8E5089ECC9B3360CD9B7360CE9BB360A2
:104B0000CF9BF360D09B3361D19B7361D29BB36128
:104B1000D39BF361D49B3362D59B7362D69BB36204
:104B2000D79BF362D89B3363D99B7363DA9BB363E0
:104B3000DB9BF363DC9B3364DD9B7364DE9BB364BC
:104B4000DF9BF364E09B3365E19B7365E29BB36598
:104B5000E39BF365E49B3366E59B7366E69BB36674
:104B6000E79BF366E89B3367E99B7367EA9BB36750
:104B7000EB9BF3678023EC9AF250ED9A0433F250EA
:104B8000EE9A0433F250EF9A0433F250F09A043361
:104B9000F250F19A0433F250F29A0433F250F39A3D
:104BA0000433F250F49A0433F250F59A0433F2507D
:104BB000F69A0433F250F79A0433F250F89A043319
:104BC000F250F99A0433F250FA9A0433F250FB9AF5
:104BD0000433F250FC9A0433F2503AAA8D239446DF
:104BE0001B0163441B68CCAA13CB13C28E231B0189
:104BF00063441B68FDAC07CB07C4049B099D00936D
:104C0000494B28006344CCA91B68FDAAFCF7A0F817
:104C10002B00FDAA23CB23C2220013CB13C21B6897
:104C20003AA913608D238C463EAA11001B016344F0
:104C30001B6831CB31C18E231B0163441B68CCA997
:104C400031CB31C1384BFDA963441B689BA800934D
:104C5000CCABFCF7E3FAFDAB08931C009B9B0B93DA
:104C6000A29B1293A99B1993B09B2093B79B279368
:104C7000BE9B2E93C59B35939C9B0C93A39B139338
:104C8000AA9B1A93B19B2193B89B2893BF9B2F9308
:104C9000C69B36939D9B0D93A49B1493AB9B1B9338
:104CA000B29B2293B99B2993C09B3093C79B3793A8
:104CB0009E9B0E93A59B1593AC9B1C93B39B239338
:104CC000BA9B2A93C19B3193C89B38939F9B0F93A8
:104CD000A69B1693AD9B1D93B49B2493BB9B2B93D8
:104CE000C29B3293C99B3993A09B1093A79B1793A8
:104CF000AE9B1E93B59B2593BC9B2C93C39B339378
:104D0000CA9B3A93A19B1193A89B1893AF9B1F93A7
:104D1000B69B2693BD9B2D93C49B3493CB9B3B9317
:104D20003C9B3C96984601E0E40800004146C96877
:104D300040468946414642464346866909691B68A2
:104D40005568926847690791301C3599059306921A
:104D500009F011FA2E998246381C09F00CFA011C50
:104D6000504609F0F1F927998246079809F003FAAD
:104D700020998346484609F0FEF9011C584609F07F
:104D8000E3F9011C504609F0DFF9199982460698AB
:104D900009F0F1F912998346281C09F0ECF9011C7D
:104DA000584609F0D1F90B998346059809F0E3F9C3
:104DB000011C584609F0C8F9011C504609F0C4F915
:104DC00036992060301C09F0D6F92F998246381C9C
:104DD00009F0D1F9011C504609F0B6F9289982462C
:104DE000079809F0C8F921998346484609F0C3F9A4
:104DF000011C584609F0A8F9011C504609F0A4F915
:104E00001A998246069809F0B6F913998346281C28
:104E100009F0B1F9011C584609F096F90C9983463E
:104E2000059809F0A8F9011C584609F08DF9011CF4
:104E3000504609F089F9311C6060379809F09BF9F8
:104E4000391C8246309809F096F9011C504609F049
:104E50007BF929998246079809F08DF922998346B2
:104E6000484609F088F9011C584609F06DF9011C03
:104E7000504609F069F91B998246069809F07BF9BA
:104E800014998346281C09F076F9011C584609F04C
:104E90005BF90D998346059809F06DF9011C584698
:104EA00009F052F9011C504609F04EF9311CA0607E
:104EB000389809F060F9391C8246319809F05BF99D
:104EC000011C504609F040F9079982462A9809F0DA
:104ED00052F949468346239809F04DF9011C58467A
:104EE00009F032F9011C504609F02EF90699824664
:104EF0001C9809F040F9291C8346159809F03BF9E4
:104F0000011C584609F020F9059983460E9809F0CE
:104F100032F9011C584609F017F9011C504609F0F6
:104F200013F9311CE060399809F025F9391C8246E3
:104F3000329809F020F9011C504609F005F907994B
:104F400082462B9809F017F949468346249809F0C0
:104F500012F9011C584609F0F7F8011C504609F0F7
:104F6000F3F8069982461D9809F005F9291C834635
:104F7000169809F000F9011C584609F0E5F8059962
:104F800083460F9809F0F7F8011C584609F0DCF841
:104F9000011C504609F0D8F8311C20613A9809F0FC
:104FA000EAF8391C8246339809F0E5F8011C5046AE
:104FB00009F0CAF8079982462C9809F0DCF84946AE
:104FC0008346259809F0D7F8011C584609F0BCF82B
:104FD000011C504609F0B8F8069982461E9809F05F
:104FE000CAF8291C8346179809F0C5F8011C5846D1
:104FF00009F0AAF805998346109809F0BCF8011C3D
:10500000584609F0A1F8011C504609F09DF84946A0
:105010006061269809F0AFF8079981462D9809F04C
:10502000AAF8011C484609F08FF8391C81463498CB
:1050300009F0A1F8311C071C3B9809F09CF8011CF1
:10504000381C09F081F8011C484609F07DF8291C3C
:10505000061C189809F08FF80699051C1F9809F08E
:105060008AF8011C281C09F06FF80599051C119895
:1050700009F081F8011C281C09F066F8011C301C9D
:1050800009F062F81C239C460A9BE044A0611C3492
:10509000984500D04AE6FFAB84333C9E0793FFABB4
:1050A000CCAC14333C940A933D96089B1A68586D17
:1050B0000592079A996BD6698146186F06918046CA
:1050C000311C3598DD69176809F055F8391C82469E
:1050D0002E9809F050F8011C504609F035F8414669
:1050E0008246279809F047F820998346484609F0F8
:1050F00042F8011C584609F027F8011C504609F0F7
:1051000023F819998246069809F035F812998346D2
:10511000281C09F030F8011C584609F015F80B99C5
:105120008346059809F027F8011C584609F00CF849
:10513000011C504609F008F8311C2060369809F02F
:105140001AF8391C82462F9809F015F8011C5046B0
:1051500008F0FAFF41468246289809F00CF84946C3
:105160008346219809F007F8011C584608F0ECFF27
:10517000011C504608F0E8FF069982461A9808F08C
:10518000FAFF291C8346139808F0F5FF011C5846C6
:1051900008F0DAFF059983460C9808F0ECFF011C33
:1051A000584608F0D1FF011C504608F0CDFF311CD5
:1051B0006060379808F0DFFF391C8246309808F0AD
:1051C000DAFF011C504608F0BFFF4146824629988D
:1051D00008F0D1FF49468346229808F0CCFF011C15
:1051E000584608F0B1FF011C504608F0ADFF069983
:1051F00082461B9808F0BFFF291C8346149808F0CC
:10520000BAFF011C584608F09FFF059983460D9888
:1052100008F0B1FF011C584608F096FF011C5046EB
:1052200008F092FF311CA060389808F0A4FF391CE8
:105230008246319808F09FFF011C504608F084FF19
:10524000414682462A9808F096FF494683462398AD
:1052500008F091FF011C584608F076FF011C5046EB
:1052600008F072FF069982461C9808F084FF291CFA
:105270008346159808F07FFF011C584608F064FF2C
:10528000059983460E9808F076FF011C584608F0F1
:105290005BFF011C504608F057FF311CE060399855
:1052A00008F069FF391C8246329808F064FF011C3F
:1052B000504608F049FF414682462B9808F05BFFB4
:1052C00049468346249808F056FF011C584608F0CA
:1052D0003BFF011C504608F037FF069982461D9897
:1052E00008F049FF291C8346169808F044FF011C6A
:1052F000584608F029FF059983460F9808F03BFFB0
:10530000011C584608F020FF011C504608F01CFF05
:10531000311C20613A9808F02EFF391C82463398E0
:1053200008F029FF011C504608F00EFF4146824656
:105330002C9808F020FF49468346259808F01BFF6B
:10534000011C584608F000FF011C504608F0FCFE06
:10535000069982461E9808F00EFF291C834617986E
:1053600008F009FF011C584608F0EEFE0599834637
:10537000109808F000FF011C584608F0E5FE011CDB
:10538000504608F0E1FE49466061269808F0F3FEB9
:10539000414681462D9808F0EEFE011C484608F073
:1053A000D3FE391C8046349808F0E5FE311C071CFA
:1053B0003B9808F0E0FE011C381C08F0C5FE011CFB
:1053C000404608F0C1FE291C061C189808F0D3FEC0
:1053D0000699051C1F9808F0CEFE011C281C08F039
:1053E000B3FE0599051C119808F0C5FE011C281C88
:1053F00008F0AAFE011C301C08F0A6FE079A089BC4
:10540000043207920A9A0433A06108931C349A422A
:1054100000D04AE63AAA9446744B744A63441B6827
:1054200062441B6812680893704B3D9E63441B687E
:10543000FDACDB690A936D4B63441B689B6B0B935C
:105440006A4B63441B685B6D0C93684B63441B6839
:105450001B6F0D938C23D358644A0E93634B6244A5
:1054600063441B685B680F93604B63441B681B6A53
:1054700010935E4B63441B68DB6B11935B4B63447F
:105480001B689B6D1293594B63441B685B6F1268DA
:1054900013939023D358554A1493544B6244634456
:1054A0001B6812689B681593504B63441B685B6ACA
:1054B00016934E4B63441B681B6C17934B4B634412
:1054C0001B68DB6D1893494B63441B689B6F1993F2
:1054D0009423D358454A1A93444B624463441B684F
:1054E000DB681B93414B63441B689B6A1C933F4BD7
:1054F00063441B685B6C1D933C4B63441B681268E0
:105500001B6E1E93394B63441B68DB6F1F939823FC
:10551000D358364A2093354B624463441B68126863
:105520001B692193314B63441B68DB6A22932F4B29
:1055300063441B689B6C23932C4B63441B685B6E1A
:1055400024938023D358294A25939C2362441268CC
:10555000D358264A2693254B624463441B685B69F3
:105560002793224B63441B681B6B28931F4B1268C5
:1055700063441B68DB6C29931C4B63441B689B6E64
:105580002A938423D358194A2B93A0236244126888
:10559000D358164A2C93154B624463441B68126817
:1055A0009B692D93114B63441B685B6B2E930F4BD0
:1055B00063441B681B6D2F930C4B63441B68DB6EAD
:1055C00030938823D358094A3193A4236244126844
:1055D000D3583293064B63441B689846FDAB079340
:1055E000902343443393349604E0C046DC08000023
:1055F000D408000043461F685B684246994643460C
:1056000041469B68D2680E694D6948460A990593E0
:10561000069208F0B0FD0B998246059808F0ABFDA4
:10562000011C504608F090FD08998246381C08F08D
:10563000A2FD011C504608F087FD0D998246301CE2
:1056400008F099FD0E998346281C08F094FD011C72
:10565000584608F079FD0C998346069808F08BFDB2
:10566000011C584608F070FD011C504608F06CFD06
:1056700010992060484608F07EFD119982460598F1
:1056800008F079FD011C504608F05EFD0F99824636
:10569000381C08F070FD011C504608F055FD1399A8
:1056A0008246301C08F067FD14998346281C08F0D8
:1056B00062FD011C584608F047FD12998346069882
:1056C00008F059FD011C584608F03EFD011C5046EB
:1056D00008F03AFD16996060484608F04CFD1799AD
:1056E0008246059808F047FD011C504608F02CFD45
:1056F00015998246381C08F03EFD011C504608F002
:1057000023FD19998246301C08F035FD1A9983460D
:10571000281C08F030FD011C584608F015FD1899AA
:105720008346069808F027FD011C584608F00CFD3A
:10573000011C504608F008FDA0601C99484608F07E
:105740001AFD1D998246059808F015FD011C50466A
:1057500008F0FAFC1B998246381C08F00CFD011C6D
:10576000504608F0F1FC1F998246301C08F003FDFA
:1057700020998346281C08F0FEFC011C584608F0BE
:10578000E3FC1E998346069808F0F5FC011C584678
:1057900008F0DAFC011C504608F0D6FC2299E060C3
:1057A000484608F0E8FC23998246059808F0E3FC97
:1057B000011C504608F0C8FC21998246381C08F0AC
:1057C000DAFC011C504608F0BFFC25998246301CCB
:1057D00008F0D1FC26998346281C08F0CCFC011C5B
:1057E000584608F0B1FC24998346069808F0C3FC9B
:1057F000011C584608F0A8FC011C504608F0A4FC07
:1058000028992061484608F0B6FC299982460598F7
:1058100008F0B1FC011C504608F096FC279982461E
:10582000381C08F0A8FC011C504608F08DFC2B9990
:105830008246301C08F09FFC2C998346281C08F0F7
:105840009AFC011C584608F07FFC2A99834606986A
:1058500008F091FC011C584608F076FC011C5046EB
:1058600008F072FC2E996061484608F084FC2F997C
:105870008146059808F07FFC011C484608F064FC4E
:105880002D998146381C08F076FC011C484608F02A
:105890005BFC3199071C301C08F06DFC3299061C2A
:1058A000281C08F068FC011C301C08F04DFC3099E5
:1058B000051C069808F05FFC011C281C08F044FC3D
:1058C000011C381C08F040FC18239C46339BE04424
:1058D000A0611C34434500D08CE6FFAB84330693B3
:1058E000FFAB14333C9C3393079B0D99DA691E6F11
:1058F00091469A6B301C90465A6D1F680592069A25
:1059000020CA069208F037FC0E998246281C08F03F
:1059100032FC011C504608F017FC0C998246059891
:1059200008F029FC011C504608F00EFC0A9982463A
:10593000484608F020FC0B998346404608F01BFCC3
:10594000011C584608F000FC08998346381C08F0F2
:1059500012FC011C584608F0F7FB011C504608F0E9
:10596000F3FB011C206808F0EFFB1099206048460B
:1059700008F001FC11998246404608F0FCFB011C2E
:10598000504608F0E1FB0F998246381C08F0F3FB03
:10599000011C504608F0D8FB13998246301C08F0D1
:1059A000EAFB14998346281C08F0E5FB011C5846C5
:1059B00008F0CAFB12998346059808F0DCFB011C2D
:1059C000584608F0C1FB011C504608F0BDFB011C05
:1059D000606808F0B9FB16996060484608F0CBFB98
:1059E00017998246404608F0C6FB011C504608F055
:1059F000ABFB15998246381C08F0BDFB011C5046D4
:105A000008F0A2FB19998246301C08F0B4FB1A99E1
:105A10008346281C08F0AFFB011C584608F094FB95
:105A200018998346059808F0A6FB011C584608F013
:105A30008BFB011C504608F087FB011CA06808F096
:105A400083FB1C99A060484608F095FB1D9982468F
:105A5000404608F090FB011C504608F075FB1B996E
:105A60008246381C08F087FB011C504608F06CFB8E
:105A70001F998246301C08F07EFB20998346281C23
:105A800008F079FB011C584608F05EFB1E9983461E
:105A9000059808F070FB011C584608F055FB011CE6
:105AA000504608F051FB011CE06808F04DFB2299BC
:105AB000E060484608F05FFB23998246404608F0C4
:105AC0005AFB011C504608F03FFB21998246381CC6
:105AD00008F051FB011C504608F036FB2599824620
