:020000041000EA
:1000000000B5324B212058609868022188439860DF
:10001000D860186158612E4B002199600221596106
:100020000121F02299502B49196001219960352056
:1000300000F044F80222904214D00621196600F024
:1000400034F8196E01211966002018661A6600F04E
:100050002CF8196E196E196E052000F02FF8012189
:100060000842F9D1002199601B49196000215960AB
:100070001A491B48016001219960EB211966A021F2
:10008000196600F012F800219960164914480160C1
:100090000121996001BC002800D000471248134993
:1000A000086003C880F30888084703B5996A0420EC
:1000B0000142FBD001200142F8D103BD02B5186610
:1000C0001866FFF7F2FF186E186E02BD00000240BE
:1000D000000000180000070000035F00212200005C
:1000E000F4000018222000A00001001008ED00E03C
:1000F00000000000000000000000000074B24E7A12
:1001000000200420F7010010C3010010C5010010F9
:10011000C1010010C1010010C1010010C101001097
:10012000C1010010C1010010C1010010C701001081
:10013000C1010010C1010010C9010010CB01001065
:10014000CD010010CD010010CD010010CD01001037
:10015000CD010010CD010010CD010010CD01001027
:10016000CD010010CD010010CD010010CD01001017
:10017000CD010010CD010010CD010010CD01001007
:10018000CD010010CD010010CD010010CD010010F7
:10019000CD010010CD010010CD010010CD010010E7
:1001A000CD010010CD010010CD010010CD010010D7
:1001B000CD010010CD010010CD010010CD010010C7
:1001C00000BE00BE00BE00BE00BE00BEEFF3058054
:1001D000103800BEF2EB8871803F0510A03F05107B
:1001E0003402001090A31AE700201F49086006C8D7
:1001F00081F3088810471D48006800282FD10DA4FE
:100200000ECC002902D000F012F8F9E71849194A7B
:10021000002000E001C19142FCD1174988471749ED
:1002200088471749884700BEFDE701C901C29A42C5
:10023000FBD37047A03F0510C0000020102D002008
:10024000F06B05100000042000000420F06B051086
:10025000001004200010042000000000704709482E
:100260000CF0F8FF0047000008ED00E0000000D0AF
:10027000102D00201C59032099B9001055030010BF
:10028000CDBA00105756000006005250ABB3605371
:10029000709D041006005250861C0302809D0410BD
:1002A000060052505422A29D8C9D0410050052500D
:1002B000DE65F468F06B0510F8B5C0460448054BE0
:1002C00010B5834203D0044B002B00D0984710BDDB
:1002D000102D0020102D00200000000006480749C6
:1002E000091A8B10C90FC91810B5491003D0044B57
:1002F000002B00D0984710BD102D0020102D00209D
:100300000000000010B5074C2378002B09D1FFF73F
:10031000D5FF054B002B02D0044800E000BF0123AD
:10032000237010BD582F002000000000C898041052
:10033000054B10B5002B03D00449054800E000BF71
:10034000FFF7CCFF10BDC046000000005C2F00206E
:10035000C898041070B5192009F0BCFDD023802284
:100360001B0692045A620EF059FB00F047F806F0A3
:10037000BFFD07F0A9FF06F0C7FF09F039F9002219
:100380000524144B1A7006F09DF9134D013C210011
:1003900028000EF037FBFA2080000AF0A7FB002CA3
:1003A000F4D10A200EF08CF9012200210B480AF04A
:1003B00059F80B4810F00EFD01220A4B0A4C1A7036
:1003C0002378012BFCD108F03BF92378012BFAD0DC
:1003D000F6E7C04638560320C8980410705503202D
:1003E00085880010375603203C56032010B502487C
:1003F00011F018F810BDC04604370320092370B56A
:1004000086B0059304330493023B0393013B0293AC
:10041000023B324D324C0193324B22003249334879
:1004200000932B0005F00CFE142005F005FEFA20C9
:1004300080000AF05BFB2E4E21003200280006F0FF
:1004400017F83378682B08D02A4C20000EF084F976
:10045000FA2080000AF04AFBF7E773783D2BF3D1CE
:1004600001222100280006F027F8234E3200210047
:10047000280006F05BF83378002BF7D10122210029
:10048000280005F0D7FE0121200005F0B5FE03216C
:10049000200005F047FE0321280005F071FF13211D
:1004A000200006F0B1F81221200006F0EBF8002140
:1004B000200006F0C9F80321200006F053F80221BD
:1004C000200006F06BF85521200005F049FE1821A8
:1004D000280005F0EFFE06B070BDC046F41E0320F4
:1004E000D830002040420F001C21002014210020A1
:1004F000FC550320DC98041050560320F0B5C64686
:10050000334C344D344E22002900300000B505F044
:10051000C1FF6378DB439B0720D023781B0702D4FD
:1005200004BC9046F0BD2D4C0622002120000DF0A9
:10053000A1FF2100300005F07DFF0023E05E05F003
:10054000E7FD274D28600223E05E05F0E1FD6860CD
:100550000423E05E05F0DCFDA860E1E7214B062204
:100560009846180000210DF085FF1F4F062200213C
:1005700038000DF07FFF4146280005F03DFF3900AF
:10058000280005F01BFF43460020185E05F0ACFD77
:100590004346164D28600220185E05F0A5FD43462F
:1005A00068600420185E05F09FFDA8600023F85ED7
:1005B00005F0A4FD0E4D28600223F85E05F09EFDB7
:1005C00068600423F85E05F099FDA860A5E7C046C1
:1005D000844B0320D8300020F41E0320303C03203D
:1005E000D0400320203C0320283C0320C43A0320B1
:1005F000E03A0320F0B55746DE464E464546E0B5A4
:100600008BB008919246190005900993DA170323DD
:100610008C46134063449B109B009846002B00DCE3
:100620008FE05246159B00249B000193149B0025EC
:100630009B1A159A9B1A089A9B000293536812689A
:100640001901944606929A0003925246013A92008A
:100650000792002291465A000491DF005146D318B8
:100660009B0042469B4623008E0066440092019AFE
:1006700094469C44039B5C19D8195346002B1EDDFD
:10068000069B05995A196346884600999B00434486
:1006900088460095116819600099511A0D59043265
:1006A0005D60CD599D600958D96010339642F1D1F3
:1006B0004346079A00936346944604339C440422BD
:1006C000029B5C4463449446049AE1449446009A35
:1006D00058442500070066444A45C8DC1C00904683
:1006E000099B434526DD149A1598089B151A524616
:1006F0000ACBAD1A002A1DDD42469E0053439B00E3
:10070000C91853469800059B47469C46099BAB4633
:100710009846159B994600234C44A2006244CD584C
:10072000D55004339842FAD1544401375C448919B6
:10073000B845F0D10BB03CBC90469946A246AB46BA
:10074000F0BD0024CCE7C046F0B5CE46474680B5A4
:10075000002B1DDD002A1BDD940000190C6800250C
:10076000A0464C689100D200494252428C469146C4
:10077000A400614646183100AA00424417681219C5
:1007800080C18142FAD14A460135B01AAB42F0D15C
:100790000CBC90469946F0BDF0B5DE4657464E4635
:1007A0004546E0B599B00B9024980C93259B0130F9
:1007B00001D122982490581C00D1229B2398C41761
:1007C00003202040239CA44660448010850007201D
:1007D000229C02958443200001940C9C002C00DC98
:1007E00085E20091190113912699249C0901511861
:1007F0001691411EC9080131C801490109919900AA
:10080000179126996B438C4663449B00D31812932F
:100810000023A400149415900493029B002B00DC89
:10082000C1E1099A009B944663441193169B03937C
:10083000002305930598049C0100A4460B9B039E8E
:100840000CCB59436144890051180D91411C594307
:100850006144890051180E91811C594361448900FB
:1008600051180F91C11C4B4363449B00D318109344
:10087000019B3400002B00DC44E2009B00259846DD
:1008800000234446A946AA46AB46A84607950695C6
:100890002F1C08950A9325683168281C0DF069FC07
:1008A00059460DF04FFC71688346281C0DF061FC21
:1008B00051460DF047FCB1688246281C0DF059FCEA
:1008C00049460DF03FFCF1688146281C0DF051FCB3
:1008D00008990DF037FC089065683169281C0DF007
:1008E00048FC391C0DF02EFC7169071C281C0DF00A
:1008F00040FC06990DF026FCB1690690281C0DF00D
:1009000038FC07990DF01EFCF1690790281C0DF0CA
:1009100030FC41460DF016FC8046A568316A281C63
:100920000DF027FC59460DF00DFC716A8346281C1A
:100930000DF01FFC51460DF005FCB16A8246281CE3
:100940000DF017FC49460DF0FDFBF16A8146281CAD
:100950000DF00FFC08990DF0F5FB0890E568316B80
:10096000281C0DF006FC391C0DF0ECFB716B071C0C
:10097000281C0DF0FEFB06990DF0E4FBB16B069010
:10098000281C0DF0F6FB07990DF0DCFBF16B0790CE
:10099000281C0DF0EEFB41460DF0D4FB8046256986
:1009A000316C281C0DF0E5FB59460DF0CBFB716C4A
:1009B0008346281C0DF0DDFB51460DF0C3FBB16CE6
:1009C0008246281C0DF0D5FB49460DF0BBFBF16CAF
:1009D0008146281C0DF0CDFB08990DF0B3FB089063
:1009E0006569316D281C0DF0C4FB391C0DF0AAFBA4
:1009F000716D071C281C0DF0BCFB06990DF0A2FBC5
:100A0000B16D0690281C0DF0B4FB07990DF09AFB10
:100A1000F16D0790281C0DF0ACFB41460DF092FBE8
:100A20008046A569316E281C0DF0A3FB59460DF0D8
:100A300089FB716E8346281C0DF09BFB51460DF01F
:100A400081FBB16E8246281C0DF093FB49460DF0E8
:100A500079FBF16E8146281C0DF08BFB08990DF097
:100A600071FB0890E569316F281C0DF082FB391C81
:100A70000DF068FB716F071C281C0DF07AFB0699BE
:100A80000DF060FBB16F0690281C0DF072FB07990A
:100A90000DF058FBF16F0790281C0DF06AFB4146E2
:100AA0000DF050FB8046803620340A9B019A0833B3
:100AB0000A939A4200DDEEE6159A039B9446594646
:100AC0006344381C1C000DF03DFB5146071C069882
:100AD0000DF038FB4946061C07980DF033FB0899CA
:100AE000814640460DF02EFB119B051C9B46229B28
:100AF0001900019B994230DD9A46A8465B4620CBFF
:100B00002168281C9B460DF034FB011C381C0DF09D
:100B100019FB6168071C281C0DF02BFB011C301C05
:100B20000DF010FBA168061C281C0DF022FB011C17
:100B300048460DF007FBE1688146281C0DF019FBC3
:100B4000011C40460DF0FEFA804601239C46229B84
:100B5000E24410345345D1D1051C311C0E9E30683F
:100B60000DF0EDFA391C0D9F041C38680DF0E7FA02
:100B7000291C109D3860346028680DF0E0FA0F9E43
:100B80004946041C30680DF0DAFA1399039A8C4632
:100B9000059B62440392029A0433306005932C60F3
:100BA0009A4200DD46E6239B029A934200DC92E0E3
:100BB000099A009B944663440593029B129D9846B4
:100BC0000B9B9B465B465E6843465E43049BA9467F
:100BD0009C465B461A6866449446B600019B664490
:100BE0000396002B00DC89E000232E0000249A46A7
:100BF000009F316838680DF0BCFA211C0DF0A2FA94
:100C0000041C716878680DF0B4FA211C0DF09AFA92
:100C1000041CB168B8680DF0ACFA211C0DF092FA12
:100C2000041CF168F8680DF0A4FA211C0DF08AFA92
:100C3000041C316938690DF09CFA211C0DF082FA10
:100C4000041C716978690DF094FA211C0DF07AFA90
:100C5000041CB169B8690DF08CFA211C0DF072FA10
:100C6000041CF169F8690DF084FA211C0DF06AFA90
:100C7000041C2036203708239C46019BE244534540
:100C8000B7DC099B9946059BA9449A46229B019E85
:100C9000B34210DD00274B46D9595346D8590DF0C1
:100CA00068FA011C201C0DF04DFA041C229B013631
:100CB0000437B342EFD1211C039C20680DF03FFAAA
:100CC00001239C46179BE0449C46239B206065447F
:100CD000434500D076E71499009A8C46049B624401
:100CE00000920C9A013304939A4200D095E519B012
:100CF0003CBC90469946A246AB46F0BD009B002402
:100D00009A46C3E70025009BA9469B462E1C2F1C34
:100D1000EDE6C04630B587B00C4B02AD00951A68C1
:100D2000694602929A880400AA809B796A46AB7150
:100D3000072301930023D3732DF028FB0098A842CA
:100D400001D00DF0ABFB200007B030BDF0980410CF
:100D5000F0B5DE4657464E464546E0B50E00016802
:100D6000C7688946416805698A4681688DB08B46A7
:100D700041698069079306905068136892680591ED
:100D80000A90291C30680B92099308950DF0D7F949
:100D90000599039070680DF0D2F90699051CB068AA
:100DA0000DF0CDF9804607980DF066FA80231B06FA
:100DB0009C46039E009001916644514630000DF020
:100DC000D8F95946061C281C0DF0D3F9011C301C1B
:100DD0000DF0B5F9391C061C404604970DF0C9F911
:100DE000011C301C0DF0ABF90DF046FA0022684BE7
:100DF0000CF0F1FC009A019B0CF0EDFC060048465B
:100E00000F000DF039FA02000B0030003900169C7B
:100E10000CF0BAFC0CF0D8FD4946206003980DF0A8
:100E2000A8F95946061C40460DF0A3F9011C301CD8
:100E30000DF088F90499061C281C0DF09AF9011C84
:100E4000301C0DF07CF90DF017FA0022504B0CF01D
:100E5000C2FC009A019B0CF0BEFC060050460F003D
:100E60000DF00AFA02000B00300039000CF08CFC87
:100E70000CF0AAFD49466060281C0DF07AF9514635
:100E8000061C40460DF075F9011C301C0DF057F999
:100E90000499061C03980DF06CF9011C301C0DF030
:100EA00051F90DF0E9F90022394B0CF094FC009A4D
:100EB000019B0CF090FC060058460F000DF0DCF989
:100EC00002000B00300039000CF05EFC0CF07CFDE1
:100ED0004946A06040460DF04CF95146061C281CBE
:100EE0000DF047F9011C301C0DF02CF95946051C7A
:100EF00003980DF03EF9011C281C0DF020F90DF0AF
:100F0000BBF90022224B0CF066FC009A019B0CF00E
:100F100062FC060004980F000DF0AEF902000B0011
:100F2000300039000CF030FC0CF04EFD089B0999A4
:100F3000E060181C98460DF01CF9079D291C0DF067
:100F400018F9011C40460DF0FAF8059F0A99206136
:100F5000381C0DF00EF9291C0DF00BF9011C381C82
:100F60000DF0EDF8069E0B996061301C0DF001F953
:100F7000291C0DF0FEF8011C301C0DF0E0F8A061FA
:100F800000200DB03CBC90469946A246AB46F0BD51
:100F90000000E03FF0B5DE4657464E4645468A46DD
:100FA0004168E0B58846C768816891B0066889469F
:100FB0004046391C141C04930DF0DBF84946051C0F
:100FC000301C0DF0D6F80A90011C281C09950DF074
:100FD000B6F80DF051F902000B000CF0D5FB0690AD
:100FE0000791201C02940DF047F90B000200040049
:100FF0000D00069807990CF0EEFB0CF0E5FC52464C
:10100000391C106048460DF0B4F883464146301C48
:101010000DF0AFF85A460E90011C58460B920DF099
:1010200091F80DF029F902000B000CF0ADFB020065
:101030000B00200029000C920D930CF0CCFB0CF05F
:10104000C3FC5446311C6060301C0DF092F84146E0
:10105000041C40460DF08DF8051C011C201C0DF0F1
:101060006EF84946089048460DF083F8391C8346CF
:10107000381C0DF07EF85946019008980DF05FF885
:1010800001990DF05FF802990F900DF072F8534638
:101090004946986040460DF06CF8391C8046301C7B
:1010A0000DF067F881461A980DF0E6F806001B98D7
:1010B0000F000DF0E1F802900391291C201C0DF0A7
:1010C00041F859460DF03BF801990DF038F80499B4
:1010D0000DF04FF80DF0D0F804000D0040464946E1
:1010E0000DF030F80DF0C8F802000B000CF04CFBCE
:1010F00032003B000CF06FFB02000B0020002900C7
:101100000CF042FB029A039B04000D00069807991D
:101110000CF061FB02000B00200029000CF034FBF6
:101120000CF052FC5346D86004980DF0A5F804006A
:101130000D00404649460DF002F80DF09DF8020002
:101140000B000CF021FB22002B00049405950CF001
:1011500042FB04000D00089859460CF0F3FF01997A
:101160000CF0EDFF1A990DF004F80DF085F802006F
:101170000B00200029000CF007FB029A039B0400DF
:101180000D000C980D990CF026FB02000B002000BE
:1011900029000CF0F9FA0CF017FC53460A99186173
:1011A00009980CF0CFFF0DF067F802000B000CF06F
:1011B000EBFA049A059B0CF00EFB04000D000B9853
:1011C0000E990CF0BCFF0DF057F802000B000CF06C
:1011D000DBFA32003B000CF0FEFA02000B002000AC
:1011E00029000CF0D1FA04000D000F981B990CF0A7
:1011F000C0FF0DF041F802000B00200029000CF0A8
:10120000C3FA0CF0E1FB53465861002011B03CBC1E
:1012100090469946A246AB46F0BDC046F0B50400E4
:10122000DE4657464E4645460800E0B54568096823
:10123000AA46856895B0AB46C5684669876910912E
:101240000E950169556810689268049690461A6870
:10125000069711925A689B6812921393FE239B057E
:10126000236099460CF06BFF0DF006F80090019199
:101270001E980DF001F806000F0000980199002259
:10128000924B0CF0A8FA32003B000CF0A4FA0CF0E0
:101290009BFB04990390E061281C0CF050FF0CF0BC
:1012A000EBFF0022894B049005910CF094FA320078
:1012B0003B000CF090FA0CF087FB0699051CA0632C
:1012C00040460CF03CFF0CF0D7FF00227F4B06900D
:1012D00007910CF080FA32003B000CF07CFA0CF025
:1012E00073FB0A90606550460CF0C6FF0022784BF5
:1012F000089009910CF06FFA32003B000CF06BFA89
:101300000CF062FB0B90206758460CF0B5FF0022F2
:101310006F4B0C900D910CF05EFA32003B000CF01C
:101320005AFA0CF051FB8C238246E0500E980CF0D8
:10133000A3FF0022664B0E900F910CF04CFA320086
:101340003B000CF048FA0CF03FFBA8238346E0502A
:101350000022009801995E4B0CF03DFA32003B00F0
:101360000CF039FA0CF030FB4946009060602162C5
:10137000002206980799564B0CF02DFA32003B00DC
:101380000CF029FA0CF020FBA5658046E06310986C
:101390000CF072FF00224D4B0CF01DFA32003B00A6
:1013A0000CF019FA0CF010FB59469023051C6067ED
:1013B0000022E1500C980D99444B0CF00CFA3200CD
:1013C0003B000CF008FA0CF0FFFAAC230022E050CE
:1013D000049805993E4B0CF0FEF932003B000CF0EE
:1013E000FAF90CF0F1FA49460A9A83466262009AC9
:1013F000A0602164E2650E980F990022334B0CF037
:10140000EAF932003B000CF0E6F90CF0DDFA942327
:101410000B99A067E5501C33E1504146E160594605
:10142000A162494621665146039BE16763640898BF
:1014300009990022254B0CF0CEF932003B000CF04C
:10144000CAF90CF0C1FA9823E0501C33E55000258E
:101450001E9911982561E562A56465660CF089FE08
:10146000011C48460CF06BFE8023E0501C33E55015
:101470001C33E550343B1E99129865612563E56481
:10148000A566E5500CF075FE011C48460CF057FEB1
:10149000A023E0501C33E550343BA561656325650E
:1014A000E566E5501C33E5501E9913980CF061FE7B
:1014B000011C48460CF043FEC023E050002015B04C
:1014C0003CBC90469946A246AB46F0BD0000E0BF4A
:1014D0000000E03FF0B5DE4657464E464546E0B5D3
:1014E0009A460B68141C8A689B464B68C9688BB087
:1014F0000500101C8846009301920CF0BDFE02907E
:101500000391201C0CF0B8FEC02306000F000298C7
:10151000039900221B060CF05EF932003B000CF030
:101520005AF90CF051FA0890286040460CF0A4FEDD
:1015300002000B000CF028F932003B000CF04BF9D4
:101540000CF042FA041CA86158460CF095FEC0232A
:1015500000221B06049005910CF03DF932003B007F
:101560000CF039F90CF030FA286300980CF084FE86
:1015700002000B00069007910CF006F932003B00C8
:101580000CF029F90CF020FA002190238946A86478
:101590002966A967E95068600498059902000B0064
:1015A0000CF0F2F832003B000CF015F90CF00CFADC
:1015B0006C630490E8610298039902000B000CF040
:1015C000E3F832003B000CF006F90CF0FDF9494657
:1015D0009423E8646966E967E950C023069807998F
:1015E000049A1B06AA6000220CF0F5F832003B00BA
:1015F0000CF0F1F80CF0E8F9089B4946AB63802346
:1016000028622C65A966E9501833E95040461499C0
:101610000CF0AFFD019F1599061C381C0CF0A9FDBC
:101620005146041C58460CF0A4FD311C0CF08AFDF8
:10163000211C06940CF083FD011C0CF083FD514627
:101640000990E86000980CF094FD1499041C381C73
:1016500001970CF08EFD011C201C0CF073FD1599F8
:10166000041C40460CF085FD011C201C0CF06AFD9A
:10167000011C0CF067FD14990290686200980CF050
:1016800078FD1599089058460CF073FD019A802456
:10169000944624066444071C514620000CF069FD62
:1016A00008990CF04FFD391C0CF049FD011C0CF0A1
:1016B00049FD1499E86358460CF05BFD15990490B8
:1016C00000980CF056FD802212064244041C51463C
:1016D00010000CF04EFD04990CF034FD211C0CF0B0
:1016E00031FD011C0CF02EFD4A468423EA66686534
:1016F000EA501833EA505146286101980CF039FD40
:1017000008990CF01CFD391C0CF01CFD011C0CF0A0
:1017100019FD071CA8628020029B00062B6451461D
:1017200058440CF026FD311C0CF009FD06990CF014
:1017300009FD011C0CF006FD8823A86548462867B2
:10174000E8501833E850514640466F610CF011FDE7
:1017500004990CF0F4FC211C0CF0F1FC011C0CF0C1
:10176000F1FC099AE8626A64029B4A46EB654B46C3
:101770006B678C230020EA501833EA500BB03CBC56
:1017800090469946A246AB46F0BDC046F0B54546E8
:10179000DE4657464E46E0B53B4CC723A54434AA27
:1017A000944663441B091B0105938B680490319395
:1017B0000B6833911A6864462A929A692B921A6BC5
:1017C0002C929A6C2D921A6E2E929A6F2F929022D2
:1017D0009A5830925A680692DA6908925A6B0992BE
:1017E000DA6C0A925A6E0B92DA6F0C9294229A5823
:1017F0000D929A680E921A6A0F929A6B10921A6D55
:1018000011929A6E129280229A58139298229A58A4
:101810001492DA6815925A6A1692DA6B17925A6D18
:101820001892DA6E199284229A581A929C229A5827
:101830001B921A6932941C929A6A1D921A6C1E921B
:101840009A6D1F921A6F209288229A582192A02294
:101850009A5822925A692392DA6A24925A6C2592F3
:10186000DA6D26925A6F27928C229A582892A422D7
:101870009B5829934B689846C42343440793434697
:10188000E0461C0002E0C046ACFDFFFFE168A26834
:10189000894621692368484603912D990292019354
:1018A0000CF067FC2E99824603980CF062FC011C38
:1018B00050460CF047FC676982462F99381C0CF0A3
:1018C00058FCA66983463099301C0CF052FC011C70
:1018D00058460CF037FC011C50460CF033FC656890
:1018E00082462B99281C0CF044FC2C9983460298C4
:1018F0000CF03FFC011C58460CF024FC2A9983464E
:1019000001980CF036FC011C58460CF01BFC011C25
:1019100050460CF017FC4346494618600A980CF0F4
:1019200028FC039982460B980CF023FC011C5046BE
:101930000CF008FC391C82460C980CF01AFC311C87
:1019400083460D980CF015FC011C58460CF0FAFB70
:10195000011C50460CF0F6FB291C824608980CF03E
:1019600008FC0299834609980CF003FC011C5846B8
:101970000CF0E8FB0199834606980CF0FAFB011C79
:1019800058460CF0DFFB011C50460CF0DBFB4346D5
:101990004946586011980CF0ECFB03998246129866
:1019A0000CF0E7FB011C50460CF0CCFB391C8246C6
:1019B00013980CF0DEFB311C834614980CF0D9FB15
:1019C000011C58460CF0BEFB011C50460CF0BAFB43
:1019D000291C82460F980CF0CCFB02998346109884
:1019E0000CF0C7FB011C58460CF0ACFB0199834678
:1019F0000E980CF0BEFB011C58460CF0A3FB011C1A
:101A000050460CF09FFB43464946986018980CF0EE
:101A1000B0FB0399824619980CF0ABFB011C5046B1
:101A20000CF090FB391C82461A980CF0A2FB311C7A
:101A300083461B980CF09DFB011C58460CF082FB62
:101A4000011C50460CF07EFB291C824616980CF0B7
:101A500090FB0299834617980CF08BFB011C5846AB
:101A60000CF070FB0199834615980CF082FB011C69
:101A700058460CF067FB011C50460CF063FB4346D4
:101A80004946D8601F980CF074FB03998246209851
:101A90000CF06FFB011C50460CF054FB391C8246C5
:101AA00021980CF066FB311C834622980CF061FBF8
:101AB000011C58460CF046FB011C50460CF042FB42
:101AC000291C82461D980CF054FB029983461E98EF
:101AD0000CF04FFB011C58460CF034FB0199834677
:101AE0001C980CF046FB011C58460CF02BFB011C0B
:101AF00050460CF027FB43464946186126980CF0E7
:101B000038FB0399814627980CF033FB011C4846AB
:101B10000CF018FB391C814628980CF02AFB311C6C
:101B2000071C29980CF025FB011C381C0CF00AFB43
:101B3000011C48460CF006FB291C061C24980CF0DE
:101B400018FB0299051C25980CF013FB011C281C9E
:101B50000CF0F8FA0199051C23980CF00AFB011C03
:101B6000281C0CF0EFFA011C301C0CF0EBFA434679
:101B7000586118239C46079B1C34E044A34200D0C4
:101B800084E6319A1368089393690993136B0A9357
:101B9000936C0B93136E0C93936F0D939023D35808
:101BA0000E9353680F93D3691093536B1193D36CB7
:101BB0001293536E1393D36F14939423D3581593A6
:101BC00093681693136A1793936B1893136D199375
:101BD000936E1A938023D3581B939823D3581C9346
:101BE000D3681D93536A1E93D36B1F93536D209339
:101BF000D36E21938423D35822939C23D3582393C9
:101C000013692493936A2593136C2693936D2793FA
:101C1000136F059C28938823D35820342993A0233D
:101C2000D358A1462A9353692B93D36A2C93536CB0
:101C30002D93D36D2E93536F2F938C23D3583093C2
:101C4000A423D358319358AB0693329B1A0098467D
:101C50001832079243464246414640461B68956902
:101C60000193069B146B096E926C40CB876F0291B7
:101C7000101C0B99039206930CF07BFA0C99824688
:101C800002980CF076FA011C50460CF05BFA0D99A4
:101C90008246381C0CF06DFA0E998346301C0CF00D
:101CA00068FA011C58460CF04DFA011C50460CF025
:101CB00049FA09998246281C0CF05BFA0A99834676
:101CC000201C0CF056FA011C58460CF03BFA0899FF
:101CD000834601980CF04DFA011C58460CF032FA7C
:101CE000011C50460CF02EFA4B46129918600398CE
:101CF0000CF03FFA1399824602980CF03AFA011C54
:101D000050460CF01FFA14998246381C0CF031FA38
:101D100015998346301C0CF02CFA011C58460CF027
:101D200011FA011C50460CF00DFA10998246281C3D
:101D30000CF01FFA11998346201C0CF01AFA011CB2
:101D400058460CF0FFF90F99834601980CF011FAF0
:101D5000011C58460CF0F6F9011C50460CF0F2F943
:101D60004B461999586003980CF003FA1A99824669
:101D700002980CF0FEF9011C50460CF0E3F91B9997
:101D80008246381C0CF0F5F91C998346301C0CF087
:101D9000F0F9011C58460CF0D5F9011C50460CF026
:101DA000D1F917998246281C0CF0E3F9189983465B
:101DB000201C0CF0DEF9011C58460CF0C3F91699F2
:101DC000834601980CF0D5F9011C58460CF0BAF97D
:101DD000011C50460CF0B6F94B46209998600398C8
:101DE0000CF0C7F92199824602980CF0C2F9011C47
:101DF00050460CF0A7F922998246381C0CF0B9F92C
:101E000023998346301C0CF0B4F9011C58460CF0A1
:101E100099F9011C50460CF095F91E998246281C30
:101E20000CF0A7F91F998346201C0CF0A2F9011CA5
:101E300058460CF087F91D99834601980CF099F9E2
:101E4000011C58460CF07EF9011C50460CF07AF942
:101E50004B462799D86003980CF08BF92899824655
:101E600002980CF086F9011C50460CF06BF9299988
:101E70008246381C0CF07DF92A998346301C0CF000
:101E800078F9011C58460CF05DF9011C50460CF025
:101E900059F925998246281C0CF06BF9269983463E
:101EA000201C0CF066F9011C58460CF04BF92499E3
:101EB000834601980CF05DF9011C58460CF042F97C
:101EC000011C50460CF03EF94B462E9918610398C0
:101ED0000CF04FF92F99824602980CF04AF9011C38
:101EE00050460CF02FF930998246381C0CF041F91D
:101EF0003199071C301C0CF03CF9011C381C0CF00B
:101F000021F9011C50460CF01DF92C99061C281CC7
:101F10000CF02FF92D99051C201C0CF02AF9011C3E
:101F2000281C0CF00FF92B99041C01980CF021F9D6
:101F3000011C201C0CF006F9011C301C0CF002F9ED
:101F40004B46586104239C461433E0449C46079B4F
:101F5000E144984500D07DE6339B059DDC68296A05
:101F600020680CF0EFF8049EA96B306060680CF0FC
:101F7000E9F87060A068296D0CF0E4F8B060E068E2
:101F8000A96E0CF0DFF88023F0602069E9589846CC
:101F90000CF0D8F898233061E95860690CF0D2F859
:101FA0007061A069696A0CF0CDF8B061E069E96B15
:101FB0000CF0C8F8F061206A696D0CF0C3F830626B
:101FC000E96E606A0CF0BEF884277062A06AE95975
:101FD0000CF0B8F89C23B062E958E06A0CF0B2F853
:101FE000F062206BA96A0CF0ADF83063606B296C6D
:101FF0000CF0A8F87063A06BA96D0CF0A3F8B063A7
:10200000E06B296F0CF09EF80496F0638826206C34
:10201000A9590CF097F8049B1864A023606CE95848
:102020000CF090F8049BE96A5864A06C0CF08AF8F4
:10203000049B696C9864E06C0CF084F8049BE96D77
:10204000D864206D0CF07EF8049B696F1865606D94
:1020500005950CF077F88C25049A059B5065A06DCA
:1020600059590CF06FF8A423049A9065059AE06D15
:10207000D1580CF067F80499059AC865206E116B69
:102080000CF060F80499059A0866916C606E0CF08B
:1020900059F80499059A4866A06E116E0CF052F832
:1020A0000499059A8866E06E916F0CF04BF89023C6
:1020B0000499059AC866206FD1580CF043F8A823FC
:1020C0000499059A0867606FD1580CF03BF80499A1
:1020D000059A4867A16F506B0CF034F80499059A83
:1020E0008867E16FD06C0CF02DF80499059AC867E9
:1020F00040462158506E0CF025F84146049B059A45
:102100005850E159D06F0CF01DF8049BD85194231E
:10211000059FA159F8580CF015F8049B9851AC2371
:102120006159F8580CF00EF8049B585195239B0008
:102130009D443CBC90469946A246AB46F0BDC04685
:10214000F0B54E464546DE4657460023E0B51360DF
:10215000836887B09846049200230268052691465A
:102160000093013B019003910293052345469B1B7D
:102170009A465D434B46002B00D197E15544AD0094
:102180004D442B685C006B6864085F007F08391C55
:10219000381C0CF038F8002800D0E8E0211C381C6E
:1021A0000CF02CF8002800D0E8E00027731C9B46B8
:1021B000012E53D0AB685B005B08191C181C9846B5
:1021C0000CF021F8002800D04DE14046211C0CF015
:1021D00015F8002801D0444602275B46032B3DD06A
:1021E000EB685B005B08191C181C98460CF00BF898
:1021F000002800D03FE14146201C0BF0F1FF0028F1
:1022000001D0444603275B46042B27D02B695B0093
:102210005B08191C181C98460BF0F5FF002800D02D
:1022200031E14146201C0BF0DBFF002801D0444681
:1022300004275B46052B11D06D696D006D08291CC4
:10224000281C0BF0E0FF002800D024E1291C201CF2
:102250000BF0C6FF002801D005272C1C039B009A19
:10226000574400219F50201C0BF0B2FF002800D1E2
:1022700087E0029B013300D1EBE05746019B9B684E
:1022800098465F4306239C1B06239B1BDF1943468E
:10229000424663439D001C19002392009346009A16
:1022A0009A469446BF006544A4004F444D444C44B4
:1022B000396828680BF05DFF011C20680BF03FFFB8
:1022C0002060012E29D0796828680BF052FF011C8C
:1022D00060680BF034FF6060022E1ED02968B86879
:1022E0000BF047FF011CA0680BF029FFA060032E34
:1022F00013D02968F8680BF03CFF011CE0680BF074
:102300001EFFE060052E08D1296838690BF031FF07
:10231000011C20690BF013FF206101239C46E2445D
:102320005D445C445645C3D1009B013E0433009399
:10233000002E00D019E70523039A00215361019B69
:102340009A68013293009B184A469B0098580BF0FC
:102350003FFF002803D0029B013300D1A3E0029885
:1023600007B03CBC90469946A246AB46F0BD211C46
:10237000201C0BF048FF002800D00FE73C1C012771
:1023800014E757452FD049464C46019ABB000098A8
:102390004B441D68926809589200255048441960C2
:1023A00081189B1808681C680C60186089189B18B5
:1023B00008681C680C60186089189B1808681C68FD
:1023C0000C60186089189B1808681C680C601860FD
:1023D00089189B1818680A6808601A60049A1368BC
:1023E0000593013313605746019B4A469B685F4340
:1023F000984606239C1B5346FB183D199B009B588F
:10240000AD004D442868191C9A460BF09EFE2860CA
:10241000012E00D138E7686851460BF096FE6860DF
:10242000022E00D130E7A86851460BF08EFEA8605E
:10243000032E00D128E7E86851460BF086FEE860DD
:10244000042E00D120E7286951460BF07EFE28615A
:102450001AE75746019B9B6898465F4306239C1BDF
:102460005346029310E7211C201C0BF0CCFE0028E1
:1024700000D1B0E6A9E6211C201C0BF0C4FE002808
:1024800000D1BEE6B7E6211C201C0BF0BCFE0028E4
:1024900000D1CCE6C5E6211C201C0BF0B4FE0028C0
:1024A00000D1D9E6D2E60523029358E71B68FFDE88
:1024B000F0B5DE464E4645465746E0B589B001AF19
:1024C0003A000500059005AB03CB03C26B682C00F6
:1024D0005800AB684008590049080BF033FE2B68E0
:1024E000590049080BF02EFE2B69061C58006B6939
:1024F0004008590049080BF025FEEB6859004908CF
:102500000BF020FE011C301C0BF01CFEEB6980461A
:1025100058002B6A4008590049080BF013FEAB69BC
:10252000590049080BF00EFEAB6A061C5800EB6A16
:102530004008590049080BF005FE6B6A590049082C
:102540000BF000FE011C301C0BF0FCFD6B6B814698
:102550005800AB6B4008590049080BF0F3FD2B6B9A
:10256000590049080BF0EEFD2B6C061C58006B6CF3
:102570004008590049080BF0E5FDEB6B590049088C
:102580000BF0E0FD011C301C0BF0DCFD061C011CF7
:1025900048460BF025FE002800D14E464046311C2F
:1025A0000BF01EFE002800D14646E36C5800236D58
:1025B0004008590049080BF0C5FDA36C59004908B3
:1025C0000BF0C0FDA36D80465800E36D4008590034
:1025D00049080BF0B7FD636D590049080BF0B2FDD7
:1025E000011C40460BF0AEFD636E80465800A36EA2
:1025F0004008590049080BF0A5FD236E5900490811
:102600000BF0A0FD236F81465800636F400859000E
:1026100049080BF097FDE36E590049080BF092FD55
:10262000011C48460BF08EFDE36F81465800802365
:10263000E1584008490049080BF084FDA36F590098
:1026400049080BF07FFD88238246E0580433E158A7
:1026500040004900490840080BF074FD8423E1580C
:10266000490049080BF06EFD011C50460BF06AFD55
:10267000041C011C48460BF0B3FD002800D14C4659
:102680004046211C0BF0ACFD002800D14446211C23
:10269000301C0BF0A5FD002800D1341CC0232900FC
:1026A000EC503A00BA3BA83104A806930495FFF712
:1026B00047FD0121C422019B98260B405B428B43BE
:1026C0000133AB54343A9246002250469C272A509C
:1026D0009432A9509346923AAA510132EA519D325E
:1026E000944660469C3A2A50A03291469F3A9046C2
:1026F0004A4640462B00A85048461832AA58903304
:1027000092009A1814682C50404610606046B82217
:102710002858AA588046604692009A1814682C508F
:1027200040461060B422E859AA58844692009A188C
:1027300010685C46E85160461060B022AA58AF5954
:1027400092009A181068A8511760AC225846AA58EF
:102750002E5892009A18106828511660A822AA587C
:10276000544692009B1852461868AA5828511A607D
:10277000C523E95409B03CBC90469946A246AB46F5
:10278000F0BDC046C023002210B5C2500022043361
:10279000C2520B68040003604B6843608B6883601F
:1027A000CB68C3600B6903614B6943618B698361CB
:1027B000CB69C3610B6A03624B6A43628B6A8362B3
:1027C000CB6AC3620B6B03634B6B43638B6B83639B
:1027D000CB6BC3630B6C03644B6C43648B6C836483
:1027E000CB6CC3640B6D03654B6D43658B6D83656B
:1027F000CB6DC3650B6E03664B6E43668B6E836653
:10280000CB6EC3660B6F03674B6F43678B6F83673A
:10281000CB6FC3678023CA58C2500433CA58C25012
:102820000433CA58C2500433CA58C250FFF740FE9E
:10283000200010BD10B5037A0400002B07D00068FB
:10284000002804D0431E1B78C01A0BF0FBFD2000AB
:1028500010BDC046F0B557464E464546DE46E0B58B
:10286000B5B006AFFB64EC23E84DF861F9633A6755
:10287000FB181E682B78BFF35B8FDB0700D484E264
:10288000E34C6368FA699A4633697B62B3683B62DA
:10289000934200DD3A627A6A3B6A53439946FB6B86
:1028A000534398468023DB05994500D351E23368B2
:1028B0003B65002B00D155E24B4600249D00A02330
:1028C000A422FB181C604B46BA18136080239B029D
:1028D000AB42AD41A8236D42FB181D708023DB0580
:1028E000984500D319E27368FB60002B00D11DE20C
:1028F000434600249D00AC23B022FB181C604346D5
:10290000BA18136080239B02AB42AD41B4236D42E1
:10291000FB181D7004237B64FB6B002B15DDE82086
:102920003A18FB6912681900934200DAF3E1504645
:1029300009010AF0E5FC0323C21713401B189B1082
:102940009B007B64042B00DAE2E1F969002900DCDA
:102950007BE17B6AB9611A00C91A9C463961E8219A
:10296000F86C9B0042433B60BA607B1862441B6872
:102970007A607A6C5343BB628300FB650433BB65AA
:10298000431C9B00BB667B181B689B007B66E02397
:10299000FB181B683B6300237B63BB637B613B6667
:1029A0008C20BB693A1813607A6A934201DD3B18A8
:1029B0001A60FB6B002B00DC18E18C23FB181B68F2
:1029C000002B00DC12E1FA6BBA647A6C53439B0073
:1029D000FB62FB687B6700237B653B6498339A4608
:1029E000BA448020BB6C3A1813607A6C934201DDC4
:1029F0003B181A603A6B7B6D944690229B006344AF
:102A0000BA18136084227B6BBA181360BB6BFB6728
:102A1000002399468C234A46FB181B689B1A98464C
:102A2000BB67042B01DD042398463B6E94224B4484
:102A3000FB6643465E1E8423FB181B68BA189D0084
:102A40003B6F9C469023FB181B6865441360002E67
:102A500046D094238822FB181C680023B3462E001E
:102A6000BA18136025687168281C0BF082FB011CE2
:102A700060680BF064FB5B466060012B14D0B168AA
:102A8000281C0BF076FB011CA0680BF058FB5B4682
:102A9000A060022B08D0F168281C0BF06AFB011C17
:102AA000E0680BF04CFBE0608822BB181B68BA188A
:102AB000013313607A6E94468022BA181268644417
:102AC0009342CFD19422BB6E35005E469C46BB1824
:102AD0001B68BA180433013E65441360002EB8D158
:102AE0004246BB6F51469C1A90225346BA18126850
:102AF0001A60E822BA1812685A604B4601938C2378
:102B0000FB181B68424600938023FB181B68786FF4
:102B1000FDF770FD002C37DDFB6E3A6F43441D005E
:102B200094465246FB6F3E6D5B199B0063441360F5
:102B30005346FA6C51465A60300023004246FDF776
:102B400003FE7B6DE8229C46E023FB181B6865446E
:102B50009C465346BA181268AD0065441D605A6021
:102B60004B4604938C23FB181B68310003934346A8
:102B700002938023FB181B68504601934346009341
:102B80007A6F2300FDF708FE04239C46FA6DE144AA
:102B900094469022FB6F84216344FB67BB181B683B
:102BA000BA1810331360BA6D7B1894461B687A18F4
:102BB000634413608C23FB181B684B4500DD29E739
:102BC0007A6CB96C94463B6C8A1AB96A63448C4639
:102BD000BA64F96A7A6D3B6462448C467A657A6FAE
:102BE00062447A67FA6B9A4200DDFAE67A6A3B6ED3
:102BF0009446FA6963443B669A4226DD3A6A002AA3
:102C000036DCF9699B189942FCDC03E0582103206B
:102C10001C370320BA697B6A7969D21ABA61BA682B
:102C20000800944639697A68CB1A3B61BB6B6044F3
:102C300063449446BB633A687B6B78616344944613
:102C40007B633B6B63443B63AAE6982414233A19E5
:102C5000D018FFF7EFFD08233A19D018FFF7EAFD67
:102C6000BD462FB03CBC90469946A246AB46F0BD4F
:102C70003A6F7B69944694229B006344BA181360B0
:102C80003B6E3E69984698239A4600239B46013B3B
:102C900099463300BA444646544698463B6AC24673
:102CA000984500DD9A4694238C22FB181B68B500DA
:102CB000EB182360FB6CB9180A68386D210063605B
:102CC0005346FDF741FDE02179180B68E82179189A
:102CD0009C460B68654463605B46256004934B46E5
:102CE00003930293FB6B200001938C23FB181B685A
:102CF0000093FA685346396DFDF74EFD42463B6A34
:102D00009C46D31A9846FB696644B342C6DC81E709
:102D100004237B6419E6110009E6012040420BF010
:102D2000B5FB7368FB60002B00D0E1E543469D00D6
:102D300080239B029D424AD82B006A461633DB084B
:102D4000DB00D31A9D4627240F236C449C43FC6070
:102D5000D1E5012040420BF099FB33683B65002B25
:102D600000D0A9E54B469D0080239B029D421ED8C2
:102D70002B006A461633DB08DB00D31A9D46272456
:102D80000F236C449C433C6599E528000EF048F8FD
:102D90001D4C002800D174E58023DB0123608023D3
:102DA0001B0328006360A3600EF056F869E5280055
:102DB00010300BF029FB041E19D00F221023024003
:102DC0009B1ADBB2C418621E13703C6577E52800BD
:102DD00010300BF019FB041E0FD00F2210230240FD
:102DE0009B1ADBB2C418621E1370FC6083E50120DD
:102DF00040420BF04BFB3C6561E5012040420BF08B
:102E000045FBFC6077E5C0461C370320F0B5DE4685
:102E100057464E464546E0B5B9B006AFFB67FC23C2
:102E2000384DB963BA64FB181E682B788346BFF32C
:102E30005B8FDB0700D4C1E2334C63689A46336989
:102E40007B61B3683B615B4501DD5B463B617A6951
:102E50003B6953439946BB6B534398468023DB053C
:102E6000994500D38EE233683B65002B00D192E296
:102E70004B4600249D00B023B422FB181C604B4637
:102E8000BA18136080239B02AB42AD41B8236D4258
:102E9000FB181D708023DB05984500D356E273684C
:102EA000FB61002B00D15AE2434600249D00BC2365
:102EB000C022FB181C604346BA18136080239B0293
:102EC000AB42AD41C4236D42FB181D7004233B642B
:102ED000BB6B002B1ADDF823FB181B6859469B457A
:102EE00000DA2FE2504609010AF00AFA0323C2175A
:102EF00013401B189B109B003B64042B00DA1EE25E
:102F000004E0C046582103201C3703205B46002BF9
:102F100000DC00E2FA6F78691100434259430B006C
:102F2000F96059460C1A110062431B1A9B00BA61E2
:102F3000BB600A000B0059464B43B96C5B448C469E
:102F4000F0219B006344FB627918830009685B42AF
:102F50007B605B468C46F8219B00634479180968C6
:102F60003B633B6C7C634B433B6293005B423B6641
:102F7000043B7B659B00BB65D3439B00A422BB66DF
:102F80008B007B665B46BA1813600300A422BA1854
:102F900012683B67934200DD3A67BB6B002B00DC95
:102FA00058E13A6F002A00DC54E17B643B6C396BDA
:102FB00053439B007B62FB69FB669300CB1ABB62A9
:102FC00000237B67FB63A433FB181B6803219B1A58
:102FD000BB671300013B043A8B43D31AFB65902275
:102FE0007B6CBA1813603A6C934202DD9023FB1895
:102FF0001A60BA6A7B6F94469B009C446246FA64EE
:103000003A6B944698226344BA1813609422FB6A80
:10301000BA1813603B6F9A465346D346042B01DD22
:1030200004239B468022BB6FBA18534413605B464F
:103030005E1E7B6DF96F99469423FB181A685B46F8
:1030400090465B425B1A9B00A422C1449844012332
:10305000BA185B4213604B46FE20196880050BF0DE
:1030600074F88C239821FB181860A4237918096838
:10307000FB188C4684211A687918931B9C009B00CE
:103080005B420B6093009C22BA181360A0220023BD
:10309000BA18644413608423FB181B6888229C467A
:1030A000A4446346BA1813609C22BA18126899584F
:1030B0008C23FB1818680BF05CF888239C22FB1803
:1030C000BA181B681268051C9850002E20D0434681
:1030D00019680BF04EF8011C20680BF030F82060E6
:1030E000012E15D04346281C59680BF042F8011CEC
:1030F00060680BF024F86060022E09D04346281C5B
:1031000099680BF036F8011CA0680BF018F8A06065
:10311000A023A022FB181B68BA18013313607A6E33
:1031200094469022BA18126864449342B3D1A423FF
:10313000A422FB181B68BA18013B1360BB6E9C46A7
:103140003B6EE1449C46E044013E84D25A465346DD
:103150009C1A8023FB181B68A8219D1AF022BA181C
:1031600012687B6F9446A8225B199B006344BA18CF
:103170001360F823AC22FB181B68BA181360902365
:1031800001943E6FFB1800961B68F86E5A4679183A
:1031900099468046FDF72EFA002C2DDDBA6FF96FA7
:1031A00094464D43BA6C6544A8239446AD006544EB
:1031B000FB181D60AC23FB181960A82123005A4698
:1031C000386D7918FDF7C0FAA823FD6CFB181D6057
:1031D000F823FB181D68AC23FB181D605D464B46A9
:1031E000A82001930494039602950095230042467B
:1031F000396D3818FDF7D0FA04235B429C46BA6D4E
:10320000E244944694229833FB181B68BA1863442E
:10321000136098239822FB181B68BA18103B1360A0
:10322000FB6D534500D0F7E63A6C796C9446FB6B26
:103230008A1A796A63448C467A64396AFA6EFB6347
:1032400062448C46FA667A6F62447A67BA6B9A4235
:1032500000DDC4E6A4227B6BBA181360002B5ADD94
:10326000BA6C1C009146BB6900259B009944002361
:10327000CB469A463E69A046B44200DDB04643467E
:10328000002B2EDDA822AB009946BA185B441360D0
:10329000AC22A821FB6FBA181360386D43463A6F11
:1032A0007918FDF751FAF023A822FB181B68BA1809
:1032B0004B441360F823AC22FB181B68BA18136048
:1032C000534604930123A8205B4203930293BB6BF4
:1032D000381801933B6F0093FA694346396DFDF747
:1032E0005BFA7B6BAD19A41BAB42C4DCFA68BB690B
:1032F0009446BA6863449446BB617A68FB6A634447
:103300009446FB623B6B7A6963443B637B6B9B1A1D
:103310007B6313003AE6A8221423BA18D018FFF7EB
:1033200089FAA8220823BA18D018FFF783FABD46F5
:1033300033B03CBC90469946A246AB46F0BD042350
:103340003B64E3E5F823FB181968CBE50120404214
:103350000BF09CF87368FB61002B00D0A4E543469A
:103360009D0080239B029D424AD82B006A4616335B
:10337000DB08DB00D31A9D4627240F236C449C43B3
:10338000FC6194E5012040420BF080F833683B6516
:10339000002B00D06CE54B469D0080239B029D4294
:1033A0001ED82B006A461633DB08DB00D31A9D4675
:1033B00027240F236C449C433C655CE528000DF0FA
:1033C0002FFD1D4C002800D137E58023DB01236051
:1033D00080231B0328006360A3600DF03DFD2CE5F6
:1033E000280010300BF010F8041E19D00F22102303
:1033F00002409B1ADBB2C418621E13703C653AE5AA
:10340000280010300BF000F8041E0FD00F221023FC
:1034100002409B1ADBB2C418621E1370FC6146E5C1
:10342000012040420BF032F83C6524E50120404287
:103430000BF02CF8FC613AE51C370320F0B5DE46B2
:1034400045464E465746E0B5214C1600A5443AAADB
:1034500094460A000B931F4B099063441B09049187
:103460001D01FDAB13CA13C313CA13C31268FDA910
:103470001A60194B194A1B6847A80593184B47ACAB
:103480001B680193174B1B6806930093059BFEF77F
:1034900021F83AAA944647ABFD93FF93124BFFAA3B
:1034A00063441B680432FE9613608623DB009C464F
:1034B000AC446046CCAAFDA90D90FEF767F96BAB52
:1034C0000C9323000A9498462C000E950EE0C046FB
:1034D0006CF6FFFFEF030000F01E03200AE81C411A
:1034E000E81E0320EC1E0320D80800004346404697
:1034F00045461B68806C05930C9BAF6F814620CBC3
:103500004146404642460C93A823096B006E9269DF
:1035100007910890F158281C06920AF02AFE8C2385
:103520008246F158381C0AF024FE011C50460AF06D
:1035300009FE316F824608980AF01BFE716D8346C2
:1035400048460AF016FE011C58460AF0FBFD011C15
:1035500050460AF0F7FDB16B824607980AF009FE63
:10356000F169834606980AF004FE011C58460AF0E9
:10357000E9FD3168834605980AF0FBFD011C5846B9
:103580000AF0E0FD011C50460AF0DCFDAC2320608F
:10359000F158281C0AF0EDFD90238246F158381CA2
:1035A0000AF0E7FD011C50460AF0CCFD716F82461F
:1035B00008980AF0DEFDB16D834648460AF0D9FD51
:1035C000011C58460AF0BEFD011C50460AF0BAFD27
:1035D000F16B824607980AF0CCFD316A8346069863
:1035E0000AF0C7FD011C58460AF0ACFD716883461D
:1035F00005980AF0BEFD011C58460AF0A3FD011C07
:1036000050460AF09FFDB0236060F158281C0AF074
:10361000B0FD94238246F158381C0AF0AAFD011C23
:1036200050460AF08FFDB16F824608980AF0A1FD5E
:10363000F16D834648460AF09CFD011C58460AF08D
:1036400081FD011C50460AF07DFD316C82460798D1
:103650000AF08FFD716A834606980AF08AFD011C04
:1036600058460AF06FFDB168834605980AF081FD5F
:10367000011C58460AF066FD011C50460AF062FD26
:10368000B423A060F158281C0AF073FD98238246E9
:10369000F158381C0AF06DFD011C50460AF052FD2D
:1036A000F16F824608980AF064FD316E8346484601
:1036B0000AF05FFD011C58460AF044FD011C50460B
:1036C0000AF040FD716C824607980AF052FDB16A1B
:1036D000834606980AF04DFD011C58460AF032FD5B
:1036E000F168834605980AF044FD011C58460AF02B
:1036F00029FD011C50460AF025FDB823E060F15871
:10370000281C0AF036FD9C238246F158381C0AF02A
:1037100030FD011C50460AF015FD80238246F15809
:1037200008980AF026FD716E834648460AF021FD8E
:10373000011C58460AF006FD011C50460AF002FD25
:10374000B16C824607980AF014FDF16A8346069828
:103750000AF00FFD011C58460AF0F4FC316983465B
:1037600005980AF006FD011C58460AF0EBFC011C06
:1037700050460AF0E7FCBC232061F158281C0AF0EF
:10378000F8FCA0238246F158381C0AF0F2FC011C18
:1037900050460AF0D7FC84238246F15808980AF074
:1037A000E8FCB16E834648460AF0E3FC011C58462B
:1037B0000AF0C8FC011C50460AF0C4FCF16C8246B9
:1037C00007980AF0D6FC316B834606980AF0D1FCC4
:1037D000011C58460AF0B6FC7169834605980AF048
:1037E000C8FC011C58460AF0ADFC011C50460AF00A
:1037F000A9FCF16E606148460AF0BBFC8823814653
:10380000F15808980AF0B5FC011C48460AF09AFCE9
:10381000A4238146F158381C9A460AF0AAFCC0231A
:10382000071CF158281C0AF0A4FC011C381C0AF0E3
:1038300089FC011C48460AF085FC716B051C069842
:103840000AF097FC316D071C07980AF092FC011CE6
:10385000381C0AF077FCB169071C05980AF089FC4E
:10386000011C381C0AF06EFC011C281C0AF06AFCC2
:1038700004239C464DABE044A0611C34984500D025
:1038800034E6D8230E9D9B00EC1820000D99FEF71E
:1038900079FFA4239B009B46AB442100902258460D
:1038A0000AF0EEFDC8239B00EC18D033E91818226B
:1038B00020000AF0E5FDCE239B00E818D033E9187C
:1038C00018220AF0DDFD8422D423D200AA1812683F
:1038D0009B00EB181A60D523744A2F00AA1812888F
:1038E0009B00EB18FE211A8000232268B03792005B
:1038F000BA18890511609361136393641366936723
:10390000C9229200AA181268D13C9200BA1813601A
:1039100091611363936413669367CA229200AA1895
:103920001268FF3C9200BA181360936111639364AC
:1039300013669367CB229200AA18126806209200A1
:10394000BA18136093611363916413669367CC2272
:103950009200AA1812689200BA1813609361136358
:10396000936411669367CD229200AA1812689200A0
:10397000BA18136093611363936413660623A360FC
:10398000E360236198466B33FF339946A9449167FE
:103990004A46203BEA50802292009446AC4462465C
:1039A000414662604B3B02910539059203945A46A9
:1039B0000191FF3B05310097FEF74CFF4046A823DD
:1039C000A060E060206148465B00E850012143466A
:1039D000059A062062600394029301915A4600976B
:1039E0000531FFF713FA2B68B8461C93EB69FDAC61
:1039F0001D93AB6B1E936B6D1F932B6F20938C23CA
:103A0000EB5821936B682B932B6A2C93EB6B2D93C4
:103A1000AB6D22936B6F23939023EB582493AB6889
:103A200025936B6A26932B6C2793EB6D2893AB6FD2
:103A300029939423EB582A93EB682E93AB6A1B933C
:103A40006B6C07932B6E0C93EB6F0D939823EB58D5
:103A50000E932B690F93EB6A1093AB6C11936B6E03
:103A60002F938023EB5830939C23EB5831936B6951
:103A700012932B6B1393EB6C34961493AB6E1593DC
:103A80008423EB581693A023EB581793AB69189334
:103A90006B6B19932B6D1A93EB6E32938823EB5853
:103AA00008935346EB58339302E0C04624040000C9
:103AB00043461F685B6842469946434641469B68B9
:103AC000D2680E694D691D984946059306920AF021
:103AD00050FB059982461E980AF04BFB011C50468C
:103AE0000AF030FB391C82461C980AF042FB011C8C
:103AF00050460AF027FB311C824620980AF039FB19
:103B0000291C834621980AF034FB011C58460AF010
:103B100019FB069983461F980AF02BFB011C584697
:103B20000AF010FB011C50460AF00CFB49462060CD
:103B30002C980AF01EFB059982462D980AF019FB75
:103B4000011C50460AF0FEFA391C82462B980AF0F6
:103B500010FB011C50460AF0F5FA311C82462398EE
:103B60000AF007FB291C834624980AF002FB011C7B
:103B700058460AF0E7FA0699834622980AF0F9FABD
:103B8000011C58460AF0DEFA011C50460AF0DAFA27
:103B90004946606026980AF0ECFA05998246279813
:103BA0000AF0E7FA011C50460AF0CCFA391C8246AA
:103BB00025980AF0DEFA011C50460AF0C3FA311CBF
:103BC000824629980AF0D5FA291C83462A980AF0D9
:103BD000D0FA011C58460AF0B5FA0699834628988F
:103BE0000AF0C7FA011C58460AF0ACFA011C50460C
:103BF0000AF0A8FA4946A0601B980AF0BAFA05999B
:103C0000824607980AF0B5FA011C50460AF09AFA63
:103C1000391C82462E980AF0ACFA011C50460AF074
:103C200091FA311C82460D980AF0A3FA291C8346AA
:103C30000E980AF09EFA011C58460AF083FA06997B
:103C400083460C980AF095FA011C58460AF07AFA55
:103C5000011C50460AF076FA4946E06010980AF0D6
:103C600088FA0599824611980AF083FA011C504699
:103C70000AF068FA391C82460F980AF07AFA011C99
:103C800050460AF05FFA311C824630980AF071FA09
:103C9000291C834631980AF06CFA011C58460AF038
:103CA00051FA069983462F980AF063FA011C584688
:103CB0000AF048FA011C50460AF044FA49462061CD
:103CC00013980AF056FA0599824614980AF051FAA8
:103CD000011C50460AF036FA391C824612980AF046
:103CE00048FA011C50460AF02DFA311C82461698FB
:103CF0000AF03FFA291C834617980AF03AFA011C89
:103D000058460AF01FFA0699834615980AF031FAC8
:103D1000011C58460AF016FA011C50460AF012FA25
:103D20004946606119980AF024FA059981461A9863
:103D30000AF01FFA011C48460AF004FA391C8146B1
:103D400018980AF016FA011C48460AF0FBF9311CD3
:103D5000071C08980AF00DFA291C061C33980AF073
:103D600008FA011C301C0AF0EDF90699051C32987E
:103D70000AF0FFF9011C281C0AF0E4F9011C381CA8
:103D80000AF0E0F918239C46FFABA061A0331C3475
:103D9000E044A34200D08BE6FD9BFE9A069371930C
:103DA000FFAB5C680433FFAB9D680833FFABDF6893
:103DB0000C33FFAB10331B68FF990F937793FFAB66
:103DC0001433079272921A68FFAB183308917391FB
:103DD0001968FFAB1C330C9474941C68FFAB203340
:103DE0000D9575951D68FFAB2433349E0E9776971D
:103DF000109278921191799112947A9413951F6888
:103E0000FFAB28331B687B9515937D93FFABDA6A74
:103E10002C33FFAB196B3033FFAB5C6B3433FFAB30
:103E20009D6B3833FFAB3C3314977C971F68FFAB17
:103E300040331B6816921B938393FFAB44337E92EF
:103E40001A68FFAB483317917F911968FFAB4C3369
:103E5000189480941C68FFAB5033199581951A977C
:103E600082971C9284921D9185911E941D68FFABD0
:103E70005F6D5433FFAB58331B688694219389934D
:103E8000FFABDA6D5C33FFAB196E6033FFAB5C6E7A
:103E90006433FFAB68331F9587951D68FFAB6C33A8
:103EA000209788971F68FFAB70331B682292279377
:103EB0008F93FFAB74338A921A68FFAB78332391E8
:103EC0008B911968FFAB7C3324948C9425958D9548
:103ED00026978E972892909229911C68FFAB803389
:103EE0001D68FFAB84331F68FFAB88331B6891915B
:103EF0002D939593FFAB8C331A68FFAB9033196801
:103F0000FFAB94332A9492941C68FFAB98332B95A3
:103F100093951D68FFAB9C332C9794971F682E9246
:103F20009692049A2F9197913094989431959995FF
:103F300032979A97FDAB32CA32C332CA32C3116884
:103F4000FDAC1960FD49FE4B09681B680191FD49F4
:103F5000FD4A09682000009141A9FDF71BF80B9F5D
:103F6000419938680AF0EBF84299834678680AF07C
:103F7000E6F84399041CB8680AF0E1F84499051C76
:103F8000F8680AF0DCF84599824638690B970AF020
:103F9000D6F80B9B071C469958690AF0D0F8804662
:103FA000011C2D980AF0E5F8391C814626980AF084
:103FB000E0F8011C48460AF0C5F8534681465146D0
:103FC0001F9805930AF0D5F8011C48460AF0BAF884
:103FD000291C814618980AF0CCF8211C82461198B9
:103FE0000AF0C7F8011C50460AF0ACF85946824660
:103FF00007980AF0BEF8011C50460AF0A3F8011C0D
:1040000048460AF09FF8049A51680AF09BF8414626
:104010000B902E980AF0ADF8391C814627980AF0CB
:10402000A8F8011C48460AF08DF8059981462098A9
:104030000AF09FF8011C48460AF084F8291C8146C2
:1040400019980AF096F8211C824612980AF091F805
:10405000011C50460AF076F85946824608980AF044
:1040600088F8011C50460AF06DF8011C48460AF019
:1040700069F8049A91680AF065F8414633902F98E0
:104080000AF077F8391C814628980AF072F8011C6A
:1040900048460AF057F80599814621980AF069F8D0
:1040A000011C48460AF04EF8291C81461A980AF06D
:1040B00060F8211C824613980AF05BF8011C5046F8
:1040C0000AF040F8594682460C980AF052F8011C52
:1040D00050460AF037F8011C48460AF033F8049AB3
:1040E000D1680AF02FF84146349030980AF041F830
:1040F000391C814629980AF03CF8011C48460AF010
:1041000021F80599814622980AF033F8011C4846A7
:104110000AF018F8291C81461B980AF02AF8211C7D
:10412000824614980AF025F8011C50460AF00AF855
:10413000594682460D980AF01CF8011C50460AF0B8
:1041400001F8011C484609F0FDFF049A116909F0C5
:10415000F9FF4146359031980AF00BF8391C814639
:104160002A980AF006F8011C484609F0EBFF059969
:104170008146239809F0FDFF011C484609F0E2FF43
:10418000291C81461C9809F0F4FF211C82461598D1
:1041900009F0EFFF011C504609F0D4FF5946824652
:1041A0000E9809F0E6FF011C504609F0CBFF011CF8
:1041B000484609F0C7FF049A516909F0C3FF211C62
:1041C0003690169809F0D5FF291C81461D9809F0F4
:1041D000D0FF011C484609F0B5FF594681460F98AB
:1041E00009F0C7FF011C484609F0ACFF391C8146A5
:1041F0002B9809F0BEFF41468246329809F0B9FF7C
:10420000011C504609F09EFF05998246249809F04A
:10421000B0FF011C504609F095FF011C484609F00B
:1042200091FF049A916909F08DFF414681462C98CF
:1042300009F09FFF391C8046259809F09AFF011C60
:10424000404609F07FFF0599071C1E9809F091FF71
:10425000011C381C09F076FF291C071C179809F06F
:1042600088FF211C051C109809F083FF011C281CE5
:1042700009F068FF5946041C069809F07AFF011CF2
:10428000201C09F05FFF011C381C09F05BFF049A39
:10429000FDAC116809F056FF099B0B9A18605A6033
:1042A000339A9A60349ADA60359A1A61369A5A616A
:1042B0004A469A613368CC937368CD93B368CE93C2
:1042C000F368CF933369D0937369D193B369D29371
:1042D000F369D393336AD493736AD593B36AD6934D
:1042E000F36AD793336BD893736BD993B36BDA9329
:1042F000F36BDB93336CDC93736CDD93B36CDE9305
:10430000F36CDF93336DE093736DE193B36DE293E0
:10431000F36DE393336EE493736EE593B36EE693BC
:10432000F36EE793336FE893736FE993B36FEA9398
:10433000F36FEB938023F358EC9307E0E81E032020
:10434000F01E0320EC1E03200AE81C418423F358CE
:10435000ED938823F358EE938C23F358EF93902337
:10436000F358F0939423F358F1939823F358F2936E
:104370009C23F3580B96F393A023F358F493A423B0
:10438000F358F593A823F358F693AC23F358F79317
:10439000B023F358F893B423F358F993B823F358A0
:1043A000FA93BC23F358FB93C023F358FC930A9B66
:1043B00010985A681F6891469A6849469046DA688C
:1043C0001E695D69059209F0D4FE41468246179840
:1043D00009F0CFFE011C504609F0B4FE391C82469C
:1043E000069809F0C6FE011C504609F0ABFE311CD0
:1043F0008246259809F0BDFE291C83462C9809F0B9
:10440000B8FE011C584609F09DFE059983461E988A
:1044100009F0AFFE011C584609F094FE011C5046FD
:1044200009F090FE49462060119809F0A2FE41462D
:104430008246189809F09DFE011C504609F082FE44
:10444000391C8246079809F094FE011C504609F079
:1044500079FE311C8246269809F08BFE291C834682
:104460002D9809F086FE011C584609F06BFE05994F
:1044700083461F9809F07DFE011C584609F062FE34
:10448000011C504609F05EFE49466060129809F032
:1044900070FE41468246199809F06BFE011C504699
:1044A00009F050FE391C8246089809F062FE011C92
:1044B000504609F047FE311C8246279809F059FE04
:1044C000291C83462E9809F054FE011C584609F019
:1044D00039FE05998346209809F04BFE011C584689
:1044E00009F030FE011C504609F02CFE4946A06040
:1044F000139809F03EFE414682461A9809F039FEAB
:10450000011C504609F01EFE391C82460C9809F029
:1045100030FE011C504609F015FE311C82462898D9
:1045200009F027FE291C83462F9809F022FE011C62
:10453000584609F007FE05998346219809F019FEAF
:10454000011C584609F0FEFD011C504609F0FAFD19
:104550004946E060149809F00CFE414682461B98DB
:1045600009F007FE011C504609F0ECFD391C82469B
:104570000D9809F0FEFD011C504609F0E3FD311CC9
:104580008246299809F0F5FD291C8346309809F0E8
:10459000F0FD011C584609F0D5FD05998346229887
:1045A00009F0E7FD011C584609F0CCFD011C5046FE
:1045B00009F0C8FD49462061159809F0DAFD414629
:1045C00082461C9809F0D5FD011C504609F0BAFD41
:1045D000391C82460E9809F0CCFD011C504609F0AA
:1045E000B1FD311C82462A9809F0C3FD291C83467F
:1045F000319809F0BEFD011C584609F0A3FD05994C
:104600008346239809F0B5FD011C584609F09AFD30
:10461000011C504609F096FD49466061169809F064
:10462000A8FD414681461D9809F0A3FD011C48469E
:1046300009F088FD391C80460F9809F09AFD011C8D
:10464000404609F07FFD311C071C2B9809F091FDB5
:10465000291C061C329809F08CFD011C301C09F045
:1046600071FD0599051C249809F083FD011C281C87
:1046700009F068FD011C381C09F064FD0A9BA0616B
:1046800018330A93FFAB1C34BC33A34200D08EE630
:10469000C4239C460B9ECCADB444634634003C9688
:1046A0000A9308962369A6699846E36821689946A3
:1046B000A36862680793FFABA0330591301C1968AB
:1046C000069209F056FD6769FFAB8433196882468C
:1046D000381C09F04EFD011C504609F033FDFFABBC
:1046E000996E82464046683309F043FDFFABD96CB2
:1046F000834648464C3309F03CFD011C584609F0FE
:1047000021FD011C504609F01DFDFFAB196B8246CF
:104710000798303309F02DFDFFAB596983460698A1
:10472000143309F026FD011C584609F00BFDFD99D4
:104730008346059809F01DFD011C584609F002FD4D
:10474000011C504609F0FEFC011C286809F0F7FC2A
:10475000FFABA43328601968301C09F00AFDFFABD9
:10476000883319688246381C09F003FD011C504645
:1047700009F0E8FCFFABD96E824640466C3309F085
:10478000F8FCFFAB196D83464846503309F0F1FC45
:10479000011C584609F0D6FC011C504609F0D2FC19
:1047A000FFAB596B82460798343309F0E2FCFFAB4C
:1047B000996983460698183309F0DBFC011C5846BA
:1047C00009F0C0FCFE998346059809F0D2FC011C53
:1047D000584609F0B7FC011C504609F0B3FC011C17
:1047E000686809F0ACFCFFABA83319686860301C3E
:1047F00009F0BFFCFFAB8C3319688246381C09F006
:10480000B8FC011C504609F09DFCFFAB8246196FB5
:104810004046703309F0ADFCFFAB596D8346484606
:10482000543309F0A6FC011C584609F08BFC011C0E
:10483000504609F087FCFFAB996B824607983833E6
:1048400009F097FCFFABD969834606981C3309F041
:1048500090FC011C584609F075FCFF9983460598A9
:1048600009F087FC011C584609F06CFC011C5046FD
:1048700009F068FC011CA86809F061FCFFABAC33CF
:104880001968A860301C09F074FCFFAB90331968FC
:104890008246381C09F06DFC011C504609F052FCA0
:1048A000FFAB596F82464046743309F062FCFFABA0
:1048B000996D83464846583309F05BFC011C584605
:1048C00009F040FC011C504609F03CFCFFAB82465D
:1048D000D96B07983C3309F04CFCFFAB196A83464F
:1048E0000698203309F045FC011C584609F02AFCC3
:1048F000FFAB596883460598043309F03AFC011C64
:10490000584609F01FFC011C504609F01BFC011C15
:10491000E86809F014FCFFABB0331968E860301C9C
:1049200009F027FCFFAB943319688246381C09F064
:1049300020FC011C504609F005FCFFAB996F824634
:104940004046783309F015FCFFABD96D83464846E5
:104950005C3309F00EFC011C584609F0F3FB011C06
:10496000504609F0EFFBFFAB196C824607984033C5
:1049700009F0FFFBFFAB596A83460698243309F020
:10498000F8FB011C584609F0DDFBFFAB9968834634
:104990000598083309F0EDFB011C584609F0D2FBDD
:1049A000011C504609F0CEFB011C286909F0C7FB29
:1049B000FFABB43319682861301C09F0DAFBFFAB98
:1049C000983319688246381C09F0D3FB011C504605
:1049D00009F0B8FBFFABD96F824640467C3309F043
:1049E000C8FBFFAB196E83464846603309F0C1FB34
:1049F000011C584609F0A6FB011C504609F0A2FB19
:104A0000FFAB596C82460798443309F0B2FBFFAB09
:104A1000996A83460698283309F0ABFB011C584677
:104A200009F090FBFFABD968834605980C3309F079
:104A3000A0FB011C584609F085FB011C504609F0FB
:104A400081FB011C686909F07AFBFFAB596E686154
:104A50004846643309F08DFBFFAB8033196881460B
:104A6000404609F086FB011C484609F06BFBFFAB92
:104A70009C3319688046381C09F07BFBFFABB833C8
:104A80001968071C301C09F074FB011C381C09F064
:104A900059FB011C404609F055FBFFABD96A061CC7
:104AA00006982C3309F065FBFFAB996C071C07983F
:104AB000483309F05EFB011C381C09F043FBFFABD7
:104AC0001969071C0598103309F053FB011C381CA9
:104AD00009F038FB011C301C09F034FB011CA869EB
:104AE00009F02DFB0A9B1C34A8611C359C4200D0A8
:104AF000D8E5089ECC9B3360CD9B7360CE9BB360A2
:104B0000CF9BF360D09B3361D19B7361D29BB36128
:104B1000D39BF361D49B3362D59B7362D69BB36204
:104B2000D79BF362D89B3363D99B7363DA9BB363E0
:104B3000DB9BF363DC9B3364DD9B7364DE9BB364BC
:104B4000DF9BF364E09B3365E19B7365E29BB36598
:104B5000E39BF365E49B3366E59B7366E69BB36674
:104B6000E79BF366E89B3367E99B7367EA9BB36750
:104B7000EB9BF3678023EC9AF250ED9A0433F250EA
:104B8000EE9A0433F250EF9A0433F250F09A043361
:104B9000F250F19A0433F250F29A0433F250F39A3D
:104BA0000433F250F49A0433F250F59A0433F2507D
:104BB000F69A0433F250F79A0433F250F89A043319
:104BC000F250F99A0433F250FA9A0433F250FB9AF5
:104BD0000433F250FC9A0433F2503AAA8D239446DF
:104BE0001B0163441B68CCAA13CB13C28E231B0189
:104BF00063441B68FDAC07CB07C4049B099D00936D
:104C0000494B28006344CCA91B68FDAAFCF7A0F817
:104C10002B00FDAA23CB23C2220013CB13C21B6897
:104C20003AA913608D238C463EAA11001B016344F0
:104C30001B6831CB31C18E231B0163441B68CCA997
:104C400031CB31C1384BFDA963441B689BA800934D
:104C5000CCABFCF7E3FAFDAB08931C009B9B0B93DA
:104C6000A29B1293A99B1993B09B2093B79B279368
:104C7000BE9B2E93C59B35939C9B0C93A39B139338
:104C8000AA9B1A93B19B2193B89B2893BF9B2F9308
:104C9000C69B36939D9B0D93A49B1493AB9B1B9338
:104CA000B29B2293B99B2993C09B3093C79B3793A8
:104CB0009E9B0E93A59B1593AC9B1C93B39B239338
:104CC000BA9B2A93C19B3193C89B38939F9B0F93A8
:104CD000A69B1693AD9B1D93B49B2493BB9B2B93D8
:104CE000C29B3293C99B3993A09B1093A79B1793A8
:104CF000AE9B1E93B59B2593BC9B2C93C39B339378
:104D0000CA9B3A93A19B1193A89B1893AF9B1F93A7
:104D1000B69B2693BD9B2D93C49B3493CB9B3B9317
:104D20003C9B3C96984601E0E40800004146C96877
:104D300040468946414642464346866909691B68A2
:104D40005568926847690791301C3599059306921A
:104D500009F00FFA2E998246381C09F00AFA011C54
:104D6000504609F0EFF927998246079809F001FAB1
:104D700020998346484609F0FCF9011C584609F081
:104D8000E1F9011C504609F0DDF9199982460698AF
:104D900009F0EFF912998346281C09F0EAF9011C81
:104DA000584609F0CFF90B998346059809F0E1F9C7
:104DB000011C584609F0C6F9011C504609F0C2F919
:104DC00036992060301C09F0D4F92F998246381C9E
:104DD00009F0CFF9011C504609F0B4F92899824630
:104DE000079809F0C6F921998346484609F0C1F9A8
:104DF000011C584609F0A6F9011C504609F0A2F919
:104E00001A998246069809F0B4F913998346281C2A
:104E100009F0AFF9011C584609F094F90C99834642
:104E2000059809F0A6F9011C584609F08BF9011CF8
:104E3000504609F087F9311C6060379809F099F9FC
:104E4000391C8246309809F094F9011C504609F04B
:104E500079F929998246079809F08BF922998346B6
:104E6000484609F086F9011C584609F06BF9011C07
:104E7000504609F067F91B998246069809F079F9BE
:104E800014998346281C09F074F9011C584609F04E
:104E900059F90D998346059809F06BF9011C58469C
:104EA00009F050F9011C504609F04CF9311CA06082
:104EB000389809F05EF9391C8246319809F059F9A1
:104EC000011C504609F03EF9079982462A9809F0DC
:104ED00050F949468346239809F04BF9011C58467E
:104EE00009F030F9011C504609F02CF90699824668
:104EF0001C9809F03EF9291C8346159809F039F9E8
:104F0000011C584609F01EF9059983460E9809F0D0
:104F100030F9011C584609F015F9011C504609F0FA
:104F200011F9311CE060399809F023F9391C8246E7
:104F3000329809F01EF9011C504609F003F907994F
:104F400082462B9809F015F949468346249809F0C2
:104F500010F9011C584609F0F5F8011C504609F0FB
:104F6000F1F8069982461D9809F003F9291C834639
:104F7000169809F0FEF8011C584609F0E3F8059967
:104F800083460F9809F0F5F8011C584609F0DAF845
:104F9000011C504609F0D6F8311C20613A9809F0FE
:104FA000E8F8391C8246339809F0E3F8011C5046B2
:104FB00009F0C8F8079982462C9809F0DAF84946B2
:104FC0008346259809F0D5F8011C584609F0BAF82F
:104FD000011C504609F0B6F8069982461E9809F061
:104FE000C8F8291C8346179809F0C3F8011C5846D5
:104FF00009F0A8F805998346109809F0BAF8011C41
:10500000584609F09FF8011C504609F09BF84946A4
:105010006061269809F0ADF8079981462D9809F04E
:10502000A8F8011C484609F08DF8391C81463498CF
:1050300009F09FF8311C071C3B9809F09AF8011CF5
:10504000381C09F07FF8011C484609F07BF8291C40
:10505000061C189809F08DF80699051C1F9809F090
:1050600088F8011C281C09F06DF80599051C119899
:1050700009F07FF8011C281C09F064F8011C301CA1
:1050800009F060F81C239C460A9BE044A0611C3494
:10509000984500D04AE6FFAB84333C9E0793FFABB4
:1050A000CCAC14333C940A933D96089B1A68586D17
:1050B0000592079A996BD6698146186F06918046CA
:1050C000311C3598DD69176809F053F8391C8246A0
:1050D0002E9809F04EF8011C504609F033F841466D
:1050E0008246279809F045F820998346484609F0FA
:1050F00040F8011C584609F025F8011C504609F0FB
:1051000021F819998246069809F033F812998346D6
:10511000281C09F02EF8011C584609F013F80B99C9
:105120008346059809F025F8011C584609F00AF84D
:10513000011C504609F006F8311C2060369809F031
:1051400018F8391C82462F9809F013F8011C5046B4
:1051500008F0F8FF41468246289809F00AF84946C7
:105160008346219809F005F8011C584608F0EAFF2B
:10517000011C504608F0E6FF069982461A9808F08E
:10518000F8FF291C8346139808F0F3FF011C5846CA
:1051900008F0D8FF059983460C9808F0EAFF011C37
:1051A000584608F0CFFF011C504608F0CBFF311CD9
:1051B0006060379808F0DDFF391C8246309808F0AF
:1051C000D8FF011C504608F0BDFF41468246299891
:1051D00008F0CFFF49468346229808F0CAFF011C19
:1051E000584608F0AFFF011C504608F0ABFF069987
:1051F00082461B9808F0BDFF291C8346149808F0CE
:10520000B8FF011C584608F09DFF059983460D988C
:1052100008F0AFFF011C584608F094FF011C5046EF
:1052200008F090FF311CA060389808F0A2FF391CEC
:105230008246319808F09DFF011C504608F082FF1D
:10524000414682462A9808F094FF494683462398AF
:1052500008F08FFF011C584608F074FF011C5046EF
:1052600008F070FF069982461C9808F082FF291CFE
:105270008346159808F07DFF011C584608F062FF30
:10528000059983460E9808F074FF011C584608F0F3
:1052900059FF011C504608F055FF311CE060399859
:1052A00008F067FF391C8246329808F062FF011C43
:1052B000504608F047FF414682462B9808F059FFB8
:1052C00049468346249808F054FF011C584608F0CC
:1052D00039FF011C504608F035FF069982461D989B
:1052E00008F047FF291C8346169808F042FF011C6E
:1052F000584608F027FF059983460F9808F039FFB4
:10530000011C584608F01EFF011C504608F01AFF09
:10531000311C20613A9808F02CFF391C82463398E2
:1053200008F027FF011C504608F00CFF414682465A
:105330002C9808F01EFF49468346259808F019FF6F
:10534000011C584608F0FEFE011C504608F0FAFE0B
:10535000069982461E9808F00CFF291C8346179870
:1053600008F007FF011C584608F0ECFE059983463B
:10537000109808F0FEFE011C584608F0E3FE011CE0
:10538000504608F0DFFE49466061269808F0F1FEBD
:10539000414681462D9808F0ECFE011C484608F075
:1053A000D1FE391C8046349808F0E3FE311C071CFE
:1053B0003B9808F0DEFE011C381C08F0C3FE011CFF
:1053C000404608F0BFFE291C061C189808F0D1FEC4
:1053D0000699051C1F9808F0CCFE011C281C08F03B
:1053E000B1FE0599051C119808F0C3FE011C281C8C
:1053F00008F0A8FE011C301C08F0A4FE079A089BC8
:10540000043207920A9A0433A06108931C349A422A
:1054100000D04AE63AAA9446744B744A63441B6827
:1054200062441B6812680893704B3D9E63441B687E
:10543000FDACDB690A936D4B63441B689B6B0B935C
:105440006A4B63441B685B6D0C93684B63441B6839
:105450001B6F0D938C23D358644A0E93634B6244A5
:1054600063441B685B680F93604B63441B681B6A53
:1054700010935E4B63441B68DB6B11935B4B63447F
:105480001B689B6D1293594B63441B685B6F1268DA
:1054900013939023D358554A1493544B6244634456
:1054A0001B6812689B681593504B63441B685B6ACA
:1054B00016934E4B63441B681B6C17934B4B634412
:1054C0001B68DB6D1893494B63441B689B6F1993F2
:1054D0009423D358454A1A93444B624463441B684F
:1054E000DB681B93414B63441B689B6A1C933F4BD7
:1054F00063441B685B6C1D933C4B63441B681268E0
:105500001B6E1E93394B63441B68DB6F1F939823FC
:10551000D358364A2093354B624463441B68126863
:105520001B692193314B63441B68DB6A22932F4B29
:1055300063441B689B6C23932C4B63441B685B6E1A
:1055400024938023D358294A25939C2362441268CC
:10555000D358264A2693254B624463441B685B69F3
:105560002793224B63441B681B6B28931F4B1268C5
:1055700063441B68DB6C29931C4B63441B689B6E64
:105580002A938423D358194A2B93A0236244126888
:10559000D358164A2C93154B624463441B68126817
:1055A0009B692D93114B63441B685B6B2E930F4BD0
:1055B00063441B681B6D2F930C4B63441B68DB6EAD
:1055C00030938823D358094A3193A4236244126844
:1055D000D3583293064B63441B689846FDAB079340
:1055E000902343443393349604E0C046DC08000023
:1055F000D408000043461F685B684246994643460C
:1056000041469B68D2680E694D6948460A990593E0
:10561000069208F0AEFD0B998246059808F0A9FDA8
:10562000011C504608F08EFD08998246381C08F08F
:10563000A0FD011C504608F085FD0D998246301CE6
:1056400008F097FD0E998346281C08F092FD011C76
:10565000584608F077FD0C998346069808F089FDB6
:10566000011C584608F06EFD011C504608F06AFD0A
:1056700010992060484608F07CFD119982460598F3
:1056800008F077FD011C504608F05CFD0F9982463A
:10569000381C08F06EFD011C504608F053FD1399AC
:1056A0008246301C08F065FD14998346281C08F0DA
:1056B00060FD011C584608F045FD12998346069886
:1056C00008F057FD011C584608F03CFD011C5046EF
:1056D00008F038FD16996060484608F04AFD1799B1
:1056E0008246059808F045FD011C504608F02AFD49
:1056F00015998246381C08F03CFD011C504608F004
:1057000021FD19998246301C08F033FD1A99834611
:10571000281C08F02EFD011C584608F013FD1899AE
:105720008346069808F025FD011C584608F00AFD3E
:10573000011C504608F006FDA0601C99484608F080
:1057400018FD1D998246059808F013FD011C50466E
:1057500008F0F8FC1B998246381C08F00AFD011C71
:10576000504608F0EFFC1F998246301C08F001FDFE
:1057700020998346281C08F0FCFC011C584608F0C0
:10578000E1FC1E998346069808F0F3FC011C58467C
:1057900008F0D8FC011C504608F0D4FC2299E060C7
:1057A000484608F0E6FC23998246059808F0E1FC9B
:1057B000011C504608F0C6FC21998246381C08F0AE
:1057C000D8FC011C504608F0BDFC25998246301CCF
:1057D00008F0CFFC26998346281C08F0CAFC011C5F
:1057E000584608F0AFFC24998346069808F0C1FC9F
:1057F000011C584608F0A6FC011C504608F0A2FC0B
:1058000028992061484608F0B4FC299982460598F9
:1058100008F0AFFC011C504608F094FC2799824622
:10582000381C08F0A6FC011C504608F08BFC2B9994
:105830008246301C08F09DFC2C998346281C08F0F9
:1058400098FC011C584608F07DFC2A99834606986E
:1058500008F08FFC011C584608F074FC011C5046EF
:1058600008F070FC2E996061484608F082FC2F9980
:105870008146059808F07DFC011C484608F062FC52
:105880002D998146381C08F074FC011C484608F02C
:1058900059FC3199071C301C08F06BFC3299061C2E
:1058A000281C08F066FC011C301C08F04BFC3099E9
:1058B000051C069808F05DFC011C281C08F042FC41
:1058C000011C381C08F03EFC18239C46339BE04426
:1058D000A0611C34434500D08CE6FFAB84330693B3
:1058E000FFAB14333C9C3393079B0D99DA691E6F11
:1058F00091469A6B301C90465A6D1F680592069A25
:1059000020CA069208F035FC0E998246281C08F041
:1059100030FC011C504608F015FC0C998246059895
:1059200008F027FC011C504608F00CFC0A9982463E
:10593000484608F01EFC0B998346404608F019FCC7
:10594000011C584608F0FEFB08998346381C08F0F5
:1059500010FC011C584608F0F5FB011C504608F0ED
:10596000F1FB011C206808F0EDFB1099206048460F
:1059700008F0FFFB11998246404608F0FAFB011C33
:10598000504608F0DFFB0F998246381C08F0F1FB07
:10599000011C504608F0D6FB13998246301C08F0D3
:1059A000E8FB14998346281C08F0E3FB011C5846C9
:1059B00008F0C8FB12998346059808F0DAFB011C31
:1059C000584608F0BFFB011C504608F0BBFB011C09
:1059D000606808F0B7FB16996060484608F0C9FB9C
:1059E00017998246404608F0C4FB011C504608F057
:1059F000A9FB15998246381C08F0BBFB011C5046D8
:105A000008F0A0FB19998246301C08F0B2FB1A99E5
:105A10008346281C08F0ADFB011C584608F092FB99
:105A200018998346059808F0A4FB011C584608F015
:105A300089FB011C504608F085FB011CA06808F09A
:105A400081FB1C99A060484608F093FB1D99824693
:105A5000404608F08EFB011C504608F073FB1B9972
:105A60008246381C08F085FB011C504608F06AFB92
:105A70001F998246301C08F07CFB20998346281C25
:105A800008F077FB011C584608F05CFB1E99834622
:105A9000059808F06EFB011C584608F053FB011CEA
:105AA000504608F04FFB011CE06808F04BFB2299C0
:105AB000E060484608F05DFB23998246404608F0C6
:105AC00058FB011C504608F03DFB21998246381CCA
:105AD00008F04FFB011C504608F034FB2599824624
