:020000041000EA
:1000000000B5324B212058609868022188439860DF
:10001000D860186158612E4B002199600221596106
:100020000121F02299502B49196001219960352056
:1000300000F044F80222904214D00621196600F024
:1000400034F8196E01211966002018661A6600F04E
:100050002CF8196E196E196E052000F02FF8012189
:100060000842F9D1002199601B49196000215960AB
:100070001A491B48016001219960EB211966A021F2
:10008000196600F012F800219960164914480160C1
:100090000121996001BC002800D000471248134993
:1000A000086003C880F30888084703B5996A0420EC
:1000B0000142FBD001200142F8D103BD02B5186610
:1000C0001866FFF7F2FF186E186E02BD00000240BE
:1000D000000000180000070000035F00212200005C
:1000E000F4000018222000A00001001008ED00E03C
:1000F00000000000000000000000000074B24E7A12
:1001000000200420F7010010C3010010C5010010F9
:10011000C1010010C1010010C1010010C101001097
:10012000C1010010C1010010C1010010C701001081
:10013000C1010010C1010010C9010010CB01001065
:10014000CD010010CD010010CD010010CD01001037
:10015000CD010010CD010010CD010010CD01001027
:10016000CD010010CD010010CD010010CD01001017
:10017000CD010010CD010010CD010010CD01001007
:10018000CD010010CD010010CD010010CD010010F7
:10019000CD010010CD010010CD010010CD010010E7
:1001A000CD010010CD010010CD010010CD010010D7
:1001B000CD010010CD010010CD010010CD010010C7
:1001C00000BE00BE00BE00BE00BE00BEEFF3058054
:1001D000103800BEF2EB887190470510B04705104B
:1001E0003402001090A31AE700201F49086006C8D7
:1001F00081F3088810471D48006800282FD10DA4FE
:100200000ECC002902D000F012F8F9E71849194A7B
:10021000002000E001C19142FCD1174988471749ED
:1002200088471749884700BEFDE701C901C29A42C5
:10023000FBD37047B0470510C0000020102D0020F0
:100240000074051000000420000004200074051054
:10025000001004200010042000000000704709482E
:100260000DF072F80047000008ED00E0000000D03B
:10027000102D0020305903208DBA001055030010B6
:10028000C1BB00105756000006005250ABB360537C
:1002900080A5041006005250861C030290A504108D
:1002A000060052505422A29D9CA5041005005250F5
:1002B000DE65F46800740510F8B5C0460448054BC7
:1002C00010B5834203D0044B002B00D0984710BDDB
:1002D000102D0020102D00200000000006480749C6
:1002E000091A8B10C90FC91810B5491003D0044B57
:1002F000002B00D0984710BD102D0020102D00209D
:100300000000000010B5074C2378002B09D1FFF73F
:10031000D5FF054B002B02D0044800E000BF0123AD
:10032000237010BD582F002000000000D0A0041042
:10033000054B10B5002B03D00449054800E000BF71
:10034000FFF7CCFF10BDC046000000005C2F00206E
:10035000D0A0041070B5192009F036FED0238022F9
:100360001B0692045A620EF05DFF00F047F806F09B
:10037000BFFD08F0C3F806F0D3FF09F0D1F9002261
:100380000524144B1A7006F09DF9134D013C210011
:1003900028000EF03BFFFA2080000AF021FC002C20
:1003A000F4D10A200EF090FD012200210B480AF042
:1003B000D3F80B4811F012F901220A4B0A4C1A70BB
:1003C0002378012BFCD108F055FA2378012BFAD0C1
:1003D000F6E7C0464C560320D0A0041084550320F5
:1003E000B98A00104B5603205056032010B502481E
:1003F00011F01CFC10BDC04618370320092370B54E
:1004000086B0059304330493023B0393013B0293AC
:10041000023B324D324C0193324B22003249334879
:1004200000932B0005F00CFE142005F005FEFA20C9
:1004300080000AF0D5FB2E4E21003200280006F085
:1004400017F83378682B08D02A4C20000EF088FD6E
:10045000FA2080000AF0C4FBF7E773783D2BF3D154
:1004600001222100280006F027F8234E3200210047
:10047000280006F05BF83378002BF7D10122210029
:10048000280005F0D7FE0121200005F0B5FE03216C
:10049000200005F047FE0321280005F071FF13211D
:1004A000200006F0B1F81221200006F0EBF8002140
:1004B000200006F0C9F80321200006F053F80221BD
:1004C000200006F06BF85521200005F049FE1821A8
:1004D000280005F0EFFE06B070BDC046041F0320E3
:1004E000DC30002040420F001C210020142100209D
:1004F00010560320E4A0041062560320F0B5C6464F
:10050000334C344D344E22002900300000B505F044
:10051000C1FF6378DB439B0720D023781B0702D4FD
:1005200004BC9046F0BD2D4C0622002120000EF0A8
:10053000A5FB2100300005F07DFF0023E05E05F003
:10054000E7FD274D28600223E05E05F0E1FD6860CD
:100550000423E05E05F0DCFDA860E1E7214B062204
:100560009846180000210EF089FB1F4F062200213B
:1005700038000EF083FB4146280005F03DFF3900AE
:10058000280005F01BFF43460020185E05F0ACFD77
:100590004346164D28600220185E05F0A5FD43462F
:1005A00068600420185E05F09FFDA8600023F85ED7
:1005B00005F0A4FD0E4D28600223F85E05F09EFDB7
:1005C00068600423F85E05F099FDA860A5E7C046C1
:1005D000984B0320DC300020041F0320443C032000
:1005E000E4400320343C03203C3C0320D83A032061
:1005F000F43A0320F0B55746DE464E464546E0B590
:100600008BB008919246190005900993DA170323DD
:100610008C46134063449B109B009846002B00DCE3
:100620008FE05246159B00249B000193149B0025EC
:100630009B1A159A9B1A089A9B000293536812689A
:100640001901944606929A0003925246013A92008A
:100650000792002291465A000491DF005146D318B8
:100660009B0042469B4623008E0066440092019AFE
:1006700094469C44039B5C19D8195346002B1EDDFD
:10068000069B05995A196346884600999B00434486
:1006900088460095116819600099511A0D59043265
:1006A0005D60CD599D600958D96010339642F1D1F3
:1006B0004346079A00936346944604339C440422BD
:1006C000029B5C4463449446049AE1449446009A35
:1006D00058442500070066444A45C8DC1C00904683
:1006E000099B434526DD149A1598089B151A524616
:1006F0000ACBAD1A002A1DDD42469E0053439B00E3
:10070000C91853469800059B47469C46099BAB4633
:100710009846159B994600234C44A2006244CD584C
:10072000D55004339842FAD1544401375C448919B6
:10073000B845F0D10BB03CBC90469946A246AB46BA
:10074000F0BD0024CCE7C046F0B5CE46474680B5A4
:10075000002B1DDD002A1BDD940000190C6800250C
:10076000A0464C689100D200494252428C469146C4
:10077000A400614646183100AA00424417681219C5
:1007800080C18142FAD14A460135B01AAB42F0D15C
:100790000CBC90469946F0BDF0B5DE4657464E4635
:1007A0004546E0B599B00B9024980C93259B0130F9
:1007B00001D122982490581C00D1229B2398C41761
:1007C00003202040239CA44660448010850007201D
:1007D000229C02958443200001940C9C002C00DC98
:1007E00085E20091190113912699249C0901511861
:1007F0001691411EC9080131C801490109919900AA
:10080000179126996B438C4663449B00D31812932F
:100810000023A400149415900493029B002B00DC89
:10082000C1E1099A009B944663441193169B03937C
:10083000002305930598049C0100A4460B9B039E8E
:100840000CCB59436144890051180D91411C594307
:100850006144890051180E91811C594361448900FB
:1008600051180F91C11C4B4363449B00D318109344
:10087000019B3400002B00DC44E2009B00259846DD
:1008800000234446A946AA46AB46A84607950695C6
:100890002F1C08950A9325683168281C0EF06DF806
:1008A00059460EF053F871688346281C0EF065F81F
:1008B00051460EF04BF8B1688246281C0EF05DF8E8
:1008C00049460EF043F8F1688146281C0EF055F8B1
:1008D00008990EF03BF8089065683169281C0EF005
:1008E0004CF8391C0EF032F87169071C281C0EF008
:1008F00044F806990EF02AF8B1690690281C0EF00B
:100900003CF807990EF022F8F1690790281C0EF0C8
:1009100034F841460EF01AF88046A568316A281C62
:100920000EF02BF859460EF011F8716A8346281C18
:100930000EF023F851460EF009F8B16A8246281CE1
:100940000EF01BF849460EF001F8F16A8146281CAA
:100950000EF013F808990DF0F9FF0890E568316B77
:10096000281C0EF00AF8391C0DF0F0FF716B071C03
:10097000281C0EF002F806990DF0E8FFB16B069006
:10098000281C0DF0FAFF07990DF0E0FFF16B0790BE
:10099000281C0DF0F2FF41460DF0D8FF8046256976
:1009A000316C281C0DF0E9FF59460DF0CFFF716C3A
:1009B0008346281C0DF0E1FF51460DF0C7FFB16CD6
:1009C0008246281C0DF0D9FF49460DF0BFFFF16C9F
:1009D0008146281C0DF0D1FF08990DF0B7FF089053
:1009E0006569316D281C0DF0C8FF391C0DF0AEFF94
:1009F000716D071C281C0DF0C0FF06990DF0A6FFB5
:100A0000B16D0690281C0DF0B8FF07990DF09EFF00
:100A1000F16D0790281C0DF0B0FF41460DF096FFD8
:100A20008046A569316E281C0DF0A7FF59460DF0D0
:100A30008DFF716E8346281C0DF09FFF51460DF00F
:100A400085FFB16E8246281C0DF097FF49460DF0D8
:100A50007DFFF16E8146281C0DF08FFF08990DF087
:100A600075FF0890E569316F281C0DF086FF391C71
:100A70000DF06CFF716F071C281C0DF07EFF0699AE
:100A80000DF064FFB16F0690281C0DF076FF0799FA
:100A90000DF05CFFF16F0790281C0DF06EFF4146D2
:100AA0000DF054FF8046803620340A9B019A0833AB
:100AB0000A939A4200DDEEE6159A039B9446594646
:100AC0006344381C1C000DF041FF5146071C06987A
:100AD0000DF03CFF4946061C07980DF037FF0899BA
:100AE000814640460DF032FF119B051C9B46229B20
:100AF0001900019B994230DD9A46A8465B4620CBFF
:100B00002168281C9B460DF038FF011C381C0DF095
:100B10001DFF6168071C281C0DF02FFF011C301CF5
:100B20000DF014FFA168061C281C0DF026FF011C07
:100B300048460DF00BFFE1688146281C0DF01DFFB3
:100B4000011C40460DF002FF804601239C46229B7B
:100B5000E24410345345D1D1051C311C0E9E30683F
:100B60000DF0F1FE391C0D9F041C38680DF0EBFEF2
:100B7000291C109D3860346028680DF0E4FE0F9E3B
:100B80004946041C30680DF0DEFE1399039A8C462A
:100B9000059B62440392029A0433306005932C60F3
:100BA0009A4200DD46E6239B029A934200DC92E0E3
:100BB000099A009B944663440593029B129D9846B4
:100BC0000B9B9B465B465E6843465E43049BA9467F
:100BD0009C465B461A6866449446B600019B664490
:100BE0000396002B00DC89E000232E0000249A46A7
:100BF000009F316838680DF0C0FE211C0DF0A6FE84
:100C0000041C716878680DF0B8FE211C0DF09EFE82
:100C1000041CB168B8680DF0B0FE211C0DF096FE02
:100C2000041CF168F8680DF0A8FE211C0DF08EFE82
:100C3000041C316938690DF0A0FE211C0DF086FE00
:100C4000041C716978690DF098FE211C0DF07EFE80
:100C5000041CB169B8690DF090FE211C0DF076FE00
:100C6000041CF169F8690DF088FE211C0DF06EFE80
:100C7000041C2036203708239C46019BE244534540
:100C8000B7DC099B9946059BA9449A46229B019E85
:100C9000B34210DD00274B46D9595346D8590DF0C1
:100CA0006CFE011C201C0DF051FE041C229B013621
:100CB0000437B342EFD1211C039C20680DF043FEA2
:100CC00001239C46179BE0449C46239B206065447F
:100CD000434500D076E71499009A8C46049B624401
:100CE00000920C9A013304939A4200D095E519B012
:100CF0003CBC90469946A246AB46F0BD009B002402
:100D00009A46C3E70025009BA9469B462E1C2F1C34
:100D1000EDE6C04630B587B00C4B02AD00951A68C1
:100D2000694602929A880400AA809B796A46AB7150
:100D3000072301930023D3732DF02CFF0098A842C2
:100D400001D00DF0AFFF200007B030BDF8A00410B7
:100D5000F0B5DE4657464E464546E0B50E00016802
:100D6000C7688946416805698A4681688DB08B46A7
:100D700041698069079306905068136892680591ED
:100D80000A90291C30680B92099308950DF0DBFD41
:100D90000599039070680DF0D6FD0699051CB068A2
:100DA0000DF0D1FD804607980DF06AFE80231B06EA
:100DB0009C46039E009001916644514630000DF020
:100DC000DCFD5946061C281C0DF0D7FD011C301C0B
:100DD0000DF0B9FD391C061C404604970DF0CDFD01
:100DE000011C301C0DF0AFFD0DF04AFE0022684BD7
:100DF0000CF077FD009A019B0CF073FD060048464D
:100E00000F000DF03DFE02000B0030003900169C73
:100E10000CF040FD0CF06AFE4946206003980DF08E
:100E2000ACFD5946061C40460DF0A7FD011C301CC8
:100E30000DF08CFD0499061C281C0DF09EFD011C74
:100E4000301C0DF080FD0DF01BFE0022504B0CF00D
:100E500048FD009A019B0CF044FD060050460F002F
:100E60000DF00EFE02000B00300039000CF012FDF8
:100E70000CF03CFE49466060281C0DF07EFD51469A
:100E8000061C40460DF079FD011C301C0DF05BFD89
:100E90000499061C03980DF070FD011C301C0DF028
:100EA00055FD0DF0EDFD0022394B0CF01AFD009AB6
:100EB000019B0CF016FD060058460F000DF0E0FDFA
:100EC00002000B00300039000CF0E4FC0CF00EFEC8
:100ED0004946A06040460DF050FD5146061C281CB6
:100EE0000DF04BFD011C301C0DF030FD5946051C6A
:100EF00003980DF042FD011C281C0DF024FD0DF09F
:100F0000BFFD0022224B0CF0ECFC009A019B0CF080
:100F1000E8FC060004980F000DF0B2FD02000B0083
:100F2000300039000CF0B6FC0CF0E0FD089B09998C
:100F3000E060181C98460DF020FD079D291C0DF05F
:100F40001CFD011C40460DF0FEFC059F0A99206126
:100F5000381C0DF012FD291C0DF00FFD011C381C72
:100F60000DF0F1FC069E0B996061301C0DF005FD43
:100F7000291C0DF002FD011C301C0DF0E4FCA061E9
:100F800000200DB03CBC90469946A246AB46F0BD51
:100F90000000E03FF0B5DE4657464E4645468A46DD
:100FA0004168E0B58846C768816891B0066889469F
:100FB0004046391C141C04930DF0DFFC4946051C07
:100FC000301C0DF0DAFC0A90011C281C09950DF06C
:100FD000BAFC0DF055FD02000B000CF05BFC069016
:100FE0000791201C02940DF04BFD0B000200040041
:100FF0000D00069807990CF074FC0CF077FD524632
:10100000391C106048460DF0B8FC83464146301C40
:101010000DF0B3FC5A460E90011C58460B920DF091
:1010200095FC0DF02DFD02000B000CF033FC0200CE
:101030000B00200029000C920D930CF052FC0CF0D8
:1010400055FD5446311C6060301C0DF096FC414645
:10105000041C40460DF091FC051C011C201C0DF0E9
:1010600072FC4946089048460DF087FC391C8346BF
:10107000381C0DF082FC5946019008980DF063FC75
:1010800001990DF063FC02990F900DF076FC534628
:101090004946986040460DF070FC391C8046301C73
:1010A0000DF06BFC81461A980DF0EAFC06001B98C7
:1010B0000F000DF0E5FC02900391291C201C0DF09F
:1010C00045FC59460DF03FFC01990DF03CFC04999C
:1010D0000DF053FC0DF0D4FC04000D0040464946D1
:1010E0000DF034FC0DF0CCFC02000B000CF0D2FB38
:1010F00032003B000CF0F5FB02000B002000290041
:101100000CF0C8FB029A039B04000D000698079997
:101110000CF0E7FB02000B00200029000CF0BAFBEA
:101120000CF0E4FC5346D86004980DF0A9FC0400D0
:101130000D00404649460DF006FC0DF0A1FC0200F2
:101140000B000CF0A7FB22002B00049405950CF07B
:10115000C8FB04000D00089859460DF0F7FB0199F3
:101160000DF0F1FB1A990DF008FC0DF089FC02005E
:101170000B00200029000CF08DFB029A039B040059
:101180000D000C980D990CF0ACFB02000B00200038
:1011900029000CF07FFB0CF0A9FC53460A9918615A
:1011A00009980DF0D3FB0DF06BFC02000B000CF066
:1011B00071FB049A059B0CF094FB04000D000B9846
:1011C0000E990DF0C0FB0DF05BFC02000B000CF063
:1011D00061FB32003B000CF084FB02000B0020009E
:1011E00029000CF057FB04000D000F981B990DF01F
:1011F000C4FB0DF045FC02000B00200029000CF0A0
:1012000049FB0CF073FC53465861002011B03CBC04
:1012100090469946A246AB46F0BDC046F0B50400E4
:10122000DE4657464E4645460800E0B54568096823
:10123000AA46856895B0AB46C5684669876910912E
:101240000E950169556810689268049690461A6870
:10125000069711925A689B6812921393FE239B057E
:10126000236099460DF06FFB0DF00AFC0090019190
:101270001E980DF005FC06000F0000980199002251
:10128000924B0CF02EFB32003B000CF02AFB0CF0D2
:101290002DFC04990390E061281C0DF054FB0DF027
:1012A000EFFB0022894B049005910CF01AFB3200F1
:1012B0003B000CF016FB0CF019FC0699051CA06312
:1012C00040460DF040FB0DF0DBFB00227F4B06900B
:1012D00007910CF006FB32003B000CF002FB0CF017
:1012E00005FC0A90606550460DF0CAFB0022784B61
:1012F000089009910CF0F5FA32003B000CF0F1FA7D
:101300000CF0F4FB0B90206758460DF0B9FB00225F
:101310006F4B0C900D910CF0E4FA32003B000CF096
:10132000E0FA0CF0E3FB8C238246E0500E980DF0BF
:10133000A7FB0022664B0E900F910CF0D2FA320000
:101340003B000CF0CEFA0CF0D1FBA8238346E05012
:101350000022009801995E4B0CF0C3FA32003B006A
:101360000CF0BFFA0CF0C2FB4946009060602162AD
:10137000002206980799564B0CF0B3FA32003B0056
:101380000CF0AFFA0CF0B2FBA5658046E063109854
:101390000DF076FB00224D4B0CF0A3FA32003B001F
:1013A0000CF09FFA0CF0A2FB59469023051C6067D5
:1013B0000022E1500C980D99444B0CF092FA320047
:1013C0003B000CF08EFA0CF091FBAC230022E050B5
:1013D000049805993E4B0CF084FA32003B000CF067
:1013E00080FA0CF083FB49460A9A83466262009AAF
:1013F000A0602164E2650E980F990022334B0CF037
:1014000070FA32003B000CF06CFA0CF06FFB942386
:101410000B99A067E5501C33E1504146E160594605
:10142000A162494621665146039BE16763640898BF
:1014300009990022254B0CF054FA32003B000CF0C5
:1014400050FA0CF053FB9823E0501C33E550002574
:101450001E9911982561E562A56465660DF08DFA07
:10146000011C48460DF06FFA8023E0501C33E55014
:101470001C33E550343B1E99129865612563E56481
:10148000A566E5500DF079FA011C48460DF05BFAAF
:10149000A023E0501C33E550343BA561656325650E
:1014A000E566E5501C33E5501E9913980DF065FA7A
:1014B000011C48460DF047FAC023E050002015B04B
:1014C0003CBC90469946A246AB46F0BD0000E0BF4A
:1014D0000000E03FF0B5DE4657464E464546E0B5D3
:1014E0009A460B68141C8A689B464B68C9688BB087
:1014F0000500101C8846009301920DF0C1FA02907D
:101500000391201C0DF0BCFAC02306000F000298C6
:10151000039900221B060CF0E4F932003B000CF0AA
:10152000E0F90CF0E3FA0890286040460DF0A8FAC4
:1015300002000B000CF0AEF932003B000CF0D1F9C8
:101540000CF0D4FA041CA86158460DF099FAC02397
:1015500000221B06049005910CF0C3F932003B00F9
:101560000CF0BFF90CF0C2FA286300980DF088FA6D
:1015700002000B00069007910CF08CF932003B0042
:101580000CF0AFF90CF0B2FA002190238946A86460
:101590002966A967E95068600498059902000B0064
:1015A0000CF078F932003B000CF09BF90CF09EFA3D
:1015B0006C630490E8610298039902000B000CF040
:1015C00069F932003B000CF08CF90CF08FFA4946B7
:1015D0009423E8646966E967E950C023069807998F
:1015E000049A1B06AA6000220CF07BF932003B0033
:1015F0000CF077F90CF07AFA089B4946AB6380232C
:1016000028622C65A966E9501833E95040461499C0
:101610000DF0B3F9019F1599061C381C0DF0ADF9BA
:101620005146041C58460DF0A8F9311C0DF08EF9F6
:10163000211C06940DF087F9011C0DF087F9514625
:101640000990E86000980DF098F91499041C381C72
:1016500001970DF092F9011C201C0DF077F91599F6
:10166000041C40460DF089F9011C201C0DF06EF998
:10167000011C0DF06BF914990290686200980DF04E
:101680007CF91599089058460DF077F9019A802455
:10169000944624066444071C514620000DF06DF961
:1016A00008990DF053F9391C0DF04DF9011C0DF09E
:1016B0004DF91499E86358460DF05FF915990490B7
:1016C00000980DF05AF9802212064244041C51463B
:1016D00010000DF052F904990DF038F9211C0DF0AD
:1016E00035F9011C0DF032F94A468423EA66686533
:1016F000EA501833EA505146286101980DF03DF93F
:1017000008990DF020F9391C0DF020F9011C0DF09D
:101710001DF9071CA8628020029B00062B6451461D
:1017200058440DF02AF9311C0DF00DF906990DF011
:101730000DF9011C0DF00AF98823A86548462867B1
:10174000E8501833E850514640466F610DF015F9E6
:1017500004990DF0F8F8211C0DF0F5F8011C0DF0BE
:10176000F5F8099AE8626A64029B4A46EB654B46C3
:101770006B678C230020EA501833EA500BB03CBC56
:1017800090469946A246AB46F0BDC046F0B54546E8
:10179000DE4657464E46E0B53B4CC723A54434AA27
:1017A000944663441B091B0105938B680490319395
:1017B0000B6833911A6864462A929A692B921A6BC5
:1017C0002C929A6C2D921A6E2E929A6F2F929022D2
:1017D0009A5830925A680692DA6908925A6B0992BE
:1017E000DA6C0A925A6E0B92DA6F0C9294229A5823
:1017F0000D929A680E921A6A0F929A6B10921A6D55
:1018000011929A6E129280229A58139298229A58A4
:101810001492DA6815925A6A1692DA6B17925A6D18
:101820001892DA6E199284229A581A929C229A5827
:101830001B921A6932941C929A6A1D921A6C1E921B
:101840009A6D1F921A6F209288229A582192A02294
:101850009A5822925A692392DA6A24925A6C2592F3
:10186000DA6D26925A6F27928C229A582892A422D7
:101870009B5829934B689846C42343440793434697
:10188000E0461C0002E0C046ACFDFFFFE168A26834
:10189000894621692368484603912D990292019354
:1018A0000DF06BF82E99824603980DF066F8011C36
:1018B00050460DF04BF8676982462F99381C0DF0A1
:1018C0005CF8A66983463099301C0DF056F8011C6F
:1018D00058460DF03BF8011C50460DF037F865688E
:1018E00082462B99281C0DF048F82C9983460298C3
:1018F0000DF043F8011C58460DF028F82A9983464C
:1019000001980DF03AF8011C58460DF01FF8011C23
:1019100050460DF01BF84346494618600A980DF0F2
:101920002CF8039982460B980DF027F8011C5046BD
:101930000DF00CF8391C82460C980DF01EF8311C85
:1019400083460D980DF019F8011C58460CF0FEFF67
:10195000011C50460CF0FAFF291C824608980DF035
:101960000CF80299834609980DF007F8011C5846B7
:101970000CF0ECFF0199834606980CF0FEFF011C69
:1019800058460CF0E3FF011C50460CF0DFFF4346C5
:101990004946586011980CF0F0FF0399824612985E
:1019A0000CF0EBFF011C50460CF0D0FF391C8246B6
:1019B00013980CF0E2FF311C834614980CF0DDFF05
:1019C000011C58460CF0C2FF011C50460CF0BEFF33
:1019D000291C82460F980CF0D0FF0299834610987C
:1019E0000CF0CBFF011C58460CF0B0FF0199834668
:1019F0000E980CF0C2FF011C58460CF0A7FF011C0A
:101A000050460CF0A3FF43464946986018980CF0E6
:101A1000B4FF0399824619980CF0AFFF011C5046A1
:101A20000CF094FF391C82461A980CF0A6FF311C6A
:101A300083461B980CF0A1FF011C58460CF086FF52
:101A4000011C50460CF082FF291C824616980CF0AF
:101A500094FF0299834617980CF08FFF011C58469B
:101A60000CF074FF0199834615980CF086FF011C59
:101A700058460CF06BFF011C50460CF067FF4346C4
:101A80004946D8601F980CF078FF03998246209849
:101A90000CF073FF011C50460CF058FF391C8246B5
:101AA00021980CF06AFF311C834622980CF065FFE8
:101AB000011C58460CF04AFF011C50460CF046FF32
:101AC000291C82461D980CF058FF029983461E98E7
:101AD0000CF053FF011C58460CF038FF0199834667
:101AE0001C980CF04AFF011C58460CF02FFF011CFB
:101AF00050460CF02BFF43464946186126980CF0DF
:101B00003CFF0399814627980CF037FF011C48469B
:101B10000CF01CFF391C814628980CF02EFF311C5C
:101B2000071C29980CF029FF011C381C0CF00EFF33
:101B3000011C48460CF00AFF291C061C24980CF0D6
:101B40001CFF0299051C25980CF017FF011C281C8E
:101B50000CF0FCFE0199051C23980CF00EFF011CF3
:101B6000281C0CF0F3FE011C301C0CF0EFFE434669
:101B7000586118239C46079B1C34E044A34200D0C4
:101B800084E6319A1368089393690993136B0A9357
:101B9000936C0B93136E0C93936F0D939023D35808
:101BA0000E9353680F93D3691093536B1193D36CB7
:101BB0001293536E1393D36F14939423D3581593A6
:101BC00093681693136A1793936B1893136D199375
:101BD000936E1A938023D3581B939823D3581C9346
:101BE000D3681D93536A1E93D36B1F93536D209339
:101BF000D36E21938423D35822939C23D3582393C9
:101C000013692493936A2593136C2693936D2793FA
:101C1000136F059C28938823D35820342993A0233D
:101C2000D358A1462A9353692B93D36A2C93536CB0
:101C30002D93D36D2E93536F2F938C23D3583093C2
:101C4000A423D358319358AB0693329B1A0098467D
:101C50001832079243464246414640461B68956902
:101C60000193069B146B096E926C40CB876F0291B7
:101C7000101C0B99039206930CF07FFE0C99824680
:101C800002980CF07AFE011C50460CF05FFE0D9994
:101C90008246381C0CF071FE0E998346301C0CF005
:101CA0006CFE011C58460CF051FE011C50460CF015
:101CB0004DFE09998246281C0CF05FFE0A99834666
:101CC000201C0CF05AFE011C58460CF03FFE0899EF
:101CD000834601980CF051FE011C58460CF036FE6C
:101CE000011C50460CF032FE4B46129918600398C6
:101CF0000CF043FE1399824602980CF03EFE011C44
:101D000050460CF023FE14998246381C0CF035FE28
:101D100015998346301C0CF030FE011C58460CF01F
:101D200015FE011C50460CF011FE10998246281C2D
:101D30000CF023FE11998346201C0CF01EFE011CA2
:101D400058460CF003FE0F99834601980CF015FEDF
:101D5000011C58460CF0FAFD011C50460CF0F6FD33
:101D60004B461999586003980CF007FE1A99824661
:101D700002980CF002FE011C50460CF0E7FD1B9986
:101D80008246381C0CF0F9FD1C998346301C0CF07F
:101D9000F4FD011C58460CF0D9FD011C50460CF016
:101DA000D5FD17998246281C0CF0E7FD189983464B
:101DB000201C0CF0E2FD011C58460CF0C7FD1699E2
:101DC000834601980CF0D9FD011C58460CF0BEFD6D
:101DD000011C50460CF0BAFD4B46209998600398C0
:101DE0000CF0CBFD2199824602980CF0C6FD011C37
:101DF00050460CF0ABFD22998246381C0CF0BDFD1C
:101E000023998346301C0CF0B8FD011C58460CF099
:101E10009DFD011C50460CF099FD1E998246281C20
:101E20000CF0ABFD1F998346201C0CF0A6FD011C95
:101E300058460CF08BFD1D99834601980CF09DFDD2
:101E4000011C58460CF082FD011C50460CF07EFD32
:101E50004B462799D86003980CF08FFD289982464D
:101E600002980CF08AFD011C50460CF06FFD299978
:101E70008246381C0CF081FD2A998346301C0CF0F8
:101E80007CFD011C58460CF061FD011C50460CF015
:101E90005DFD25998246281C0CF06FFD269983462E
:101EA000201C0CF06AFD011C58460CF04FFD2499D3
:101EB000834601980CF061FD011C58460CF046FD6C
:101EC000011C50460CF042FD4B462E9918610398B8
:101ED0000CF053FD2F99824602980CF04EFD011C28
:101EE00050460CF033FD30998246381C0CF045FD0D
:101EF0003199071C301C0CF040FD011C381C0CF003
:101F000025FD011C50460CF021FD2C99061C281CB7
:101F10000CF033FD2D99051C201C0CF02EFD011C2E
:101F2000281C0CF013FD2B99041C01980CF025FDC6
:101F3000011C201C0CF00AFD011C301C0CF006FDDD
:101F40004B46586104239C461433E0449C46079B4F
:101F5000E144984500D07DE6339B059DDC68296A05
:101F600020680CF0F3FC049EA96B306060680CF0F4
:101F7000EDFC7060A068296D0CF0E8FCB060E068D2
:101F8000A96E0CF0E3FC8023F0602069E9589846C4
:101F90000CF0DCFC98233061E95860690CF0D6FC49
:101FA0007061A069696A0CF0D1FCB061E069E96B0D
:101FB0000CF0CCFCF061206A696D0CF0C7FC30625B
:101FC000E96E606A0CF0C2FC84277062A06AE9596D
:101FD0000CF0BCFC9C23B062E958E06A0CF0B6FC43
:101FE000F062206BA96A0CF0B1FC3063606B296C65
:101FF0000CF0ACFC7063A06BA96D0CF0A7FCB06397
:10200000E06B296F0CF0A2FC0496F0638826206C2C
:10201000A9590CF09BFC049B1864A023606CE95840
:102020000CF094FC049BE96A5864A06C0CF08EFCE4
:10203000049B696C9864E06C0CF088FC049BE96D6F
:10204000D864206D0CF082FC049B696F1865606D8C
:1020500005950CF07BFC8C25049A059B5065A06DC2
:1020600059590CF073FCA423049A9065059AE06D0D
:10207000D1580CF06BFC0499059AC865206E116B61
:102080000CF064FC0499059A0866916C606E0CF083
:102090005DFC0499059A4866A06E116E0CF056FC22
:1020A0000499059A8866E06E916F0CF04FFC9023BE
:1020B0000499059AC866206FD1580CF047FCA823F4
:1020C0000499059A0867606FD1580CF03FFC049999
:1020D000059A4867A16F506B0CF038FC0499059A7B
:1020E0008867E16FD06C0CF031FC0499059AC867E1
:1020F00040462158506E0CF029FC4146049B059A3D
:102100005850E159D06F0CF021FC049BD851942316
:10211000059FA159F8580CF019FC049B9851AC2369
:102120006159F8580CF012FC049B585195239B0000
:102130009D443CBC90469946A246AB46F0BDC04685
:10214000F0B54E464546DE4657460023E0B51360DF
:10215000836887B09846049200230268052691465A
:102160000093013B019003910293052345469B1B7D
:102170009A465D434B46002B00D197E15544AD0094
:102180004D442B685C006B6864085F007F08391C55
:10219000381C0CF03CFC002800D0E8E0211C381C66
:1021A0000CF030FC002800D0E8E00027731C9B46B0
:1021B000012E53D0AB685B005B08191C181C9846B5
:1021C0000CF025FC002800D04DE14046211C0CF00D
:1021D00019FC002801D0444602275B46032B3DD062
:1021E000EB685B005B08191C181C98460CF00FFC90
:1021F000002800D03FE14146201C0CF0F5FB0028F0
:1022000001D0444603275B46042B27D02B695B0093
:102210005B08191C181C98460CF0F9FB002800D02C
:1022200031E14146201C0CF0DFFB002801D0444680
:1022300004275B46052B11D06D696D006D08291CC4
:10224000281C0CF0E4FB002800D024E1291C201CF1
:102250000CF0CAFB002801D005272C1C039B009A18
:10226000574400219F50201C0CF0B6FB002800D1E1
:1022700087E0029B013300D1EBE05746019B9B684E
:1022800098465F4306239C1B06239B1BDF1943468E
:10229000424663439D001C19002392009346009A16
:1022A0009A469446BF006544A4004F444D444C44B4
:1022B000396828680CF061FB011C20680CF043FBB6
:1022C0002060012E29D0796828680CF056FB011C8B
:1022D00060680CF038FB6060022E1ED02968B86878
:1022E0000CF04BFB011CA0680CF02DFBA060032E32
:1022F00013D02968F8680CF040FB011CE0680CF072
:1023000022FBE060052E08D1296838690CF035FB06
:10231000011C20690CF017FB206101239C46E2445C
:102320005D445C445645C3D1009B013E0433009399
:10233000002E00D019E70523039A00215361019B69
:102340009A68013293009B184A469B0098580CF0FB
:1023500043FB002803D0029B013300D1A3E0029885
:1023600007B03CBC90469946A246AB46F0BD211C46
:10237000201C0CF04CFB002800D00FE73C1C012770
:1023800014E757452FD049464C46019ABB000098A8
:102390004B441D68926809589200255048441960C2
:1023A00081189B1808681C680C60186089189B18B5
:1023B00008681C680C60186089189B1808681C68FD
:1023C0000C60186089189B1808681C680C601860FD
:1023D00089189B1818680A6808601A60049A1368BC
:1023E0000593013313605746019B4A469B685F4340
:1023F000984606239C1B5346FB183D199B009B588F
:10240000AD004D442868191C9A460CF0A2FA2860C9
:10241000012E00D138E7686851460CF09AFA6860DE
:10242000022E00D130E7A86851460CF092FAA8605D
:10243000032E00D128E7E86851460CF08AFAE860DC
:10244000042E00D120E7286951460CF082FA286159
:102450001AE75746019B9B6898465F4306239C1BDF
:102460005346029310E7211C201C0CF0D0FA0028E0
:1024700000D1B0E6A9E6211C201C0CF0C8FA002807
:1024800000D1BEE6B7E6211C201C0CF0C0FA0028E3
:1024900000D1CCE6C5E6211C201C0CF0B8FA0028BF
:1024A00000D1D9E6D2E60523029358E71B68FFDE88
:1024B000F0B5DE464E4645465746E0B589B001AF19
:1024C0003A000500059005AB03CB03C26B682C00F6
:1024D0005800AB684008590049080CF037FA2B68DF
:1024E000590049080CF032FA2B69061C58006B6938
:1024F0004008590049080CF029FAEB6859004908CE
:102500000CF024FA011C301C0CF020FAEB69804618
:1025100058002B6A4008590049080CF017FAAB69BB
:10252000590049080CF012FAAB6A061C5800EB6A15
:102530004008590049080CF009FA6B6A590049082B
:102540000CF004FA011C301C0CF000FA6B6B814695
:102550005800AB6B4008590049080CF0F7F92B6B99
:10256000590049080CF0F2F92B6C061C58006B6CF2
:102570004008590049080CF0E9F9EB6B590049088B
:102580000CF0E4F9011C301C0CF0E0F9061C011CF5
:1025900048460CF029FA002800D14E464046311C2E
:1025A0000CF022FA002800D14646E36C5800236D57
:1025B0004008590049080CF0C9F9A36C59004908B2
:1025C0000CF0C4F9A36D80465800E36D4008590033
:1025D00049080CF0BBF9636D590049080CF0B6F9D5
:1025E000011C40460CF0B2F9636E80465800A36EA1
:1025F0004008590049080CF0A9F9236E5900490810
:102600000CF0A4F9236F81465800636F400859000D
:1026100049080CF09BF9E36E590049080CF096F953
:10262000011C48460CF092F9E36F81465800802364
:10263000E1584008490049080CF088F9A36F590097
:1026400049080CF083F988238246E0580433E158A6
:1026500040004900490840080CF078F98423E1580B
:10266000490049080CF072F9011C50460CF06EF953
:10267000041C011C48460CF0B7F9002800D14C4658
:102680004046211C0CF0B0F9002800D14446211C22
:10269000301C0CF0A9F9002800D1341CC0232900FB
:1026A000EC503A00BA3BA83104A806930495FFF712
:1026B00047FD0121C422019B98260B405B428B43BE
:1026C0000133AB54343A9246002250469C272A509C
:1026D0009432A9509346923AAA510132EA519D325E
:1026E000944660469C3A2A50A03291469F3A9046C2
:1026F0004A4640462B00A85048461832AA58903304
:1027000092009A1814682C50404610606046B82217
:102710002858AA588046604692009A1814682C508F
:1027200040461060B422E859AA58844692009A188C
:1027300010685C46E85160461060B022AA58AF5954
:1027400092009A181068A8511760AC225846AA58EF
:102750002E5892009A18106828511660A822AA587C
:10276000544692009B1852461868AA5828511A607D
:10277000C523E95409B03CBC90469946A246AB46F5
:10278000F0BDC046C023002210B5C2500022043361
:10279000C2520B68040003604B6843608B6883601F
:1027A000CB68C3600B6903614B6943618B698361CB
:1027B000CB69C3610B6A03624B6A43628B6A8362B3
:1027C000CB6AC3620B6B03634B6B43638B6B83639B
:1027D000CB6BC3630B6C03644B6C43648B6C836483
:1027E000CB6CC3640B6D03654B6D43658B6D83656B
:1027F000CB6DC3650B6E03664B6E43668B6E836653
:10280000CB6EC3660B6F03674B6F43678B6F83673A
:10281000CB6FC3678023CA58C2500433CA58C25012
:102820000433CA58C2500433CA58C250FFF740FE9E
:10283000200010BD10B5037A0400002B07D00068FB
:10284000002804D0431E1B78C01A0CF0FFF92000AA
:1028500010BDC046F0B557464E464546DE46E0B58B
:10286000B5B006AFFB64EC23E84DF861F9633A6755
:10287000FB181E682B78BFF35B8FDB0700D484E264
:10288000E34C6368FA699A4633697B62B3683B62DA
:10289000934200DD3A627A6A3B6A53439946FB6B86
:1028A000534398468023DB05994500D351E23368B2
:1028B0003B65002B00D155E24B4600249D00A02330
:1028C000A422FB181C604B46BA18136080239B029D
:1028D000AB42AD41A8236D42FB181D708023DB0580
:1028E000984500D319E27368FB60002B00D11DE20C
:1028F000434600249D00AC23B022FB181C604346D5
:10290000BA18136080239B02AB42AD41B4236D42E1
:10291000FB181D7004237B64FB6B002B15DDE82086
:102920003A18FB6912681900934200DAF3E1504645
:1029300009010AF05FFD0323C21713401B189B1007
:102940009B007B64042B00DAE2E1F969002900DCDA
:102950007BE17B6AB9611A00C91A9C463961E8219A
:10296000F86C9B0042433B60BA607B1862441B6872
:102970007A607A6C5343BB628300FB650433BB65AA
:10298000431C9B00BB667B181B689B007B66E02397
:10299000FB181B683B6300237B63BB637B613B6667
:1029A0008C20BB693A1813607A6A934201DD3B18A8
:1029B0001A60FB6B002B00DC18E18C23FB181B68F2
:1029C000002B00DC12E1FA6BBA647A6C53439B0073
:1029D000FB62FB687B6700237B653B6498339A4608
:1029E000BA448020BB6C3A1813607A6C934201DDC4
:1029F0003B181A603A6B7B6D944690229B006344AF
:102A0000BA18136084227B6BBA181360BB6BFB6728
:102A1000002399468C234A46FB181B689B1A98464C
:102A2000BB67042B01DD042398463B6E94224B4484
:102A3000FB6643465E1E8423FB181B68BA189D0084
:102A40003B6F9C469023FB181B6865441360002E67
:102A500046D094238822FB181C680023B3462E001E
:102A6000BA18136025687168281C0BF086FF011CDA
:102A700060680BF068FF5B466060012B14D0B168A2
:102A8000281C0BF07AFF011CA0680BF05CFF5B4672
:102A9000A060022B08D0F168281C0BF06EFF011C0F
:102AA000E0680BF050FFE0608822BB181B68BA1882
:102AB000013313607A6E94468022BA181268644417
:102AC0009342CFD19422BB6E35005E469C46BB1824
:102AD0001B68BA180433013E65441360002EB8D158
:102AE0004246BB6F51469C1A90225346BA18126850
:102AF0001A60E822BA1812685A604B4601938C2378
:102B0000FB181B68424600938023FB181B68786FF4
:102B1000FDF770FD002C37DDFB6E3A6F43441D005E
:102B200094465246FB6F3E6D5B199B0063441360F5
:102B30005346FA6C51465A60300023004246FDF776
:102B400003FE7B6DE8229C46E023FB181B6865446E
:102B50009C465346BA181268AD0065441D605A6021
:102B60004B4604938C23FB181B68310003934346A8
:102B700002938023FB181B68504601934346009341
:102B80007A6F2300FDF708FE04239C46FA6DE144AA
:102B900094469022FB6F84216344FB67BB181B683B
:102BA000BA1810331360BA6D7B1894461B687A18F4
:102BB000634413608C23FB181B684B4500DD29E739
:102BC0007A6CB96C94463B6C8A1AB96A63448C4639
:102BD000BA64F96A7A6D3B6462448C467A657A6FAE
:102BE00062447A67FA6B9A4200DDFAE67A6A3B6ED3
:102BF0009446FA6963443B669A4226DD3A6A002AA3
:102C000036DCF9699B189942FCDC03E06C21032057
:102C100030370320BA697B6A7969D21ABA61BA6817
:102C20000800944639697A68CB1A3B61BB6B6044F3
:102C300063449446BB633A687B6B78616344944613
:102C40007B633B6B63443B63AAE6982414233A19E5
:102C5000D018FFF7EFFD08233A19D018FFF7EAFD67
:102C6000BD462FB03CBC90469946A246AB46F0BD4F
:102C70003A6F7B69944694229B006344BA181360B0
:102C80003B6E3E69984698239A4600239B46013B3B
:102C900099463300BA444646544698463B6AC24673
:102CA000984500DD9A4694238C22FB181B68B500DA
:102CB000EB182360FB6CB9180A68386D210063605B
:102CC0005346FDF741FDE02179180B68E82179189A
:102CD0009C460B68654463605B46256004934B46E5
:102CE00003930293FB6B200001938C23FB181B685A
:102CF0000093FA685346396DFDF74EFD42463B6A34
:102D00009C46D31A9846FB696644B342C6DC81E709
:102D100004237B6419E6110009E6012040420BF010
:102D2000B9FF7368FB60002B00D0E1E543469D00CE
:102D300080239B029D424AD82B006A461633DB084B
:102D4000DB00D31A9D4627240F236C449C43FC6070
:102D5000D1E5012040420BF09DFF33683B65002B1D
:102D600000D0A9E54B469D0080239B029D421ED8C2
:102D70002B006A461633DB08DB00D31A9D46272456
:102D80000F236C449C433C6599E528000EF04CFCF5
:102D90001D4C002800D174E58023DB0123608023D3
:102DA0001B0328006360A3600EF05AFC69E528004D
:102DB00010300BF02DFF041E19D00F2210230240FB
:102DC0009B1ADBB2C418621E13703C6577E52800BD
:102DD00010300BF01DFF041E0FD00F2210230240F5
:102DE0009B1ADBB2C418621E1370FC6083E50120DD
:102DF00040420BF04FFF3C6561E5012040420BF083
:102E000049FFFC6077E5C04630370320F0B5DE4669
:102E100057464E464546E0B5B9B006AFFB67FC23C2
:102E2000384DB963BA64FB181E682B788346BFF32C
:102E30005B8FDB0700D4C1E2334C63689A46336989
:102E40007B61B3683B615B4501DD5B463B617A6951
:102E50003B6953439946BB6B534398468023DB053C
:102E6000994500D38EE233683B65002B00D192E296
:102E70004B4600249D00B023B422FB181C604B4637
:102E8000BA18136080239B02AB42AD41B8236D4258
:102E9000FB181D708023DB05984500D356E273684C
:102EA000FB61002B00D15AE2434600249D00BC2365
:102EB000C022FB181C604346BA18136080239B0293
:102EC000AB42AD41C4236D42FB181D7004233B642B
:102ED000BB6B002B1ADDF823FB181B6859469B457A
:102EE00000DA2FE2504609010AF084FA0323C217E0
:102EF00013401B189B109B003B64042B00DA1EE25E
:102F000004E0C0466C210320303703205B46002BD1
:102F100000DC00E2FA6F78691100434259430B006C
:102F2000F96059460C1A110062431B1A9B00BA61E2
:102F3000BB600A000B0059464B43B96C5B448C469E
:102F4000F0219B006344FB627918830009685B42AF
:102F50007B605B468C46F8219B00634479180968C6
:102F60003B633B6C7C634B433B6293005B423B6641
:102F7000043B7B659B00BB65D3439B00A422BB66DF
:102F80008B007B665B46BA1813600300A422BA1854
:102F900012683B67934200DD3A67BB6B002B00DC95
:102FA00058E13A6F002A00DC54E17B643B6C396BDA
:102FB00053439B007B62FB69FB669300CB1ABB62A9
:102FC00000237B67FB63A433FB181B6803219B1A58
:102FD000BB671300013B043A8B43D31AFB65902275
:102FE0007B6CBA1813603A6C934202DD9023FB1895
:102FF0001A60BA6A7B6F94469B009C446246FA64EE
:103000003A6B944698226344BA1813609422FB6A80
:10301000BA1813603B6F9A465346D346042B01DD22
:1030200004239B468022BB6FBA18534413605B464F
:103030005E1E7B6DF96F99469423FB181A685B46F8
:1030400090465B425B1A9B00A422C1449844012332
:10305000BA185B4213604B46FE20196880050BF0DE
:1030600078FC8C239821FB181860A4237918096830
:10307000FB188C4684211A687918931B9C009B00CE
:103080005B420B6093009C22BA181360A0220023BD
:10309000BA18644413608423FB181B6888229C467A
:1030A000A4446346BA1813609C22BA18126899584F
:1030B0008C23FB1818680BF060FC88239C22FB18FB
:1030C000BA181B681268051C9850002E20D0434681
:1030D00019680BF052FC011C20680BF034FC2060D6
:1030E000012E15D04346281C59680BF046FC011CE4
:1030F00060680BF028FC6060022E09D04346281C53
:1031000099680BF03AFC011CA0680BF01CFCA06055
:10311000A023A022FB181B68BA18013313607A6E33
:1031200094469022BA18126864449342B3D1A423FF
:10313000A422FB181B68BA18013B1360BB6E9C46A7
:103140003B6EE1449C46E044013E84D25A465346DD
:103150009C1A8023FB181B68A8219D1AF022BA181C
:1031600012687B6F9446A8225B199B006344BA18CF
:103170001360F823AC22FB181B68BA181360902365
:1031800001943E6FFB1800961B68F86E5A4679183A
:1031900099468046FDF72EFA002C2DDDBA6FF96FA7
:1031A00094464D43BA6C6544A8239446AD006544EB
:1031B000FB181D60AC23FB181960A82123005A4698
:1031C000386D7918FDF7C0FAA823FD6CFB181D6057
:1031D000F823FB181D68AC23FB181D605D464B46A9
:1031E000A82001930494039602950095230042467B
:1031F000396D3818FDF7D0FA04235B429C46BA6D4E
:10320000E244944694229833FB181B68BA1863442E
:10321000136098239822FB181B68BA18103B1360A0
:10322000FB6D534500D0F7E63A6C796C9446FB6B26
:103230008A1A796A63448C467A64396AFA6EFB6347
:1032400062448C46FA667A6F62447A67BA6B9A4235
:1032500000DDC4E6A4227B6BBA181360002B5ADD94
:10326000BA6C1C009146BB6900259B009944002361
:10327000CB469A463E69A046B44200DDB04643467E
:10328000002B2EDDA822AB009946BA185B441360D0
:10329000AC22A821FB6FBA181360386D43463A6F11
:1032A0007918FDF751FAF023A822FB181B68BA1809
:1032B0004B441360F823AC22FB181B68BA18136048
:1032C000534604930123A8205B4203930293BB6BF4
:1032D000381801933B6F0093FA694346396DFDF747
:1032E0005BFA7B6BAD19A41BAB42C4DCFA68BB690B
:1032F0009446BA6863449446BB617A68FB6A634447
:103300009446FB623B6B7A6963443B637B6B9B1A1D
:103310007B6313003AE6A8221423BA18D018FFF7EB
:1033200089FAA8220823BA18D018FFF783FABD46F5
:1033300033B03CBC90469946A246AB46F0BD042350
:103340003B64E3E5F823FB181968CBE50120404214
:103350000BF0A0FC7368FB61002B00D0A4E5434692
:103360009D0080239B029D424AD82B006A4616335B
:10337000DB08DB00D31A9D4627240F236C449C43B3
:10338000FC6194E5012040420BF084FC33683B650E
:10339000002B00D06CE54B469D0080239B029D4294
:1033A0001ED82B006A461633DB08DB00D31A9D4675
:1033B00027240F236C449C433C655CE528000EF0F9
:1033C00033F91D4C002800D137E58023DB01236051
:1033D00080231B0328006360A3600EF041F92CE5F5
:1033E000280010300BF014FC041E19D00F221023FB
:1033F00002409B1ADBB2C418621E13703C653AE5AA
:10340000280010300BF004FC041E0FD00F221023F4
:1034100002409B1ADBB2C418621E1370FC6146E5C1
:10342000012040420BF036FC3C6524E5012040427F
:103430000BF030FCFC613AE530370320F0B5DE4696
:1034400045464E465746E0B5214C1600A5443AAADB
:1034500094460A000B931F4B099063441B09049187
:103460001D01FDAB13CA13C313CA13C31268FDA910
:103470001A60194B194A1B6847A80593184B47ACAB
:103480001B680193174B1B6806930093059BFEF77F
:1034900021F83AAA944647ABFD93FF93124BFFAA3B
:1034A00063441B680432FE9613608623DB009C464F
:1034B000AC446046CCAAFDA90D90FEF767F96BAB52
:1034C0000C9323000A9498462C000E950EE0C046FB
:1034D0006CF6FFFFEF030000001F03200AE81C4109
:1034E000F81E0320FC1E0320D80800004346404677
:1034F00045461B68806C05930C9BAF6F814620CBC3
:103500004146404642460C93A823096B006E9269DF
:1035100007910890F158281C06920BF02EFA8C2384
:103520008246F158381C0BF028FA011C50460BF06B
:103530000DFA316F824608980BF01FFA716D8346C1
:1035400048460BF01AFA011C58460BF0FFF9011C13
:1035500050460BF0FBF9B16B824607980BF00DFA61
:10356000F169834606980BF008FA011C58460BF0E7
:10357000EDF93168834605980BF0FFF9011C5846B8
:103580000BF0E4F9011C50460BF0E0F9AC2320608D
:10359000F158281C0BF0F1F990238246F158381CA1
:1035A0000BF0EBF9011C50460BF0D0F9716F82461D
:1035B00008980BF0E2F9B16D834648460BF0DDF94F
:1035C000011C58460BF0C2F9011C50460BF0BEF925
:1035D000F16B824607980BF0D0F9316A8346069862
:1035E0000BF0CBF9011C58460BF0B0F9716883461B
:1035F00005980BF0C2F9011C58460BF0A7F9011C05
:1036000050460BF0A3F9B0236060F158281C0BF072
:10361000B4F994238246F158381C0BF0AEF9011C22
:1036200050460BF093F9B16F824608980BF0A5F95C
:10363000F16D834648460BF0A0F9011C58460BF08B
:1036400085F9011C50460BF081F9316C82460798D0
:103650000BF093F9716A834606980BF08EF9011C02
:1036600058460BF073F9B168834605980BF085F95D
:10367000011C58460BF06AF9011C50460BF066F924
:10368000B423A060F158281C0BF077F998238246E8
:10369000F158381C0BF071F9011C50460BF056F92B
:1036A000F16F824608980BF068F9316E8346484600
:1036B0000BF063F9011C58460BF048F9011C504609
:1036C0000BF044F9716C824607980BF056F9B16A19
:1036D000834606980BF051F9011C58460BF036F959
:1036E000F168834605980BF048F9011C58460BF029
:1036F0002DF9011C50460BF029F9B823E060F15870
:10370000281C0BF03AF99C238246F158381C0BF028
:1037100034F9011C50460BF019F980238246F15808
:1037200008980BF02AF9716E834648460BF025F98C
:10373000011C58460BF00AF9011C50460BF006F923
:10374000B16C824607980BF018F9F16A8346069827
:103750000BF013F9011C58460BF0F8F83169834659
:1037600005980BF00AF9011C58460BF0EFF8011C04
:1037700050460BF0EBF8BC232061F158281C0BF0ED
:10378000FCF8A0238246F158381C0BF0F6F8011C17
:1037900050460BF0DBF884238246F15808980BF072
:1037A000ECF8B16E834648460BF0E7F8011C58462A
:1037B0000BF0CCF8011C50460BF0C8F8F16C8246B7
:1037C00007980BF0DAF8316B834606980BF0D5F8C2
:1037D000011C58460BF0BAF87169834605980BF046
:1037E000CCF8011C58460BF0B1F8011C50460BF008
:1037F000ADF8F16E606148460BF0BFF88823814652
:10380000F15808980BF0B9F8011C48460BF09EF8E7
:10381000A4238146F158381C9A460BF0AEF8C02319
:10382000071CF158281C0BF0A8F8011C381C0BF0E1
:103830008DF8011C48460BF089F8716B051C069841
:103840000BF09BF8316D071C07980BF096F8011CE4
:10385000381C0BF07BF8B169071C05980BF08DF84C
:10386000011C381C0BF072F8011C281C0BF06EF8C0
:1038700004239C464DABE044A0611C34984500D025
:1038800034E6D8230E9D9B00EC1820000D99FEF71E
:1038900079FFA4239B009B46AB442100902258460D
:1038A0000BF0F2F9C8239B00EC18D033E91818226A
:1038B00020000BF0E9F9CE239B00E818D033E9187B
:1038C00018220BF0E1F98422D423D200AA1812683E
:1038D0009B00EB181A60D523744A2F00AA1812888F
:1038E0009B00EB18FE211A8000232268B03792005B
:1038F000BA18890511609361136393641366936723
:10390000C9229200AA181268D13C9200BA1813601A
:1039100091611363936413669367CA229200AA1895
:103920001268FF3C9200BA181360936111639364AC
:1039300013669367CB229200AA18126806209200A1
:10394000BA18136093611363916413669367CC2272
:103950009200AA1812689200BA1813609361136358
:10396000936411669367CD229200AA1812689200A0
:10397000BA18136093611363936413660623A360FC
:10398000E360236198466B33FF339946A9449167FE
:103990004A46203BEA50802292009446AC4462465C
:1039A000414662604B3B02910539059203945A46A9
:1039B0000191FF3B05310097FEF74CFF4046A823DD
:1039C000A060E060206148465B00E850012143466A
:1039D000059A062062600394029301915A4600976B
:1039E0000531FFF713FA2B68B8461C93EB69FDAC61
:1039F0001D93AB6B1E936B6D1F932B6F20938C23CA
:103A0000EB5821936B682B932B6A2C93EB6B2D93C4
:103A1000AB6D22936B6F23939023EB582493AB6889
:103A200025936B6A26932B6C2793EB6D2893AB6FD2
:103A300029939423EB582A93EB682E93AB6A1B933C
:103A40006B6C07932B6E0C93EB6F0D939823EB58D5
:103A50000E932B690F93EB6A1093AB6C11936B6E03
:103A60002F938023EB5830939C23EB5831936B6951
:103A700012932B6B1393EB6C34961493AB6E1593DC
:103A80008423EB581693A023EB581793AB69189334
:103A90006B6B19932B6D1A93EB6E32938823EB5853
:103AA00008935346EB58339302E0C04624040000C9
:103AB00043461F685B6842469946434641469B68B9
:103AC000D2680E694D691D984946059306920AF021
:103AD00054FF059982461E980AF04FFF011C50467C
:103AE0000AF034FF391C82461C980AF046FF011C7C
:103AF00050460AF02BFF311C824620980AF03DFF09
:103B0000291C834621980AF038FF011C58460AF008
:103B10001DFF069983461F980AF02FFF011C584687
:103B20000AF014FF011C50460AF010FF49462060BD
:103B30002C980AF022FF059982462D980AF01DFF65
:103B4000011C50460AF002FF391C82462B980AF0ED
:103B500014FF011C50460AF0F9FE311C82462398DE
:103B60000AF00BFF291C834624980AF006FF011C6B
:103B700058460AF0EBFE0699834622980AF0FDFEAD
:103B8000011C58460AF0E2FE011C50460AF0DEFE17
:103B90004946606026980AF0F0FE0599824627980B
:103BA0000AF0EBFE011C50460AF0D0FE391C82469A
:103BB00025980AF0E2FE011C50460AF0C7FE311CAF
:103BC000824629980AF0D9FE291C83462A980AF0D1
:103BD000D4FE011C58460AF0B9FE0699834628987F
:103BE0000AF0CBFE011C58460AF0B0FE011C5046FC
:103BF0000AF0ACFE4946A0601B980AF0BEFE05998B
:103C0000824607980AF0B9FE011C50460AF09EFE53
:103C1000391C82462E980AF0B0FE011C50460AF06C
:103C200095FE311C82460D980AF0A7FE291C83469A
:103C30000E980AF0A2FE011C58460AF087FE06996B
:103C400083460C980AF099FE011C58460AF07EFE45
:103C5000011C50460AF07AFE4946E06010980AF0CE
:103C60008CFE0599824611980AF087FE011C504689
:103C70000AF06CFE391C82460F980AF07EFE011C89
:103C800050460AF063FE311C824630980AF075FEF9
:103C9000291C834631980AF070FE011C58460AF030
:103CA00055FE069983462F980AF067FE011C584678
:103CB0000AF04CFE011C50460AF048FE49462061BD
:103CC00013980AF05AFE0599824614980AF055FE98
:103CD000011C50460AF03AFE391C824612980AF03E
:103CE0004CFE011C50460AF031FE311C82461698EB
:103CF0000AF043FE291C834617980AF03EFE011C79
:103D000058460AF023FE0699834615980AF035FEB8
:103D1000011C58460AF01AFE011C50460AF016FE15
:103D20004946606119980AF028FE059981461A985B
:103D30000AF023FE011C48460AF008FE391C8146A1
:103D400018980AF01AFE011C48460AF0FFFD311CC3
:103D5000071C08980AF011FE291C061C33980AF06B
:103D60000CFE011C301C0AF0F1FD0699051C32986E
:103D70000AF003FE011C281C0AF0E8FD011C381C97
:103D80000AF0E4FD18239C46FFABA061A0331C346D
:103D9000E044A34200D08BE6FD9BFE9A069371930C
:103DA000FFAB5C680433FFAB9D680833FFABDF6893
:103DB0000C33FFAB10331B68FF990F937793FFAB66
:103DC0001433079272921A68FFAB183308917391FB
:103DD0001968FFAB1C330C9474941C68FFAB203340
:103DE0000D9575951D68FFAB2433349E0E9776971D
:103DF000109278921191799112947A9413951F6888
:103E0000FFAB28331B687B9515937D93FFABDA6A74
:103E10002C33FFAB196B3033FFAB5C6B3433FFAB30
:103E20009D6B3833FFAB3C3314977C971F68FFAB17
:103E300040331B6816921B938393FFAB44337E92EF
:103E40001A68FFAB483317917F911968FFAB4C3369
:103E5000189480941C68FFAB5033199581951A977C
:103E600082971C9284921D9185911E941D68FFABD0
:103E70005F6D5433FFAB58331B688694219389934D
:103E8000FFABDA6D5C33FFAB196E6033FFAB5C6E7A
:103E90006433FFAB68331F9587951D68FFAB6C33A8
:103EA000209788971F68FFAB70331B682292279377
:103EB0008F93FFAB74338A921A68FFAB78332391E8
:103EC0008B911968FFAB7C3324948C9425958D9548
:103ED00026978E972892909229911C68FFAB803389
:103EE0001D68FFAB84331F68FFAB88331B6891915B
:103EF0002D939593FFAB8C331A68FFAB9033196801
:103F0000FFAB94332A9492941C68FFAB98332B95A3
:103F100093951D68FFAB9C332C9794971F682E9246
:103F20009692049A2F9197913094989431959995FF
:103F300032979A97FDAB32CA32C332CA32C3116884
:103F4000FDAC1960FD49FE4B09681B680191FD49F4
:103F5000FD4A09682000009141A9FDF71BF80B9F5D
:103F6000419938680AF0EFFC4299834678680AF074
:103F7000EAFC4399041CB8680AF0E5FC4499051C66
:103F8000F8680AF0E0FC4599824638690B970AF018
:103F9000DAFC0B9B071C469958690AF0D4FC804652
:103FA000011C2D980AF0E9FC391C814626980AF07C
:103FB000E4FC011C48460AF0C9FC534681465146C0
:103FC0001F9805930AF0D9FC011C48460AF0BEFC74
:103FD000291C814618980AF0D0FC211C82461198B1
:103FE0000AF0CBFC011C50460AF0B0FC5946824650
:103FF00007980AF0C2FC011C50460AF0A7FC011CFD
:1040000048460AF0A3FC049A51680AF09FFC414616
:104010000B902E980AF0B1FC391C814627980AF0C3
:10402000ACFC011C48460AF091FC05998146209899
:104030000AF0A3FC011C48460AF088FC291C8146B2
:1040400019980AF09AFC211C824612980AF095FCF5
:10405000011C50460AF07AFC5946824608980AF03C
:104060008CFC011C50460AF071FC011C48460AF009
:104070006DFC049A91680AF069FC414633902F98D0
:104080000AF07BFC391C814628980AF076FC011C5A
:1040900048460AF05BFC0599814621980AF06DFCC0
:1040A000011C48460AF052FC291C81461A980AF065
:1040B00064FC211C824613980AF05FFC011C5046E8
:1040C0000AF044FC594682460C980AF056FC011C42
:1040D00050460AF03BFC011C48460AF037FC049AA3
:1040E000D1680AF033FC4146349030980AF045FC20
:1040F000391C814629980AF040FC011C48460AF008
:1041000025FC0599814622980AF037FC011C484697
:104110000AF01CFC291C81461B980AF02EFC211C6D
:10412000824614980AF029FC011C50460AF00EFC45
:10413000594682460D980AF020FC011C50460AF0B0
:1041400005FC011C48460AF001FC049A11690AF0BA
:10415000FDFB4146359031980AF00FFC391C814631
:104160002A980AF00AFC011C48460AF0EFFB059960
:10417000814623980AF001FC011C48460AF0E6FB40
:10418000291C81461C980AF0F8FB211C82461598D0
:104190000AF0F3FB011C50460AF0D8FB5946824650
:1041A0000E980AF0EAFB011C50460AF0CFFB011CF6
:1041B00048460AF0CBFB049A51690AF0C7FB211C60
:1041C000369016980AF0D9FB291C81461D980AF0F2
:1041D000D4FB011C48460AF0B9FB594681460F98AA
:1041E0000AF0CBFB011C48460AF0B0FB391C8146A3
:1041F0002B980AF0C2FB4146824632980AF0BDFB7A
:10420000011C50460AF0A2FB0599824624980AF048
:10421000B4FB011C50460AF099FB011C48460AF009
:1042200095FB049A91690AF091FB414681462C98CE
:104230000AF0A3FB391C804625980AF09EFB011C5E
:1042400040460AF083FB0599071C1E980AF095FB6F
:10425000011C381C0AF07AFB291C071C17980AF06D
:104260008CFB211C051C10980AF087FB011C281CE4
:104270000AF06CFB5946041C06980AF07EFB011CF0
:10428000201C0AF063FB011C381C0AF05FFB049A37
:10429000FDAC11680AF05AFB099B0B9A18605A6032
:1042A000339A9A60349ADA60359A1A61369A5A616A
:1042B0004A469A613368CC937368CD93B368CE93C2
:1042C000F368CF933369D0937369D193B369D29371
:1042D000F369D393336AD493736AD593B36AD6934D
:1042E000F36AD793336BD893736BD993B36BDA9329
:1042F000F36BDB93336CDC93736CDD93B36CDE9305
:10430000F36CDF93336DE093736DE193B36DE293E0
:10431000F36DE393336EE493736EE593B36EE693BC
:10432000F36EE793336FE893736FE993B36FEA9398
:10433000F36FEB938023F358EC9307E0F81E032010
:10434000001F0320FC1E03200AE81C418423F358AD
:10435000ED938823F358EE938C23F358EF93902337
:10436000F358F0939423F358F1939823F358F2936E
:104370009C23F3580B96F393A023F358F493A423B0
:10438000F358F593A823F358F693AC23F358F79317
:10439000B023F358F893B423F358F993B823F358A0
:1043A000FA93BC23F358FB93C023F358FC930A9B66
:1043B00010985A681F6891469A6849469046DA688C
:1043C0001E695D6905920AF0D8FA4146824617983F
:1043D0000AF0D3FA011C50460AF0B8FA391C82469A
:1043E00006980AF0CAFA011C50460AF0AFFA311CCE
:1043F000824625980AF0C1FA291C83462C980AF0B7
:10440000BCFA011C58460AF0A1FA059983461E9889
:104410000AF0B3FA011C58460AF098FA011C5046FB
:104420000AF094FA4946206011980AF0A6FA41462B
:10443000824618980AF0A1FA011C50460AF086FA42
:10444000391C824607980AF098FA011C50460AF077
:104450007DFA311C824626980AF08FFA291C834681
:104460002D980AF08AFA011C58460AF06FFA05994D
:1044700083461F980AF081FA011C58460AF066FA32
:10448000011C50460AF062FA4946606012980AF030
:1044900074FA4146824619980AF06FFA011C504698
:1044A0000AF054FA391C824608980AF066FA011C90
:1044B00050460AF04BFA311C824627980AF05DFA02
:1044C000291C83462E980AF058FA011C58460AF017
:1044D0003DFA0599834620980AF04FFA011C584688
:1044E0000AF034FA011C50460AF030FA4946A0603E
:1044F00013980AF042FA414682461A980AF03DFAA9
:10450000011C50460AF022FA391C82460C980AF027
:1045100034FA011C50460AF019FA311C82462898D8
:104520000AF02BFA291C83462F980AF026FA011C60
:1045300058460AF00BFA0599834621980AF01DFAAD
:10454000011C58460AF002FA011C50460AF0FEF916
:104550004946E06014980AF010FA414682461B98DA
:104560000AF00BFA011C50460AF0F0F9391C824699
:104570000D980AF002FA011C50460AF0E7F9311CC6
:10458000824629980AF0F9F9291C834630980AF0E6
:10459000F4F9011C58460AF0D9F905998346229886
:1045A0000AF0EBF9011C58460AF0D0F9011C5046FC
:1045B0000AF0CCF94946206115980AF0DEF9414627
:1045C00082461C980AF0D9F9011C50460AF0BEF93F
:1045D000391C82460E980AF0D0F9011C50460AF0A8
:1045E000B5F9311C82462A980AF0C7F9291C83467E
:1045F00031980AF0C2F9011C58460AF0A7F905994A
:10460000834623980AF0B9F9011C58460AF09EF92E
:10461000011C50460AF09AF94946606116980AF062
:10462000ACF9414681461D980AF0A7F9011C48469D
:104630000AF08CF9391C80460F980AF09EF9011C8B
:1046400040460AF083F9311C071C2B980AF095F9B3
:10465000291C061C32980AF090F9011C301C0AF043
:1046600075F90599051C24980AF087F9011C281C86
:104670000AF06CF9011C381C0AF068F90A9BA06169
:1046800018330A93FFAB1C34BC33A34200D08EE630
:10469000C4239C460B9ECCADB444634634003C9688
:1046A0000A9308962369A6699846E36821689946A3
:1046B000A36862680793FFABA0330591301C1968AB
:1046C00006920AF05AF96769FFAB8433196882468B
:1046D000381C0AF052F9011C50460AF037F9FFABBA
:1046E000996E8246404668330AF047F9FFABD96CB1
:1046F000834648464C330AF040F9011C58460AF0FC
:1047000025F9011C50460AF021F9FFAB196B8246CE
:10471000079830330AF031F9FFAB596983460698A0
:1047200014330AF02AF9011C58460AF00FF9FD99D2
:10473000834605980AF021F9011C58460AF006F94B
:10474000011C50460AF002F9011C28680AF0FBF827
:10475000FFABA43328601968301C0AF00EF9FFABD8
:10476000883319688246381C0AF007F9011C504644
:104770000AF0ECF8FFABD96E824640466C330AF083
:10478000FCF8FFAB196D8346484650330AF0F5F844
:10479000011C58460AF0DAF8011C50460AF0D6F817
:1047A000FFAB596B8246079834330AF0E6F8FFAB4B
:1047B00099698346069818330AF0DFF8011C5846B9
:1047C0000AF0C4F8FE99834605980AF0D6F8011C51
:1047D00058460AF0BBF8011C50460AF0B7F8011C15
:1047E00068680AF0B0F8FFABA83319686860301C3D
:1047F0000AF0C3F8FFAB8C3319688246381C0AF004
:10480000BCF8011C50460AF0A1F8FFAB8246196FB4
:10481000404670330AF0B1F8FFAB596D8346484605
:1048200054330AF0AAF8011C58460AF08FF8011C0C
:1048300050460AF08BF8FFAB996B824607983833E5
:104840000AF09BF8FFABD969834606981C330AF03F
:1048500094F8011C58460AF079F8FF9983460598A8
:104860000AF08BF8011C58460AF070F8011C5046FB
:104870000AF06CF8011CA8680AF065F8FFABAC33CD
:104880001968A860301C0AF078F8FFAB90331968FB
:104890008246381C0AF071F8011C50460AF056F89E
:1048A000FFAB596F8246404674330AF066F8FFAB9F
:1048B000996D8346484658330AF05FF8011C584604
:1048C0000AF044F8011C50460AF040F8FFAB82465B
:1048D000D96B07983C330AF050F8FFAB196A83464E
:1048E000069820330AF049F8011C58460AF02EF8C1
:1048F000FFAB59688346059804330AF03EF8011C63
:1049000058460AF023F8011C50460AF01FF8011C13
:10491000E8680AF018F8FFABB0331968E860301C9B
:104920000AF02BF8FFAB943319688246381C0AF062
:1049300024F8011C50460AF009F8FFAB996F824633
:10494000404678330AF019F8FFABD96D83464846E4
:104950005C330AF012F8011C584609F0F7FF011CFD
:10496000504609F0F3FFFFAB196C824607984033BD
:104970000AF003F8FFAB596A83460698243309F01E
:10498000FCFF011C584609F0E1FFFFAB9968834624
:104990000598083309F0F1FF011C584609F0D6FFCD
:1049A000011C504609F0D2FF011C286909F0CBFF19
:1049B000FFABB43319682861301C09F0DEFFFFAB90
:1049C000983319688246381C09F0D7FF011C5046FD
:1049D00009F0BCFFFFABD96F824640467C3309F03B
:1049E000CCFFFFAB196E83464846603309F0C5FF24
:1049F000011C584609F0AAFF011C504609F0A6FF09
:104A0000FFAB596C82460798443309F0B6FFFFAB01
:104A1000996A83460698283309F0AFFF011C58466F
:104A200009F094FFFFABD968834605980C3309F071
:104A3000A4FF011C584609F089FF011C504609F0EB
:104A400085FF011C686909F07EFFFFAB596E686144
:104A50004846643309F091FFFFAB80331968814603
:104A6000404609F08AFF011C484609F06FFFFFAB82
:104A70009C3319688046381C09F07FFFFFABB833C0
:104A80001968071C301C09F078FF011C381C09F05C
:104A90005DFF011C404609F059FFFFABD96A061CB7
:104AA00006982C3309F069FFFFAB996C071C079837
:104AB000483309F062FF011C381C09F047FFFFABC7
:104AC0001969071C0598103309F057FF011C381CA1
:104AD00009F03CFF011C301C09F038FF011CA869DB
:104AE00009F031FF0A9B1C34A8611C359C4200D0A0
:104AF000D8E5089ECC9B3360CD9B7360CE9BB360A2
:104B0000CF9BF360D09B3361D19B7361D29BB36128
:104B1000D39BF361D49B3362D59B7362D69BB36204
:104B2000D79BF362D89B3363D99B7363DA9BB363E0
:104B3000DB9BF363DC9B3364DD9B7364DE9BB364BC
:104B4000DF9BF364E09B3365E19B7365E29BB36598
:104B5000E39BF365E49B3366E59B7366E69BB36674
:104B6000E79BF366E89B3367E99B7367EA9BB36750
:104B7000EB9BF3678023EC9AF250ED9A0433F250EA
:104B8000EE9A0433F250EF9A0433F250F09A043361
:104B9000F250F19A0433F250F29A0433F250F39A3D
:104BA0000433F250F49A0433F250F59A0433F2507D
:104BB000F69A0433F250F79A0433F250F89A043319
:104BC000F250F99A0433F250FA9A0433F250FB9AF5
:104BD0000433F250FC9A0433F2503AAA8D239446DF
:104BE0001B0163441B68CCAA13CB13C28E231B0189
:104BF00063441B68FDAC07CB07C4049B099D00936D
:104C0000494B28006344CCA91B68FDAAFCF7A0F817
:104C10002B00FDAA23CB23C2220013CB13C21B6897
:104C20003AA913608D238C463EAA11001B016344F0
:104C30001B6831CB31C18E231B0163441B68CCA997
:104C400031CB31C1384BFDA963441B689BA800934D
:104C5000CCABFCF7E3FAFDAB08931C009B9B0B93DA
:104C6000A29B1293A99B1993B09B2093B79B279368
:104C7000BE9B2E93C59B35939C9B0C93A39B139338
:104C8000AA9B1A93B19B2193B89B2893BF9B2F9308
:104C9000C69B36939D9B0D93A49B1493AB9B1B9338
:104CA000B29B2293B99B2993C09B3093C79B3793A8
:104CB0009E9B0E93A59B1593AC9B1C93B39B239338
:104CC000BA9B2A93C19B3193C89B38939F9B0F93A8
:104CD000A69B1693AD9B1D93B49B2493BB9B2B93D8
:104CE000C29B3293C99B3993A09B1093A79B1793A8
:104CF000AE9B1E93B59B2593BC9B2C93C39B339378
:104D0000CA9B3A93A19B1193A89B1893AF9B1F93A7
:104D1000B69B2693BD9B2D93C49B3493CB9B3B9317
:104D20003C9B3C96984601E0E40800004146C96877
:104D300040468946414642464346866909691B68A2
:104D40005568926847690791301C3599059306921A
:104D500009F013FE2E998246381C09F00EFE011C44
:104D6000504609F0F3FD27998246079809F005FEA1
:104D700020998346484609F000FE011C584609F078
:104D8000E5FD011C504609F0E1FD1999824606989F
:104D900009F0F3FD12998346281C09F0EEFD011C71
:104DA000584609F0D3FD0B998346059809F0E5FDB7
:104DB000011C584609F0CAFD011C504609F0C6FD09
:104DC00036992060301C09F0D8FD2F998246381C96
:104DD00009F0D3FD011C504609F0B8FD2899824620
:104DE000079809F0CAFD21998346484609F0C5FD98
:104DF000011C584609F0AAFD011C504609F0A6FD09
:104E00001A998246069809F0B8FD13998346281C22
:104E100009F0B3FD011C584609F098FD0C99834632
:104E2000059809F0AAFD011C584609F08FFD011CE8
:104E3000504609F08BFD311C6060379809F09DFDEC
:104E4000391C8246309809F098FD011C504609F043
:104E50007DFD29998246079809F08FFD22998346A6
:104E6000484609F08AFD011C584609F06FFD011CF7
:104E7000504609F06BFD1B998246069809F07DFDAE
:104E800014998346281C09F078FD011C584609F046
:104E90005DFD0D998346059809F06FFD011C58468C
:104EA00009F054FD011C504609F050FD311CA06072
:104EB000389809F062FD391C8246319809F05DFD91
:104EC000011C504609F042FD079982462A9809F0D4
:104ED00054FD49468346239809F04FFD011C58466E
:104EE00009F034FD011C504609F030FD0699824658
:104EF0001C9809F042FD291C8346159809F03DFDD8
:104F0000011C584609F022FD059983460E9809F0C8
:104F100034FD011C584609F019FD011C504609F0EA
:104F200015FD311CE060399809F027FD391C8246D7
:104F3000329809F022FD011C504609F007FD07993F
:104F400082462B9809F019FD49468346249809F0BA
:104F500014FD011C584609F0F9FC011C504609F0EB
:104F6000F5FC069982461D9809F007FD291C834629
:104F7000169809F002FD011C584609F0E7FC059956
:104F800083460F9809F0F9FC011C584609F0DEFC35
:104F9000011C504609F0DAFC311C20613A9809F0F6
:104FA000ECFC391C8246339809F0E7FC011C5046A2
:104FB00009F0CCFC079982462C9809F0DEFC4946A2
:104FC0008346259809F0D9FC011C584609F0BEFC1F
:104FD000011C504609F0BAFC069982461E9809F059
:104FE000CCFC291C8346179809F0C7FC011C5846C5
:104FF00009F0ACFC05998346109809F0BEFC011C31
:10500000584609F0A3FC011C504609F09FFC494694
:105010006061269809F0B1FC079981462D9809F046
:10502000ACFC011C484609F091FC391C81463498BF
:1050300009F0A3FC311C071C3B9809F09EFC011CE5
:10504000381C09F083FC011C484609F07FFC291C30
:10505000061C189809F091FC0699051C1F9809F088
:105060008CFC011C281C09F071FC0599051C119889
:1050700009F083FC011C281C09F068FC011C301C91
:1050800009F064FC1C239C460A9BE044A0611C348C
:10509000984500D04AE6FFAB84333C9E0793FFABB4
:1050A000CCAC14333C940A933D96089B1A68586D17
:1050B0000592079A996BD6698146186F06918046CA
:1050C000311C3598DD69176809F057FC391C824698
:1050D0002E9809F052FC011C504609F037FC41465D
:1050E0008246279809F049FC20998346484609F0F2
:1050F00044FC011C584609F029FC011C504609F0EB
:1051000025FC19998246069809F037FC12998346C6
:10511000281C09F032FC011C584609F017FC0B99B9
:105120008346059809F029FC011C584609F00EFC3D
:10513000011C504609F00AFC311C2060369809F029
:105140001CFC391C82462F9809F017FC011C5046A4
:1051500009F0FCFB41468246289809F00EFC4946BE
:105160008346219809F009FC011C584609F0EEFB22
:10517000011C504609F0EAFB069982461A9809F08C
:10518000FCFB291C8346139809F0F7FB011C5846C9
:1051900009F0DCFB059983460C9809F0EEFB011C35
:1051A000584609F0D3FB011C504609F0CFFB311CD7
:1051B0006060379809F0E1FB391C8246309809F0AD
:1051C000DCFB011C504609F0C1FB41468246299890
:1051D00009F0D3FB49468346229809F0CEFB011C17
:1051E000584609F0B3FB011C504609F0AFFB069985
:1051F00082461B9809F0C1FB291C8346149809F0CC
:10520000BCFB011C584609F0A1FB059983460D988B
:1052100009F0B3FB011C584609F098FB011C5046ED
:1052200009F094FB311CA060389809F0A6FB391CEA
:105230008246319809F0A1FB011C504609F086FB1B
:10524000414682462A9809F098FB494683462398AE
:1052500009F093FB011C584609F078FB011C5046ED
:1052600009F074FB069982461C9809F086FB291CFC
:105270008346159809F081FB011C584609F066FB2E
:10528000059983460E9809F078FB011C584609F0F1
:105290005DFB011C504609F059FB311CE060399858
:1052A00009F06BFB391C8246329809F066FB011C41
:1052B000504609F04BFB414682462B9809F05DFBB6
:1052C00049468346249809F058FB011C584609F0CA
:1052D0003DFB011C504609F039FB069982461D989A
:1052E00009F04BFB291C8346169809F046FB011C6C
:1052F000584609F02BFB059983460F9809F03DFBB2
:10530000011C584609F022FB011C504609F01EFB07
:10531000311C20613A9809F030FB391C82463398E1
:1053200009F02BFB011C504609F010FB4146824658
:105330002C9809F022FB49468346259809F01DFB6D
:10534000011C584609F002FB011C504609F0FEFA08
:10535000069982461E9809F010FB291C834617986F
:1053600009F00BFB011C584609F0F0FA0599834639
:10537000109809F002FB011C584609F0E7FA011CDD
:10538000504609F0E3FA49466061269809F0F5FABB
:10539000414681462D9809F0F0FA011C484609F073
:1053A000D5FA391C8046349809F0E7FA311C071CFD
:1053B0003B9809F0E2FA011C381C09F0C7FA011CFD
:1053C000404609F0C3FA291C061C189809F0D5FAC2
:1053D0000699051C1F9809F0D0FA011C281C09F039
:1053E000B5FA0599051C119809F0C7FA011C281C8B
:1053F00009F0ACFA011C301C09F0A8FA079A089BC6
:10540000043207920A9A0433A06108931C349A422A
:1054100000D04AE63AAA9446744B744A63441B6827
:1054200062441B6812680893704B3D9E63441B687E
:10543000FDACDB690A936D4B63441B689B6B0B935C
:105440006A4B63441B685B6D0C93684B63441B6839
:105450001B6F0D938C23D358644A0E93634B6244A5
:1054600063441B685B680F93604B63441B681B6A53
:1054700010935E4B63441B68DB6B11935B4B63447F
:105480001B689B6D1293594B63441B685B6F1268DA
:1054900013939023D358554A1493544B6244634456
:1054A0001B6812689B681593504B63441B685B6ACA
:1054B00016934E4B63441B681B6C17934B4B634412
:1054C0001B68DB6D1893494B63441B689B6F1993F2
:1054D0009423D358454A1A93444B624463441B684F
:1054E000DB681B93414B63441B689B6A1C933F4BD7
:1054F00063441B685B6C1D933C4B63441B681268E0
:105500001B6E1E93394B63441B68DB6F1F939823FC
:10551000D358364A2093354B624463441B68126863
:105520001B692193314B63441B68DB6A22932F4B29
:1055300063441B689B6C23932C4B63441B685B6E1A
:1055400024938023D358294A25939C2362441268CC
:10555000D358264A2693254B624463441B685B69F3
:105560002793224B63441B681B6B28931F4B1268C5
:1055700063441B68DB6C29931C4B63441B689B6E64
:105580002A938423D358194A2B93A0236244126888
:10559000D358164A2C93154B624463441B68126817
:1055A0009B692D93114B63441B685B6B2E930F4BD0
:1055B00063441B681B6D2F930C4B63441B68DB6EAD
:1055C00030938823D358094A3193A4236244126844
:1055D000D3583293064B63441B689846FDAB079340
:1055E000902343443393349604E0C046DC08000023
:1055F000D408000043461F685B684246994643460C
:1056000041469B68D2680E694D6948460A990593E0
:10561000069209F0B2F90B998246059809F0ADF9A6
:10562000011C504609F092F908998246381C09F08D
:10563000A4F9011C504609F089F90D998246301CE5
:1056400009F09BF90E998346281C09F096F9011C74
:10565000584609F07BF90C998346069809F08DF9B4
:10566000011C584609F072F9011C504609F06EF908
:1056700010992060484609F080F9119982460598F2
:1056800009F07BF9011C504609F060F90F99824638
:10569000381C09F072F9011C504609F057F91399AA
:1056A0008246301C09F069F914998346281C09F0D8
:1056B00064F9011C584609F049F912998346069885
:1056C00009F05BF9011C584609F040F9011C5046ED
:1056D00009F03CF916996060484609F04EF91799AF
:1056E0008246059809F049F9011C504609F02EF947
:1056F00015998246381C09F040F9011C504609F002
:1057000025F919998246301C09F037F91A99834610
:10571000281C09F032F9011C584609F017F91899AC
:105720008346069809F029F9011C584609F00EF93C
:10573000011C504609F00AF9A0601C99484609F07E
:105740001CF91D998246059809F017F9011C50466D
:1057500009F0FCF81B998246381C09F00EF9011C6F
:10576000504609F0F3F81F998246301C09F005F9FC
:1057700020998346281C09F000F9011C584609F0BD
:10578000E5F81E998346069809F0F7F8011C58467B
:1057900009F0DCF8011C504609F0D8F82299E060C5
:1057A000484609F0EAF823998246059809F0E5F899
:1057B000011C504609F0CAF821998246381C09F0AC
:1057C000DCF8011C504609F0C1F825998246301CCE
:1057D00009F0D3F826998346281C09F0CEF8011C5D
:1057E000584609F0B3F824998346069809F0C5F89D
:1057F000011C584609F0AAF8011C504609F0A6F809
:1058000028992061484609F0B8F8299982460598F8
:1058100009F0B3F8011C504609F098F82799824620
:10582000381C09F0AAF8011C504609F08FF82B9992
:105830008246301C09F0A1F82C998346281C09F0F7
:105840009CF8011C584609F081F82A99834606986D
:1058500009F093F8011C584609F078F8011C5046ED
:1058600009F074F82E996061484609F086F82F997E
:105870008146059809F081F8011C484609F066F850
:105880002D998146381C09F078F8011C484609F02A
:105890005DF83199071C301C09F06FF83299061C2D
:1058A000281C09F06AF8011C301C09F04FF83099E7
:1058B000051C069809F061F8011C281C09F046F83F
:1058C000011C381C09F042F818239C46339BE04425
:1058D000A0611C34434500D08CE6FFAB84330693B3
:1058E000FFAB14333C9C3393079B0D99DA691E6F11
:1058F00091469A6B301C90465A6D1F680592069A25
:1059000020CA069209F039F80E998246281C09F03F
:1059100034F8011C504609F019F80C998246059894
:1059200009F02BF8011C504609F010F80A9982463C
:10593000484609F022F80B998346404609F01DF8C5
:10594000011C584609F002F808998346381C09F0F2
:1059500014F8011C584608F0F9FF011C504608F0E5
:10596000F5FF011C206808F0F1FF109920604846FF
:1059700009F003F811998246404608F0FEFF011C29
:10598000504608F0E3FF0F998246381C08F0F5FFF7
:10599000011C504608F0DAFF13998246301C08F0CB
:1059A000ECFF14998346281C08F0E7FF011C5846B9
:1059B00008F0CCFF12998346059808F0DEFF011C21
:1059C000584608F0C3FF011C504608F0BFFF011CF9
:1059D000606808F0BBFF16996060484608F0CDFF8C
:1059E00017998246404608F0C8FF011C504608F04F
:1059F000ADFF15998246381C08F0BFFF011C5046C8
:105A000008F0A4FF19998246301C08F0B6FF1A99D5
:105A10008346281C08F0B1FF011C584608F096FF89
:105A200018998346059808F0A8FF011C584608F00D
:105A30008DFF011C504608F089FF011CA06808F08A
:105A400085FF1C99A060484608F097FF1D99824683
:105A5000404608F092FF011C504608F077FF1B9962
:105A60008246381C08F089FF011C504608F06EFF82
:105A70001F998246301C08F080FF20998346281C1D
:105A800008F07BFF011C584608F060FF1E99834612
:105A9000059808F072FF011C584608F057FF011CDA
:105AA000504608F053FF011CE06808F04FFF2299B0
:105AB000E060484608F061FF23998246404608F0BE
:105AC0005CFF011C504608F041FF21998246381CBA
:105AD00008F053FF011C504608F038FF2599824614
