:020000041000EA
:1000000000B5324B212058609868022188439860DF
:10001000D860186158612E4B002199600221596106
:100020000121F02299502B49196001219960352056
:1000300000F044F80222904214D00621196600F024
:1000400034F8196E01211966002018661A6600F04E
:100050002CF8196E196E196E052000F02FF8012189
:100060000842F9D1002199601B49196000215960AB
:100070001A491B48016001219960EB211966A021F2
:10008000196600F012F800219960164914480160C1
:100090000121996001BC002800D000471248134993
:1000A000086003C880F30888084703B5996A0420EC
:1000B0000142FBD001200142F8D103BD02B5186610
:1000C0001866FFF7F2FF186E186E02BD00000240BE
:1000D000000000180000070000035F00212200005C
:1000E000F4000018222000A00001001008ED00E03C
:1000F00000000000000000000000000074B24E7A12
:1001000000200420F7010010C3010010C5010010F9
:10011000C1010010C1010010C1010010C101001097
:10012000C1010010C1010010C1010010C701001081
:10013000C1010010C1010010C9010010CB01001065
:10014000CD010010CD010010CD010010CD01001037
:10015000CD010010CD010010CD010010CD01001027
:10016000CD010010CD010010CD010010CD01001017
:10017000CD010010CD010010CD010010CD01001007
:10018000CD010010CD010010CD010010CD010010F7
:10019000CD010010CD010010CD010010CD010010E7
:1001A000CD010010CD010010CD010010CD010010D7
:1001B000CD010010CD010010CD010010CD010010C7
:1001C00000BE00BE00BE00BE00BE00BEEFF3058054
:1001D000103800BEF2EB88716835051088350510BF
:1001E0003402001090A31AE700201F49086006C8D7
:1001F00081F3088810471D48006800282FD10DA4FE
:100200000ECC002902D000F012F8F9E71849194A7B
:10021000002000E001C19142FCD1174988471749ED
:1002200088471749884700BEFDE701C901C29A42C5
:10023000FBD3704788350510C0000020F82C002043
:10024000C06105100000042000000420C0610510FA
:10025000001004200010042000000000704709482E
:100260000CF0FAFA0047000008ED00E0000000D0B2
:10027000002D00208C5803209DAF00105503001066
:10028000D1B000105756000006005250ABB3605377
:100290005893041006005250861C03026893041001
:1002A000060052505422A29D74930410050052502F
:1002B000DE65F468C0610510F8B5C0460448054B1A
:1002C00010B5834203D0044B002B00D0984710BDDB
:1002D000F82C0020F82C00200000000006480749F8
:1002E000091A8B10C90FC91810B5491003D0044B57
:1002F000002B00D0984710BDF82C0020F82C0020CF
:100300000000000010B5074C2378002B09D1FFF73F
:10031000D5FF054B002B02D0044800E000BF0123AD
:10032000237010BD482F002000000000C88E04106C
:10033000054B10B5002B03D00449054800E000BF71
:10034000FFF7CCFF10BDC046000000004C2F00207E
:10035000C88E041070B5192009F0CEF9D023802280
:100360001B0692045A620DF05BFE00F045F806F0A1
:100370009FFD08F039F806F047FF00220524144BD2
:100380001A7006F09DF9134D013C210028000DF074
:100390003BFEFA20800009F0BBFF002CF4D10A20BC
:1003A0000DF090FC012200210B4809F06DFC0B4878
:1003B00010F012F801220A4B0A4C1A702378012B14
:1003C000FCD108F0CDF92378012BFAD0F6E7C0462E
:1003D000AC550320C88E04103C550320058B00103B
:1003E000AB550320AF55032010B5024810F01CFB9D
:1003F00010BDC046F4360320092370B586B00593BE
:1004000004330493023B0393013B0293023B324DBE
:10041000324C0193324B22003249334800932B0077
:1004200005F00CFE142005F005FEFA20800009F00E
:100430006FFF2E4E21003200280006F017F83378A7
:10044000682B08D02A4C20000DF088FCFA20800090
:1004500009F05EFFF7E773783D2BF3D1012221000D
:10046000280006F027F8234E32002100280006F06D
:100470005BF83378002BF7D101222100280005F02A
:10048000D7FE0121200005F0B5FE0321200005F074
:1004900047FE0321280005F071FF1321200006F01C
:1004A000B1F81221200006F0EBF80021200006F040
:1004B000C9F80321200006F053F80221200006F0BD
:1004C0006BF85521200005F049FE1821280005F0A1
:1004D000EFFE06B070BDC046E41E0320C830002009
:1004E00040420F001C21002014210020A0550320B1
:1004F000DC8E0410BE550320F0B5C646334C344D97
:10050000344E22002900300000B505F0C1FF6378A9
:10051000DB439B0720D023781B0702D404BC904602
:10052000F0BD2D4C0622002120000DF0A5FA21007F
:10053000300005F07DFF0023E05E05F0E7FD274D6C
:1005400028600223E05E05F0E1FD68600423E05EC0
:1005500005F0DCFDA860E1E7214B06229846180073
:1005600000210DF089FA1F4F0622002138000DF0FE
:1005700083FA4146280005F03DFF3900280005F0C8
:100580001BFF43460020185E05F0ACFD4346164DA8
:1005900028600220185E05F0A5FD4346686004202F
:1005A000185E05F09FFDA8600023F85E05F0A4FD2D
:1005B0000E4D28600223F85E05F09EFD686004235E
:1005C000F85E05F099FDA860A5E7C046504B0320F2
:1005D000C8300020E41E0320143C03209C4003206C
:1005E000043C03200C3C0320A83A0320C43A032017
:1005F000F0B55746DE464E464546E0B58BB008910D
:100600009246190005900993DA1703238C4613408C
:1006100063449B109B009846002B00DC8FE0524601
:10062000159B00249B000193149B00259B1A159A8F
:100630009B1A089A9B00029353681268190194460A
:1006400006929A0003925246013A920007920022C3
:1006500091465A000491DF005146D3189B00424650
:100660009B4623008E0066440092019A94469C4467
:10067000039B5C19D8195346002B1EDD069B059978
:100680005A196346884600999B0043448846009562
:10069000116819600099511A0D5904325D60CD59E5
:1006A0009D600958D96010339642F1D14346079AAC
:1006B00000936346944604339C440422029B5C44AA
:1006C00063449446049AE1449446009A58442500B1
:1006D000070066444A45C8DC1C009046099B434518
:1006E00026DD149A1598089B151A52460ACBAD1AA6
:1006F000002A1DDD42469E0053439B00C918534605
:100700009800059B47469C46099BAB469846159B1F
:10071000994600234C44A2006244CD58D55004337E
:100720009842FAD1544401375C448919B845F0D154
:100730000BB03CBC90469946A246AB46F0BD0024A7
:10074000CCE7C046F0B5CE46474680B5002B1DDD50
:10075000002A1BDD940000190C680025A0464C6897
:100760009100D200494252428C469146A400614613
:1007700046183100AA0042441768121980C181420C
:10078000FAD14A460135B01AAB42F0D10CBC9046C2
:100790009946F0BDF0B5DE4657464E464546E0B5B3
:1007A00099B00B9024980C93259B013001D122988D
:1007B0002490581C00D1229B2398C417032020406A
:1007C000239CA4466044801085000720229C02954B
:1007D0008443200001940C9C002C00DC85E20091F5
:1007E000190113912699249C090151181691411E53
:1007F000C9080131C8014901099199001791269949
:100800006B438C4663449B00D31812930023A400CF
:10081000149415900493029B002B00DCC1E1099A0B
:10082000009B944663441193169B03930023059306
:100830000598049C0100A4460B9B039E0CCB5943D6
:100840006144890051180D91411C5943614489004C
:1008500051180E91811C59436144890051180F9120
:10086000C11C4B4363449B00D3181093019B34007D
:10087000002B00DC44E2009B002598460023444600
:10088000A946AA46AB46A846079506952F1C08958B
:100890000A9325683168281C0CF06DFF59460CF04E
:1008A00053FF71688346281C0CF065FF51460CF01D
:1008B0004BFFB1688246281C0CF05DFF49460CF0E6
:1008C00043FFF1688146281C0CF055FF08990CF095
:1008D0003BFF089065683169281C0CF04CFF391CFF
:1008E0000CF032FF7169071C281C0CF044FF0699BC
:1008F0000CF02AFFB1690690281C0CF03CFF079908
:100900000CF022FFF1690790281C0CF034FF4146DF
:100910000CF01AFF8046A568316A281C0CF02BFFEA
:1009200059460CF011FF716A8346281C0CF023FF16
:1009300051460CF009FFB16A8246281C0CF01BFFDF
:1009400049460CF001FFF16A8146281C0CF013FFA8
:1009500008990CF0F9FE0890E568316B281C0CF042
:100960000AFF391C0CF0F0FE716B071C281C0CF000
:1009700002FF06990CF0E8FEB16B0690281C0CF003
:10098000FAFE07990CF0E0FEF16B0790281C0CF0C2
:10099000F2FE41460CF0D8FE80462569316C281CD9
:1009A0000CF0E9FE59460CF0CFFE716C8346281C12
:1009B0000CF0E1FE51460CF0C7FEB16C8246281CDB
:1009C0000CF0D9FE49460CF0BFFEF16C8146281CA4
:1009D0000CF0D1FE08990CF0B7FE08906569316DF6
:1009E000281C0CF0C8FE391C0CF0AEFE716D071C03
:1009F000281C0CF0C0FE06990CF0A6FEB16D069006
:100A0000281C0CF0B8FE07990CF09EFEF16D0790C3
:100A1000281C0CF0B0FE41460CF096FE8046A569FD
:100A2000316E281C0CF0A7FE59460CF08DFE716E3D
:100A30008346281C0CF09FFE51460CF085FEB16EDB
:100A40008246281C0CF097FE49460CF07DFEF16EA4
:100A50008146281C0CF08FFE08990CF075FE08905A
:100A6000E569316F281C0CF086FE391C0CF06CFE19
:100A7000716F071C281C0CF07EFE06990CF064FEBA
:100A8000B16F0690281C0CF076FE07990CF05CFE06
:100A9000F16F0790281C0CF06EFE41460CF054FEDE
:100AA0008046803620340A9B019A08330A939A4282
:100AB00000DDEEE6159A039B944659466344381CC4
:100AC0001C000CF041FE5146071C06980CF03CFE41
:100AD0004946061C07980CF037FE089981464046A7
:100AE0000CF032FE119B051C9B46229B1900019BBA
:100AF000994230DD9A46A8465B4620CB2168281CE7
:100B00009B460CF038FE011C381C0CF01DFE616881
:100B1000071C281C0CF02FFE011C301C0CF014FECE
:100B2000A168061C281C0CF026FE011C48460CF08F
:100B30000BFEE1688146281C0CF01DFE011C40469E
:100B40000CF002FE804601239C46229BE2441034B6
:100B50005345D1D1051C311C0E9E30680CF0F1FDBF
:100B6000391C0D9F041C38680CF0EBFD291C109DEE
:100B70003860346028680CF0E4FD0F9E4946041C80
:100B800030680CF0DEFD1399039A8C46059B624495
:100B90000392029A0433306005932C609A4200DD80
:100BA00046E6239B029A934200DC92E0099A009B5E
:100BB000944663440593029B129D98460B9B9B466B
:100BC0005B465E6843465E43049BA9469C465B4683
:100BD0001A6866449446B600019B66440396002B4F
:100BE00000DC89E000232E0000249A46009F316833
:100BF00038680CF0C0FD211C0CF0A6FD041C7168C7
:100C000078680CF0B8FD211C0CF09EFD041CB16846
:100C1000B8680CF0B0FD211C0CF096FD041CF168C6
:100C2000F8680CF0A8FD211C0CF08EFD041C316945
:100C300038690CF0A0FD211C0CF086FD041C7169C4
:100C400078690CF098FD211C0CF07EFD041CB16944
:100C5000B8690CF090FD211C0CF076FD041CF169C4
:100C6000F8690CF088FD211C0CF06EFD041C203688
:100C7000203708239C46019BE2445345B7DC099B7F
:100C80009946059BA9449A46229B019EB34210DDDA
:100C900000274B46D9595346D8590CF06CFD011C1E
:100CA000201C0CF051FD041C229B01360437B3427A
:100CB000EFD1211C039C20680CF043FD01239C46CE
:100CC000179BE0449C46239B20606544434500D02D
:100CD00076E71499009A8C46049B624400920C9A21
:100CE000013304939A4200D095E519B03CBC90467C
:100CF0009946A246AB46F0BD009B00249A46C3E746
:100D00000025009BA9469B462E1C2F1CEDE6C046E5
:100D100030B587B00C4B02AD00951A686946029257
:100D20009A880400AA809B796A46AB7107230193D5
:100D30000023D3732CF02CFE0098A84201D00CF0B5
:100D4000AFFE200007B030BDF08E0410F0B5DE46D7
:100D500057464E464546E0B50E000168C7688946CD
:100D6000416805698A4681688DB08B464169806912
:100D70000793069050681368926805910A90291CA1
:100D800030680B92099308950CF0DBFC05990390F1
:100D900070680CF0D6FC0699051CB0680CF0D1FC0C
:100DA000804607980CF06AFD80231B069C46039E34
:100DB000009001916644514630000CF0DCFC59462D
:100DC000061C281C0CF0D7FC011C301C0CF0B9FCD4
:100DD000391C061C404604970CF0CDFC011C301C4D
:100DE0000CF0AFFC0CF04AFD0022684B0BF0F5FF55
:100DF000009A019B0BF0F1FF060048460F000CF033
:100E00003DFD02000B0030003900169C0BF0BEFFC8
:100E10000CF0DCF84946206003980CF0ACFC594615
:100E2000061C40460CF0A7FC011C301C0CF08CFC8E
:100E30000499061C281C0CF09EFC011C301C0CF0B4
:100E400080FC0CF01BFD0022504B0BF0C6FF009AFB
:100E5000019B0BF0C2FF060050460F000CF00EFD88
:100E600002000B00300039000BF090FF0CF0AEF8E0
:100E700049466060281C0CF07EFC5146061C40462A
:100E80000CF079FC011C301C0CF05BFC0499061C76
:100E900003980CF070FC011C301C0CF055FC0CF09D
:100EA000EDFC0022394B0BF098FF009A019B0BF0F0
:100EB00094FF060058460F000CF0E0FC02000B0007
:100EC000300039000BF062FF0CF080F84946A0605A
:100ED00040460CF050FC5146061C281C0CF04BFC04
:100EE000011C301C0CF030FC5946051C03980CF01A
:100EF00042FC011C281C0CF024FC0CF0BFFC00225E
:100F0000224B0BF06AFF009A019B0BF066FF060074
:100F100004980F000CF0B2FC02000B003000390006
:100F20000BF034FF0CF052F8089B0999E060181C94
:100F300098460CF020FC079D291C0CF01CFC011CA1
:100F400040460CF0FEFB059F0A992061381C0CF00E
:100F500012FC291C0CF00FFC011C381C0CF0F1FBDE
:100F6000069E0B996061301C0CF005FC291C0CF0EE
:100F700002FC011C301C0CF0E4FBA06100200DB051
:100F80003CBC90469946A246AB46F0BD0000E03F0F
:100F9000F0B5DE4657464E4645468A464168E0B5BE
:100FA0008846C768816891B0066889464046391C02
:100FB000141C04930CF0DFFB4946051C301C0CF09C
:100FC000DAFB0A90011C281C09950CF0BAFB0CF006
:100FD00055FC02000B000BF0D9FE06900791201C77
:100FE00002940CF04BFC0B00020004000D0006986C
:100FF00007990BF0F2FE0BF0E9FF5246391C106026
:1010000048460CF0B8FB83464146301C0CF0B3FB5D
:101010005A460E90011C58460B920CF095FB0CF0B2
:101020002DFC02000B000BF0B1FE02000B002000B3
:1010300029000C920D930BF0D0FE0BF0C7FF544625
:10104000311C6060301C0CF096FB4146041C40468D
:101050000CF091FB051C011C201C0CF072FB494696
:10106000089048460CF087FB391C8346381C0CF06E
:1010700082FB5946019008980CF063FB01990CF033
:1010800063FB02990F900CF076FB5346494698603B
:1010900040460CF070FB391C8046301C0CF06BFB9A
:1010A00081461A980CF0EAFB06001B980F000CF022
:1010B000E5FB02900391291C201C0CF045FB5946CE
:1010C0000CF03FFB01990CF03CFB04990CF053FB36
:1010D0000CF0D4FB04000D00404649460CF034FBF4
:1010E0000CF0CCFB02000B000BF050FE32003B007A
:1010F0000BF073FE02000B00200029000BF046FEEF
:10110000029A039B04000D00069807990BF065FEF8
:1011100002000B00200029000BF038FE0BF056FFF8
:101120005346D86004980CF0A9FB04000D0040461B
:1011300049460CF006FB0CF0A1FB02000B000BF083
:1011400025FE22002B00049405950BF046FE0400BA
:101150000D00089859460CF0F7FA01990CF0F1FAD5
:101160001A990CF008FB0CF089FB02000B00200020
:1011700029000BF00BFE029A039B04000D000C9853
:101180000D990BF02AFE02000B00200029000BF045
:10119000FDFD0BF01BFF53460A99186109980CF0EE
:1011A000D3FA0CF06BFB02000B000BF0EFFD049A7E
:1011B000059B0BF012FE04000D000B980E990CF02D
:1011C000C0FA0CF05BFB02000B000BF0DFFD3200FD
:1011D0003B000BF002FE02000B00200029000BF088
:1011E000D5FD04000D000F981B990CF0C4FA0CF00B
:1011F00045FB02000B00200029000BF0C7FD0BF09F
:10120000E5FE53465861002011B03CBC904699461B
:10121000A246AB46F0BDC046F0B50400DE465746D8
:101220004E4645460800E0B545680968AA46856807
:1012300095B0AB46C5684669876910910E950169FE
:10124000556810689268049690461A68069711923D
:101250005A689B6812921393FE239B05236099465C
:101260000CF06FFA0CF00AFB009001911E980CF044
:1012700005FB06000F00009801990022924B0BF02D
:10128000ACFD32003B000BF0A8FD0BF09FFE049973
:101290000390E061281C0CF054FA0CF0EFFA0022E5
:1012A000894B049005910BF098FD32003B000BF048
:1012B00094FD0BF08BFE0699051CA06340460CF0D4
:1012C00040FA0CF0DBFA00227F4B069007910BF0FE
:1012D00084FD32003B000BF080FD0BF077FE0A909E
:1012E000606550460CF0CAFA0022784B08900991CC
:1012F0000BF073FD32003B000BF06FFD0BF066FE50
:101300000B90206758460CF0B9FA00226F4B0C90F6
:101310000D910BF062FD32003B000BF05EFD0BF017
:1013200055FE8C238246E0500E980CF0A7FA00225E
:10133000664B0E900F910BF050FD32003B000BF00E
:101340004CFD0BF043FEA8238346E050002200989A
:1013500001995E4B0BF041FD32003B000BF03DFD6F
:101360000BF034FE4946009060602162002206982E
:101370000799564B0BF031FD32003B000BF02DFD71
:101380000BF024FEA5658046E06310980CF076FA19
:1013900000224D4B0BF021FD32003B000BF01DFDF8
:1013A0000BF014FE59469023051C60670022E150A3
:1013B0000C980D99444B0BF010FD32003B000BF0E4
:1013C0000CFD0BF003FEAC230022E05004980599BD
:1013D0003E4B0BF002FD32003B000BF0FEFC0BF02D
:1013E000F5FD49460A9A83466262009AA06021642C
:1013F000E2650E980F990022334B0BF0EEFC3200A1
:101400003B000BF0EAFC0BF0E1FD94230B99A06785
:10141000E5501C33E1504146E1605946A16249461E
:1014200021665146039BE16763640898099900228D
:10143000254B0BF0D2FC32003B000BF0CEFC0BF046
:10144000C5FD9823E0501C33E55000251E991198E6
:101450002561E562A56465660CF08DF9011C4846BE
:101460000CF06FF98023E0501C33E5501C33E5503D
:10147000343B1E99129865612563E564A566E550C5
:101480000CF079F9011C48460CF05BF9A023E05000
:101490001C33E550343BA56165632565E566E55081
:1014A0001C33E5501E9913980CF065F9011C484651
:1014B0000CF047F9C023E050002015B03CBC90462A
:1014C0009946A246AB46F0BD0000E0BF0000E03FF9
:1014D000F0B5DE4657464E464546E0B59A460B689F
:1014E000141C8A689B464B68C9688BB00500101CA9
:1014F0008846009301920CF0C1F902900391201CE0
:101500000CF0BCF9C02306000F00029803990022DA
:101510001B060BF062FC32003B000BF05EFC0BF094
:1015200055FD0890286040460CF0A8F902000B0019
:101530000BF02CFC32003B000BF04FFC0BF046FD97
:10154000041CA86158460CF099F9C02300221B0620
:10155000049005910BF041FC32003B000BF03DFC88
:101560000BF034FD286300980CF088F902000B00A2
:10157000069007910BF00AFC32003B000BF02DFCAB
:101580000BF024FD002190238946A8642966A967F1
:10159000E95068600498059902000B000BF0F6FB17
:1015A00032003B000BF019FC0BF010FD6C63049053
:1015B000E8610298039902000B000BF0E7FB320090
:1015C0003B000BF00AFC0BF001FD49469423E86454
:1015D0006966E967E950C02306980799049A1B06D3
:1015E000AA6000220BF0F9FB32003B000BF0F5FB88
:1015F0000BF0ECFC089B4946AB63802328622C650A
:10160000A966E9501833E950404614990CF0B3F834
:10161000019F1599061C381C0CF0ADF85146041CAE
:1016200058460CF0A8F8311C0CF08EF8211C0694DA
:101630000CF087F8011C0CF087F851460990E8601F
:1016400000980CF098F81499041C381C01970CF0C1
:1016500092F8011C201C0CF077F81599041C4046E8
:101660000CF089F8011C201C0CF06EF8011C0CF029
:101670006BF814990290686200980CF07CF8159948
:10168000089058460CF077F8019A80249446240676
:101690006444071C514620000CF06DF808990CF0CA
:1016A00053F8391C0CF04DF8011C0CF04DF814994E
:1016B000E86358460CF05FF81599049000980CF018
:1016C0005AF8802212064244041C514610000CF0C5
:1016D00052F804990CF038F8211C0CF035F8011C74
:1016E0000CF032F84A468423EA666865EA501833FB
:1016F000EA505146286101980CF03DF808990CF029
:1017000020F8391C0CF020F8011C0CF01DF8071C07
:10171000A8628020029B00062B64514658440CF0BE
:101720002AF8311C0CF00DF806990CF00DF8011C8C
:101730000CF00AF88823A86548462867E850183353
:10174000E850514640466F610CF015F804990BF0D3
:10175000F8FF211C0BF0F5FF011C0BF0F5FF099AB7
:10176000E8626A64029B4A46EB654B466B678C23D2
:101770000020EA501833EA500BB03CBC9046994622
:10178000A246AB46F0BDC046F0B54546DE465746DC
:101790004E46E0B53B4CC723A54434AA9446634467
:1017A0001B091B0105938B68049031930B683391DF
:1017B0001A6864462A929A692B921A6B2C929A6C38
:1017C0002D921A6E2E929A6F2F9290229A583092E2
:1017D0005A680692DA6908925A6B0992DA6C0A9290
:1017E0005A6E0B92DA6F0C9294229A580D929A6864
:1017F0000E921A6A0F929A6B10921A6D11929A6E4B
:10180000129280229A58139298229A581492DA6867
:1018100015925A6A1692DA6B17925A6D1892DA6E0E
:10182000199284229A581A929C229A581B921A69E9
:1018300032941C929A6A1D921A6C1E929A6D1F9293
:101840001A6F209288229A582192A0229A582292A6
:101850005A692392DA6A24925A6C2592DA6D26929A
:101860005A6F27928C229A582892A4229B58299327
:101870004B689846C423434407934346E0461C0004
:1018800002E0C046ACFDFFFFE168A268894621691D
:101890002368484603912D99029201930BF06BFF48
:1018A0002E99824603980BF066FF011C50460BF000
:1018B0004BFF676982462F99381C0BF05CFFA669C5
:1018C00083463099301C0BF056FF011C58460BF034
:1018D0003BFF011C50460BF037FF656882462B9991
:1018E000281C0BF048FF2C99834602980BF043FF0D
:1018F000011C58460BF028FF2A99834601980BF0EB
:101900003AFF011C58460BF01FFF011C50460BF01C
:101910001BFF4346494618600A980BF02CFF0399B9
:1019200082460B980BF027FF011C50460BF00CFF72
:10193000391C82460C980BF01EFF311C83460D9813
:101940000BF019FF011C58460BF0FEFE011C50461F
:101950000BF0FAFE291C824608980BF00CFF029946
:10196000834609980BF007FF011C58460BF0ECFE6C
:101970000199834606980BF0FEFE011C58460BF0B9
:10198000E3FE011C50460BF0DFFE4346494658601B
:1019900011980BF0F0FE0399824612980BF0EBFEC3
:1019A000011C50460BF0D0FE391C824613980BF0F8
:1019B000E2FE311C834614980BF0DDFE011C5846F4
:1019C0000BF0C2FE011C50460BF0BEFE291C8246E5
:1019D0000F980BF0D0FE0299834610980BF0CBFEC7
:1019E000011C58460BF0B0FE019983460E980BF08F
:1019F000C2FE011C58460BF0A7FE011C50460BF01E
:101A0000A3FE43464946986018980BF0B4FE03992C
:101A1000824619980BF0AFFE011C50460BF094FE65
:101A2000391C82461A980BF0A6FE311C83461B987F
:101A30000BF0A1FE011C58460BF086FE011C50461F
:101A40000BF082FE291C824616980BF094FE029938
:101A5000834617980BF08FFE011C58460BF074FE5E
:101A60000199834615980BF086FE011C58460BF031
:101A70006BFE011C50460BF067FE43464946D8609A
:101A80001F980BF078FE0399824620980BF073FEA6
:101A9000011C50460BF058FE391C824621980BF071
:101AA0006AFE311C834622980BF065FE011C5846E5
:101AB0000BF04AFE011C50460BF046FE291C8246E4
:101AC0001D980BF058FE029983461E980BF053FEAA
:101AD000011C58460BF038FE019983461C980BF008
:101AE0004AFE011C58460BF02FFE011C50460BF01D
:101AF0002BFE43464946186126980BF03CFE03999D
:101B0000814627980BF037FE011C48460BF01CFE5F
:101B1000391C814628980BF02EFE311C071C299891
:101B20000BF029FE011C381C0BF00EFE011C484670
:101B30000BF00AFE291C061C24980BF01CFE0299CF
:101B4000051C25980BF017FE011C281C0BF0FCFD52
:101B50000199051C23980BF00EFE011C281C0BF0AC
:101B6000F3FD011C301C0BF0EFFD434658611823B8
:101B70009C46079B1C34E044A34200D084E6319A83
:101B80001368089393690993136B0A93936C0B93EF
:101B9000136E0C93936F0D939023D3580E93536849
:101BA0000F93D3691093536B1193D36C1293536EAD
:101BB0001393D36F14939423D35815939368169368
:101BC000136A1793936B1893136D1993936E1A936B
:101BD0008023D3581B939823D3581C93D3681D9309
:101BE000536A1E93D36B1F93536D2093D36E21932F
:101BF0008423D35822939C23D3582393136924938B
:101C0000936A2593136C2693936D2793136F059C0A
:101C100028938823D35820342993A023D358A1464E
:101C20002A9353692B93D36A2C93536C2D93D36DC2
:101C30002E93536F2F938C23D3583093A423D358D0
:101C4000319358AB0693329B1A009846183207928C
:101C500043464246414640461B6895690193069BB0
:101C6000146B096E926C40CB876F0291101C0B991C
:101C7000039206930BF07FFD0C99824602980BF0BD
:101C80007AFD011C50460BF05FFD0D998246381C11
:101C90000BF071FD0E998346301C0BF06CFD011C9E
:101CA00058460BF051FD011C50460BF04DFD0999B3
:101CB0008246281C0BF05FFD0A998346201C0BF01E
:101CC0005AFD011C58460BF03FFD089983460198C8
:101CD0000BF051FD011C58460BF036FD011C50461F
:101CE0000BF032FD4B461299186003980BF043FD40
:101CF0001399824602980BF03EFD011C50460BF0F2
:101D000023FD14998246381C0BF035FD1599834646
:101D1000301C0BF030FD011C58460BF015FD011C6A
:101D200050460BF011FD10998246281C0BF023FD44
:101D300011998346201C0BF01EFD011C58460BF028
:101D400003FD0F99834601980BF015FD011C5846C1
:101D50000BF0FAFC011C50460BF0F6FC4B461999AF
:101D6000586003980BF007FD1A99824602980BF011
:101D700002FD011C50460BF0E7FC1B998246381C03
:101D80000BF0F9FC1C998346301C0BF0F4FC011C91
:101D900058460BF0D9FC011C50460BF0D5FC1799A6
:101DA0008246281C0BF0E7FC18998346201C0BF098
:101DB000E2FC011C58460BF0C7FC169983460198BB
:101DC0000BF0D9FC011C58460BF0BEFC011C504620
:101DD0000BF0BAFC4B462099986003980BF0CBFCB3
:101DE0002199824602980BF0C6FC011C50460BF06C
:101DF000ABFC22998246381C0BF0BDFC239983462C
:101E0000301C0BF0B8FC011C58460BF09DFC011C6B
:101E100050460BF099FC1E998246281C0BF0ABFC37
:101E20001F998346201C0BF0A6FC011C58460BF0A2
:101E30008BFC1D99834601980BF09DFC011C5846B4
:101E40000BF082FC011C50460BF07EFC4B462799A0
:101E5000D86003980BF08FFC2899824602980BF00B
:101E60008AFC011C50460BF06FFC29998246381CF5
:101E70000BF081FC2A998346301C0BF07CFC011C82
:101E800058460BF061FC011C50460BF05DFC259997
:101E90008246281C0BF06FFC26998346201C0BF011
:101EA0006AFC011C58460BF04FFC249983460198AC
:101EB0000BF061FC011C58460BF046FC011C50461F
:101EC0000BF042FC4B462E99186103980BF053FC23
:101ED0002F99824602980BF04EFC011C50460BF0E5
:101EE00033FC30998246381C0BF045FC3199071CB5
:101EF000301C0BF040FC011C381C0BF025FC011CB5
:101F000050460BF021FC2C99061C281C0BF033FCCE
:101F10002D99051C201C0BF02EFC011C281C0BF01D
:101F200013FC2B99041C01980BF025FC011C201CB0
:101F30000BF00AFC011C301C0BF006FC4B465861F0
:101F400004239C461433E0449C46079BE144984597
:101F500000D07DE6339B059DDC68296A20680BF084
:101F6000F3FB049EA96B306060680BF0EDFB7060C2
:101F7000A068296D0BF0E8FBB060E068A96E0BF07B
:101F8000E3FB8023F0602069E95898460BF0DCFB06
:101F900098233061E95860690BF0D6FB7061A06945
:101FA000696A0BF0D1FBB061E069E96B0BF0CCFB27
:101FB000F061206A696D0BF0C7FB3062E96E606A00
:101FC0000BF0C2FB84277062A06AE9590BF0BCFBDE
:101FD0009C23B062E958E06A0BF0B6FBF062206B1C
:101FE000A96A0BF0B1FB3063606B296C0BF0ACFBA2
:101FF0007063A06BA96D0BF0A7FBB063E06B296F5A
:102000000BF0A2FB0496F0638826206CA9590BF014
:102010009BFB049B1864A023606CE9580BF094FBB5
:10202000049BE96A5864A06C0BF08EFB049B696CFE
:102030009864E06C0BF088FB049BE96DD864206D1C
:102040000BF082FB049B696F1865606D05950BF0C2
:102050007BFB8C25049A059B5065A06D59590BF0AC
:1020600073FBA423049A9065059AE06DD1580BF098
:102070006BFB0499059AC865206E116B0BF064FB2D
:102080000499059A0866916C606E0BF05DFB0499EB
:10209000059A4866A06E116E0BF056FB0499059ADE
:1020A0008866E06E916F0BF04FFB90230499059AC0
:1020B000C866206FD1580BF047FBA8230499059AF6
:1020C0000867606FD1580BF03FFB0499059A486789
:1020D000A16F506B0BF038FB0499059A8867E16F8C
:1020E000D06C0BF031FB0499059AC8674046215823
:1020F000506E0BF029FB4146049B059A5850E1595C
:10210000D06F0BF021FB049BD8519423059FA1595C
:10211000F8580BF019FB049B9851AC236159F858FF
:102120000BF012FB049B585195239B009D443CBC33
:1021300090469946A246AB46F0BDC046F0B54E4625
:102140004546DE4657460023E0B51360836887B0F6
:102150009846049200230268052691460093013BAD
:10216000019003910293052345469B1B9A465D43CC
:102170004B46002B00D197E15544AD004D442B68F0
:102180005C006B6864085F007F08391C381C0BF02A
:102190003CFB002800D0E8E0211C381C0BF030FB91
:1021A000002800D0E8E00027731C9B46012E53D086
:1021B000AB685B005B08191C181C98460BF025FBEC
:1021C000002800D04DE14046211C0BF019FB0028EF
:1021D00001D0444602275B46032B3DD0EB685B00F1
:1021E0005B08191C181C98460BF00FFB002800D048
:1021F0003FE14146201C0BF0F5FA002801D044468F
:1022000003275B46042B27D02B695B005B08191C56
:10221000181C98460BF0F9FA002800D031E141462D
:10222000201C0BF0DFFA002801D0444604275B464F
:10223000052B11D06D696D006D08291C281C0BF051
:10224000E4FA002800D024E1291C201C0BF0CAFA73
:10225000002801D005272C1C039B009A574400211D
:102260009F50201C0BF0B6FA002800D187E0029B9B
:10227000013300D1EBE05746019B9B6898465F43D2
:1022800006239C1B06239B1BDF19434642466343E0
:102290009D001C19002392009346009A9A4694468A
:1022A000BF006544A4004F444D444C44396828683D
:1022B0000BF061FA011C20680BF043FA2060012E3C
:1022C00029D0796828680BF056FA011C60680BF079
:1022D00038FA6060022E1ED02968B8680BF04BFAFD
:1022E000011CA0680BF02DFAA060032E13D0296802
:1022F000F8680BF040FA011CE0680BF022FAE0608D
:10230000052E08D1296838690BF035FA011C2069BF
:102310000BF017FA206101239C46E2445D445C44C3
:102320005645C3D1009B013E04330093002E00D0DC
:1023300019E70523039A00215361019B9A68013232
:1023400093009B184A469B0098580BF043FA0028CC
:1023500003D0029B013300D1A3E0029807B03CBC3C
:1023600090469946A246AB46F0BD211C201C0BF0BE
:102370004CFA002800D00FE73C1C012714E7574512
:102380002FD049464C46019ABB0000984B441D682B
:1023900092680958920025504844196081189B188A
:1023A00008681C680C60186089189B1808681C680D
:1023B0000C60186089189B1808681C680C6018600D
:1023C00089189B1808681C680C60186089189B188D
:1023D00018680A6808601A60049A13680593013344
:1023E00013605746019B4A469B685F439846062305
:1023F0009C1B5346FB183D199B009B58AD004D4458
:102400002868191C9A460BF0A2F92860012E00D109
:1024100038E7686851460BF09AF96860022E00D1DF
:1024200030E7A86851460BF092F9A860032E00D15E
:1024300028E7E86851460BF08AF9E860042E00D1DD
:1024400020E7286951460BF082F928611AE75746C0
:10245000019B9B6898465F4306239C1B534602934F
:1024600010E7211C201C0BF0D0F9002800D1B0E6A9
:10247000A9E6211C201C0BF0C8F9002800D1BEE6FB
:10248000B7E6211C201C0BF0C0F9002800D1CCE6D7
:10249000C5E6211C201C0BF0B8F9002800D1D9E6B4
:1024A000D2E60523029358E71B68FFDEF0B5DE464F
:1024B0004E4645465746E0B589B001AF3A000500A3
:1024C000059005AB03CB03C26B682C005800AB68CA
:1024D0004008590049080BF037F92B6859004908A2
:1024E0000BF032F92B69061C58006B694008590043
:1024F00049080BF029F9EB68590049080BF024F959
:10250000011C301C0BF020F9EB69804658002B6A47
:102510004008590049080BF017F9AB695900490800
:102520000BF012F9AB6A061C5800EB6A4008590020
:1025300049080BF009F96B6A590049080BF004F9D6
:10254000011C301C0BF000F96B6B81465800AB6B23
:102550004008590049080BF0F7F82B6B590049085F
:102560000BF0F2F82B6C061C58006B6C40085900FD
:1025700049080BF0E9F8EB6B590049080BF0E4F857
:10258000011C301C0BF0E0F8061C011C48460BF047
:1025900029F9002800D14E464046311C0BF022F9A3
:1025A000002800D14646E36C5800236D40085900CE
:1025B00049080BF0C9F8A36C590049080BF0C4F89E
:1025C000A36D80465800E36D4008590049080BF0A0
:1025D000BBF8636D590049080BF0B6F8011C404682
:1025E0000BF0B2F8636E80465800A36E40085900A5
:1025F00049080BF0A9F8236E590049080BF0A4F81C
:10260000236F81465800636F4008590049080BF05A
:102610009BF8E36E590049080BF096F8011C4846F8
:102620000BF092F8E36F814658008023E158400890
:10263000490049080BF088F8A36F590049080BF0CE
:1026400083F888238246E0580433E158400049006B
:10265000490840080BF078F88423E15849004908FC
:102660000BF072F8011C50460BF06EF8041C011CB4
:1026700048460BF0B7F8002800D14C464046211CD4
:102680000BF0B0F8002800D14446211C301C0BF0A0
:10269000A9F8002800D1341CC0232900EC503A00CE
:1026A000BA3BA83104A806930495FFF747FD012122
:1026B000C422019B98260B405B428B430133AB54F1
:1026C000343A9246002250469C272A509432A95010
:1026D0009346923AAA510132EA519D32944660469D
:1026E0009C3A2A50A03291469F3A90464A4640462C
:1026F0002B00A85048461832AA58903392009A18D6
:1027000014682C50404610606046B8222858AA58D9
:102710008046604692009A1814682C50404610601B
:10272000B422E859AA58844692009A1810685C4668
:10273000E85160461060B022AA58AF5992009A182A
:102740001068A8511760AC225846AA582E5892001B
:102750009A18106828511660A822AA585446920068
:102760009B1852461868AA5828511A60C523E95484
:1027700009B03CBC90469946A246AB46F0BDC04667
:10278000C023002210B5C25000220433C2520B688D
:10279000040003604B6843608B688360CB68C36050
:1027A0000B6903614B6943618B698361CB69C361C9
:1027B0000B6A03624B6A43628B6A8362CB6AC362B1
:1027C0000B6B03634B6B43638B6B8363CB6BC36399
:1027D0000B6C03644B6C43648B6C8364CB6CC36481
:1027E0000B6D03654B6D43658B6D8365CB6DC36569
:1027F0000B6E03664B6E43668B6E8366CB6EC36651
:102800000B6F03674B6F43678B6F8367CB6FC36738
:102810008023CA58C2500433CA58C2500433CA581D
:10282000C2500433CA58C250FFF740FE200010BD0A
:1028300010B5037A0400002B07D00068002804D0EC
:10284000431E1B78C01A0BF0FFF8200010BDC046D5
:10285000F0B557464E464546DE46E0B5B5B006AF44
:10286000FB64EC23E84DF861F9633A67FB181E68D6
:102870002B78BFF35B8FDB0700D484E2E34C636803
:10288000FA699A4633697B62B3683B62934200DD22
:102890003A627A6A3B6A53439946FB6B53439846C4
:1028A0008023DB05994500D351E233683B65002B5B
:1028B00000D155E24B4600249D00A023A422FB1822
:1028C0001C604B46BA18136080239B02AB42AD419B
:1028D000A8236D42FB181D708023DB05984500D3AB
:1028E00019E27368FB60002B00D11DE2434600240F
:1028F0009D00AC23B022FB181C604346BA1813603D
:1029000080239B02AB42AD41B4236D42FB181D7086
:1029100004237B64FB6B002B15DDE8203A18FB6970
:1029200012681900934200DAF3E15046090109F0F8
:10293000E9FF0323C21713401B189B109B007B6405
:10294000042B00DAE2E1F969002900DC7BE17B6A13
:10295000B9611A00C91A9C463961E821F86C9B00DC
:1029600042433B60BA607B1862441B687A607A6CB1
:102970005343BB628300FB650433BB65431C9B0070
:10298000BB667B181B689B007B66E023FB181B68FB
:102990003B6300237B63BB637B613B668C20BB692D
:1029A0003A1813607A6A934201DD3B181A60FB6B98
:1029B000002B00DC18E18C23FB181B68002B00DCCB
:1029C00012E1FA6BBA647A6C53439B00FB62FB68BA
:1029D0007B6700237B653B6498339A46BA4480202A
:1029E000BB6C3A1813607A6C934201DD3B181A6095
:1029F0003A6B7B6D944690229B006344BA18136037
:102A000084227B6BBA181360BB6BFB67002399466B
:102A10008C234A46FB181B689B1A9846BB67042BFD
:102A200001DD042398463B6E94224B44FB664346EB
:102A30005E1E8423FB181B68BA189D003B6F9C46E2
:102A40009023FB181B6865441360002E46D0942326
:102A50008822FB181C680023B3462E00BA181360A6
:102A600025687168281C0AF086FE011C60680AF05F
:102A700068FE5B466060012B14D0B168281C0AF028
:102A80007AFE011CA0680AF05CFE5B46A060022B87
:102A900008D0F168281C0AF06EFE011CE0680AF0FC
:102AA00050FEE0608822BB181B68BA18013313601F
:102AB0007A6E94468022BA18126864449342CFD149
:102AC0009422BB6E35005E469C46BB181B68BA1844
:102AD0000433013E65441360002EB8D14246BB6FFB
:102AE00051469C1A90225346BA1812681A60E8227E
:102AF000BA1812685A604B4601938C23FB181B6866
:102B0000424600938023FB181B68786FFDF770FD29
:102B1000002C37DDFB6E3A6F43441D00944652464D
:102B2000FB6F3E6D5B199B00634413605346FA6C68
:102B300051465A60300023004246FDF703FE7B6D8C
:102B4000E8229C46E023FB181B6865449C465346DC
:102B5000BA181268AD0065441D605A604B46049374
:102B60008C23FB181B683100039343460293802398
:102B7000FB181B6850460193434600937A6F23006D
:102B8000FDF708FE04239C46FA6DE144944690222A
:102B9000FB6F84216344FB67BB181B68BA181033B2
:102BA0001360BA6D7B1894461B687A1863441360EF
:102BB0008C23FB181B684B4500DD29E77A6CB96C48
:102BC00094463B6C8A1AB96A63448C46BA64F96AC3
:102BD0007A6D3B6462448C467A657A6F62447A67A8
:102BE000FA6B9A4200DDFAE67A6A3B6E9446FA691D
:102BF00063443B669A4226DD3A6A002A36DCF9696C
:102C00009B189942FCDC03E048210320083703208D
:102C1000BA697B6A7969D21ABA61BA6808009446BF
:102C200039697A68CB1A3B61BB6B60446344944654
:102C3000BB633A687B6B7861634494467B633B6B10
:102C400063443B63AAE6982414233A19D018FFF78B
:102C5000EFFD08233A19D018FFF7EAFDBD462FB063
:102C60003CBC90469946A246AB46F0BD3A6F7B69A4
:102C7000944694229B006344BA1813603B6E3E69ED
:102C8000984698239A4600239B46013B9946330079
:102C9000BA444646544698463B6AC246984500DDCB
:102CA0009A4694238C22FB181B68B500EB1823600E
:102CB000FB6CB9180A68386D210063605346FDF754
:102CC00041FDE02179180B68E82179189C460B68D2
:102CD000654463605B46256004934B46039302930F
:102CE000FB6B200001938C23FB181B680093FA6890
:102CF0005346396DFDF74EFD42463B6A9C46D31A5A
:102D00009846FB696644B342C6DC81E704237B64D2
:102D100019E6110009E6012040420AF0B9FE736885
:102D2000FB60002B00D0E1E543469D0080239B0221
:102D30009D424AD82B006A461633DB08DB00D31AC3
:102D40009D4627240F236C449C43FC60D1E5012061
:102D500040420AF09DFE33683B65002B00D0A9E598
:102D60004B469D0080239B029D421ED82B006A4645
:102D70001633DB08DB00D31A9D4627240F236C444F
:102D80009C433C6599E528000DF04CFB1D4C002848
:102D900000D174E58023DB01236080231B0328001E
:102DA0006360A3600DF05AFB69E5280010300AF05B
:102DB0002DFE041E19D00F22102302409B1ADBB2F5
:102DC000C418621E13703C6577E5280010300AF0C5
:102DD0001DFE041E0FD00F22102302409B1ADBB2EF
:102DE000C418621E1370FC6083E5012040420AF0A3
:102DF0004FFE3C6561E5012040420AF049FEFC605F
:102E000077E5C04608370320F0B5DE4657464E4604
:102E10004546E0B5B9B006AFFB67FC23384DB96352
:102E2000BA64FB181E682B788346BFF35B8FDB0701
:102E300000D4C1E2334C63689A4633697B61B3685E
:102E40003B615B4501DD5B463B617A693B6953430E
:102E50009946BB6B534398468023DB05994500D3C5
:102E60008EE233683B65002B00D192E24B46002492
:102E70009D00B023B422FB181C604B46BA181360A7
:102E800080239B02AB42AD41B8236D42FB181D70FD
:102E90008023DB05984500D356E27368FB61002B65
:102EA00000D15AE2434600249D00BC23C022FB18F7
:102EB0001C604346BA18136080239B02AB42AD41AD
:102EC000C4236D42FB181D7004233B64BB6B002BB5
:102ED0001ADDF823FB181B6859469B4500DA2FE2E0
:102EE0005046090109F00EFD0323C21713401B18B9
:102EF0009B109B003B64042B00DA1EE204E0C046FA
:102F000048210320083703205B46002B00DC00E249
:102F1000FA6F78691100434259430B00F960594632
:102F20000C1A110062431B1A9B00BA61BB600A00B5
:102F30000B0059464B43B96C5B448C46F0219B0017
:102F40006344FB627918830009685B427B605B46DF
:102F50008C46F8219B006344791809683B633B6CFD
:102F60007C634B433B6293005B423B66043B7B6567
:102F70009B00BB65D3439B00A422BB668B007B6692
:102F80005B46BA1813600300A422BA1812683B67A4
:102F9000934200DD3A67BB6B002B00DC58E13A6FCF
:102FA000002A00DC54E17B643B6C396B53439B008B
:102FB0007B62FB69FB669300CB1ABB6200237B67D5
:102FC000FB63A433FB181B6803219B1ABB67130028
:102FD000013B043A8B43D31AFB6590227B6CBA18F1
:102FE00013603A6C934202DD9023FB181A60BA6AB0
:102FF0007B6F94469B009C446246FA643A6B94460D
:1030000098226344BA1813609422FB6ABA181360BA
:103010003B6F9A465346D346042B01DD04239B465F
:103020008022BB6FBA18534413605B465E1E7B6DF3
:10303000F96F99469423FB181A685B4690465B42E9
:103040005B1A9B00A422C14498440123BA185B4236
:1030500013604B46FE20196880050AF078FB8C232C
:103060009821FB181860A42379180968FB188C466E
:1030700084211A687918931B9C009B005B420B60AB
:1030800093009C22BA181360A0220023BA1864444B
:1030900013608423FB181B6888229C46A444634663
:1030A000BA1813609C22BA18126899588C23FB181E
:1030B00018680AF060FB88239C22FB18BA181B686A
:1030C0001268051C9850002E20D0434619680AF05B
:1030D00052FB011C20680AF034FB2060012E15D041
:1030E0004346281C59680AF046FB011C60680AF038
:1030F00028FB6060022E09D04346281C99680AF01C
:103100003AFB011CA0680AF01CFBA060A023A022CF
:10311000FB181B68BA18013313607A6E944690222C
:10312000BA18126864449342B3D1A423A422FB18B2
:103130001B68BA18013B1360BB6E9C463B6EE144B2
:103140009C46E044013E84D25A4653469C1A802352
:10315000FB181B68A8219D1AF022BA1812687B6F11
:103160009446A8225B199B006344BA181360F823A5
:10317000AC22FB181B68BA181360902301943E6FB1
:10318000FB1800961B68F86E5A46791899468046D7
:10319000FDF72EFA002C2DDDBA6FF96F94464D43E2
:1031A000BA6C6544A8239446AD006544FB181D60C5
:1031B000AC23FB181960A82123005A46386D7918F2
:1031C000FDF7C0FAA823FD6CFB181D60F823FB185F
:1031D0001D68AC23FB181D605D464B46A82001937B
:1031E000049403960295009523004246396D3818E1
:1031F000FDF7D0FA04235B429C46BA6DE244944644
:1032000094229833FB181B68BA1863441360982300
:103210009822FB181B68BA18103B1360FB6D5345CE
:1032200000D0F7E63A6C796C9446FB6B8A1A796A9F
:1032300063448C467A64396AFA6EFB6362448C4656
:10324000FA667A6F62447A67BA6B9A4200DDC4E626
:10325000A4227B6BBA181360002B5ADDBA6C1C00D9
:103260009146BB6900259B0099440023CB469A46B2
:103270003E69A046B44200DDB0464346002B2EDD39
:10328000A822AB009946BA185B441360AC22A8216F
:10329000FB6FBA181360386D43463A6F7918FDF723
:1032A00051FAF023A822FB181B68BA184B4413608C
:1032B000F823AC22FB181B68BA181360534604931A
:1032C0000123A8205B4203930293BB6B3818019340
:1032D0003B6F0093FA694346396DFDF75BFA7B6BF0
:1032E000AD19A41BAB42C4DCFA68BB699446BA684A
:1032F00063449446BB617A68FB6A63449446FB620C
:103300003B6B7A6963443B637B6B9B1A7B63130063
:103310003AE6A8221423BA18D018FFF789FAA8228F
:103320000823BA18D018FFF783FABD4633B03CBC67
:1033300090469946A246AB46F0BD04233B64E3E5C4
:10334000F823FB181968CBE5012040420AF0A0FBE6
:103350007368FB61002B00D0A4E543469D008023E9
:103360009B029D424AD82B006A461633DB08DB00DD
:10337000D31A9D4627240F236C449C43FC6194E59B
:10338000012040420AF084FB33683B65002B00D0EB
:103390006CE54B469D0080239B029D421ED82B006E
:1033A0006A461633DB08DB00D31A9D4627240F2319
:1033B0006C449C433C655CE528000DF033F81D4CE3
:1033C000002800D137E58023DB01236080231B0325
:1033D00028006360A3600DF041F82CE52800103050
:1033E0000AF014FB041E19D00F22102302409B1A6E
:1033F000DBB2C418621E13703C653AE52800103039
:103400000AF004FB041E0FD00F22102302409B1A67
:10341000DBB2C418621E1370FC6146E50120404215
:103420000AF036FB3C6524E5012040420AF030FBFF
:10343000FC613AE508370320F0B5DE4645464E46C6
:103440005746E0B5214C1600A5443AAA94460A0016
:103450000B931F4B099063441B0904911D01FDABA5
:1034600013CA13C313CA13C31268FDA91A60194BF8
:10347000194A1B6847A80593184B47AC1B68019372
:10348000174B1B6806930093059BFEF721F83AAA99
:10349000944647ABFD93FF93124BFFAA63441B680E
:1034A0000432FE9613608623DB009C46AC446046E3
:1034B000CCAAFDA90D90FEF767F96BAB0C93230026
:1034C0000A9498462C000E950EE0C0466CF6FFFF5D
:1034D000EF030000E01E03200AE81C41D81E032071
:1034E000DC1E0320D80800004346404645461B68C2
:1034F000806C05930C9BAF6F814620CB41464046C4
:1035000042460C93A823096B006E926907910890BC
:10351000F158281C06920AF02EF98C238246F158A5
:10352000381C0AF028F9011C50460AF00DF9316FD9
:10353000824608980AF01FF9716D834648460AF0E2
:103540001AF9011C58460AF0FFF8011C50460AF00F
:10355000FBF8B16B824607980AF00DF9F1698346D2
:1035600006980AF008F9011C58460AF0EDF831688F
:10357000834605980AF0FFF8011C58460AF0E4F863
:10358000011C50460AF0E0F8AC232060F158281CDA
:103590000AF0F1F890238246F158381C0AF0EBF853
:1035A000011C50460AF0D0F8716F824608980AF064
:1035B000E2F8B16D834648460AF0DDF8011C584632
:1035C0000AF0C2F8011C50460AF0BEF8F16B8246C0
:1035D00007980AF0D0F8316A834606980AF0CBF8CB
:1035E000011C58460AF0B0F87168834605980AF045
:1035F000C2F8011C58460AF0A7F8011C50460AF010
:10360000A3F8B0236060F158281C0AF0B4F89423A2
:103610008246F158381C0AF0AEF8011C50460AF0F8
:1036200093F8B16F824608980AF0A5F8F16D8346C9
:1036300048460AF0A0F8011C58460AF085F8011C1B
:1036400050460AF081F8316C824607980AF093F8E8
:10365000716A834606980AF08EF8011C58460AF0F3
:1036600073F8B168834605980AF085F8011C58463E
:103670000AF06AF8011C50460AF066F8B423A0600C
:10368000F158281C0AF077F898238246F158381C24
:103690000AF071F8011C50460AF056F8F16F8246A4
:1036A00008980AF068F8316E834648460AF063F8D5
:1036B000011C58460AF048F8011C50460AF044F82C
:1036C000716C824607980AF056F8B16A83460698EC
:1036D0000AF051F8011C58460AF036F8F1688346A2
:1036E00005980AF048F8011C58460AF02DF8011C0C
:1036F00050460AF029F8B823E060F158281C0AF077
:103700003AF89C238246F158381C0AF034F8011C20
:1037100050460AF019F880238246F15808980AF0BA
:103720002AF8716E834648460AF025F8011C58466F
:103730000AF00AF8011C50460AF006F8B16C8246FD
:1037400007980AF018F8F16A834606980AF013F809
:10375000011C584609F0F8FF3169834605980AF0C4
:103760000AF8011C584609F0EFFF011C504609F009
:10377000EBFFBC232061F158281C09F0FCFFA023BB
:103780008246F158381C09F0F6FF011C504609F03A
:10379000DBFF84238246F158089809F0ECFFB16EF4
:1037A0008346484609F0E7FF011C584609F0CCFF64
:1037B000011C504609F0C8FFF16C8246079809F0D9
:1037C000DAFF316B8346069809F0D5FF011C584695
:1037D00009F0BAFF71698346059809F0CCFF011C16
:1037E000584609F0B1FF011C504609F0ADFFF16EDB
:1037F0006061484609F0BFFF88238146F158089868
:1038000009F0B9FF011C484609F09EFFA423814638
:10381000F158381C9A4609F0AEFFC023071CF15836
:10382000281C09F0A8FF011C381C09F08DFF011CA1
:10383000484609F089FF716B051C069809F09BFF4B
:10384000316D071C079809F096FF011C381C09F020
:103850007BFFB169071C059809F08DFF011C381C1E
:1038600009F072FF011C281C09F06EFF04239C461E
:103870004DABE044A0611C34984500D034E6D82319
:103880000E9D9B00EC1820000D99FEF779FFA423F4
:103890009B009B46AB442100902258460AF0F2F868
:1038A000C8239B00EC18D033E918182220000AF036
:1038B000E9F8CE239B00E818D033E91818220AF063
:1038C000E1F88422D423D200AA1812689B00EB18D6
:1038D0001A60D523744A2F00AA1812889B00EB188F
:1038E000FE211A8000232268B0379200BA18890599
:1038F000116093611363936413669367C922920006
:10390000AA181268D13C9200BA181360916113632F
:10391000936413669367CA229200AA181268FF3C48
:103920009200BA18136093611163936413669367EE
:10393000CB229200AA18126806209200BA181360CF
:1039400093611363916413669367CC229200AA1863
:1039500012689200BA18136093611363936411663E
:103960009367CD229200AA1812689200BA181360C9
:1039700093611363936413660623A360E36023617A
:1039800098466B33FF339946A94491674A46203BDA
:10399000EA50802292009446AC44624641466260FE
:1039A0004B3B02910539059203945A460191FF3B26
:1039B00005310097FEF74CFF4046A823A060E06069
:1039C000206148465B00E85001214346059A0620E5
:1039D00062600394029301915A4600970531FFF704
:1039E00013FA2B68B8461C93EB69FDAC1D93AB6BC7
:1039F0001E936B6D1F932B6F20938C23EB58219399
:103A00006B682B932B6A2C93EB6B2D93AB6D2293EE
:103A10006B6F23939023EB582493AB6825936B6AC9
:103A200026932B6C2793EB6D2893AB6F29939423EC
:103A3000EB582A93EB682E93AB6A1B936B6C07933E
:103A40002B6E0C93EB6F0D939823EB580E932B6911
:103A50000F93EB6A1093AB6C11936B6E2F938023D3
:103A6000EB5830939C23EB5831936B6912932B6B7B
:103A70001393EB6C34961493AB6E15938423EB582D
:103A80001693A023EB581793AB6918936B6B19939C
:103A90002B6D1A93EB6E32938823EB5808935346A1
:103AA000EB58339302E0C0462404000043461F68ED
:103AB0005B6842469946434641469B68D2680E6918
:103AC0004D691D9849460593069209F054FE0599E3
:103AD00082461E9809F04FFE011C504609F034FE44
:103AE000391C82461C9809F046FE011C504609F01C
:103AF0002BFE311C8246209809F03DFE291C83468E
:103B0000219809F038FE011C584609F01DFE06995F
:103B100083461F9809F02FFE011C584609F014FE39
:103B2000011C504609F010FE494620602C9809F00F
:103B300022FE059982462D9809F01DFE011C504673
:103B400009F002FE391C82462B9809F014FE011C74
:103B5000504609F0F9FD311C8246239809F00BFE0E
:103B6000291C8346249809F006FE011C584609F0DA
:103B7000EBFD06998346229809F0FDFD011C58468D
:103B800009F0E2FD011C504609F0DEFD4946606087
:103B9000269809F0F0FD05998246279809F0EBFD7B
:103BA000011C504609F0D0FD391C8246259809F0C9
:103BB000E2FD011C504609F0C7FD311C82462998E0
:103BC00009F0D9FD291C83462A9809F0D4FD011C6F
:103BD000584609F0B9FD06998346289809F0CBFDAF
:103BE000011C584609F0B0FD011C504609F0ACFD1F
:103BF0004946A0601B9809F0BEFD059982460798CA
:103C000009F0B9FD011C504609F09EFD391C8246A1
:103C10002E9809F0B0FD011C504609F095FD311CAD
:103C200082460D9809F0A7FD291C83460E9809F0DD
:103C3000A2FD011C584609F087FD069983460C98A1
:103C400009F099FD011C584609F07EFD011C504603
:103C500009F07AFD4946E060109809F08CFD05995D
:103C60008246119809F087FD011C504609F06CFD51
:103C7000391C82460F9809F07EFD011C504609F060
:103C800063FD311C8246309809F075FD291C83467E
:103C9000319809F070FD011C584609F055FD069950
:103CA00083462F9809F067FD011C584609F04CFD2A
:103CB000011C504609F048FD49462061139809F05F
:103CC0005AFD05998246149809F055FD011C50468D
:103CD00009F03AFD391C8246129809F04CFD011C8E
:103CE000504609F031FD311C8246169809F043FD1B
:103CF000291C8346179809F03EFD011C584609F01F
:103D000023FD06998346159809F035FD011C584698
:103D100009F01AFD011C504609F016FD4946606184
:103D2000199809F028FD059981461A9809F023FD94
:103D3000011C484609F008FD391C8146189809F015
:103D40001AFD011C484609F0FFFC311C071C0898AD
:103D500009F011FD291C061C339809F00CFD011C0B
:103D6000301C09F0F1FC0699051C329809F003FD9E
:103D7000011C281C09F0E8FC011C381C09F0E4FCBB
:103D800018239C46FFABA061A0331C34E044A3423F
:103D900000D08BE6FD9BFE9A06937193FFAB5C68A7
:103DA0000433FFAB9D680833FFABDF680C33FFAB18
:103DB00010331B68FF990F937793FFAB143307926F
:103DC00072921A68FFAB1833089173911968FFABB0
:103DD0001C330C9474941C68FFAB20330D957595BF
:103DE0001D68FFAB2433349E0E977697109278921D
:103DF0001191799112947A9413951F68FFAB28332F
:103E00001B687B9515937D93FFABDA6A2C33FFAB70
:103E1000196B3033FFAB5C6B3433FFAB9D6B3833C6
:103E2000FFAB3C3314977C971F68FFAB40331B6894
:103E300016921B938393FFAB44337E921A68FFABB9
:103E4000483317917F911968FFAB4C3318948094D5
:103E50001C68FFAB5033199581951A9782971C9275
:103E600084921D9185911E941D68FFAB5F6D543344
:103E7000FFAB58331B68869421938993FFABDA6DAF
:103E80005C33FFAB196E6033FFAB5C6E6433FFAB2A
:103E900068331F9587951D68FFAB6C332097889713
:103EA0001F68FFAB70331B68229227938F93FFAB81
:103EB00074338A921A68FFAB783323918B91196817
:103EC000FFAB7C3324948C9425958D9526978E9703
:103ED0002892909229911C68FFAB80331D68FFAB3C
:103EE00084331F68FFAB88331B6891912D939593A2
:103EF000FFAB8C331A68FFAB90331968FFAB943378
:103F00002A9492941C68FFAB98332B9593951D6867
:103F1000FFAB9C332C9794971F682E929692049A2D
:103F20002F919791309498943195999532979A97CB
:103F3000FDAB32CA32C332CA32C31168FDAC19605C
:103F4000FD49FE4B09681B680191FD49FD4A09685E
:103F50002000009141A9FDF71BF80B9F419938689B
:103F600009F0EFFB42998346786809F0EAFB439930
:103F7000041CB86809F0E5FB4499051CF86809F0D1
:103F8000E0FB4599824638690B9709F0DAFB0B9BF9
:103F9000071C4699586909F0D4FB8046011C2D98EE
:103FA00009F0E9FB391C8146269809F0E4FB011C65
:103FB000484609F0C9FB5346814651461F98059370
:103FC00009F0D9FB011C484609F0BEFB291C8146BB
:103FD000189809F0D0FB211C8246119809F0CBFB00
:103FE000011C504609F0B0FB59468246079809F07B
:103FF000C2FB011C504609F0A7FB011C484609F012
:10400000A3FB049A516809F09FFB41460B902E9840
:1040100009F0B1FB391C8146279809F0ACFB011C63
:10402000484609F091FB05998146209809F0A3FBC9
:10403000011C484609F088FB291C8146199809F0A3
:104040009AFB211C8246129809F095FB011C5046F0
:1040500009F07AFB59468246089809F08CFB011C4E
:10406000504609F071FB011C484609F06DFB049AAB
:10407000916809F069FB414633902F9809F07BFB6A
:10408000391C8146289809F076FB011C484609F046
:104090005BFB05998146219809F06DFB011C4846A0
:1040A00009F052FB291C81461A9809F064FB211C77
:1040B0008246139809F05FFB011C504609F044FB4F
:1040C000594682460C9809F056FB011C504609F0EF
:1040D0003BFB011C484609F037FB049AD16809F004
:1040E00033FB41463490309809F045FB391C81463A
:1040F000299809F040FB011C484609F025FB059969
:104100008146229809F037FB011C484609F01CFB48
:10411000291C81461B9809F02EFB211C824614980D
:1041200009F029FB011C504609F00EFB5946824656
:104130000D9809F020FB011C504609F005FB011CFD
:10414000484609F001FB049A116909F0FDFA41465D
:104150003590319809F00FFB391C81462A9809F0F7
:104160000AFB011C484609F0EFFA0599814623989D
:1041700009F001FB011C484609F0E6FA291C8146BA
:104180001C9809F0F8FA211C8246159809F0F3FAF8
:10419000011C504609F0D8FA594682460E9809F09B
:1041A000EAFA011C504609F0CFFA011C484609F012
:1041B000CBFA049A516909F0C7FA211C3690169877
:1041C00009F0D9FA291C81461D9809F0D4FA011C7E
:1041D000484609F0B9FA594681460F9809F0CBFADA
:1041E000011C484609F0B0FA391C81462B9809F0A9
:1041F000C2FA41468246329809F0BDFA011C504687
:1042000009F0A2FA05998246249809F0B4FA011C33
:10421000504609F099FA011C484609F095FA049AAB
:10422000916909F091FA414681462C9809F0A3FA68
:10423000391C8046259809F09EFA011C404609F079
:1042400083FA0599071C1E9809F095FA011C381C81
:1042500009F07AFA291C071C179809F08CFA211C1E
:10426000051C109809F087FA011C281C09F06CFA4B
:104270005946041C069809F07EFA011C201C09F01E
:1042800063FA011C381C09F05FFA049AFDAC11684E
:1042900009F05AFA099B0B9A18605A60339A9A608F
:1042A000349ADA60359A1A61369A5A614A469A61A6
:1042B0003368CC937368CD93B368CE93F368CF9390
:1042C0003369D0937369D193B369D293F369D3936C
:1042D000336AD493736AD593B36AD693F36AD79348
:1042E000336BD893736BD993B36BDA93F36BDB9324
:1042F000336CDC93736CDD93B36CDE93F36CDF9300
:10430000336DE093736DE193B36DE293F36DE393DB
:10431000336EE493736EE593B36EE693F36EE793B7
:10432000336FE893736FE993B36FEA93F36FEB9393
:104330008023F358EC9307E0D81E0320E01E0320EF
:10434000DC1E03200AE81C418423F358ED938823E4
:10435000F358EE938C23F358EF939023F358F09394
:104360009423F358F1939823F358F2939C23F35832
:104370000B96F393A023F358F493A423F358F593E7
:10438000A823F358F693AC23F358F793B023F358CC
:10439000F893B423F358F993B823F358FA93BC2352
:1043A000F358FB93C023F358FC930A9B10985A6868
:1043B0001F6891469A6849469046DA681E695D69A9
:1043C000059209F0D8F941468246179809F0D3F9C9
:1043D000011C504609F0B8F9391C8246069809F0CC
:1043E000CAF9011C504609F0AFF9311C82462598E4
:1043F00009F0C1F9291C83462C9809F0BCF9011C6D
:10440000584609F0A1F9059983461E9809F0B3F9B9
:10441000011C584609F098F9011C504609F094F91E
:1044200049462060119809F0A6F94146824618983D
:1044300009F0A1F9011C504609F086F9391C8246A1
:10444000079809F098F9011C504609F07DF9311CD4
:104450008246269809F08FF9291C83462D9809F089
:104460008AF9011C584609F06FF9059983461F988F
:1044700009F081F9011C584609F066F9011C504603
:1044800009F062F949466060129809F074F94146F2
:104490008246199809F06FF9011C504609F054F949
:1044A000391C8246089809F066F9011C504609F04B
:1044B0004BF9311C8246279809F05DF9291C834687
:1044C0002E9809F058F9011C584609F03DF9059954
:1044D0008346209809F04FF9011C584609F034F939
:1044E000011C504609F030F94946A060139809F0C4
:1044F00042F9414682461A9809F03DF9011C50469E
:1045000009F022F9391C82460C9809F034F9011C93
:10451000504609F019F9311C8246289809F02BF908
:10452000291C83462F9809F026F9011C584609F0EA
:104530000BF905998346219809F01DF9011C58468D
:1045400009F002F9011C504609F0FEF84946E06006
:10455000149809F010F9414682461B9809F00BF9AE
:10456000011C504609F0F0F8391C82460D9809F0FC
:1045700002F9011C504609F0E7F8311C82462998DF
:1045800009F0F9F8291C8346309809F0F4F8011C69
:10459000584609F0D9F805998346229809F0EBF8B6
:1045A000011C584609F0D0F8011C504609F0CCF81F
:1045B00049462061159809F0DEF8414682461C986C
:1045C00009F0D9F8011C504609F0BEF8391C8246A2
:1045D0000E9809F0D0F8011C504609F0B5F8311CCE
:1045E00082462A9809F0C7F8291C8346319809F0B9
:1045F000C2F8011C584609F0A7F80599834623988C
:1046000009F0B9F8011C584609F09EF8011C504603
:1046100009F09AF849466061169809F0ACF84146ED
:1046200081461D9809F0A7F8011C484609F08CF84E
:10463000391C80460F9809F09EF8011C404609F08D
:1046400083F8311C071C2B9809F095F8291C061CCF
:10465000329809F090F8011C301C09F075F80599A2
:10466000051C249809F087F8011C281C09F06CF837
:10467000011C381C09F068F80A9BA06118330A93E2
:10468000FFAB1C34BC33A34200D08EE6C4239C464F
:104690000B9ECCADB444634634003C960A93089616
:1046A0002369A6699846E36821689946A368626809
:1046B0000793FFABA0330591301C1968069209F0EF
:1046C0005AF86769FFAB843319688246381C09F0D1
:1046D00052F8011C504609F037F8FFAB996E82463C
:1046E0004046683309F047F8FFABD96C834648462B
:1046F0004C3309F040F8011C584609F025F8011C1C
:10470000504609F021F8FFAB196B82460798303309
:1047100009F031F8FFAB596983460698143309F064
:104720002AF8011C584609F00FF8FD9983460598B0
:1047300009F021F8011C584609F006F8011C504602
:1047400009F002F8011C286808F0FBFFFFABA43356
:1047500028601968301C09F00EF8FFAB883319681F
:104760008246381C09F007F8011C504608F0ECFF9F
:10477000FFABD96E824640466C3308F0FCFFFFABBE
:10478000196D83464846503308F0F5FF011C584622
:1047900008F0DAFF011C504608F0D6FFFFAB596B5A
:1047A00082460798343308F0E6FFFFAB99698346E9
:1047B0000698183308F0DFFF011C584608F0C4FFC4
:1047C000FE998346059808F0D6FF011C584608F06C
:1047D000BBFF011C504608F0B7FF011C686808F0D9
:1047E000B0FFFFABA83319686860301C08F0C3FF46
:1047F000FFAB8C3319688246381C08F0BCFF011CE3
:10480000504608F0A1FFFFAB8246196F4046703357
:1048100008F0B1FFFFAB596D83464846543308F0AA
:10482000AAFF011C584608F08FFF011C504608F0F3
:104830008BFFFFAB996B82460798383308F09BFFDC
:10484000FFABD969834606981C3308F094FF011C1E
:10485000584608F079FFFF998346059808F08BFFCA
:10486000011C584608F070FF011C504608F06CFF10
:10487000011CA86808F065FFFFABAC331968A8609D
:10488000301C08F078FFFFAB903319688246381C63
:1048900008F071FF011C504608F056FFFFAB596F3E
:1048A00082464046743308F066FFFFAB996D83463D
:1048B0004846583308F05FFF011C584608F044FF93
:1048C000011C504608F040FFFFAB8246D96B0798A9
:1048D0003C3308F050FFFFAB196A8346069820333B
:1048E00008F049FF011C584608F02EFFFFAB59683D
:1048F00083460598043308F03EFF011C584608F033
:1049000023FF011C504608F01FFF011CE86808F057
:1049100018FFFFABB0331968E860301C08F02BFFBC
:10492000FFAB943319688246381C08F024FF011C41
:10493000504608F009FFFFAB996F82464046783336
:1049400008F019FFFFABD96D834648465C3308F089
:1049500012FF011C584608F0F7FE011C504608F0F3
:10496000F3FEFFAB196C82460798403308F003FF53
:10497000FFAB596A83460698243308F0FCFE011CFD
:10498000584608F0E1FEFFAB996883460598083366
:1049900008F0F1FE011C584608F0D6FE011C5046F6
:1049A00008F0D2FE011C286908F0CBFEFFABB4333F
:1049B00019682861301C08F0DEFEFFAB98331968D7
:1049C0008246381C08F0D7FE011C504608F0BCFE99
:1049D000FFABD96F824640467C3308F0CCFEFFAB7C
:1049E000196E83464846603308F0C5FE011C5846E0
:1049F00008F0AAFE011C504608F0A6FEFFAB596C59
:104A000082460798443308F0B6FEFFAB996A8346A6
:104A10000698283308F0AFFE011C584608F094FEB3
:104A2000FFABD968834605980C3308F0A4FE011C3F
:104A3000584608F089FE011C504608F085FE011C0E
:104A4000686908F07EFEFFAB596E686148466433C2
:104A500008F091FEFFAB803319688146404608F0AC
:104A60008AFE011C484608F06FFEFFAB9C331968B4
:104A70008046381C08F07FFEFFABB8331968071C6E
:104A8000301C08F078FE011C381C08F05DFE011C8B
:104A9000404608F059FEFFABD96A061C06982C3335
:104AA00008F069FEFFAB996C071C0798483308F0C3
:104AB00062FE011C381C08F047FEFFAB1969071C99
:104AC0000598103308F057FE011C381C08F03CFE16
:104AD000011C301C08F038FE011CA86908F031FEEA
:104AE0000A9B1C34A8611C359C4200D0D8E5089E66
:104AF000CC9B3360CD9B7360CE9BB360CF9BF36048
:104B0000D09B3361D19B7361D29BB361D39BF36123
:104B1000D49B3362D59B7362D69BB362D79BF362FF
:104B2000D89B3363D99B7363DA9BB363DB9BF363DB
:104B3000DC9B3364DD9B7364DE9BB364DF9BF364B7
:104B4000E09B3365E19B7365E29BB365E39BF36593
:104B5000E49B3366E59B7366E69BB366E79BF3666F
:104B6000E89B3367E99B7367EA9BB367EB9BF3674B
:104B70008023EC9AF250ED9A0433F250EE9A04330B
:104B8000F250EF9A0433F250F09A0433F250F19A53
:104B90000433F250F29A0433F250F39A0433F25091
:104BA000F49A0433F250F59A0433F250F69A04332F
:104BB000F250F79A0433F250F89A0433F250F99A0B
:104BC0000433F250FA9A0433F250FB9A0433F25051
:104BD000FC9A0433F2503AAA8D2394461B01634495
:104BE0001B68CCAA13CB13C28E231B0163441B6822
:104BF000FDAC07CB07C4049B099D0093494B2800DB
:104C00006344CCA91B68FDAAFCF7A0F82B00FDAA01
:104C100023CB23C2220013CB13C21B683AA9136013
:104C20008D238C463EAA11001B0163441B6831CBC7
:104C300031C18E231B0163441B68CCA931CB31C128
:104C4000384BFDA963441B689BA80093CCABFCF7D1
:104C5000E3FAFDAB08931C009B9B0B93A29B129362
:104C6000A99B1993B09B2093B79B2793BE9B2E9330
:104C7000C59B35939C9B0C93A39B1393AA9B1A9360
:104C8000B19B2193B89B2893BF9B2F93C69B3693D0
:104C90009D9B0D93A49B1493AB9B1B93B29B229360
:104CA000B99B2993C09B3093C79B37939E9B0E93D0
:104CB000A59B1593AC9B1C93B39B2393BA9B2A9300
:104CC000C19B3193C89B38939F9B0F93A69B1693D0
:104CD000AD9B1D93B49B2493BB9B2B93C29B3293A0
:104CE000C99B3993A09B1093A79B1793AE9B1E93D0
:104CF000B59B2593BC9B2C93C39B3393CA9B3A9340
:104D0000A19B1193A89B1893AF9B1F93B69B2693CF
:104D1000BD9B2D93C49B3493CB9B3B933C9B3C9678
:104D2000984601E0E40800004146C96840468946CB
:104D3000414642464346866909691B685568926840
:104D400047690791301C35990593069208F013FDC9
:104D50002E998246381C08F00EFD011C504608F0C2
:104D6000F3FC27998246079808F005FD20998346B1
:104D7000484608F000FD011C584608F0E5FC011CFF
:104D8000504608F0E1FC19998246069808F0F3FCB9
:104D900012998346281C08F0EEFC011C584608F0C6
:104DA000D3FC0B998346059808F0E5FC011C584696
:104DB00008F0CAFC011C504608F0C6FC3699206079
:104DC000301C08F0D8FC2F998246381C08F0D3FC20
:104DD000011C504608F0B8FC28998246079808F054
:104DE000CAFC21998346484608F0C5FC011C584678
:104DF00008F0AAFC011C504608F0A6FC1A9982464D
:104E0000069808F0B8FC13998346281C08F0B3FCF8
:104E1000011C584608F098FC0C998346059808F048
:104E2000AAFC011C584608F08FFC011C504608F0F3
:104E30008BFC311C6060379808F09DFC391C824661
:104E4000309808F098FC011C504608F07DFC299928
:104E50008246079808F08FFC22998346484608F05E
:104E60008AFC011C584608F06FFC011C504608F0F3
:104E70006BFC1B998246069808F07DFC14998346CA
:104E8000281C08F078FC011C584608F05DFC0D99C0
:104E90008346059808F06FFC011C584608F054FC46
:104EA000011C504608F050FC311CA060389808F0F6
:104EB00062FC391C8246319808F05DFC011C5046AA
:104EC00008F042FC079982462A9808F054FC4946AB
:104ED0008346239808F04FFC011C584608F034FC28
:104EE000011C504608F030FC069982461C9808F0D8
:104EF00042FC291C8346159808F03DFC011C5846CD
:104F000008F022FC059983460E9808F034FC011C39
:104F1000584608F019FC011C504608F015FC311CDD
:104F2000E060399808F027FC391C8246329808F076
:104F300022FC011C504608F007FC079982462B987A
:104F400008F019FC49468346249808F014FC011C1B
:104F5000584608F0F9FB011C504608F0F5FB06998D
:104F600082461D9808F007FC291C8346169808F015
:104F700002FC011C584608F0E7FB059983460F9890
:104F800008F0F9FB011C584608F0DEFB011C5046F6
:104F900008F0DAFB311C20613A9808F0ECFB391C70
:104FA0008246339808F0E7FB011C504608F0CCFB22
:104FB000079982462C9808F0DEFB494683462598DF
:104FC00008F0D9FB011C584608F0BEFB011C5046F6
:104FD00008F0BAFB069982461E9808F0CCFB291C03
:104FE0008346179808F0C7FB011C584608F0ACFB35
:104FF00005998346109808F0BEFB011C584608F03E
:10500000A3FB011C504608F09FFB494660612698AF
:1050100008F0B1FB079981462D9808F0ACFB011C04
:10502000484608F091FB391C8146349808F0A3FBF0
:10503000311C071C3B9808F09EFB011C381C08F033
:1050400083FB011C484608F07FFB291C061C1898AE
:1050500008F091FB0699051C1F9808F08CFB011CB9
:10506000281C08F071FB0599051C119808F083FBBA
:10507000011C281C08F068FB011C301C08F064FBB4
:105080001C239C460A9BE044A0611C34984500D038
:105090004AE6FFAB84333C9E0793FFABCCAC1433A2
:1050A0003C940A933D96089B1A68586D0592079A9E
:1050B000996BD6698146186F06918046311C3598E8
:1050C000DD69176808F057FB391C82462E9808F0F6
:1050D00052FB011C504608F037FB41468246279898
:1050E00008F049FB20998346484608F044FB011C20
:1050F000584608F029FB011C504608F025FB199979
:105100008246069808F037FB12998346281C08F05F
:1051100032FB011C584608F017FB0B998346059893
:1051200008F029FB011C584608F00EFB011C5046F4
:1051300008F00AFB311C2060369808F01CFB391C73
:1051400082462F9808F017FB011C504608F0FCFA25
:1051500041468246289808F00EFB4946834621982E
:1051600008F009FB011C584608F0EEFA011C5046F5
:1051700008F0EAFA069982461A9808F0FCFA291C07
:105180008346139808F0F7FA011C584608F0DCFA39
:10519000059983460C9808F0EEFA011C584608F071
:1051A000D3FA011C504608F0CFFA311C60603798E2
:1051B00008F0E1FA391C8246309808F0DCFA011C4C
:1051C000504608F0C1FA41468246299808F0D3FAC1
:1051D00049468346229808F0CEFA011C584608F04A
:1051E000B3FA011C504608F0AFFA069982461B98A4
:1051F00008F0C1FA291C8346149808F0BCFA011C77
:10520000584608F0A1FA059983460D9808F0B3FABC
:10521000011C584608F098FA011C504608F094FA10
:10522000311CA060389808F0A6FA391C82463198E3
:1052300008F0A1FA011C504608F086FA4146824661
:105240002A9808F098FA49468346239808F093FA7A
:10525000011C584608F078FA011C504608F074FA10
:10526000069982461C9808F086FA291C83461598F0
:1052700008F081FA011C584608F066FA0599834641
:105280000E9808F078FA011C584608F05DFA011CE7
:10529000504608F059FA311CE060399808F06BFA72
:1052A000391C8246329808F066FA011C504608F014
:1052B0004BFA414682462B9808F05DFA49468346F0
:1052C000249808F058FA011C584608F03DFA011CD1
:1052D000504608F039FA069982461D9808F04BFAB4
:1052E000291C8346169808F046FA011C584608F017
:1052F0002BFA059983460F9808F03DFA011C584691
:1053000008F022FA011C504608F01EFA311C2061F8
:105310003A9808F030FA391C8246339808F02BFA94
:10532000011C504608F010FA414682462C9808F0BD
:1053300022FA49468346259808F01DFA011C584672
:1053400008F002FA011C504608F0FEF90699824660
:105350001E9808F010FA291C8346179808F00BFADB
:10536000011C584608F0F0F905998346109808F09A
:1053700002FA011C584608F0E7F9011C504608F0F3
:10538000E3F949466061269808F0F5F941468146FF
:105390002D9808F0F0F9011C484608F0D5F9391CA1
:1053A0008046349808F0E7F9311C071C3B9808F058
:1053B000E2F9011C381C08F0C7F9011C404608F04E
:1053C000C3F9291C061C189808F0D5F90699051C84
:1053D0001F9808F0D0F9011C281C08F0B5F90599B0
:1053E000051C119808F0C7F9011C281C08F0ACF93D
:1053F000011C301C08F0A8F9079A089B0432079298
:105400000A9A0433A06108931C349A4200D04AE6F9
:105410003AAA9446744B744A63441B6862441B68FE
:1054200012680893704B3D9E63441B68FDACDB69BA
:105430000A936D4B63441B689B6B0B936A4B6344ED
:105440001B685B6D0C93684B63441B681B6F0D936B
:105450008C23D358644A0E93634B624463441B68A5
:105460005B680F93604B63441B681B6A10935E4B31
:1054700063441B68DB6B11935B4B63441B689B6D40
:105480001293594B63441B685B6F1268139390230C
:10549000D358554A1493544B624463441B681268B2
:1054A0009B681593504B63441B685B6A16934E4B85
:1054B00063441B681B6C17934B4B63441B68DB6D89
:1054C0001893494B63441B689B6F19939423D358DB
:1054D000454A1A93444B624463441B68DB681B9340
:1054E000414B63441B689B6A1C933F4B63441B689E
:1054F0005B6C1D933C4B63441B6812681B6E1E93D0
:10550000394B63441B68DB6F1F939823D358364A8B
:105510002093354B624463441B6812681B692193D6
:10552000314B63441B68DB6A22932F4B63441B6837
:105530009B6C23932C4B63441B685B6E24938023EA
:10554000D358294A25939C2362441268D358264A8B
:105550002693254B624463441B685B692793224B67
:1055600063441B681B6B28931F4B126863441B68C2
:10557000DB6C29931C4B63441B689B6E2A9384232A
:10558000D358194A2B93A02362441268D358164A61
:105590002C93154B624463441B6812689B692D93DE
:1055A000114B63441B685B6B2E930F4B63441B686A
:1055B0001B6D2F930C4B63441B68DB6E3093882369
:1055C000D358094A3193A42362441268D3583293C2
:1055D000064B63441B689846FDAB079390234344F6
:1055E0003393349604E0C046DC080000D408000081
:1055F00043461F685B6842469946434641469B685E
:10560000D2680E694D6948460A990593069208F0DA
:10561000B2F80B998246059808F0ADF8011C504687
:1056200008F092F808998246381C08F0A4F8011C8A
:10563000504608F089F80D998246301C08F09BF816
:105640000E998346281C08F096F8011C584608F06D
:105650007BF80C998346069808F08DF8011C584693
:1056600008F072F8011C504608F06EF8109920609E
:10567000484608F080F811998246059808F07BF8B2
:10568000011C504608F060F80F998246381C08F05B
:1056900072F8011C504608F057F813998246301CE6
:1056A00008F069F814998346281C08F064F8011C76
:1056B000584608F049F812998346069808F05BF8B6
:1056C000011C584608F040F8011C504608F03CF810
:1056D00016996060484608F04EF81799824605987A
:1056E00008F049F8011C504608F02EF8159982463A
:1056F000381C08F040F8011C504608F025F81999AC
:105700008246301C08F037F81A998346281C08F0A6
:1057100032F8011C584608F017F818998346069885
:1057200008F029F8011C584608F00EF8011C5046F4
:1057300008F00AF8A0601C99484608F01CF81D996A
:105740008246059808F017F8011C504607F0FCFF48
:105750001B998246381C08F00EF8011C504607F0D1
:10576000F3FF1F998246301C08F005F82099834604
:10577000281C08F000F8011C584607F0E5FF1E99A8
:105780008346069807F0F7FF011C584607F0DCFF38
:10579000011C504607F0D8FF2299E060484607F008
:1057A000EAFF23998246059807F0E5FF011C504661
:1057B00007F0CAFF21998246381C07F0DCFF011C64
:1057C000504607F0C1FF25998246301C07F0D3FFF1
:1057D00026998346281C07F0CEFF011C584607F087
:1057E000B3FF24998346069807F0C5FF011C58466D
:1057F00007F0AAFF011C504607F0A6FF2899206178
:10580000484607F0B8FF29998246059807F0B3FF8C
:10581000011C504607F098FF27998246381C07F074
:10582000AAFF011C504607F08FFF2B998246301CBF
:1058300007F0A1FF2C998346281C07F09CFF011C50
:10584000584607F081FF2A998346069807F093FF90
:10585000011C584607F078FF011C504607F074FF02
:105860002E996061484607F086FF2F99814605987A
:1058700007F081FF011C484607F066FF2D9981461D
:10588000381C07F078FF011C484607F05DFF31998E
:10589000071C301C07F06FFF3299061C281C07F00C
:1058A0006AFF011C301C07F04FFF3099051C069859
:1058B00007F061FF011C281C07F046FF011C381C83
:1058C00007F042FF18239C46339BE044A0611C3440
:1058D000434500D08CE6FFAB84330693FFAB143313
:1058E0003C9C3393079B0D99DA691E6F91469A6B26
:1058F000301C90465A6D1F680592069A20CA06927F
:1059000007F039FF0E998246281C07F034FF011C6E
:10591000504607F019FF0C998246059807F02BFFB7
:10592000011C504607F010FF0A998246484607F0CE
:1059300022FF0B998346404607F01DFF011C584685
:1059400007F002FF08998346381C07F014FF011C7A
:10595000584607F0F9FE011C504607F0F5FE011C01
:10596000206807F0F1FE10992060484607F003FF19
:1059700011998246404607F0FEFE011C504607F092
:10598000E3FE0F998246381C07F0F5FE011C5046D5
:1059900007F0DAFE13998246301C07F0ECFE1499EA
:1059A0008346281C07F0E7FE011C584607F0CCFE92
:1059B00012998346059807F0DEFE011C584607F051
:1059C000C3FE011C504607F0BFFE011C606807F0D3
:1059D000BBFE16996060484607F0CDFE17998246D7
:1059E000404607F0C8FE011C504607F0ADFE159971
:1059F0008246381C07F0BFFE011C504607F0A4FE8B
:105A000019998246301C07F0B6FE1A998346281C65
:105A100007F0B1FE011C584607F096FE1899834620
:105A2000059807F0A8FE011C584607F08DFE011CE2
:105A3000504607F089FE011CA06807F085FE1C99FE
:105A4000A060484607F097FE1D998246404607F041
:105A500092FE011C504607F077FE1B998246381CC7
:105A600007F089FE011C504607F06EFE1F99824622
:105A7000301C07F080FE20998346281C07F07BFE2F
:105A8000011C584607F060FE1E998346059807F0F2
:105A900072FE011C584607F057FE011C504607F0E5
:105AA00053FE011CE06807F04FFE2299E060484673
:105AB00007F061FE23998246404607F05CFE011C18
:105AC000504607F041FE21998246381C07F053FEEC
:105AD000011C504607F038FE25998246301C07F01D
