:020000041000EA
:1000000000B5324B212058609868022188439860DF
:10001000D860186158612E4B002199600221596106
:100020000121F02299502B49196001219960352056
:1000300000F044F80222904214D00621196600F024
:1000400034F8196E01211966002018661A6600F04E
:100050002CF8196E196E196E052000F02FF8012189
:100060000842F9D1002199601B49196000215960AB
:100070001A491B48016001219960EB211966A021F2
:10008000196600F012F800219960164914480160C1
:100090000121996001BC002800D000471248134993
:1000A000086003C880F30888084703B5996A0420EC
:1000B0000142FBD001200142F8D103BD02B5186610
:1000C0001866FFF7F2FF186E186E02BD00000240BE
:1000D000000000180000070000035F00212200005C
:1000E000F4000018222000A00001001008ED00E03C
:1000F00000000000000000000000000074B24E7A12
:1001000000200420F7010010C3010010C5010010F9
:10011000C1010010C1010010C1010010C101001097
:10012000C1010010C1010010C1010010C701001081
:10013000C1010010C1010010C9010010CB01001065
:10014000CD010010CD010010CD010010CD01001037
:10015000CD010010CD010010CD010010CD01001027
:10016000CD010010CD010010CD010010CD01001017
:10017000CD010010CD010010CD010010CD01001007
:10018000CD010010CD010010CD010010CD010010F7
:10019000CD010010CD010010CD010010CD010010E7
:1001A000CD010010CD010010CD010010CD010010D7
:1001B000CD010010CD010010CD010010CD010010C7
:1001C00000BE00BE00BE00BE00BE00BEEFF3058054
:1001D000103800BEF2EB887170470510904705108B
:1001E0003402001090A31AE700201F49086006C8D7
:1001F00081F3088810471D48006800282FD10DA4FE
:100200000ECC002902D000F012F8F9E71849194A7B
:10021000002000E001C19142FCD1174988471749ED
:1002200088471749884700BEFDE701C901C29A42C5
:10023000FBD3704790470510C00000200C2D002014
:10024000DC7305100000042000000420DC7305109E
:10025000001004200010042000000000704709482E
:100260000DF064F80047000008ED00E0000000D049
:10027000102D00202459032071BA001055030010DE
:10028000A5BB00105756000006005250ABB3605398
:1002900060A5041006005250861C030270A50410CD
:1002A000060052505422A29D7CA504100500525015
:1002B000DE65F468DC730510F8B5C0460448054BEC
:1002C00010B5834203D0044B002B00D0984710BDDB
:1002D0000C2D00200C2D00200000000006480749CE
:1002E000091A8B10C90FC91810B5491003D0044B57
:1002F000002B00D0984710BD0C2D00200C2D0020A5
:100300000000000010B5074C2378002B09D1FFF73F
:10031000D5FF054B002B02D0044800E000BF0123AD
:10032000237010BD582F002000000000B0A0041062
:10033000054B10B5002B03D00449054800E000BF71
:10034000FFF7CCFF10BDC046000000005C2F00206E
:10035000B0A0041070B5192009F028FED023802227
:100360001B0692045A620EF04FFF00F045F806F0AB
:10037000BDFD08F0E9F906F065FF00220524144BE5
:100380001A7006F09DF9134D013C210028000EF073
:100390002FFFFA2080000AF015FC002CF4D10A206F
:1003A0000EF084FD012200210B480AF0C7F80B482B
:1003B00011F006F901220A4B0A4C1A702378012B1E
:1003C000FCD108F07DFB2378012BFAD0F6E7C0467C
:1003D00042560320B0A004107C550320658E001007
:1003E000415603204656032010B5024811F010FC78
:1003F00010BDC04614370320092370B586B005939D
:1004000004330493023B0393013B0293023B324DBE
:10041000324C0193324B22003249334800932B0077
:1004200005F00CFE142005F005FEFA2080000AF00D
:10043000C9FB2E4E21003200280006F017F8337851
:10044000682B08D02A4C20000EF07CFDFA2080009A
:100450000AF0B8FBF7E773783D2BF3D101222100B6
:10046000280006F027F8234E32002100280006F06D
:100470005BF83378002BF7D101222100280005F02A
:10048000D7FE0121200005F0B5FE0321200005F074
:1004900047FE0321280005F071FF1321200006F01C
:1004A000B1F81221200006F0EBF80021200006F040
:1004B000C9F80321200006F053F80221200006F0BD
:1004C0006BF85521200005F049FE1821280005F0A1
:1004D000EFFE06B070BDC046001F0320D8300020DC
:1004E00040420F001C210020142100200856032048
:1004F000C4A0041057560320F0B5C646334C344D03
:10050000344E22002900300000B505F0C1FF6378A9
:10051000DB439B0720D023781B0702D404BC904602
:10052000F0BD2D4C0622002120000EF099FB210089
:10053000300005F07DFF0023E05E05F0E7FD274D6C
:1005400028600223E05E05F0E1FD68600423E05EC0
:1005500005F0DCFDA860E1E7214B06229846180073
:1005600000210EF07DFB1F4F0622002138000EF007
:1005700077FB4146280005F03DFF3900280005F0D3
:100580001BFF43460020185E05F0ACFD4346164DA8
:1005900028600220185E05F0A5FD4346686004202F
:1005A000185E05F09FFDA8600023F85E05F0A4FD2D
:1005B0000E4D28600223F85E05F09EFD686004235E
:1005C000F85E05F099FDA860A5E7C046904B0320B2
:1005D000D8300020001F03203C3C0320DC400320D7
:1005E0002C3C0320343C0320D03A0320EC3A032077
:1005F000F0B55746DE464E464546E0B58BB008910D
:100600009246190005900993DA1703238C4613408C
:1006100063449B109B009846002B00DC8FE0524601
:10062000159B00249B000193149B00259B1A159A8F
:100630009B1A089A9B00029353681268190194460A
:1006400006929A0003925246013A920007920022C3
:1006500091465A000491DF005146D3189B00424650
:100660009B4623008E0066440092019A94469C4467
:10067000039B5C19D8195346002B1EDD069B059978
:100680005A196346884600999B0043448846009562
:10069000116819600099511A0D5904325D60CD59E5
:1006A0009D600958D96010339642F1D14346079AAC
:1006B00000936346944604339C440422029B5C44AA
:1006C00063449446049AE1449446009A58442500B1
:1006D000070066444A45C8DC1C009046099B434518
:1006E00026DD149A1598089B151A52460ACBAD1AA6
:1006F000002A1DDD42469E0053439B00C918534605
:100700009800059B47469C46099BAB469846159B1F
:10071000994600234C44A2006244CD58D55004337E
:100720009842FAD1544401375C448919B845F0D154
:100730000BB03CBC90469946A246AB46F0BD0024A7
:10074000CCE7C046F0B5CE46474680B5002B1DDD50
:10075000002A1BDD940000190C680025A0464C6897
:100760009100D200494252428C469146A400614613
:1007700046183100AA0042441768121980C181420C
:10078000FAD14A460135B01AAB42F0D10CBC9046C2
:100790009946F0BDF0B5DE4657464E464546E0B5B3
:1007A00099B00B9024980C93259B013001D122988D
:1007B0002490581C00D1229B2398C417032020406A
:1007C000239CA4466044801085000720229C02954B
:1007D0008443200001940C9C002C00DC85E20091F5
:1007E000190113912699249C090151181691411E53
:1007F000C9080131C8014901099199001791269949
:100800006B438C4663449B00D31812930023A400CF
:10081000149415900493029B002B00DCC1E1099A0B
:10082000009B944663441193169B03930023059306
:100830000598049C0100A4460B9B039E0CCB5943D6
:100840006144890051180D91411C5943614489004C
:1008500051180E91811C59436144890051180F9120
:10086000C11C4B4363449B00D3181093019B34007D
:10087000002B00DC44E2009B002598460023444600
:10088000A946AA46AB46A846079506952F1C08958B
:100890000A9325683168281C0EF061F859460EF05D
:1008A00047F871688346281C0EF059F851460EF03F
:1008B0003FF8B1688246281C0EF051F849460EF008
:1008C00037F8F1688146281C0EF049F808990EF0B7
:1008D0002FF8089065683169281C0EF040F8391C23
:1008E0000EF026F87169071C281C0EF038F80699DE
:1008F0000EF01EF8B1690690281C0EF030F807992A
:100900000EF016F8F1690790281C0EF028F8414601
:100910000EF00EF88046A568316A281C0EF01FF80C
:1009200059460EF005F8716A8346281C0EF017F838
:1009300051460DF0FDFFB16A8246281C0EF00FF8FB
:1009400049460DF0F5FFF16A8146281C0EF007F8C4
:1009500008990DF0EDFF0890E568316B281C0DF04B
:10096000FEFF391C0DF0E4FF716B071C281C0DF015
:10097000F6FF06990DF0DCFFB16B0690281C0DF018
:10098000EEFF07990DF0D4FFF16B0790281C0DF0D6
:10099000E6FF41460DF0CCFF80462569316C281CEE
:1009A0000DF0DDFF59460DF0C3FF716C8346281C26
:1009B0000DF0D5FF51460DF0BBFFB16C8246281CEF
:1009C0000DF0CDFF49460DF0B3FFF16C8146281CB8
:1009D0000DF0C5FF08990DF0ABFF08906569316D0A
:1009E000281C0DF0BCFF391C0DF0A2FF716D071C17
:1009F000281C0DF0B4FF06990DF09AFFB16D06901A
:100A0000281C0DF0ACFF07990DF092FFF16D0790D7
:100A1000281C0DF0A4FF41460DF08AFF8046A56911
:100A2000316E281C0DF09BFF59460DF081FF716E51
:100A30008346281C0DF093FF51460DF079FFB16EEF
:100A40008246281C0DF08BFF49460DF071FFF16EB8
:100A50008146281C0DF083FF08990DF069FF08906E
:100A6000E569316F281C0DF07AFF391C0DF060FF2D
:100A7000716F071C281C0DF072FF06990DF058FFCE
:100A8000B16F0690281C0DF06AFF07990DF050FF1A
:100A9000F16F0790281C0DF062FF41460DF048FFF2
:100AA0008046803620340A9B019A08330A939A4282
:100AB00000DDEEE6159A039B944659466344381CC4
:100AC0001C000DF035FF5146071C06980DF030FF55
:100AD0004946061C07980DF02BFF089981464046B1
:100AE0000DF026FF119B051C9B46229B1900019BC4
:100AF000994230DD9A46A8465B4620CB2168281CE7
:100B00009B460DF02CFF011C381C0DF011FF616895
:100B1000071C281C0DF023FF011C301C0DF008FFE2
:100B2000A168061C281C0DF01AFF011C48460DF098
:100B3000FFFEE1688146281C0DF011FF011C4046B4
:100B40000DF0F6FE804601239C46229BE2441034C1
:100B50005345D1D1051C311C0E9E30680DF0E5FEC9
:100B6000391C0D9F041C38680DF0DFFE291C109DF8
:100B70003860346028680DF0D8FE0F9E4946041C8A
:100B800030680DF0D2FE1399039A8C46059B62449F
:100B90000392029A0433306005932C609A4200DD80
:100BA00046E6239B029A934200DC92E0099A009B5E
:100BB000944663440593029B129D98460B9B9B466B
:100BC0005B465E6843465E43049BA9469C465B4683
:100BD0001A6866449446B600019B66440396002B4F
:100BE00000DC89E000232E0000249A46009F316833
:100BF00038680DF0B4FE211C0DF09AFE041C7168DB
:100C000078680DF0ACFE211C0DF092FE041CB1685A
:100C1000B8680DF0A4FE211C0DF08AFE041CF168DA
:100C2000F8680DF09CFE211C0DF082FE041C316959
:100C300038690DF094FE211C0DF07AFE041C7169D8
:100C400078690DF08CFE211C0DF072FE041CB16958
:100C5000B8690DF084FE211C0DF06AFE041CF169D8
:100C6000F8690DF07CFE211C0DF062FE041C20369C
:100C7000203708239C46019BE2445345B7DC099B7F
:100C80009946059BA9449A46229B019EB34210DDDA
:100C900000274B46D9595346D8590DF060FE011C28
:100CA000201C0DF045FE041C229B01360437B34284
:100CB000EFD1211C039C20680DF037FE01239C46D8
:100CC000179BE0449C46239B20606544434500D02D
:100CD00076E71499009A8C46049B624400920C9A21
:100CE000013304939A4200D095E519B03CBC90467C
:100CF0009946A246AB46F0BD009B00249A46C3E746
:100D00000025009BA9469B462E1C2F1CEDE6C046E5
:100D100030B587B00C4B02AD00951A686946029257
:100D20009A880400AA809B796A46AB7107230193D5
:100D30000023D3732DF020FF0098A84201D00DF0BE
:100D4000A3FF200007B030BDD8A00410F0B5DE46E8
:100D500057464E464546E0B50E000168C7688946CD
:100D6000416805698A4681688DB08B464169806912
:100D70000793069050681368926805910A90291CA1
:100D800030680B92099308950DF0CFFD05990390FB
:100D900070680DF0CAFD0699051CB0680DF0C5FD20
:100DA000804607980DF05EFE80231B069C46039E3E
:100DB000009001916644514630000DF0D0FD594637
:100DC000061C281C0DF0CBFD011C301C0DF0ADFDE8
:100DD000391C061C404604970DF0C1FD011C301C57
:100DE0000DF0A3FD0DF03EFE0022684B0CF06BFDF4
:100DF000009A019B0CF067FD060048460F000DF0BD
:100E000031FE02000B0030003900169C0CF034FD5E
:100E10000CF05EFE4946206003980DF0A0FD594697
:100E2000061C40460DF09BFD011C301C0DF080FDA2
:100E30000499061C281C0DF092FD011C301C0DF0BD
:100E400074FD0DF00FFE0022504B0CF03CFD009A9B
:100E5000019B0CF038FD060050460F000DF002FE1D
:100E600002000B00300039000CF006FD0CF030FEE3
:100E700049466060281C0DF072FD5146061C404634
:100E80000DF06DFD011C301C0DF04FFD0499061C8A
:100E900003980DF064FD011C301C0DF049FD0DF0B0
:100EA000E1FD0022394B0CF00EFD009A019B0CF085
:100EB0000AFD060058460F000DF0D4FD02000B009D
:100EC000300039000CF0D8FC0CF002FE4946A0605E
:100ED00040460DF044FD5146061C281C0DF03FFD18
:100EE000011C301C0DF024FD5946051C03980DF023
:100EF00036FD011C281C0DF018FD0DF0B3FD00227D
:100F0000224B0CF0E0FC009A019B0CF0DCFC06008C
:100F100004980F000DF0A6FD02000B003000390010
:100F20000CF0AAFC0CF0D4FD089B0999E060181C99
:100F300098460DF014FD079D291C0DF010FD011CB5
:100F400040460DF0F2FC059F0A992061381C0DF017
:100F500006FD291C0DF003FD011C381C0DF0E5FCFD
:100F6000069E0B996061301C0DF0F9FC291C0DF0F8
:100F7000F6FC011C301C0DF0D8FCA06100200DB067
:100F80003CBC90469946A246AB46F0BD0000E03F0F
:100F9000F0B5DE4657464E4645468A464168E0B5BE
:100FA0008846C768816891B0066889464046391C02
:100FB000141C04930DF0D3FC4946051C301C0DF0A5
:100FC000CEFC0A90011C281C09950DF0AEFC0DF01A
:100FD00049FD02000B000CF04FFC06900791201C0D
:100FE00002940DF03FFD0B00020004000D00069876
:100FF00007990CF068FC0CF06BFD5246391C106030
:1010000048460DF0ACFC83464146301C0DF0A7FC71
:101010005A460E90011C58460B920DF089FC0DF0BB
:1010200021FD02000B000CF027FC02000B00200049
:1010300029000C920D930CF046FC0CF049FD54462F
:10104000311C6060301C0DF08AFC4146041C404697
:101050000DF085FC051C011C201C0DF066FC4946AA
:10106000089048460DF07BFC391C8346381C0DF077
:1010700076FC5946019008980DF057FC01990DF047
:1010800057FC02990F900DF06AFC53464946986050
:1010900040460DF064FC391C8046301C0DF05FFCAE
:1010A00081461A980DF0DEFC06001B980F000DF02B
:1010B000D9FC02900391291C201C0DF039FC5946E3
:1010C0000DF033FC01990DF030FC04990DF047FC54
:1010D0000DF0C8FC04000D00404649460DF028FC08
:1010E0000DF0C0FC02000B000CF0C6FB32003B0010
:1010F0000CF0E9FB02000B00200029000CF0BCFB07
:10110000029A039B04000D00069807990CF0DBFB84
:1011100002000B00200029000CF0AEFB0CF0D8FC04
:101120005346D86004980DF09DFC04000D00404625
:1011300049460DF0FAFB0DF095FC02000B000CF097
:101140009BFB22002B00049405950CF0BCFB0400D3
:101150000D00089859460DF0EBFB01990DF0E5FBE9
:101160001A990DF0FCFB0DF07DFC02000B00200035
:1011700029000CF081FB029A039B04000D000C98DF
:101180000D990CF0A0FB02000B00200029000CF0D0
:1011900073FB0CF09DFC53460A99186109980DF0F9
:1011A000C7FB0DF05FFC02000B000CF065FB049A1E
:1011B000059B0CF088FB04000D000B980E990DF0B8
:1011C000B4FB0DF04FFC02000B000CF055FB32009D
:1011D0003B000CF078FB02000B00200029000CF013
:1011E0004BFB04000D000F981B990DF0B8FB0DF0A0
:1011F00039FC02000B00200029000CF03DFB0CF034
:1012000067FC53465861002011B03CBC904699469B
:10121000A246AB46F0BDC046F0B50400DE465746D8
:101220004E4645460800E0B545680968AA46856807
:1012300095B0AB46C5684669876910910E950169FE
:10124000556810689268049690461A68069711923D
:101250005A689B6812921393FE239B05236099465C
:101260000DF063FB0DF0FEFB009001911E980DF058
:10127000F9FB06000F00009801990022924B0CF038
:1012800022FB32003B000CF01EFB0CF021FC049909
:101290000390E061281C0DF048FB0DF0E3FB0022F9
:1012A000894B049005910CF00EFB32003B000CF0D2
:1012B0000AFB0CF00DFC0699051CA06340460DF0DE
:1012C00034FB0DF0CFFB00227F4B069007910CF012
:1012D000FAFA32003B000CF0F6FA0CF0F9FB0A9037
:1012E000606550460DF0BEFB0022784B08900991D6
:1012F0000CF0E9FA32003B000CF0E5FA0CF0E8FBE8
:101300000B90206758460DF0ADFB00226F4B0C9000
:101310000D910CF0D8FA32003B000CF0D4FA0CF02E
:10132000D7FB8C238246E0500E980DF09BFB0022E9
:10133000664B0E900F910CF0C6FA32003B000CF099
:10134000C2FA0CF0C5FBA8238346E05000220098A7
:1013500001995E4B0CF0B7FA32003B000CF0B3FA87
:101360000CF0B6FB494600906060216200220698AE
:101370000799564B0CF0A7FA32003B000CF0A3FA89
:101380000CF0A6FBA5658046E06310980DF06AFBA3
:1013900000224D4B0CF097FA32003B000CF093FA10
:1013A0000CF096FB59469023051C60670022E15023
:1013B0000C980D99444B0CF086FA32003B000CF06F
:1013C00082FA0CF085FBAC230022E05004980599CA
:1013D0003E4B0CF078FA32003B000CF074FA0CF043
:1013E00077FB49460A9A83466262009AA0602164AC
:1013F000E2650E980F990022334B0CF064FA32002C
:101400003B000CF060FA0CF063FB94230B99A0678F
:10141000E5501C33E1504146E1605946A16249461E
:1014200021665146039BE16763640898099900228D
:10143000254B0CF048FA32003B000CF044FA0CF05B
:1014400047FB9823E0501C33E55000251E99119866
:101450002561E562A56465660DF081FA011C4846C8
:101460000DF063FA8023E0501C33E5501C33E55047
:10147000343B1E99129865612563E564A566E550C5
:101480000DF06DFA011C48460DF04FFAA023E05014
:101490001C33E550343BA56165632565E566E55081
:1014A0001C33E5501E9913980DF059FA011C48465B
:1014B0000DF03BFAC023E050002015B03CBC904634
:1014C0009946A246AB46F0BD0000E0BF0000E03FF9
:1014D000F0B5DE4657464E464546E0B59A460B689F
:1014E000141C8A689B464B68C9688BB00500101CA9
:1014F0008846009301920DF0B5FA02900391201CEA
:101500000DF0B0FAC02306000F00029803990022E4
:101510001B060CF0D8F932003B000CF0D4F90CF0AB
:10152000D7FA0890286040460DF09CFA02000B00A4
:101530000CF0A2F932003B000CF0C5F90CF0C8FA2F
:10154000041CA86158460DF08DFAC02300221B062A
:10155000049005910CF0B7F932003B000CF0B3F9A0
:101560000CF0B6FA286300980DF07CFA02000B002C
:10157000069007910CF080F932003B000CF0A3F9C3
:101580000CF0A6FA002190238946A8642966A96771
:10159000E95068600498059902000B000CF06CF9A2
:1015A00032003B000CF08FF90CF092FA6C6304905F
:1015B000E8610298039902000B000CF05DF932001B
:1015C0003B000CF080F90CF083FA49469423E86460
:1015D0006966E967E950C02306980799049A1B06D3
:1015E000AA6000220CF06FF932003B000CF06BF99E
:1015F0000CF06EFA089B4946AB63802328622C6589
:10160000A966E9501833E950404614990DF0A7F93E
:10161000019F1599061C381C0DF0A1F95146041CB8
:1016200058460DF09CF9311C0DF082F9211C0694EE
:101630000DF07BF9011C0DF07BF951460990E86033
:1016400000980DF08CF91499041C381C01970DF0CA
:1016500086F9011C201C0DF06BF91599041C4046FD
:101660000DF07DF9011C201C0DF062F9011C0DF03C
:101670005FF914990290686200980DF070F915995D
:10168000089058460DF06BF9019A80249446240680
:101690006444071C514620000DF061F908990DF0D3
:1016A00047F9391C0DF041F9011C0DF041F914996D
:1016B000E86358460DF053F91599049000980DF021
:1016C0004EF9802212064244041C514610000DF0CF
:1016D00046F904990DF02CF9211C0DF029F9011C93
:1016E0000DF026F94A468423EA666865EA50183305
:1016F000EA505146286101980DF031F908990DF032
:1017000014F9391C0DF014F9011C0DF011F9071C26
:10171000A8628020029B00062B64514658440DF0BD
:101720001EF9311C0DF001F906990DF001F9011CAB
:101730000DF0FEF88823A86548462867E85018335E
:10174000E850514640466F610DF009F904990DF0DB
:10175000ECF8211C0DF0E9F8011C0DF0E9F8099AEC
:10176000E8626A64029B4A46EB654B466B678C23D2
:101770000020EA501833EA500BB03CBC9046994622
:10178000A246AB46F0BDC046F0B54546DE465746DC
:101790004E46E0B53B4CC723A54434AA9446634467
:1017A0001B091B0105938B68049031930B683391DF
:1017B0001A6864462A929A692B921A6B2C929A6C38
:1017C0002D921A6E2E929A6F2F9290229A583092E2
:1017D0005A680692DA6908925A6B0992DA6C0A9290
:1017E0005A6E0B92DA6F0C9294229A580D929A6864
:1017F0000E921A6A0F929A6B10921A6D11929A6E4B
:10180000129280229A58139298229A581492DA6867
:1018100015925A6A1692DA6B17925A6D1892DA6E0E
:10182000199284229A581A929C229A581B921A69E9
:1018300032941C929A6A1D921A6C1E929A6D1F9293
:101840001A6F209288229A582192A0229A582292A6
:101850005A692392DA6A24925A6C2592DA6D26929A
:101860005A6F27928C229A582892A4229B58299327
:101870004B689846C423434407934346E0461C0004
:1018800002E0C046ACFDFFFFE168A268894621691D
:101890002368484603912D99029201930DF05FF859
:1018A0002E99824603980DF05AF8011C50460DF00F
:1018B0003FF8676982462F99381C0DF050F8A669E9
:1018C00083463099301C0DF04AF8011C58460DF043
:1018D0002FF8011C50460DF02BF8656882462B99B5
:1018E000281C0DF03CF82C99834602980DF037F82F
:1018F000011C58460DF01CF82A99834601980DF0FA
:101900002EF8011C58460DF013F8011C50460DF03E
:101910000FF84346494618600A980DF020F80399DD
:1019200082460B980DF01BF8011C50460DF000F894
:10193000391C82460C980DF012F8311C83460D9824
:101940000DF00DF8011C58460CF0F2FF011C50463A
:101950000CF0EEFF291C824608980DF000F8029961
:10196000834609980CF0FBFF011C58460CF0E0FF81
:101970000199834606980CF0F2FF011C58460CF0C2
:10198000D7FF011C50460CF0D3FF43464946586030
:1019900011980CF0E4FF0399824612980CF0DFFFD7
:1019A000011C50460CF0C4FF391C824613980CF001
:1019B000D6FF311C834614980CF0D1FF011C584609
:1019C0000CF0B6FF011C50460CF0B2FF291C8246F9
:1019D0000F980CF0C4FF0299834610980CF0BFFFDB
:1019E000011C58460CF0A4FF019983460E980CF098
:1019F000B6FF011C58460CF09BFF011C50460CF032
:101A000097FF43464946986018980CF0A8FF039941
:101A1000824619980CF0A3FF011C50460CF088FF79
:101A2000391C82461A980CF09AFF311C83461B9889
:101A30000CF095FF011C58460CF07AFF011C504633
:101A40000CF076FF291C824616980CF088FF02994C
:101A5000834617980CF083FF011C58460CF068FF72
:101A60000199834615980CF07AFF011C58460CF03A
:101A70005FFF011C50460CF05BFF43464946D860AF
:101A80001F980CF06CFF0399824620980CF067FFBA
:101A9000011C50460CF04CFF391C824621980CF07A
:101AA0005EFF311C834622980CF059FF011C5846FA
:101AB0000CF03EFF011C50460CF03AFF291C8246F8
:101AC0001D980CF04CFF029983461E980CF047FFBE
:101AD000011C58460CF02CFF019983461C980CF011
:101AE0003EFF011C58460CF023FF011C50460CF031
:101AF0001FFF43464946186126980CF030FF0399B2
:101B0000814627980CF02BFF011C48460CF010FF73
:101B1000391C814628980CF022FF311C071C29989B
:101B20000CF01DFF011C381C0CF002FF011C484684
:101B30000CF0FEFE291C061C24980CF010FF0299E4
:101B4000051C25980CF00BFF011C281C0CF0F0FE66
:101B50000199051C23980CF002FF011C281C0CF0B5
:101B6000E7FE011C301C0CF0E3FE434658611823CD
:101B70009C46079B1C34E044A34200D084E6319A83
:101B80001368089393690993136B0A93936C0B93EF
:101B9000136E0C93936F0D939023D3580E93536849
:101BA0000F93D3691093536B1193D36C1293536EAD
:101BB0001393D36F14939423D35815939368169368
:101BC000136A1793936B1893136D1993936E1A936B
:101BD0008023D3581B939823D3581C93D3681D9309
:101BE000536A1E93D36B1F93536D2093D36E21932F
:101BF0008423D35822939C23D3582393136924938B
:101C0000936A2593136C2693936D2793136F059C0A
:101C100028938823D35820342993A023D358A1464E
:101C20002A9353692B93D36A2C93536C2D93D36DC2
:101C30002E93536F2F938C23D3583093A423D358D0
:101C4000319358AB0693329B1A009846183207928C
:101C500043464246414640461B6895690193069BB0
:101C6000146B096E926C40CB876F0291101C0B991C
:101C7000039206930CF073FE0C99824602980CF0C6
:101C80006EFE011C50460CF053FE0D998246381C26
:101C90000CF065FE0E998346301C0CF060FE011CB2
:101CA00058460CF045FE011C50460CF041FE0999C7
:101CB0008246281C0CF053FE0A998346201C0CF027
:101CC0004EFE011C58460CF033FE089983460198DD
:101CD0000CF045FE011C58460CF02AFE011C504633
:101CE0000CF026FE4B461299186003980CF037FE54
:101CF0001399824602980CF032FE011C50460CF0FB
:101D000017FE14998246381C0CF029FE159983465B
:101D1000301C0CF024FE011C58460CF009FE011C7E
:101D200050460CF005FE10998246281C0CF017FE58
:101D300011998346201C0CF012FE011C58460CF031
:101D4000F7FD0F99834601980CF009FE011C5846D7
:101D50000CF0EEFD011C50460CF0EAFD4B461999C3
:101D6000586003980CF0FBFD1A99824602980CF01B
:101D7000F6FD011C50460CF0DBFD1B998246381C19
:101D80000CF0EDFD1C998346301C0CF0E8FD011CA5
:101D900058460CF0CDFD011C50460CF0C9FD1799BA
:101DA0008246281C0CF0DBFD18998346201C0CF0A1
:101DB000D6FD011C58460CF0BBFD169983460198D0
:101DC0000CF0CDFD011C58460CF0B2FD011C504634
:101DD0000CF0AEFD4B462099986003980CF0BFFDC7
:101DE0002199824602980CF0BAFD011C50460CF075
:101DF0009FFD22998246381C0CF0B1FD2399834641
:101E0000301C0CF0ACFD011C58460CF091FD011C7F
:101E100050460CF08DFD1E998246281C0CF09FFD4B
:101E20001F998346201C0CF09AFD011C58460CF0AB
:101E30007FFD1D99834601980CF091FD011C5846C9
:101E40000CF076FD011C50460CF072FD4B462799B4
:101E5000D86003980CF083FD2899824602980CF014
:101E60007EFD011C50460CF063FD29998246381C0A
:101E70000CF075FD2A998346301C0CF070FD011C96
:101E800058460CF055FD011C50460CF051FD2599AB
:101E90008246281C0CF063FD26998346201C0CF01A
:101EA0005EFD011C58460CF043FD249983460198C1
:101EB0000CF055FD011C58460CF03AFD011C504633
:101EC0000CF036FD4B462E99186103980CF047FD37
:101ED0002F99824602980CF042FD011C50460CF0EE
:101EE00027FD30998246381C0CF039FD3199071CCA
:101EF000301C0CF034FD011C381C0CF019FD011CC9
:101F000050460CF015FD2C99061C281C0CF027FDE2
:101F10002D99051C201C0CF022FD011C281C0CF026
:101F200007FD2B99041C01980CF019FD011C201CC5
:101F30000CF0FEFC011C301C0CF0FAFC4B46586106
:101F400004239C461433E0449C46079BE144984597
:101F500000D07DE6339B059DDC68296A20680CF083
:101F6000E7FC049EA96B306060680CF0E1FC7060D7
:101F7000A068296D0CF0DCFCB060E068A96E0CF084
:101F8000D7FC8023F0602069E95898460CF0D0FC1B
:101F900098233061E95860690CF0CAFC7061A0694F
:101FA000696A0CF0C5FCB061E069E96B0CF0C0FC3B
:101FB000F061206A696D0CF0BBFC3062E96E606A0A
:101FC0000CF0B6FC84277062A06AE9590CF0B0FCF2
:101FD0009C23B062E958E06A0CF0AAFCF062206B26
:101FE000A96A0CF0A5FC3063606B296C0CF0A0FCB6
:101FF0007063A06BA96D0CF09BFCB063E06B296F64
:102000000CF096FC0496F0638826206CA9590CF01D
:102010008FFC049B1864A023606CE9580CF088FCCA
:10202000049BE96A5864A06C0CF082FC049B696C08
:102030009864E06C0CF07CFC049BE96DD864206D26
:102040000CF076FC049B696F1865606D05950CF0CB
:102050006FFC8C25049A059B5065A06D59590CF0B6
:1020600067FCA423049A9065059AE06DD1580CF0A2
:102070005FFC0499059AC865206E116B0CF058FC42
:102080000499059A0866916C606E0CF051FC0499F5
:10209000059A4866A06E116E0CF04AFC0499059AE8
:1020A0008866E06E916F0CF043FC90230499059ACA
:1020B000C866206FD1580CF03BFCA8230499059A00
:1020C0000867606FD1580CF033FC0499059A486793
:1020D000A16F506B0CF02CFC0499059A8867E16F96
:1020E000D06C0CF025FC0499059AC867404621582D
:1020F000506E0CF01DFC4146049B059A5850E15966
:10210000D06F0CF015FC049BD8519423059FA15966
:10211000F8580CF00DFC049B9851AC236159F85809
:102120000CF006FC049B585195239B009D443CBC3D
:1021300090469946A246AB46F0BDC046F0B54E4625
:102140004546DE4657460023E0B51360836887B0F6
:102150009846049200230268052691460093013BAD
:10216000019003910293052345469B1B9A465D43CC
:102170004B46002B00D197E15544AD004D442B68F0
:102180005C006B6864085F007F08391C381C0CF029
:1021900030FC002800D0E8E0211C381C0CF024FCA6
:1021A000002800D0E8E00027731C9B46012E53D086
:1021B000AB685B005B08191C181C98460CF019FCF6
:1021C000002800D04DE14046211C0CF00DFC0028F9
:1021D00001D0444602275B46032B3DD0EB685B00F1
:1021E0005B08191C181C98460CF003FC002800D052
:1021F0003FE14146201C0CF0E9FB002801D0444699
:1022000003275B46042B27D02B695B005B08191C56
:10221000181C98460CF0EDFB002800D031E1414637
:10222000201C0CF0D3FB002801D0444604275B4659
:10223000052B11D06D696D006D08291C281C0CF050
:10224000D8FB002800D024E1291C201C0CF0BEFB88
:10225000002801D005272C1C039B009A574400211D
:102260009F50201C0CF0AAFB002800D187E0029BA5
:10227000013300D1EBE05746019B9B6898465F43D2
:1022800006239C1B06239B1BDF19434642466343E0
:102290009D001C19002392009346009A9A4694468A
:1022A000BF006544A4004F444D444C44396828683D
:1022B0000CF055FB011C20680CF037FB2060012E50
:1022C00029D0796828680CF04AFB011C60680CF082
:1022D0002CFB6060022E1ED02968B8680CF03FFB12
:1022E000011CA0680CF021FBA060032E13D029680C
:1022F000F8680CF034FB011CE0680CF016FBE060A1
:10230000052E08D1296838690CF029FB011C2069C9
:102310000CF00BFB206101239C46E2445D445C44CD
:102320005645C3D1009B013E04330093002E00D0DC
:1023300019E70523039A00215361019B9A68013232
:1023400093009B184A469B0098580CF037FB0028D6
:1023500003D0029B013300D1A3E0029807B03CBC3C
:1023600090469946A246AB46F0BD211C201C0CF0BD
:1023700040FB002800D00FE73C1C012714E757451D
:102380002FD049464C46019ABB0000984B441D682B
:1023900092680958920025504844196081189B188A
:1023A00008681C680C60186089189B1808681C680D
:1023B0000C60186089189B1808681C680C6018600D
:1023C00089189B1808681C680C60186089189B188D
:1023D00018680A6808601A60049A13680593013344
:1023E00013605746019B4A469B685F439846062305
:1023F0009C1B5346FB183D199B009B58AD004D4458
:102400002868191C9A460CF096FA2860012E00D113
:1024100038E7686851460CF08EFA6860022E00D1E9
:1024200030E7A86851460CF086FAA860032E00D168
:1024300028E7E86851460CF07EFAE860042E00D1E7
:1024400020E7286951460CF076FA28611AE75746CA
:10245000019B9B6898465F4306239C1B534602934F
:1024600010E7211C201C0CF0C4FA002800D1B0E6B3
:10247000A9E6211C201C0CF0BCFA002800D1BEE605
:10248000B7E6211C201C0CF0B4FA002800D1CCE6E1
:10249000C5E6211C201C0CF0ACFA002800D1D9E6BE
:1024A000D2E60523029358E71B68FFDEF0B5DE464F
:1024B0004E4645465746E0B589B001AF3A000500A3
:1024C000059005AB03CB03C26B682C005800AB68CA
:1024D0004008590049080CF02BFA2B6859004908AC
:1024E0000CF026FA2B69061C58006B69400859004D
:1024F00049080CF01DFAEB68590049080CF018FA6D
:10250000011C301C0CF014FAEB69804658002B6A51
:102510004008590049080CF00BFAAB69590049080A
:102520000CF006FAAB6A061C5800EB6A400859002A
:1025300049080CF0FDF96B6A590049080CF0F8F9EC
:10254000011C301C0CF0F4F96B6B81465800AB6B2E
:102550004008590049080CF0EBF92B6B5900490869
:102560000CF0E6F92B6C061C58006B6C4008590007
:1025700049080CF0DDF9EB6B590049080CF0D8F96B
:10258000011C301C0CF0D4F9061C011C48460CF050
:102590001DFA002800D14E464046311C0CF016FAB8
:1025A000002800D14646E36C5800236D40085900CE
:1025B00049080CF0BDF9A36C590049080CF0B8F9B2
:1025C000A36D80465800E36D4008590049080CF09F
:1025D000AFF9636D590049080CF0AAF9011C404697
:1025E0000CF0A6F9636E80465800A36E40085900AF
:1025F00049080CF09DF9236E590049080CF098F930
:10260000236F81465800636F4008590049080CF059
:102610008FF9E36E590049080CF08AF9011C48460D
:102620000CF086F9E36F814658008023E15840089A
:10263000490049080CF07CF9A36F590049080CF0D7
:1026400077F988238246E0580433E1584000490076
:10265000490840080CF06CF98423E1584900490806
:102660000CF066F9011C50460CF062F9041C011CC8
:1026700048460CF0ABF9002800D14C464046211CDE
:102680000CF0A4F9002800D14446211C301C0CF0A9
:102690009DF9002800D1341CC0232900EC503A00D9
:1026A000BA3BA83104A806930495FFF747FD012122
:1026B000C422019B98260B405B428B430133AB54F1
:1026C000343A9246002250469C272A509432A95010
:1026D0009346923AAA510132EA519D32944660469D
:1026E0009C3A2A50A03291469F3A90464A4640462C
:1026F0002B00A85048461832AA58903392009A18D6
:1027000014682C50404610606046B8222858AA58D9
:102710008046604692009A1814682C50404610601B
:10272000B422E859AA58844692009A1810685C4668
:10273000E85160461060B022AA58AF5992009A182A
:102740001068A8511760AC225846AA582E5892001B
:102750009A18106828511660A822AA585446920068
:102760009B1852461868AA5828511A60C523E95484
:1027700009B03CBC90469946A246AB46F0BDC04667
:10278000C023002210B5C25000220433C2520B688D
:10279000040003604B6843608B688360CB68C36050
:1027A0000B6903614B6943618B698361CB69C361C9
:1027B0000B6A03624B6A43628B6A8362CB6AC362B1
:1027C0000B6B03634B6B43638B6B8363CB6BC36399
:1027D0000B6C03644B6C43648B6C8364CB6CC36481
:1027E0000B6D03654B6D43658B6D8365CB6DC36569
:1027F0000B6E03664B6E43668B6E8366CB6EC36651
:102800000B6F03674B6F43678B6F8367CB6FC36738
:102810008023CA58C2500433CA58C2500433CA581D
:10282000C2500433CA58C250FFF740FE200010BD0A
:1028300010B5037A0400002B07D00068002804D0EC
:10284000431E1B78C01A0CF0F3F9200010BDC046DF
:10285000F0B557464E464546DE46E0B5B5B006AF44
:10286000FB64EC23E84DF861F9633A67FB181E68D6
:102870002B78BFF35B8FDB0700D484E2E34C636803
:10288000FA699A4633697B62B3683B62934200DD22
:102890003A627A6A3B6A53439946FB6B53439846C4
:1028A0008023DB05994500D351E233683B65002B5B
:1028B00000D155E24B4600249D00A023A422FB1822
:1028C0001C604B46BA18136080239B02AB42AD419B
:1028D000A8236D42FB181D708023DB05984500D3AB
:1028E00019E27368FB60002B00D11DE2434600240F
:1028F0009D00AC23B022FB181C604346BA1813603D
:1029000080239B02AB42AD41B4236D42FB181D7086
:1029100004237B64FB6B002B15DDE8203A18FB6970
:1029200012681900934200DAF3E1504609010AF0F7
:1029300053FD0323C21713401B189B109B007B649D
:10294000042B00DAE2E1F969002900DC7BE17B6A13
:10295000B9611A00C91A9C463961E821F86C9B00DC
:1029600042433B60BA607B1862441B687A607A6CB1
:102970005343BB628300FB650433BB65431C9B0070
:10298000BB667B181B689B007B66E023FB181B68FB
:102990003B6300237B63BB637B613B668C20BB692D
:1029A0003A1813607A6A934201DD3B181A60FB6B98
:1029B000002B00DC18E18C23FB181B68002B00DCCB
:1029C00012E1FA6BBA647A6C53439B00FB62FB68BA
:1029D0007B6700237B653B6498339A46BA4480202A
:1029E000BB6C3A1813607A6C934201DD3B181A6095
:1029F0003A6B7B6D944690229B006344BA18136037
:102A000084227B6BBA181360BB6BFB67002399466B
:102A10008C234A46FB181B689B1A9846BB67042BFD
:102A200001DD042398463B6E94224B44FB664346EB
:102A30005E1E8423FB181B68BA189D003B6F9C46E2
:102A40009023FB181B6865441360002E46D0942326
:102A50008822FB181C680023B3462E00BA181360A6
:102A600025687168281C0BF07AFF011C60680BF068
:102A70005CFF5B466060012B14D0B168281C0BF032
:102A80006EFF011CA0680BF050FF5B46A060022B9C
:102A900008D0F168281C0BF062FF011CE0680BF005
:102AA00044FFE0608822BB181B68BA18013313602A
:102AB0007A6E94468022BA18126864449342CFD149
:102AC0009422BB6E35005E469C46BB181B68BA1844
:102AD0000433013E65441360002EB8D14246BB6FFB
:102AE00051469C1A90225346BA1812681A60E8227E
:102AF000BA1812685A604B4601938C23FB181B6866
:102B0000424600938023FB181B68786FFDF770FD29
:102B1000002C37DDFB6E3A6F43441D00944652464D
:102B2000FB6F3E6D5B199B00634413605346FA6C68
:102B300051465A60300023004246FDF703FE7B6D8C
:102B4000E8229C46E023FB181B6865449C465346DC
:102B5000BA181268AD0065441D605A604B46049374
:102B60008C23FB181B683100039343460293802398
:102B7000FB181B6850460193434600937A6F23006D
:102B8000FDF708FE04239C46FA6DE144944690222A
:102B9000FB6F84216344FB67BB181B68BA181033B2
:102BA0001360BA6D7B1894461B687A1863441360EF
:102BB0008C23FB181B684B4500DD29E77A6CB96C48
:102BC00094463B6C8A1AB96A63448C46BA64F96AC3
:102BD0007A6D3B6462448C467A657A6F62447A67A8
:102BE000FA6B9A4200DDFAE67A6A3B6E9446FA691D
:102BF00063443B669A4226DD3A6A002A36DCF9696C
:102C00009B189942FCDC03E068210320283703204D
:102C1000BA697B6A7969D21ABA61BA6808009446BF
:102C200039697A68CB1A3B61BB6B60446344944654
:102C3000BB633A687B6B7861634494467B633B6B10
:102C400063443B63AAE6982414233A19D018FFF78B
:102C5000EFFD08233A19D018FFF7EAFDBD462FB063
:102C60003CBC90469946A246AB46F0BD3A6F7B69A4
:102C7000944694229B006344BA1813603B6E3E69ED
:102C8000984698239A4600239B46013B9946330079
:102C9000BA444646544698463B6AC246984500DDCB
:102CA0009A4694238C22FB181B68B500EB1823600E
:102CB000FB6CB9180A68386D210063605346FDF754
:102CC00041FDE02179180B68E82179189C460B68D2
:102CD000654463605B46256004934B46039302930F
:102CE000FB6B200001938C23FB181B680093FA6890
:102CF0005346396DFDF74EFD42463B6A9C46D31A5A
:102D00009846FB696644B342C6DC81E704237B64D2
:102D100019E6110009E6012040420BF0ADFF73688F
:102D2000FB60002B00D0E1E543469D0080239B0221
:102D30009D424AD82B006A461633DB08DB00D31AC3
:102D40009D4627240F236C449C43FC60D1E5012061
:102D500040420BF091FF33683B65002B00D0A9E5A2
:102D60004B469D0080239B029D421ED82B006A4645
:102D70001633DB08DB00D31A9D4627240F236C444F
:102D80009C433C6599E528000EF040FC1D4C002852
:102D900000D174E58023DB01236080231B0328001E
:102DA0006360A3600EF04EFC69E5280010300BF064
:102DB00021FF041E19D00F22102302409B1ADBB200
:102DC000C418621E13703C6577E5280010300BF0C4
:102DD00011FF041E0FD00F22102302409B1ADBB2FA
:102DE000C418621E1370FC6083E5012040420BF0A2
:102DF00043FF3C6561E5012040420BF03DFFFC6074
:102E000077E5C04628370320F0B5DE4657464E46E4
:102E10004546E0B5B9B006AFFB67FC23384DB96352
:102E2000BA64FB181E682B788346BFF35B8FDB0701
:102E300000D4C1E2334C63689A4633697B61B3685E
:102E40003B615B4501DD5B463B617A693B6953430E
:102E50009946BB6B534398468023DB05994500D3C5
:102E60008EE233683B65002B00D192E24B46002492
:102E70009D00B023B422FB181C604B46BA181360A7
:102E800080239B02AB42AD41B8236D42FB181D70FD
:102E90008023DB05984500D356E27368FB61002B65
:102EA00000D15AE2434600249D00BC23C022FB18F7
:102EB0001C604346BA18136080239B02AB42AD41AD
:102EC000C4236D42FB181D7004233B64BB6B002BB5
:102ED0001ADDF823FB181B6859469B4500DA2FE2E0
:102EE000504609010AF078FA0323C21713401B1851
:102EF0009B109B003B64042B00DA1EE204E0C046FA
:102F000068210320283703205B46002B00DC00E209
:102F1000FA6F78691100434259430B00F960594632
:102F20000C1A110062431B1A9B00BA61BB600A00B5
:102F30000B0059464B43B96C5B448C46F0219B0017
:102F40006344FB627918830009685B427B605B46DF
:102F50008C46F8219B006344791809683B633B6CFD
:102F60007C634B433B6293005B423B66043B7B6567
:102F70009B00BB65D3439B00A422BB668B007B6692
:102F80005B46BA1813600300A422BA1812683B67A4
:102F9000934200DD3A67BB6B002B00DC58E13A6FCF
:102FA000002A00DC54E17B643B6C396B53439B008B
:102FB0007B62FB69FB669300CB1ABB6200237B67D5
:102FC000FB63A433FB181B6803219B1ABB67130028
:102FD000013B043A8B43D31AFB6590227B6CBA18F1
:102FE00013603A6C934202DD9023FB181A60BA6AB0
:102FF0007B6F94469B009C446246FA643A6B94460D
:1030000098226344BA1813609422FB6ABA181360BA
:103010003B6F9A465346D346042B01DD04239B465F
:103020008022BB6FBA18534413605B465E1E7B6DF3
:10303000F96F99469423FB181A685B4690465B42E9
:103040005B1A9B00A422C14498440123BA185B4236
:1030500013604B46FE20196880050BF06CFC8C2336
:103060009821FB181860A42379180968FB188C466E
:1030700084211A687918931B9C009B005B420B60AB
:1030800093009C22BA181360A0220023BA1864444B
:1030900013608423FB181B6888229C46A444634663
:1030A000BA1813609C22BA18126899588C23FB181E
:1030B00018680BF054FC88239C22FB18BA181B6874
:1030C0001268051C9850002E20D0434619680BF05A
:1030D00046FC011C20680BF028FC2060012E15D056
:1030E0004346281C59680BF03AFC011C60680BF041
:1030F0001CFC6060022E09D04346281C99680BF026
:103100002EFC011CA0680BF010FCA060A023A022E4
:10311000FB181B68BA18013313607A6E944690222C
:10312000BA18126864449342B3D1A423A422FB18B2
:103130001B68BA18013B1360BB6E9C463B6EE144B2
:103140009C46E044013E84D25A4653469C1A802352
:10315000FB181B68A8219D1AF022BA1812687B6F11
:103160009446A8225B199B006344BA181360F823A5
:10317000AC22FB181B68BA181360902301943E6FB1
:10318000FB1800961B68F86E5A46791899468046D7
:10319000FDF72EFA002C2DDDBA6FF96F94464D43E2
:1031A000BA6C6544A8239446AD006544FB181D60C5
:1031B000AC23FB181960A82123005A46386D7918F2
:1031C000FDF7C0FAA823FD6CFB181D60F823FB185F
:1031D0001D68AC23FB181D605D464B46A82001937B
:1031E000049403960295009523004246396D3818E1
:1031F000FDF7D0FA04235B429C46BA6DE244944644
:1032000094229833FB181B68BA1863441360982300
:103210009822FB181B68BA18103B1360FB6D5345CE
:1032200000D0F7E63A6C796C9446FB6B8A1A796A9F
:1032300063448C467A64396AFA6EFB6362448C4656
:10324000FA667A6F62447A67BA6B9A4200DDC4E626
:10325000A4227B6BBA181360002B5ADDBA6C1C00D9
:103260009146BB6900259B0099440023CB469A46B2
:103270003E69A046B44200DDB0464346002B2EDD39
:10328000A822AB009946BA185B441360AC22A8216F
:10329000FB6FBA181360386D43463A6F7918FDF723
:1032A00051FAF023A822FB181B68BA184B4413608C
:1032B000F823AC22FB181B68BA181360534604931A
:1032C0000123A8205B4203930293BB6B3818019340
:1032D0003B6F0093FA694346396DFDF75BFA7B6BF0
:1032E000AD19A41BAB42C4DCFA68BB699446BA684A
:1032F00063449446BB617A68FB6A63449446FB620C
:103300003B6B7A6963443B637B6B9B1A7B63130063
:103310003AE6A8221423BA18D018FFF789FAA8228F
:103320000823BA18D018FFF783FABD4633B03CBC67
:1033300090469946A246AB46F0BD04233B64E3E5C4
:10334000F823FB181968CBE5012040420BF094FCF0
:103350007368FB61002B00D0A4E543469D008023E9
:103360009B029D424AD82B006A461633DB08DB00DD
:10337000D31A9D4627240F236C449C43FC6194E59B
:10338000012040420BF078FC33683B65002B00D0F5
:103390006CE54B469D0080239B029D421ED82B006E
:1033A0006A461633DB08DB00D31A9D4627240F2319
:1033B0006C449C433C655CE528000EF027F91D4CED
:1033C000002800D137E58023DB01236080231B0325
:1033D00028006360A3600EF035F92CE5280010305A
:1033E0000BF008FC041E19D00F22102302409B1A78
:1033F000DBB2C418621E13703C653AE52800103039
:103400000BF0F8FB041E0FD00F22102302409B1A72
:10341000DBB2C418621E1370FC6146E50120404215
:103420000BF02AFC3C6524E5012040420BF024FC13
:10343000FC613AE528370320F0B5DE4645464E46A6
:103440005746E0B5214C1600A5443AAA94460A0016
:103450000B931F4B099063441B0904911D01FDABA5
:1034600013CA13C313CA13C31268FDA91A60194BF8
:10347000194A1B6847A80593184B47AC1B68019372
:10348000174B1B6806930093059BFEF721F83AAA99
:10349000944647ABFD93FF93124BFFAA63441B680E
:1034A0000432FE9613608623DB009C46AC446046E3
:1034B000CCAAFDA90D90FEF767F96BAB0C93230026
:1034C0000A9498462C000E950EE0C0466CF6FFFF5D
:1034D000EF030000FC1E03200AE81C41F41E032039
:1034E000F81E0320D80800004346404645461B68A6
:1034F000806C05930C9BAF6F814620CB41464046C4
:1035000042460C93A823096B006E926907910890BC
:10351000F158281C06920BF022FA8C238246F158AF
:10352000381C0BF01CFA011C50460BF001FA316FED
:10353000824608980BF013FA716D834648460BF0EB
:103540000EFA011C58460BF0F3F9011C50460BF023
:10355000EFF9B16B824607980BF001FAF1698346E7
:1035600006980BF0FCF9011C58460BF0E1F93168A4
:10357000834605980BF0F3F9011C58460BF0D8F977
:10358000011C50460BF0D4F9AC232060F158281CE4
:103590000BF0E5F990238246F158381C0BF0DFF967
:1035A000011C50460BF0C4F9716F824608980BF06D
:1035B000D6F9B16D834648460BF0D1F9011C584647
:1035C0000BF0B6F9011C50460BF0B2F9F16B8246D4
:1035D00007980BF0C4F9316A834606980BF0BFF9DF
:1035E000011C58460BF0A4F97168834605980BF04E
:1035F000B6F9011C58460BF09BF9011C50460BF024
:1036000097F9B0236060F158281C0BF0A8F99423B7
:103610008246F158381C0BF0A2F9011C50460BF001
:1036200087F9B16F824608980BF099F9F16D8346DE
:1036300048460BF094F9011C58460BF079F9011C2F
:1036400050460BF075F9316C824607980BF087F9FC
:10365000716A834606980BF082F9011C58460BF0FC
:1036600067F9B168834605980BF079F9011C584653
:103670000BF05EF9011C50460BF05AF9B423A06020
:10368000F158281C0BF06BF998238246F158381C2E
:103690000BF065F9011C50460BF04AF9F16F8246B8
:1036A00008980BF05CF9316E834648460BF057F9E9
:1036B000011C58460BF03CF9011C50460BF038F940
:1036C000716C824607980BF04AF9B16A83460698F6
:1036D0000BF045F9011C58460BF02AF9F1688346B6
:1036E00005980BF03CF9011C58460BF021F9011C20
:1036F00050460BF01DF9B823E060F158281C0BF080
:103700002EF99C238246F158381C0BF028F9011C35
:1037100050460BF00DF980238246F15808980BF0C3
:103720001EF9716E834648460BF019F9011C584684
:103730000BF0FEF8011C50460BF0FAF8B16C824613
:1037400007980BF00CF9F16A834606980BF007F91D
:10375000011C58460BF0ECF83169834605980BF0D4
:10376000FEF8011C58460BF0E3F8011C50460BF024
:10377000DFF8BC232061F158281C0BF0F0F8A023DF
:103780008246F158381C0BF0EAF8011C50460BF049
:10379000CFF884238246F15808980BF0E0F8B16E18
:1037A000834648460BF0DBF8011C58460BF0C0F886
:1037B000011C50460BF0BCF8F16C824607980BF0E8
:1037C000CEF8316B834606980BF0C9F8011C5846B9
:1037D0000BF0AEF87169834605980BF0C0F8011C38
:1037E00058460BF0A5F8011C50460BF0A1F8F16EFD
:1037F000606148460BF0B3F888238146F158089879
:103800000BF0ADF8011C48460BF092F8A42381465A
:10381000F158381C9A460BF0A2F8C023071CF15847
:10382000281C0BF09CF8011C381C0BF081F8011CC3
:1038300048460BF07DF8716B051C06980BF08FF86D
:10384000316D071C07980BF08AF8011C381C0BF02F
:103850006FF8B169071C05980BF081F8011C381C42
:103860000BF066F8011C281C0BF062F804239C4640
:103870004DABE044A0611C34984500D034E6D82319
:103880000E9D9B00EC1820000D99FEF779FFA423F4
:103890009B009B46AB442100902258460BF0E6F972
:1038A000C8239B00EC18D033E918182220000BF035
:1038B000DDF9CE239B00E818D033E91818220BF06D
:1038C000D5F98422D423D200AA1812689B00EB18E1
:1038D0001A60D523744A2F00AA1812889B00EB188F
:1038E000FE211A8000232268B0379200BA18890599
:1038F000116093611363936413669367C922920006
:10390000AA181268D13C9200BA181360916113632F
:10391000936413669367CA229200AA181268FF3C48
:103920009200BA18136093611163936413669367EE
:10393000CB229200AA18126806209200BA181360CF
:1039400093611363916413669367CC229200AA1863
:1039500012689200BA18136093611363936411663E
:103960009367CD229200AA1812689200BA181360C9
:1039700093611363936413660623A360E36023617A
:1039800098466B33FF339946A94491674A46203BDA
:10399000EA50802292009446AC44624641466260FE
:1039A0004B3B02910539059203945A460191FF3B26
:1039B00005310097FEF74CFF4046A823A060E06069
:1039C000206148465B00E85001214346059A0620E5
:1039D00062600394029301915A4600970531FFF704
:1039E00013FA2B68B8461C93EB69FDAC1D93AB6BC7
:1039F0001E936B6D1F932B6F20938C23EB58219399
:103A00006B682B932B6A2C93EB6B2D93AB6D2293EE
:103A10006B6F23939023EB582493AB6825936B6AC9
:103A200026932B6C2793EB6D2893AB6F29939423EC
:103A3000EB582A93EB682E93AB6A1B936B6C07933E
:103A40002B6E0C93EB6F0D939823EB580E932B6911
:103A50000F93EB6A1093AB6C11936B6E2F938023D3
:103A6000EB5830939C23EB5831936B6912932B6B7B
:103A70001393EB6C34961493AB6E15938423EB582D
:103A80001693A023EB581793AB6918936B6B19939C
:103A90002B6D1A93EB6E32938823EB5808935346A1
:103AA000EB58339302E0C0462404000043461F68ED
:103AB0005B6842469946434641469B68D2680E6918
:103AC0004D691D984946059306920AF048FF0599ED
:103AD00082461E980AF043FF011C50460AF028FF58
:103AE000391C82461C980AF03AFF011C50460AF025
:103AF0001FFF311C824620980AF031FF291C8346A3
:103B000021980AF02CFF011C58460AF011FF069973
:103B100083461F980AF023FF011C58460AF008FF4D
:103B2000011C50460AF004FF494620602C980AF018
:103B300016FF059982462D980AF011FF011C504688
:103B40000AF0F6FE391C82462B980AF008FF011C89
:103B500050460AF0EDFE311C824623980AF0FFFE23
:103B6000291C834624980AF0FAFE011C58460AF0E4
:103B7000DFFE0699834622980AF0F1FE011C5846A2
:103B80000AF0D6FE011C50460AF0D2FE494660609B
:103B900026980AF0E4FE0599824627980AF0DFFE8F
:103BA000011C50460AF0C4FE391C824625980AF0D2
:103BB000D6FE011C50460AF0BBFE311C82462998F5
:103BC0000AF0CDFE291C83462A980AF0C8FE011C83
:103BD00058460AF0ADFE0699834628980AF0BFFEC3
:103BE000011C58460AF0A4FE011C50460AF0A0FE33
:103BF0004946A0601B980AF0B2FE059982460798D4
:103C00000AF0ADFE011C50460AF092FE391C8246B5
:103C10002E980AF0A4FE011C50460AF089FE311CC1
:103C200082460D980AF09BFE291C83460E980AF0E6
:103C300096FE011C58460AF07BFE069983460C98B6
:103C40000AF08DFE011C58460AF072FE011C504617
:103C50000AF06EFE4946E06010980AF080FE059971
:103C6000824611980AF07BFE011C50460AF060FE65
:103C7000391C82460F980AF072FE011C50460AF069
:103C800057FE311C824630980AF069FE291C834693
:103C900031980AF064FE011C58460AF049FE069964
:103CA00083462F980AF05BFE011C58460AF040FE3E
:103CB000011C50460AF03CFE4946206113980AF068
:103CC0004EFE0599824614980AF049FE011C5046A2
:103CD0000AF02EFE391C824612980AF040FE011CA2
:103CE00050460AF025FE311C824616980AF037FE2F
:103CF000291C834617980AF032FE011C58460AF028
:103D000017FE0699834615980AF029FE011C5846AD
:103D10000AF00EFE011C50460AF00AFE4946606198
:103D200019980AF01CFE059981461A980AF017FEA8
:103D3000011C48460AF0FCFD391C814618980AF01F
:103D40000EFE011C48460AF0F3FD311C071C0898C2
:103D50000AF005FE291C061C33980AF000FE011C1F
:103D6000301C0AF0E5FD0699051C32980AF0F7FDB3
:103D7000011C281C0AF0DCFD011C381C0AF0D8FDCF
:103D800018239C46FFABA061A0331C34E044A3423F
:103D900000D08BE6FD9BFE9A06937193FFAB5C68A7
:103DA0000433FFAB9D680833FFABDF680C33FFAB18
:103DB00010331B68FF990F937793FFAB143307926F
:103DC00072921A68FFAB1833089173911968FFABB0
:103DD0001C330C9474941C68FFAB20330D957595BF
:103DE0001D68FFAB2433349E0E977697109278921D
:103DF0001191799112947A9413951F68FFAB28332F
:103E00001B687B9515937D93FFABDA6A2C33FFAB70
:103E1000196B3033FFAB5C6B3433FFAB9D6B3833C6
:103E2000FFAB3C3314977C971F68FFAB40331B6894
:103E300016921B938393FFAB44337E921A68FFABB9
:103E4000483317917F911968FFAB4C3318948094D5
:103E50001C68FFAB5033199581951A9782971C9275
:103E600084921D9185911E941D68FFAB5F6D543344
:103E7000FFAB58331B68869421938993FFABDA6DAF
:103E80005C33FFAB196E6033FFAB5C6E6433FFAB2A
:103E900068331F9587951D68FFAB6C332097889713
:103EA0001F68FFAB70331B68229227938F93FFAB81
:103EB00074338A921A68FFAB783323918B91196817
:103EC000FFAB7C3324948C9425958D9526978E9703
:103ED0002892909229911C68FFAB80331D68FFAB3C
:103EE00084331F68FFAB88331B6891912D939593A2
:103EF000FFAB8C331A68FFAB90331968FFAB943378
:103F00002A9492941C68FFAB98332B9593951D6867
:103F1000FFAB9C332C9794971F682E929692049A2D
:103F20002F919791309498943195999532979A97CB
:103F3000FDAB32CA32C332CA32C31168FDAC19605C
:103F4000FD49FE4B09681B680191FD49FD4A09685E
:103F50002000009141A9FDF71BF80B9F419938689B
:103F60000AF0E3FC4299834678680AF0DEFC439944
:103F7000041CB8680AF0D9FC4499051CF8680AF0DA
:103F8000D4FC4599824638690B970AF0CEFC0B9B0E
:103F9000071C469958690AF0C8FC8046011C2D98F8
:103FA0000AF0DDFC391C814626980AF0D8FC011C79
:103FB00048460AF0BDFC5346814651461F9805937A
:103FC0000AF0CDFC011C48460AF0B2FC291C8146CF
:103FD00018980AF0C4FC211C824611980AF0BFFC14
:103FE000011C50460AF0A4FC5946824607980AF084
:103FF000B6FC011C50460AF09BFC011C48460AF026
:1040000097FC049A51680AF093FC41460B902E9855
:104010000AF0A5FC391C814627980AF0A0FC011C77
:1040200048460AF085FC0599814620980AF097FCDD
:10403000011C48460AF07CFC291C814619980AF0AC
:104040008EFC211C824612980AF089FC011C504605
:104050000AF06EFC5946824608980AF080FC011C62
:1040600050460AF065FC011C48460AF061FC049ABF
:1040700091680AF05DFC414633902F980AF06FFC7E
:10408000391C814628980AF06AFC011C48460AF04F
:104090004FFC0599814621980AF061FC011C4846B5
:1040A0000AF046FC291C81461A980AF058FC211C8B
:1040B000824613980AF053FC011C50460AF038FC63
:1040C000594682460C980AF04AFC011C50460AF0F8
:1040D0002FFC011C48460AF02BFC049AD1680AF018
:1040E00027FC4146349030980AF039FC391C81464F
:1040F00029980AF034FC011C48460AF019FC05997D
:10410000814622980AF02BFC011C48460AF010FC5C
:10411000291C81461B980AF022FC211C8246149817
:104120000AF01DFC011C50460AF002FC594682466A
:104130000D980AF014FC011C50460AF0F9FB011C12
:1041400048460AF0F5FB049A11690AF0F1FB414672
:10415000359031980AF003FC391C81462A980AF000
:10416000FEFB011C48460AF0E3FB059981462398B3
:104170000AF0F5FB011C48460AF0DAFB291C8146CF
:104180001C980AF0ECFB211C824615980AF0E7FB0C
:10419000011C50460AF0CCFB594682460E980AF0A4
:1041A000DEFB011C50460AF0C3FB011C48460AF026
:1041B000BFFB049A51690AF0BBFB211C369016988C
:1041C0000AF0CDFB291C81461D980AF0C8FB011C92
:1041D00048460AF0ADFB594681460F980AF0BFFBEE
:1041E000011C48460AF0A4FB391C81462B980AF0B2
:1041F000B6FB4146824632980AF0B1FB011C50469C
:104200000AF096FB0599824624980AF0A8FB011C47
:1042100050460AF08DFB011C48460AF089FB049ABF
:1042200091690AF085FB414681462C980AF097FB7C
:10423000391C804625980AF092FB011C40460AF082
:1042400077FB0599071C1E980AF089FB011C381C96
:104250000AF06EFB291C071C17980AF080FB211C32
:10426000051C10980AF07BFB011C281C0AF060FB5F
:104270005946041C06980AF072FB011C201C0AF027
:1042800057FB011C381C0AF053FB049AFDAC116863
:104290000AF04EFB099B0B9A18605A60339A9A6099
:1042A000349ADA60359A1A61369A5A614A469A61A6
:1042B0003368CC937368CD93B368CE93F368CF9390
:1042C0003369D0937369D193B369D293F369D3936C
:1042D000336AD493736AD593B36AD693F36AD79348
:1042E000336BD893736BD993B36BDA93F36BDB9324
:1042F000336CDC93736CDD93B36CDE93F36CDF9300
:10430000336DE093736DE193B36DE293F36DE393DB
:10431000336EE493736EE593B36EE693F36EE793B7
:10432000336FE893736FE993B36FEA93F36FEB9393
:104330008023F358EC9307E0F41E0320FC1E0320B7
:10434000F81E03200AE81C418423F358ED938823C8
:10435000F358EE938C23F358EF939023F358F09394
:104360009423F358F1939823F358F2939C23F35832
:104370000B96F393A023F358F493A423F358F593E7
:10438000A823F358F693AC23F358F793B023F358CC
:10439000F893B423F358F993B823F358FA93BC2352
:1043A000F358FB93C023F358FC930A9B10985A6868
:1043B0001F6891469A6849469046DA681E695D69A9
:1043C00005920AF0CCFA4146824617980AF0C7FADD
:1043D000011C50460AF0ACFA391C824606980AF0D5
:1043E000BEFA011C50460AF0A3FA311C82462598F9
:1043F0000AF0B5FA291C83462C980AF0B0FA011C81
:1044000058460AF095FA059983461E980AF0A7FACD
:10441000011C58460AF08CFA011C50460AF088FA32
:104420004946206011980AF09AFA41468246189847
:104430000AF095FA011C50460AF07AFA391C8246B5
:1044400007980AF08CFA011C50460AF071FA311CE8
:10445000824626980AF083FA291C83462D980AF092
:104460007EFA011C58460AF063FA059983461F98A4
:104470000AF075FA011C58460AF05AFA011C504617
:104480000AF056FA4946606012980AF068FA414606
:10449000824619980AF063FA011C50460AF048FA5D
:1044A000391C824608980AF05AFA011C50460AF054
:1044B0003FFA311C824627980AF051FA291C83469C
:1044C0002E980AF04CFA011C58460AF031FA059968
:1044D000834620980AF043FA011C58460AF028FA4D
:1044E000011C50460AF024FA4946A06013980AF0CD
:1044F00036FA414682461A980AF031FA011C5046B3
:104500000AF016FA391C82460C980AF028FA011CA7
:1045100050460AF00DFA311C824628980AF01FFA1C
:10452000291C83462F980AF01AFA011C58460AF0F3
:10453000FFF90599834621980AF011FA011C5846A3
:104540000AF0F6F9011C50460AF0F2F94946E0601B
:1045500014980AF004FA414682461B980AF0FFF9C3
:10456000011C50460AF0E4F9391C82460D980AF005
:10457000F6F9011C50460AF0DBF9311C82462998F5
:104580000AF0EDF9291C834630980AF0E8F9011C7D
:1045900058460AF0CDF90599834622980AF0DFF9CA
:1045A000011C58460AF0C4F9011C50460AF0C0F933
:1045B0004946206115980AF0D2F9414682461C9876
:1045C0000AF0CDF9011C50460AF0B2F9391C8246B6
:1045D0000E980AF0C4F9011C50460AF0A9F9311CE2
:1045E00082462A980AF0BBF9291C834631980AF0C2
:1045F000B6F9011C58460AF09BF9059983462398A1
:104600000AF0ADF9011C58460AF092F9011C504617
:104610000AF08EF94946606116980AF0A0F9414601
:1046200081461D980AF09BF9011C48460AF080F962
:10463000391C80460F980AF092F9011C40460AF096
:1046400077F9311C071C2B980AF089F9291C061CE4
:1046500032980AF084F9011C301C0AF069F90599B6
:10466000051C24980AF07BF9011C281C0AF060F94B
:10467000011C381C0AF05CF90A9BA06118330A93EC
:10468000FFAB1C34BC33A34200D08EE6C4239C464F
:104690000B9ECCADB444634634003C960A93089616
:1046A0002369A6699846E36821689946A368626809
:1046B0000793FFABA0330591301C196806920AF0EE
:1046C0004EF96769FFAB843319688246381C0AF0DB
:1046D00046F9011C50460AF02BF9FFAB996E824651
:1046E000404668330AF03BF9FFABD96C8346484635
:1046F0004C330AF034F9011C58460AF019F9011C30
:1047000050460AF015F9FFAB196B82460798303313
:104710000AF025F9FFAB59698346069814330AF06D
:104720001EF9011C58460AF003F9FD9983460598C5
:104730000AF015F9011C58460AF0FAF8011C504617
:104740000AF0F6F8011C28680AF0EFF8FFABA43372
:1047500028601968301C0AF002F9FFAB8833196829
:104760008246381C0AF0FBF8011C50460AF0E0F8BB
:10477000FFABD96E824640466C330AF0F0F8FFABCF
:10478000196D8346484650330AF0E9F8011C584633
:104790000AF0CEF8011C50460AF0CAF8FFAB596B7C
:1047A0008246079834330AF0DAF8FFAB99698346FA
:1047B000069818330AF0D3F8011C58460AF0B8F8E6
:1047C000FE99834605980AF0CAF8011C58460AF07B
:1047D000AFF8011C50460AF0ABF8011C68680AF0FB
:1047E000A4F8FFABA83319686860301C0AF0B7F86A
:1047F000FFAB8C3319688246381C0AF0B0F8011CF4
:1048000050460AF095F8FFAB8246196F4046703368
:104810000AF0A5F8FFAB596D8346484654330AF0B9
:104820009EF8011C58460AF083F8011C50460AF015
:104830007FF8FFAB996B8246079838330AF08FF800
:10484000FFABD969834606981C330AF088F8011C2F
:1048500058460AF06DF8FF99834605980AF07FF8EC
:10486000011C58460AF064F8011C50460AF060F832
:10487000011CA8680AF059F8FFABAC331968A860AE
:10488000301C0AF06CF8FFAB903319688246381C74
:104890000AF065F8011C50460AF04AF8FFAB596F60
:1048A0008246404674330AF05AF8FFAB996D83464E
:1048B000484658330AF053F8011C58460AF038F8B5
:1048C000011C50460AF034F8FFAB8246D96B0798BA
:1048D0003C330AF044F8FFAB196A8346069820334C
:1048E0000AF03DF8011C58460AF022F8FFAB59685F
:1048F0008346059804330AF032F8011C58460AF042
:1049000017F8011C50460AF013F8011CE8680AF079
:104910000CF8FFABB0331968E860301C0AF01FF8E0
:10492000FFAB943319688246381C0AF018F8011C52
:10493000504609F0FDFFFFAB996F82464046783341
:104940000AF00DF8FFABD96D834648465C330AF098
:1049500006F8011C584609F0EBFF011C504609F00F
:10496000E7FFFFAB196C82460798403309F0F7FF69
:10497000FFAB596A83460698243309F0F0FF011C07
:10498000584609F0D5FFFFAB996883460598083370
:1049900009F0E5FF011C584609F0CAFF011C50460A
:1049A00009F0C6FF011C286909F0BFFFFFABB43353
:1049B00019682861301C09F0D2FFFFAB98331968E1
:1049C0008246381C09F0CBFF011C504609F0B0FFAD
:1049D000FFABD96F824640467C3309F0C0FFFFAB86
:1049E000196E83464846603309F0B9FF011C5846EA
:1049F00009F09EFF011C504609F09AFFFFAB596C6D
:104A000082460798443309F0AAFFFFAB996A8346B0
:104A10000698283309F0A3FF011C584609F088FFC7
:104A2000FFABD968834605980C3309F098FF011C49
:104A3000584609F07DFF011C504609F079FF011C22
:104A4000686909F072FFFFAB596E686148466433CC
:104A500009F085FFFFAB803319688146404609F0B5
:104A60007EFF011C484609F063FFFFAB9C331968C9
:104A70008046381C09F073FFFFABB8331968071C78
:104A8000301C09F06CFF011C381C09F051FF011C9F
:104A9000404609F04DFFFFABD96A061C06982C333F
:104AA00009F05DFFFFAB996C071C0798483309F0CC
:104AB00056FF011C381C09F03BFFFFAB1969071CAE
:104AC0000598103309F04BFF011C381C09F030FF2A
:104AD000011C301C09F02CFF011CA86909F025FFFE
:104AE0000A9B1C34A8611C359C4200D0D8E5089E66
:104AF000CC9B3360CD9B7360CE9BB360CF9BF36048
:104B0000D09B3361D19B7361D29BB361D39BF36123
:104B1000D49B3362D59B7362D69BB362D79BF362FF
:104B2000D89B3363D99B7363DA9BB363DB9BF363DB
:104B3000DC9B3364DD9B7364DE9BB364DF9BF364B7
:104B4000E09B3365E19B7365E29BB365E39BF36593
:104B5000E49B3366E59B7366E69BB366E79BF3666F
:104B6000E89B3367E99B7367EA9BB367EB9BF3674B
:104B70008023EC9AF250ED9A0433F250EE9A04330B
:104B8000F250EF9A0433F250F09A0433F250F19A53
:104B90000433F250F29A0433F250F39A0433F25091
:104BA000F49A0433F250F59A0433F250F69A04332F
:104BB000F250F79A0433F250F89A0433F250F99A0B
:104BC0000433F250FA9A0433F250FB9A0433F25051
:104BD000FC9A0433F2503AAA8D2394461B01634495
:104BE0001B68CCAA13CB13C28E231B0163441B6822
:104BF000FDAC07CB07C4049B099D0093494B2800DB
:104C00006344CCA91B68FDAAFCF7A0F82B00FDAA01
:104C100023CB23C2220013CB13C21B683AA9136013
:104C20008D238C463EAA11001B0163441B6831CBC7
:104C300031C18E231B0163441B68CCA931CB31C128
:104C4000384BFDA963441B689BA80093CCABFCF7D1
:104C5000E3FAFDAB08931C009B9B0B93A29B129362
:104C6000A99B1993B09B2093B79B2793BE9B2E9330
:104C7000C59B35939C9B0C93A39B1393AA9B1A9360
:104C8000B19B2193B89B2893BF9B2F93C69B3693D0
:104C90009D9B0D93A49B1493AB9B1B93B29B229360
:104CA000B99B2993C09B3093C79B37939E9B0E93D0
:104CB000A59B1593AC9B1C93B39B2393BA9B2A9300
:104CC000C19B3193C89B38939F9B0F93A69B1693D0
:104CD000AD9B1D93B49B2493BB9B2B93C29B3293A0
:104CE000C99B3993A09B1093A79B1793AE9B1E93D0
:104CF000B59B2593BC9B2C93C39B3393CA9B3A9340
:104D0000A19B1193A89B1893AF9B1F93B69B2693CF
:104D1000BD9B2D93C49B3493CB9B3B933C9B3C9678
:104D2000984601E0E40800004146C96840468946CB
:104D3000414642464346866909691B685568926840
:104D400047690791301C35990593069209F007FED3
:104D50002E998246381C09F002FE011C504609F0CB
:104D6000E7FD27998246079809F0F9FD20998346C7
:104D7000484609F0F4FD011C584609F0D9FD011C14
:104D8000504609F0D5FD19998246069809F0E7FDCD
:104D900012998346281C09F0E2FD011C584609F0CF
:104DA000C7FD0B998346059809F0D9FD011C5846AB
:104DB00009F0BEFD011C504609F0BAFD369920608D
:104DC000301C09F0CCFD2F998246381C09F0C7FD34
:104DD000011C504609F0ACFD28998246079809F05D
:104DE000BEFD21998346484609F0B9FD011C58468D
:104DF00009F09EFD011C504609F09AFD1A99824661
:104E0000069809F0ACFD13998346281C09F0A7FD0C
:104E1000011C584609F08CFD0C998346059809F051
:104E20009EFD011C584609F083FD011C504609F007
:104E30007FFD311C6060379809F091FD391C824676
:104E4000309809F08CFD011C504609F071FD29993C
:104E50008246079809F083FD22998346484609F067
:104E60007EFD011C584609F063FD011C504609F007
:104E70005FFD1B998246069809F071FD14998346DF
:104E8000281C09F06CFD011C584609F051FD0D99D4
:104E90008346059809F063FD011C584609F048FD5A
:104EA000011C504609F044FD311CA060389809F0FF
:104EB00056FD391C8246319809F051FD011C5046BF
:104EC00009F036FD079982462A9809F048FD4946BF
:104ED0008346239809F043FD011C584609F028FD3C
:104EE000011C504609F024FD069982461C9809F0E1
:104EF00036FD291C8346159809F031FD011C5846E2
:104F000009F016FD059983460E9809F028FD011C4D
:104F1000584609F00DFD011C504609F009FD311CF1
:104F2000E060399809F01BFD391C8246329809F07F
:104F300016FD011C504609F0FBFC079982462B9890
:104F400009F00DFD49468346249809F008FD011C2F
:104F5000584609F0EDFC011C504609F0E9FC0699A1
:104F600082461D9809F0FBFC291C8346169809F01F
:104F7000F6FC011C584609F0DBFC059983460F98A6
:104F800009F0EDFC011C584609F0D2FC011C50460A
:104F900009F0CEFC311C20613A9809F0E0FC391C84
:104FA0008246339809F0DBFC011C504609F0C0FC36
:104FB000079982462C9809F0D2FC494683462598E9
:104FC00009F0CDFC011C584609F0B2FC011C50460A
:104FD00009F0AEFC069982461E9809F0C0FC291C17
:104FE0008346179809F0BBFC011C584609F0A0FC49
:104FF00005998346109809F0B2FC011C584609F047
:1050000097FC011C504609F093FC494660612698C4
:1050100009F0A5FC079981462D9809F0A0FC011C18
:10502000484609F085FC391C8146349809F097FC04
:10503000311C071C3B9809F092FC011C381C09F03C
:1050400077FC011C484609F073FC291C061C1898C3
:1050500009F085FC0699051C1F9809F080FC011CCD
:10506000281C09F065FC0599051C119809F077FCCE
:10507000011C281C09F05CFC011C301C09F058FCC8
:105080001C239C460A9BE044A0611C34984500D038
:105090004AE6FFAB84333C9E0793FFABCCAC1433A2
:1050A0003C940A933D96089B1A68586D0592079A9E
:1050B000996BD6698146186F06918046311C3598E8
:1050C000DD69176809F04BFC391C82462E9809F0FF
:1050D00046FC011C504609F02BFC414682462798AD
:1050E00009F03DFC20998346484609F038FC011C34
:1050F000584609F01DFC011C504609F019FC19998D
:105100008246069809F02BFC12998346281C09F068
:1051100026FC011C584609F00BFC0B9983460598A8
:1051200009F01DFC011C584609F002FC011C504608
:1051300009F0FEFB311C2060369809F010FC391C88
:1051400082462F9809F00BFC011C504609F0F0FB39
:1051500041468246289809F002FC49468346219838
:1051600009F0FDFB011C584609F0E2FB011C50460A
:1051700009F0DEFB069982461A9809F0F0FB291C1B
:105180008346139809F0EBFB011C584609F0D0FB4D
:10519000059983460C9809F0E2FB011C584609F07A
:1051A000C7FB011C504609F0C3FB311C60603798F7
:1051B00009F0D5FB391C8246309809F0D0FB011C60
:1051C000504609F0B5FB41468246299809F0C7FBD5
:1051D00049468346229809F0C2FB011C584609F053
:1051E000A7FB011C504609F0A3FB069982461B98B9
:1051F00009F0B5FB291C8346149809F0B0FB011C8B
:10520000584609F095FB059983460D9809F0A7FBD0
:10521000011C584609F08CFB011C504609F088FB24
:10522000311CA060389809F09AFB391C82463198ED
:1052300009F095FB011C504609F07AFB4146824675
:105240002A9809F08CFB49468346239809F087FB8E
:10525000011C584609F06CFB011C504609F068FB24
:10526000069982461C9809F07AFB291C83461598FA
:1052700009F075FB011C584609F05AFB0599834655
:105280000E9809F06CFB011C584609F051FB011CFB
:10529000504609F04DFB311CE060399809F05FFB86
:1052A000391C8246329809F05AFB011C504609F01D
:1052B0003FFB414682462B9809F051FB4946834605
:1052C000249809F04CFB011C584609F031FB011CE5
:1052D000504609F02DFB069982461D9809F03FFBC8
:1052E000291C8346169809F03AFB011C584609F020
:1052F0001FFB059983460F9809F031FB011C5846A6
:1053000009F016FB011C504609F012FB311C20610C
:105310003A9809F024FB391C8246339809F01FFBA8
:10532000011C504609F004FB414682462C9809F0C6
:1053300016FB49468346259809F011FB011C584687
:1053400009F0F6FA011C504609F0F2FA0699824675
:105350001E9809F004FB291C8346179809F0FFFAF0
:10536000011C584609F0E4FA05998346109809F0A3
:10537000F6FA011C584609F0DBFA011C504609F008
:10538000D7FA49466061269809F0E9FA4146814614
:105390002D9809F0E4FA011C484609F0C9FA391CB5
:1053A0008046349809F0DBFA311C071C3B9809F061
:1053B000D6FA011C381C09F0BBFA011C404609F062
:1053C000B7FA291C061C189809F0C9FA0699051C99
:1053D0001F9809F0C4FA011C281C09F0A9FA0599C4
:1053E000051C119809F0BBFA011C281C09F0A0FA51
:1053F000011C301C09F09CFA079A089B04320792A2
:105400000A9A0433A06108931C349A4200D04AE6F9
:105410003AAA9446744B744A63441B6862441B68FE
:1054200012680893704B3D9E63441B68FDACDB69BA
:105430000A936D4B63441B689B6B0B936A4B6344ED
:105440001B685B6D0C93684B63441B681B6F0D936B
:105450008C23D358644A0E93634B624463441B68A5
:105460005B680F93604B63441B681B6A10935E4B31
:1054700063441B68DB6B11935B4B63441B689B6D40
:105480001293594B63441B685B6F1268139390230C
:10549000D358554A1493544B624463441B681268B2
:1054A0009B681593504B63441B685B6A16934E4B85
:1054B00063441B681B6C17934B4B63441B68DB6D89
:1054C0001893494B63441B689B6F19939423D358DB
:1054D000454A1A93444B624463441B68DB681B9340
:1054E000414B63441B689B6A1C933F4B63441B689E
:1054F0005B6C1D933C4B63441B6812681B6E1E93D0
:10550000394B63441B68DB6F1F939823D358364A8B
:105510002093354B624463441B6812681B692193D6
:10552000314B63441B68DB6A22932F4B63441B6837
:105530009B6C23932C4B63441B685B6E24938023EA
:10554000D358294A25939C2362441268D358264A8B
:105550002693254B624463441B685B692793224B67
:1055600063441B681B6B28931F4B126863441B68C2
:10557000DB6C29931C4B63441B689B6E2A9384232A
:10558000D358194A2B93A02362441268D358164A61
:105590002C93154B624463441B6812689B692D93DE
:1055A000114B63441B685B6B2E930F4B63441B686A
:1055B0001B6D2F930C4B63441B68DB6E3093882369
:1055C000D358094A3193A42362441268D3583293C2
:1055D000064B63441B689846FDAB079390234344F6
:1055E0003393349604E0C046DC080000D408000081
:1055F00043461F685B6842469946434641469B685E
:10560000D2680E694D6948460A990593069209F0D9
:10561000A6F90B998246059809F0A1F9011C50469C
:1056200009F086F908998246381C09F098F9011C9E
:10563000504609F07DF90D998246301C09F08FF92A
:105640000E998346281C09F08AF9011C584609F076
:105650006FF90C998346069809F081F9011C5846A8
:1056600009F066F9011C504609F062F910992060B2
:10567000484609F074F911998246059809F06FF9C6
:10568000011C504609F054F90F998246381C09F064
:1056900066F9011C504609F04BF913998246301CFB
:1056A00009F05DF914998346281C09F058F9011C8A
:1056B000584609F03DF912998346069809F04FF9CA
:1056C000011C584609F034F9011C504609F030F924
:1056D00016996060484609F042F917998246059884
:1056E00009F03DF9011C504609F022F9159982464E
:1056F000381C09F034F9011C504609F019F91999C0
:105700008246301C09F02BF91A998346281C09F0AF
:1057100026F9011C584609F00BF91899834606989A
:1057200009F01DF9011C584609F002F9011C504608
:1057300009F0FEF8A0601C99484609F010F91D997F
:105740008246059809F00BF9011C504609F0F0F863
:105750001B998246381C09F002F9011C504609F0D9
:10576000E7F81F998246301C09F0F9F82099834622
:10577000281C09F0F4F8011C584609F0D9F81E99C4
:105780008346069809F0EBF8011C584609F0D0F85A
:10579000011C504609F0CCF82299E060484609F017
:1057A000DEF823998246059809F0D9F8011C504685
:1057B00009F0BEF821998246381C09F0D0F8011C86
:1057C000504609F0B5F825998246301C09F0C7F813
:1057D00026998346281C09F0C2F8011C584609F096
:1057E000A7F824998346069809F0B9F8011C584691
:1057F00009F09EF8011C504609F09AF8289920619A
:10580000484609F0ACF829998246059809F0A7F8AE
:10581000011C504609F08CF827998246381C09F083
:105820009EF8011C504609F083F82B998246301CE3
:1058300009F095F82C998346281C09F090F8011C72
:10584000584609F075F82A998346069809F087F8B2
:10585000011C584609F06CF8011C504609F068F824
:105860002E996061484609F07AF82F99814605988B
:1058700009F075F8011C484609F05AF82D9981463F
:10588000381C09F06CF8011C484609F051F83199B0
:10589000071C301C09F063F83299061C281C09F01B
:1058A0005EF8011C301C09F043F83099051C06987D
:1058B00009F055F8011C281C09F03AF8011C381CA5
:1058C00009F036F818239C46339BE044A0611C3451
:1058D000434500D08CE6FFAB84330693FFAB143313
:1058E0003C9C3393079B0D99DA691E6F91469A6B26
:1058F000301C90465A6D1F680592069A20CA06927F
:1059000009F02DF80E998246281C09F028F8011C90
:10591000504609F00DF80C998246059809F01FF8D9
:10592000011C504609F004F80A998246484609F0DD
:1059300016F80B998346404609F011F8011C5846A9
:1059400008F0F6FF08998346381C09F008F8011C96
:10595000584608F0EDFF011C504608F0E9FF011C15
:10596000206808F0E5FF10992060484608F0F7FF2E
:1059700011998246404608F0F2FF011C504608F09B
:10598000D7FF0F998246381C08F0E9FF011C5046EA
:1059900008F0CEFF13998246301C08F0E0FF1499FE
:1059A0008346281C08F0DBFF011C584608F0C0FFA6
:1059B00012998346059808F0D2FF011C584608F05A
:1059C000B7FF011C504608F0B3FF011C606808F0E7
:1059D000AFFF16996060484608F0C1FF17998246EC
:1059E000404608F0BCFF011C504608F0A1FF159985
:1059F0008246381C08F0B3FF011C504608F098FF9F
:105A000019998246301C08F0AAFF1A998346281C6F
:105A100008F0A5FF011C584608F08AFF1899834634
:105A2000059808F09CFF011C584608F081FF011CF6
:105A3000504608F07DFF011CA06808F079FF1C9912
:105A4000A060484608F08BFF1D998246404608F04A
:105A500086FF011C504608F06BFF1B998246381CDC
:105A600008F07DFF011C504608F062FF1F99824636
:105A7000301C08F074FF20998346281C08F06FFF43
:105A8000011C584608F054FF1E998346059808F0FB
:105A900066FF011C584608F04BFF011C504608F0F9
:105AA00047FF011CE06808F043FF2299E060484688
:105AB00008F055FF23998246404608F050FF011C2C
:105AC000504608F035FF21998246381C08F047FF00
:105AD000011C504608F02CFF25998246301C08F026
