:020000041000EA
:1000000000B5324B212058609868022188439860DF
:10001000D860186158612E4B002199600221596106
:100020000121F02299502B49196001219960352056
:1000300000F044F80222904214D00621196600F024
:1000400034F8196E01211966002018661A6600F04E
:100050002CF8196E196E196E052000F02FF8012189
:100060000842F9D1002199601B49196000215960AB
:100070001A491B48016001219960EB211966A021F2
:10008000196600F012F800219960164914480160C1
:100090000121996001BC002800D000471248134993
:1000A000086003C880F30888084703B5996A0420EC
:1000B0000142FBD001200142F8D103BD02B5186610
:1000C0001866FFF7F2FF186E186E02BD00000240BE
:1000D000000000180000070000035F00212200005C
:1000E000F4000018222000A00001001008ED00E03C
:1000F00000000000000000000000000074B24E7A12
:1001000000200420F7010010C3010010C5010010F9
:10011000C1010010C1010010C1010010C101001097
:10012000C1010010C1010010C1010010C701001081
:10013000C1010010C1010010C9010010CB01001065
:10014000CD010010CD010010CD010010CD01001037
:10015000CD010010CD010010CD010010CD01001027
:10016000CD010010CD010010CD010010CD01001017
:10017000CD010010CD010010CD010010CD01001007
:10018000CD010010CD010010CD010010CD010010F7
:10019000CD010010CD010010CD010010CD010010E7
:1001A000CD010010CD010010CD010010CD010010D7
:1001B000CD010010CD010010CD010010CD010010C7
:1001C00000BE00BE00BE00BE00BE00BEEFF3058054
:1001D000103800BEF2EB8871983F0510B83F05104B
:1001E0003402001090A31AE700201F49086006C8D7
:1001F00081F3088810471D48006800282FD10DA4FE
:100200000ECC002902D000F012F8F9E71849194A7B
:10021000002000E001C19142FCD1174988471749ED
:1002200088471749884700BEFDE701C901C29A42C5
:10023000FBD37047B83F0510C0000020102D0020F0
:10024000086C05100000042000000420086C051054
:10025000001004200010042000000000704709482E
:100260000DF004F80047000008ED00E0000000D0A9
:10027000102D00201C590320B1B9001055030010A7
:10028000E5BA00105756000006005250ABB3605359
:10029000889D041006005250861C0302989D04108D
:1002A000060052505422A29DA49D041005005250F5
:1002B000DE65F468086C0510F8B5C0460448054BC7
:1002C00010B5834203D0044B002B00D0984710BDDB
:1002D000102D0020102D00200000000006480749C6
:1002E000091A8B10C90FC91810B5491003D0044B57
:1002F000002B00D0984710BD102D0020102D00209D
:100300000000000010B5074C2378002B09D1FFF73F
:10031000D5FF054B002B02D0044800E000BF0123AD
:10032000237010BD582F002000000000E09804103A
:10033000054B10B5002B03D00449054800E000BF71
:10034000FFF7CCFF10BDC046000000005C2F00206E
:10035000E098041070B5192009F0C8FDD023802260
:100360001B0692045A620EF065FB00F047F806F097
:10037000C1FD07F0B5FF06F0C9FF09F045F90022FD
:100380000524144B1A7006F09DF9134D013C210011
:1003900028000EF043FBFA2080000AF0B3FB002C8B
:1003A000F4D10A200EF098F9012200210B480AF03E
:1003B00065F80B4810F01AFD01220A4B0A4C1A701E
:1003C0002378012BFCD108F047F92378012BFAD0D0
:1003D000F6E7C04638560320E09804107055032015
:1003E0009D880010375603203C56032010B5024864
:1003F00011F024F810BDC04604370320092370B55E
:1004000086B0059304330493023B0393013B0293AC
:10041000023B324D324C0193324B22003249334879
:1004200000932B0005F00CFE142005F005FEFA20C9
:1004300080000AF067FB2E4E21003200280006F0F3
:1004400017F83378682B08D02A4C20000EF090F96A
:10045000FA2080000AF056FBF7E773783D2BF3D1C2
:1004600001222100280006F027F8234E3200210047
:10047000280006F05BF83378002BF7D10122210029
:10048000280005F0D7FE0121200005F0B5FE03216C
:10049000200005F047FE0321280005F071FF13211D
:1004A000200006F0B1F81221200006F0EBF8002140
:1004B000200006F0C9F80321200006F053F80221BD
:1004C000200006F06BF85521200005F049FE1821A8
:1004D000280005F0EFFE06B070BDC046F41E0320F4
:1004E000D830002040420F001C21002014210020A1
:1004F000FC550320F498041050560320F0B5C6466E
:10050000334C344D344E22002900300000B505F044
:10051000C1FF6378DB439B0720D023781B0702D4FD
:1005200004BC9046F0BD2D4C0622002120000DF0A9
:10053000ADFF2100300005F07DFF0023E05E05F0F7
:10054000E7FD274D28600223E05E05F0E1FD6860CD
:100550000423E05E05F0DCFDA860E1E7214B062204
:100560009846180000210DF091FF1F4F0622002130
:1005700038000DF08BFF4146280005F03DFF3900A3
:10058000280005F01BFF43460020185E05F0ACFD77
:100590004346164D28600220185E05F0A5FD43462F
:1005A00068600420185E05F09FFDA8600023F85ED7
:1005B00005F0A4FD0E4D28600223F85E05F09EFDB7
:1005C00068600423F85E05F099FDA860A5E7C046C1
:1005D000844B0320D8300020F41E0320303C03203D
:1005E000D0400320203C0320283C0320C43A0320B1
:1005F000E03A0320F0B55746DE464E464546E0B5A4
:100600008BB008919246190005900993DA170323DD
:100610008C46134063449B109B009846002B00DCE3
:100620008FE05246159B00249B000193149B0025EC
:100630009B1A159A9B1A089A9B000293536812689A
:100640001901944606929A0003925246013A92008A
:100650000792002291465A000491DF005146D318B8
:100660009B0042469B4623008E0066440092019AFE
:1006700094469C44039B5C19D8195346002B1EDDFD
:10068000069B05995A196346884600999B00434486
:1006900088460095116819600099511A0D59043265
:1006A0005D60CD599D600958D96010339642F1D1F3
:1006B0004346079A00936346944604339C440422BD
:1006C000029B5C4463449446049AE1449446009A35
:1006D00058442500070066444A45C8DC1C00904683
:1006E000099B434526DD149A1598089B151A524616
:1006F0000ACBAD1A002A1DDD42469E0053439B00E3
:10070000C91853469800059B47469C46099BAB4633
:100710009846159B994600234C44A2006244CD584C
:10072000D55004339842FAD1544401375C448919B6
:10073000B845F0D10BB03CBC90469946A246AB46BA
:10074000F0BD0024CCE7C046F0B5CE46474680B5A4
:10075000002B1DDD002A1BDD940000190C6800250C
:10076000A0464C689100D200494252428C469146C4
:10077000A400614646183100AA00424417681219C5
:1007800080C18142FAD14A460135B01AAB42F0D15C
:100790000CBC90469946F0BDF0B5DE4657464E4635
:1007A0004546E0B599B00B9024980C93259B0130F9
:1007B00001D122982490581C00D1229B2398C41761
:1007C00003202040239CA44660448010850007201D
:1007D000229C02958443200001940C9C002C00DC98
:1007E00085E20091190113912699249C0901511861
:1007F0001691411EC9080131C801490109919900AA
:10080000179126996B438C4663449B00D31812932F
:100810000023A400149415900493029B002B00DC89
:10082000C1E1099A009B944663441193169B03937C
:10083000002305930598049C0100A4460B9B039E8E
:100840000CCB59436144890051180D91411C594307
:100850006144890051180E91811C594361448900FB
:1008600051180F91C11C4B4363449B00D318109344
:10087000019B3400002B00DC44E2009B00259846DD
:1008800000234446A946AA46AB46A84607950695C6
:100890002F1C08950A9325683168281C0DF075FCFB
:1008A00059460DF05BFC71688346281C0DF06DFC09
:1008B00051460DF053FCB1688246281C0DF065FCD2
:1008C00049460DF04BFCF1688146281C0DF05DFC9B
:1008D00008990DF043FC089065683169281C0DF0FB
:1008E00054FC391C0DF03AFC7169071C281C0DF0F2
:1008F0004CFC06990DF032FCB1690690281C0DF0F5
:1009000044FC07990DF02AFCF1690790281C0DF0B2
:100910003CFC41460DF022FC8046A568316A281C4B
:100920000DF033FC59460DF019FC716A8346281C02
:100930000DF02BFC51460DF011FCB16A8246281CCB
:100940000DF023FC49460DF009FCF16A8146281C94
:100950000DF01BFC08990DF001FC0890E568316B67
:10096000281C0DF012FC391C0DF0F8FB716B071CF4
:10097000281C0DF00AFC06990DF0F0FBB16B0690F7
:10098000281C0DF002FC07990DF0E8FBF16B0790B5
:10099000281C0DF0FAFB41460DF0E0FB804625696E
:1009A000316C281C0DF0F1FB59460DF0D7FB716C32
:1009B0008346281C0DF0E9FB51460DF0CFFBB16CCE
:1009C0008246281C0DF0E1FB49460DF0C7FBF16C97
:1009D0008146281C0DF0D9FB08990DF0BFFB08904B
:1009E0006569316D281C0DF0D0FB391C0DF0B6FB8C
:1009F000716D071C281C0DF0C8FB06990DF0AEFBAD
:100A0000B16D0690281C0DF0C0FB07990DF0A6FBF8
:100A1000F16D0790281C0DF0B8FB41460DF09EFBD0
:100A20008046A569316E281C0DF0AFFB59460DF0CC
:100A300095FB716E8346281C0DF0A7FB51460DF007
:100A40008DFBB16E8246281C0DF09FFB49460DF0D0
:100A500085FBF16E8146281C0DF097FB08990DF07F
:100A60007DFB0890E569316F281C0DF08EFB391C69
:100A70000DF074FB716F071C281C0DF086FB0699A6
:100A80000DF06CFBB16F0690281C0DF07EFB0799F2
:100A90000DF064FBF16F0790281C0DF076FB4146CA
:100AA0000DF05CFB8046803620340A9B019A0833A7
:100AB0000A939A4200DDEEE6159A039B9446594646
:100AC0006344381C1C000DF049FB5146071C069876
:100AD0000DF044FB4946061C07980DF03FFB0899B2
:100AE000814640460DF03AFB119B051C9B46229B1C
:100AF0001900019B994230DD9A46A8465B4620CBFF
:100B00002168281C9B460DF040FB011C381C0DF091
:100B100025FB6168071C281C0DF037FB011C301CED
:100B20000DF01CFBA168061C281C0DF02EFB011CFF
:100B300048460DF013FBE1688146281C0DF025FBAB
:100B4000011C40460DF00AFB804601239C46229B77
:100B5000E24410345345D1D1051C311C0E9E30683F
:100B60000DF0F9FA391C0D9F041C38680DF0F3FAEA
:100B7000291C109D3860346028680DF0ECFA0F9E37
:100B80004946041C30680DF0E6FA1399039A8C4626
:100B9000059B62440392029A0433306005932C60F3
:100BA0009A4200DD46E6239B029A934200DC92E0E3
:100BB000099A009B944663440593029B129D9846B4
:100BC0000B9B9B465B465E6843465E43049BA9467F
:100BD0009C465B461A6866449446B600019B664490
:100BE0000396002B00DC89E000232E0000249A46A7
:100BF000009F316838680DF0C8FA211C0DF0AEFA7C
:100C0000041C716878680DF0C0FA211C0DF0A6FA7A
:100C1000041CB168B8680DF0B8FA211C0DF09EFAFA
:100C2000041CF168F8680DF0B0FA211C0DF096FA7A
:100C3000041C316938690DF0A8FA211C0DF08EFAF8
:100C4000041C716978690DF0A0FA211C0DF086FA78
:100C5000041CB169B8690DF098FA211C0DF07EFAF8
:100C6000041CF169F8690DF090FA211C0DF076FA78
:100C7000041C2036203708239C46019BE244534540
:100C8000B7DC099B9946059BA9449A46229B019E85
:100C9000B34210DD00274B46D9595346D8590DF0C1
:100CA00074FA011C201C0DF059FA041C229B013619
:100CB0000437B342EFD1211C039C20680DF04BFA9E
:100CC00001239C46179BE0449C46239B206065447F
:100CD000434500D076E71499009A8C46049B624401
:100CE00000920C9A013304939A4200D095E519B012
:100CF0003CBC90469946A246AB46F0BD009B002402
:100D00009A46C3E70025009BA9469B462E1C2F1C34
:100D1000EDE6C04630B587B00C4B02AD00951A68C1
:100D2000694602929A880400AA809B796A46AB7150
:100D3000072301930023D3732DF034FB0098A842BE
:100D400001D00DF0B7FB200007B030BD08990410AA
:100D5000F0B5DE4657464E464546E0B50E00016802
:100D6000C7688946416805698A4681688DB08B46A7
:100D700041698069079306905068136892680591ED
:100D80000A90291C30680B92099308950DF0E3F93D
:100D90000599039070680DF0DEF90699051CB0689E
:100DA0000DF0D9F9804607980DF072FA80231B06E2
:100DB0009C46039E009001916644514630000DF020
:100DC000E4F95946061C281C0DF0DFF9011C301C03
:100DD0000DF0C1F9391C061C404604970DF0D5F9F9
:100DE000011C301C0DF0B7F90DF052FA0022684BCF
:100DF0000CF0FDFC009A019B0CF0F9FC0600484643
:100E00000F000DF045FA02000B0030003900169C6F
:100E10000CF0C6FC0CF0E4FD4946206003980DF090
:100E2000B4F95946061C40460DF0AFF9011C301CC0
:100E30000DF094F90499061C281C0DF0A6F9011C6C
:100E4000301C0DF088F90DF023FA0022504B0CF005
:100E5000CEFC009A019B0CF0CAFC060050460F0025
:100E60000DF016FA02000B00300039000CF098FC6F
:100E70000CF0B6FD49466060281C0DF086F951461D
:100E8000061C40460DF081F9011C301C0DF063F981
:100E90000499061C03980DF078F9011C301C0DF024
:100EA0005DF90DF0F5F90022394B0CF0A0FC009A29
:100EB000019B0CF09CFC060058460F000DF0E8F971
:100EC00002000B00300039000CF06AFC0CF088FDC9
:100ED0004946A06040460DF058F95146061C281CB2
:100EE0000DF053F9011C301C0DF038F95946051C62
:100EF00003980DF04AF9011C281C0DF02CF90DF097
:100F0000C7F90022224B0CF072FC009A019B0CF0F6
:100F10006EFC060004980F000DF0BAF902000B00F9
:100F2000300039000CF03CFC0CF05AFD089B09998C
:100F3000E060181C98460DF028F9079D291C0DF05B
:100F400024F9011C40460DF006F9059F0A9920611D
:100F5000381C0DF01AF9291C0DF017F9011C381C6A
:100F60000DF0F9F8069E0B996061301C0DF00DF93B
:100F7000291C0DF00AF9011C301C0DF0ECF8A061E1
:100F800000200DB03CBC90469946A246AB46F0BD51
:100F90000000E03FF0B5DE4657464E4645468A46DD
:100FA0004168E0B58846C768816891B0066889469F
:100FB0004046391C141C04930DF0E7F84946051C03
:100FC000301C0DF0E2F80A90011C281C09950DF068
:100FD000C2F80DF05DF902000B000CF0E1FB069089
:100FE0000791201C02940DF053F90B00020004003D
:100FF0000D00069807990CF0FAFB0CF0F1FC524634
:10100000391C106048460DF0C0F883464146301C3C
:101010000DF0BBF85A460E90011C58460B920DF08D
:101020009DF80DF035F902000B000CF0B9FB020041
:101030000B00200029000C920D930CF0D8FB0CF053
:10104000CFFC5446311C6060301C0DF09EF84146C8
:10105000041C40460DF099F8051C011C201C0DF0E5
:101060007AF84946089048460DF08FF8391C8346B7
:10107000381C0DF08AF85946019008980DF06BF86D
:1010800001990DF06BF802990F900DF07EF8534620
:101090004946986040460DF078F8391C8046301C6F
:1010A0000DF073F881461A980DF0F2F806001B98BF
:1010B0000F000DF0EDF802900391291C201C0DF09B
:1010C0004DF859460DF047F801990DF044F8049990
:1010D0000DF05BF80DF0DCF804000D0040464946C9
:1010E0000DF03CF80DF0D4F802000B000CF058FBAA
:1010F00032003B000CF07BFB02000B0020002900BB
:101100000CF04EFB029A039B04000D000698079911
:101110000CF06DFB02000B00200029000CF040FBDE
:101120000CF05EFC5346D86004980DF0B1F8040052
:101130000D00404649460DF00EF80DF0A9F80200EA
:101140000B000CF02DFB22002B00049405950CF0F5
:101150004EFB04000D00089859460CF0FFFF019962
:101160000CF0F9FF1A990DF010F80DF091F802004B
:101170000B00200029000CF013FB029A039B0400D3
:101180000D000C980D990CF032FB02000B002000B2
:1011900029000CF005FB0CF023FC53460A9918615A
:1011A00009980CF0DBFF0DF073F802000B000CF057
:1011B000F7FA049A059B0CF01AFB04000D000B983B
:1011C0000E990CF0C8FF0DF063F802000B000CF054
:1011D000E7FA32003B000CF00AFB02000B00200093
:1011E00029000CF0DDFA04000D000F981B990CF09B
:1011F000CCFF0DF04DF802000B00200029000CF090
:10120000CFFA0CF0EDFB53465861002011B03CBC06
:1012100090469946A246AB46F0BDC046F0B50400E4
:10122000DE4657464E4645460800E0B54568096823
:10123000AA46856895B0AB46C5684669876910912E
:101240000E950169556810689268049690461A6870
:10125000069711925A689B6812921393FE239B057E
:10126000236099460CF077FF0DF012F80090019181
:101270001E980DF00DF806000F000098019900224D
:10128000924B0CF0B4FA32003B000CF0B0FA0CF0C8
:10129000A7FB04990390E061281C0CF05CFF0CF0A4
:1012A000F7FF0022894B049005910CF0A0FA320060
:1012B0003B000CF09CFA0CF093FB0699051CA06314
:1012C00040460CF048FF0CF0E3FF00227F4B0690F5
:1012D00007910CF08CFA32003B000CF088FA0CF00D
:1012E0007FFB0A90606550460CF0D2FF0022784BDD
:1012F000089009910CF07BFA32003B000CF077FA71
:101300000CF06EFB0B90206758460CF0C1FF0022DA
:101310006F4B0C900D910CF06AFA32003B000CF010
:1013200066FA0CF05DFB8C238246E0500E980CF0C0
:10133000AFFF0022664B0E900F910CF058FA32006E
:101340003B000CF054FA0CF04BFBA8238346E05012
:101350000022009801995E4B0CF049FA32003B00E4
:101360000CF045FA0CF03CFB4946009060602162AD
:10137000002206980799564B0CF039FA32003B00D0
:101380000CF035FA0CF02CFBA5658046E063109854
:101390000CF07EFF00224D4B0CF029FA32003B008E
:1013A0000CF025FA0CF01CFB59469023051C6067D5
:1013B0000022E1500C980D99444B0CF018FA3200C1
:1013C0003B000CF014FA0CF00BFBAC230022E050B5
:1013D000049805993E4B0CF00AFA32003B000CF0E1
:1013E00006FA0CF0FDFA49460A9A83466262009AB0
:1013F000A0602164E2650E980F990022334B0CF037
:10140000F6F932003B000CF0F2F90CF0E9FA942303
:101410000B99A067E5501C33E1504146E160594605
:10142000A162494621665146039BE16763640898BF
:1014300009990022254B0CF0DAF932003B000CF040
:10144000D6F90CF0CDFA9823E0501C33E550002576
:101450001E9911982561E562A56465660CF095FEFC
:10146000011C48460CF077FE8023E0501C33E55009
:101470001C33E550343B1E99129865612563E56481
:10148000A566E5500CF081FE011C48460CF063FE99
:10149000A023E0501C33E550343BA561656325650E
:1014A000E566E5501C33E5501E9913980CF06DFE6F
:1014B000011C48460CF04FFEC023E050002015B040
:1014C0003CBC90469946A246AB46F0BD0000E0BF4A
:1014D0000000E03FF0B5DE4657464E464546E0B5D3
:1014E0009A460B68141C8A689B464B68C9688BB087
:1014F0000500101C8846009301920CF0C9FE029072
:101500000391201C0CF0C4FEC02306000F000298BB
:10151000039900221B060CF06AF932003B000CF024
:1015200066F90CF05DFA0890286040460CF0B0FEB9
:1015300002000B000CF034F932003B000CF057F9BC
:101540000CF04EFA041CA86158460CF0A1FEC02312
:1015500000221B06049005910CF049F932003B0073
:101560000CF045F90CF03CFA286300980CF090FE62
:1015700002000B00069007910CF012F932003B00BC
:101580000CF035F90CF02CFA002190238946A86460
:101590002966A967E95068600498059902000B0064
:1015A0000CF0FEF832003B000CF021F90CF018FAB8
:1015B0006C630490E8610298039902000B000CF040
:1015C000EFF832003B000CF012F90CF009FA494632
:1015D0009423E8646966E967E950C023069807998F
:1015E000049A1B06AA6000220CF001F932003B00AD
:1015F0000CF0FDF80CF0F4F9089B4946AB6380232E
:1016000028622C65A966E9501833E95040461499C0
:101610000CF0BBFD019F1599061C381C0CF0B5FDA4
:101620005146041C58460CF0B0FD311C0CF096FDE0
:10163000211C06940CF08FFD011C0CF08FFD51460F
:101640000990E86000980CF0A0FD1499041C381C67
:1016500001970CF09AFD011C201C0CF07FFD1599E0
:10166000041C40460CF091FD011C201C0CF076FD82
:10167000011C0CF073FD14990290686200980CF044
:1016800084FD1599089058460CF07FFD019A80243E
:10169000944624066444071C514620000CF075FD56
:1016A00008990CF05BFD391C0CF055FD011C0CF089
:1016B00055FD1499E86358460CF067FD15990490A0
:1016C00000980CF062FD802212064244041C514630
:1016D00010000CF05AFD04990CF040FD211C0CF098
:1016E0003DFD011C0CF03AFD4A468423EA6668651C
:1016F000EA501833EA505146286101980CF045FD34
:1017000008990CF028FD391C0CF028FD011C0CF088
:1017100025FD071CA8628020029B00062B64514611
:1017200058440CF032FD311C0CF015FD06990CF0FC
:1017300015FD011C0CF012FD8823A865484628679A
:10174000E8501833E850514640466F610CF01DFDDB
:1017500004990CF000FD211C0CF0FDFC011C0CF0A8
:10176000FDFC099AE8626A64029B4A46EB654B46B7
:101770006B678C230020EA501833EA500BB03CBC56
:1017800090469946A246AB46F0BDC046F0B54546E8
:10179000DE4657464E46E0B53B4CC723A54434AA27
:1017A000944663441B091B0105938B680490319395
:1017B0000B6833911A6864462A929A692B921A6BC5
:1017C0002C929A6C2D921A6E2E929A6F2F929022D2
:1017D0009A5830925A680692DA6908925A6B0992BE
:1017E000DA6C0A925A6E0B92DA6F0C9294229A5823
:1017F0000D929A680E921A6A0F929A6B10921A6D55
:1018000011929A6E129280229A58139298229A58A4
:101810001492DA6815925A6A1692DA6B17925A6D18
:101820001892DA6E199284229A581A929C229A5827
:101830001B921A6932941C929A6A1D921A6C1E921B
:101840009A6D1F921A6F209288229A582192A02294
:101850009A5822925A692392DA6A24925A6C2592F3
:10186000DA6D26925A6F27928C229A582892A422D7
:101870009B5829934B689846C42343440793434697
:10188000E0461C0002E0C046ACFDFFFFE168A26834
:10189000894621692368484603912D990292019354
:1018A0000CF073FC2E99824603980CF06EFC011C20
:1018B00050460CF053FC676982462F99381C0CF097
:1018C00064FCA66983463099301C0CF05EFC011C58
:1018D00058460CF043FC011C50460CF03FFC656878
:1018E00082462B99281C0CF050FC2C9983460298B8
:1018F0000CF04BFC011C58460CF030FC2A99834636
:1019000001980CF042FC011C58460CF027FC011C0D
:1019100050460CF023FC4346494618600A980CF0E8
:1019200034FC039982460B980CF02FFC011C5046A6
:101930000CF014FC391C82460C980CF026FC311C6F
:1019400083460D980CF021FC011C58460CF006FC57
:10195000011C50460CF002FC291C824608980CF031
:1019600014FC0299834609980CF00FFC011C5846A0
:101970000CF0F4FB0199834606980CF006FC011C60
:1019800058460CF0EBFB011C50460CF0E7FB4346BD
:101990004946586011980CF0F8FB0399824612985A
:1019A0000CF0F3FB011C50460CF0D8FB391C8246AE
:1019B00013980CF0EAFB311C834614980CF0E5FBFD
:1019C000011C58460CF0CAFB011C50460CF0C6FB2B
:1019D000291C82460F980CF0D8FB02998346109878
:1019E0000CF0D3FB011C58460CF0B8FB0199834660
:1019F0000E980CF0CAFB011C58460CF0AFFB011C02
:101A000050460CF0ABFB43464946986018980CF0E2
:101A1000BCFB0399824619980CF0B7FB011C504699
:101A20000CF09CFB391C82461A980CF0AEFB311C62
:101A300083461B980CF0A9FB011C58460CF08EFB4A
:101A4000011C50460CF08AFB291C824616980CF0AB
:101A50009CFB0299834617980CF097FB011C584693
:101A60000CF07CFB0199834615980CF08EFB011C51
:101A700058460CF073FB011C50460CF06FFB4346BC
:101A80004946D8601F980CF080FB03998246209845
:101A90000CF07BFB011C50460CF060FB391C8246AD
:101AA00021980CF072FB311C834622980CF06DFBE0
:101AB000011C58460CF052FB011C50460CF04EFB2A
:101AC000291C82461D980CF060FB029983461E98E3
:101AD0000CF05BFB011C58460CF040FB019983465F
:101AE0001C980CF052FB011C58460CF037FB011CF3
:101AF00050460CF033FB43464946186126980CF0DB
:101B000044FB0399814627980CF03FFB011C484693
:101B10000CF024FB391C814628980CF036FB311C54
:101B2000071C29980CF031FB011C381C0CF016FB2B
:101B3000011C48460CF012FB291C061C24980CF0D2
:101B400024FB0299051C25980CF01FFB011C281C86
:101B50000CF004FB0199051C23980CF016FB011CEA
:101B6000281C0CF0FBFA011C301C0CF0F7FA434661
:101B7000586118239C46079B1C34E044A34200D0C4
:101B800084E6319A1368089393690993136B0A9357
:101B9000936C0B93136E0C93936F0D939023D35808
:101BA0000E9353680F93D3691093536B1193D36CB7
:101BB0001293536E1393D36F14939423D3581593A6
:101BC00093681693136A1793936B1893136D199375
:101BD000936E1A938023D3581B939823D3581C9346
:101BE000D3681D93536A1E93D36B1F93536D209339
:101BF000D36E21938423D35822939C23D3582393C9
:101C000013692493936A2593136C2693936D2793FA
:101C1000136F059C28938823D35820342993A0233D
:101C2000D358A1462A9353692B93D36A2C93536CB0
:101C30002D93D36D2E93536F2F938C23D3583093C2
:101C4000A423D358319358AB0693329B1A0098467D
:101C50001832079243464246414640461B68956902
:101C60000193069B146B096E926C40CB876F0291B7
:101C7000101C0B99039206930CF087FA0C9982467C
:101C800002980CF082FA011C50460CF067FA0D998C
:101C90008246381C0CF079FA0E998346301C0CF001
:101CA00074FA011C58460CF059FA011C50460CF00D
:101CB00055FA09998246281C0CF067FA0A9983465E
:101CC000201C0CF062FA011C58460CF047FA0899E7
:101CD000834601980CF059FA011C58460CF03EFA64
:101CE000011C50460CF03AFA4B46129918600398C2
:101CF0000CF04BFA1399824602980CF046FA011C3C
:101D000050460CF02BFA14998246381C0CF03DFA20
:101D100015998346301C0CF038FA011C58460CF01B
:101D20001DFA011C50460CF019FA10998246281C25
:101D30000CF02BFA11998346201C0CF026FA011C9A
:101D400058460CF00BFA0F99834601980CF01DFAD7
:101D5000011C58460CF002FA011C50460CF0FEF92A
:101D60004B461999586003980CF00FFA1A9982465D
:101D700002980CF00AFA011C50460CF0EFF91B997E
:101D80008246381C0CF001FA1C998346301C0CF07A
:101D9000FCF9011C58460CF0E1F9011C50460CF00E
:101DA000DDF917998246281C0CF0EFF91899834643
:101DB000201C0CF0EAF9011C58460CF0CFF91699DA
:101DC000834601980CF0E1F9011C58460CF0C6F965
:101DD000011C50460CF0C2F94B46209998600398BC
:101DE0000CF0D3F92199824602980CF0CEF9011C2F
:101DF00050460CF0B3F922998246381C0CF0C5F914
:101E000023998346301C0CF0C0F9011C58460CF095
:101E1000A5F9011C50460CF0A1F91E998246281C18
:101E20000CF0B3F91F998346201C0CF0AEF9011C8D
:101E300058460CF093F91D99834601980CF0A5F9CA
:101E4000011C58460CF08AF9011C50460CF086F92A
:101E50004B462799D86003980CF097F92899824649
:101E600002980CF092F9011C50460CF077F9299970
:101E70008246381C0CF089F92A998346301C0CF0F4
:101E800084F9011C58460CF069F9011C50460CF00D
:101E900065F925998246281C0CF077F92699834626
:101EA000201C0CF072F9011C58460CF057F92499CB
:101EB000834601980CF069F9011C58460CF04EF964
:101EC000011C50460CF04AF94B462E9918610398B4
:101ED0000CF05BF92F99824602980CF056F9011C20
:101EE00050460CF03BF930998246381C0CF04DF905
:101EF0003199071C301C0CF048F9011C381C0CF0FF
:101F00002DF9011C50460CF029F92C99061C281CAF
:101F10000CF03BF92D99051C201C0CF036F9011C26
:101F2000281C0CF01BF92B99041C01980CF02DF9BE
:101F3000011C201C0CF012F9011C301C0CF00EF9D5
:101F40004B46586104239C461433E0449C46079B4F
:101F5000E144984500D07DE6339B059DDC68296A05
:101F600020680CF0FBF8049EA96B306060680CF0F0
:101F7000F5F87060A068296D0CF0F0F8B060E068CA
:101F8000A96E0CF0EBF88023F0602069E9589846C0
:101F90000CF0E4F898233061E95860690CF0DEF841
:101FA0007061A069696A0CF0D9F8B061E069E96B09
:101FB0000CF0D4F8F061206A696D0CF0CFF8306253
:101FC000E96E606A0CF0CAF884277062A06AE95969
:101FD0000CF0C4F89C23B062E958E06A0CF0BEF83B
:101FE000F062206BA96A0CF0B9F83063606B296C61
:101FF0000CF0B4F87063A06BA96D0CF0AFF8B0638F
:10200000E06B296F0CF0AAF80496F0638826206C28
:10201000A9590CF0A3F8049B1864A023606CE9583C
:102020000CF09CF8049BE96A5864A06C0CF096F8DC
:10203000049B696C9864E06C0CF090F8049BE96D6B
:10204000D864206D0CF08AF8049B696F1865606D88
:1020500005950CF083F88C25049A059B5065A06DBE
:1020600059590CF07BF8A423049A9065059AE06D09
:10207000D1580CF073F80499059AC865206E116B5D
:102080000CF06CF80499059A0866916C606E0CF07F
:1020900065F80499059A4866A06E116E0CF05EF81A
:1020A0000499059A8866E06E916F0CF057F89023BA
:1020B0000499059AC866206FD1580CF04FF8A823F0
:1020C0000499059A0867606FD1580CF047F8049995
:1020D000059A4867A16F506B0CF040F80499059A77
:1020E0008867E16FD06C0CF039F80499059AC867DD
:1020F00040462158506E0CF031F84146049B059A39
:102100005850E159D06F0CF029F8049BD851942312
:10211000059FA159F8580CF021F8049B9851AC2365
:102120006159F8580CF01AF8049B585195239B00FC
:102130009D443CBC90469946A246AB46F0BDC04685
:10214000F0B54E464546DE4657460023E0B51360DF
:10215000836887B09846049200230268052691465A
:102160000093013B019003910293052345469B1B7D
:102170009A465D434B46002B00D197E15544AD0094
:102180004D442B685C006B6864085F007F08391C55
:10219000381C0CF044F8002800D0E8E0211C381C62
:1021A0000CF038F8002800D0E8E00027731C9B46AC
:1021B000012E53D0AB685B005B08191C181C9846B5
:1021C0000CF02DF8002800D04DE14046211C0CF009
:1021D00021F8002801D0444602275B46032B3DD05E
:1021E000EB685B005B08191C181C98460CF017F88C
:1021F000002800D03FE14146201C0BF0FDFF0028E5
:1022000001D0444603275B46042B27D02B695B0093
:102210005B08191C181C98460CF001F8002800D027
:1022200031E14146201C0BF0E7FF002801D0444675
:1022300004275B46052B11D06D696D006D08291CC4
:10224000281C0BF0ECFF002800D024E1291C201CE6
:102250000BF0D2FF002801D005272C1C039B009A0D
:10226000574400219F50201C0BF0BEFF002800D1D6
:1022700087E0029B013300D1EBE05746019B9B684E
:1022800098465F4306239C1B06239B1BDF1943468E
:10229000424663439D001C19002392009346009A16
:1022A0009A469446BF006544A4004F444D444C44B4
:1022B000396828680BF069FF011C20680BF04BFFA0
:1022C0002060012E29D0796828680BF05EFF011C80
:1022D00060680BF040FF6060022E1ED02968B8686D
:1022E0000BF053FF011CA0680BF035FFA060032E1C
:1022F00013D02968F8680BF048FF011CE0680BF068
:102300002AFFE060052E08D1296838690BF03DFFEF
:10231000011C20690BF01FFF206101239C46E24451
:102320005D445C445645C3D1009B013E0433009399
:10233000002E00D019E70523039A00215361019B69
:102340009A68013293009B184A469B0098580BF0FC
:102350004BFF002803D0029B013300D1A3E0029879
:1023600007B03CBC90469946A246AB46F0BD211C46
:10237000201C0BF054FF002800D00FE73C1C012765
:1023800014E757452FD049464C46019ABB000098A8
:102390004B441D68926809589200255048441960C2
:1023A00081189B1808681C680C60186089189B18B5
:1023B00008681C680C60186089189B1808681C68FD
:1023C0000C60186089189B1808681C680C601860FD
:1023D00089189B1818680A6808601A60049A1368BC
:1023E0000593013313605746019B4A469B685F4340
:1023F000984606239C1B5346FB183D199B009B588F
:10240000AD004D442868191C9A460BF0AAFE2860BE
:10241000012E00D138E7686851460BF0A2FE6860D3
:10242000022E00D130E7A86851460BF09AFEA86052
:10243000032E00D128E7E86851460BF092FEE860D1
:10244000042E00D120E7286951460BF08AFE28614E
:102450001AE75746019B9B6898465F4306239C1BDF
:102460005346029310E7211C201C0BF0D8FE0028D5
:1024700000D1B0E6A9E6211C201C0BF0D0FE0028FC
:1024800000D1BEE6B7E6211C201C0BF0C8FE0028D8
:1024900000D1CCE6C5E6211C201C0BF0C0FE0028B4
:1024A00000D1D9E6D2E60523029358E71B68FFDE88
:1024B000F0B5DE464E4645465746E0B589B001AF19
:1024C0003A000500059005AB03CB03C26B682C00F6
:1024D0005800AB684008590049080BF03FFE2B68D4
:1024E000590049080BF03AFE2B69061C58006B692D
:1024F0004008590049080BF031FEEB6859004908C3
:102500000BF02CFE011C301C0BF028FEEB69804602
:1025100058002B6A4008590049080BF01FFEAB69B0
:10252000590049080BF01AFEAB6A061C5800EB6A0A
:102530004008590049080BF011FE6B6A5900490820
:102540000BF00CFE011C301C0BF008FE6B6B81467F
:102550005800AB6B4008590049080BF0FFFD2B6B8E
:10256000590049080BF0FAFD2B6C061C58006B6CE7
:102570004008590049080BF0F1FDEB6B5900490880
:102580000BF0ECFD011C301C0BF0E8FD061C011CDF
:1025900048460BF031FE002800D14E464046311C23
:1025A0000BF02AFE002800D14646E36C5800236D4C
:1025B0004008590049080BF0D1FDA36C59004908A7
:1025C0000BF0CCFDA36D80465800E36D4008590028
:1025D00049080BF0C3FD636D590049080BF0BEFDBF
:1025E000011C40460BF0BAFD636E80465800A36E96
:1025F0004008590049080BF0B1FD236E5900490805
:102600000BF0ACFD236F81465800636F4008590002
:1026100049080BF0A3FDE36E590049080BF09EFD3D
:10262000011C48460BF09AFDE36F81465800802359
:10263000E1584008490049080BF090FDA36F59008C
:1026400049080BF08BFD88238246E0580433E1589B
:1026500040004900490840080BF080FD8423E15800
:10266000490049080BF07AFD011C50460BF076FD3D
:10267000041C011C48460BF0BFFD002800D14C464D
:102680004046211C0BF0B8FD002800D14446211C17
:10269000301C0BF0B1FD002800D1341CC0232900F0
:1026A000EC503A00BA3BA83104A806930495FFF712
:1026B00047FD0121C422019B98260B405B428B43BE
:1026C0000133AB54343A9246002250469C272A509C
:1026D0009432A9509346923AAA510132EA519D325E
:1026E000944660469C3A2A50A03291469F3A9046C2
:1026F0004A4640462B00A85048461832AA58903304
:1027000092009A1814682C50404610606046B82217
:102710002858AA588046604692009A1814682C508F
:1027200040461060B422E859AA58844692009A188C
:1027300010685C46E85160461060B022AA58AF5954
:1027400092009A181068A8511760AC225846AA58EF
:102750002E5892009A18106828511660A822AA587C
:10276000544692009B1852461868AA5828511A607D
:10277000C523E95409B03CBC90469946A246AB46F5
:10278000F0BDC046C023002210B5C2500022043361
:10279000C2520B68040003604B6843608B6883601F
:1027A000CB68C3600B6903614B6943618B698361CB
:1027B000CB69C3610B6A03624B6A43628B6A8362B3
:1027C000CB6AC3620B6B03634B6B43638B6B83639B
:1027D000CB6BC3630B6C03644B6C43648B6C836483
:1027E000CB6CC3640B6D03654B6D43658B6D83656B
:1027F000CB6DC3650B6E03664B6E43668B6E836653
:10280000CB6EC3660B6F03674B6F43678B6F83673A
:10281000CB6FC3678023CA58C2500433CA58C25012
:102820000433CA58C2500433CA58C250FFF740FE9E
:10283000200010BD10B5037A0400002B07D00068FB
:10284000002804D0431E1B78C01A0BF007FE20009E
:1028500010BDC046F0B557464E464546DE46E0B58B
:10286000B5B006AFFB64EC23E84DF861F9633A6755
:10287000FB181E682B78BFF35B8FDB0700D484E264
:10288000E34C6368FA699A4633697B62B3683B62DA
:10289000934200DD3A627A6A3B6A53439946FB6B86
:1028A000534398468023DB05994500D351E23368B2
:1028B0003B65002B00D155E24B4600249D00A02330
:1028C000A422FB181C604B46BA18136080239B029D
:1028D000AB42AD41A8236D42FB181D708023DB0580
:1028E000984500D319E27368FB60002B00D11DE20C
:1028F000434600249D00AC23B022FB181C604346D5
:10290000BA18136080239B02AB42AD41B4236D42E1
:10291000FB181D7004237B64FB6B002B15DDE82086
:102920003A18FB6912681900934200DAF3E1504645
:1029300009010AF0F1FC0323C21713401B189B1076
:102940009B007B64042B00DAE2E1F969002900DCDA
:102950007BE17B6AB9611A00C91A9C463961E8219A
:10296000F86C9B0042433B60BA607B1862441B6872
:102970007A607A6C5343BB628300FB650433BB65AA
:10298000431C9B00BB667B181B689B007B66E02397
:10299000FB181B683B6300237B63BB637B613B6667
:1029A0008C20BB693A1813607A6A934201DD3B18A8
:1029B0001A60FB6B002B00DC18E18C23FB181B68F2
:1029C000002B00DC12E1FA6BBA647A6C53439B0073
:1029D000FB62FB687B6700237B653B6498339A4608
:1029E000BA448020BB6C3A1813607A6C934201DDC4
:1029F0003B181A603A6B7B6D944690229B006344AF
:102A0000BA18136084227B6BBA181360BB6BFB6728
:102A1000002399468C234A46FB181B689B1A98464C
:102A2000BB67042B01DD042398463B6E94224B4484
:102A3000FB6643465E1E8423FB181B68BA189D0084
:102A40003B6F9C469023FB181B6865441360002E67
:102A500046D094238822FB181C680023B3462E001E
:102A6000BA18136025687168281C0BF08EFB011CD6
:102A700060680BF070FB5B466060012B14D0B1689E
:102A8000281C0BF082FB011CA0680BF064FB5B466A
:102A9000A060022B08D0F168281C0BF076FB011C0B
:102AA000E0680BF058FBE0608822BB181B68BA187E
:102AB000013313607A6E94468022BA181268644417
:102AC0009342CFD19422BB6E35005E469C46BB1824
:102AD0001B68BA180433013E65441360002EB8D158
:102AE0004246BB6F51469C1A90225346BA18126850
:102AF0001A60E822BA1812685A604B4601938C2378
:102B0000FB181B68424600938023FB181B68786FF4
:102B1000FDF770FD002C37DDFB6E3A6F43441D005E
:102B200094465246FB6F3E6D5B199B0063441360F5
:102B30005346FA6C51465A60300023004246FDF776
:102B400003FE7B6DE8229C46E023FB181B6865446E
:102B50009C465346BA181268AD0065441D605A6021
:102B60004B4604938C23FB181B68310003934346A8
:102B700002938023FB181B68504601934346009341
:102B80007A6F2300FDF708FE04239C46FA6DE144AA
:102B900094469022FB6F84216344FB67BB181B683B
:102BA000BA1810331360BA6D7B1894461B687A18F4
:102BB000634413608C23FB181B684B4500DD29E739
:102BC0007A6CB96C94463B6C8A1AB96A63448C4639
:102BD000BA64F96A7A6D3B6462448C467A657A6FAE
:102BE00062447A67FA6B9A4200DDFAE67A6A3B6ED3
:102BF0009446FA6963443B669A4226DD3A6A002AA3
:102C000036DCF9699B189942FCDC03E0582103206B
:102C10001C370320BA697B6A7969D21ABA61BA682B
:102C20000800944639697A68CB1A3B61BB6B6044F3
:102C300063449446BB633A687B6B78616344944613
:102C40007B633B6B63443B63AAE6982414233A19E5
:102C5000D018FFF7EFFD08233A19D018FFF7EAFD67
:102C6000BD462FB03CBC90469946A246AB46F0BD4F
:102C70003A6F7B69944694229B006344BA181360B0
:102C80003B6E3E69984698239A4600239B46013B3B
:102C900099463300BA444646544698463B6AC24673
:102CA000984500DD9A4694238C22FB181B68B500DA
:102CB000EB182360FB6CB9180A68386D210063605B
:102CC0005346FDF741FDE02179180B68E82179189A
:102CD0009C460B68654463605B46256004934B46E5
:102CE00003930293FB6B200001938C23FB181B685A
:102CF0000093FA685346396DFDF74EFD42463B6A34
:102D00009C46D31A9846FB696644B342C6DC81E709
:102D100004237B6419E6110009E6012040420BF010
:102D2000C1FB7368FB60002B00D0E1E543469D00CA
:102D300080239B029D424AD82B006A461633DB084B
:102D4000DB00D31A9D4627240F236C449C43FC6070
:102D5000D1E5012040420BF0A5FB33683B65002B19
:102D600000D0A9E54B469D0080239B029D421ED8C2
:102D70002B006A461633DB08DB00D31A9D46272456
:102D80000F236C449C433C6599E528000EF054F8F1
:102D90001D4C002800D174E58023DB0123608023D3
:102DA0001B0328006360A3600EF062F869E5280049
:102DB00010300BF035FB041E19D00F2210230240F7
:102DC0009B1ADBB2C418621E13703C6577E52800BD
:102DD00010300BF025FB041E0FD00F2210230240F1
:102DE0009B1ADBB2C418621E1370FC6083E50120DD
:102DF00040420BF057FB3C6561E5012040420BF07F
:102E000051FBFC6077E5C0461C370320F0B5DE4679
:102E100057464E464546E0B5B9B006AFFB67FC23C2
:102E2000384DB963BA64FB181E682B788346BFF32C
:102E30005B8FDB0700D4C1E2334C63689A46336989
:102E40007B61B3683B615B4501DD5B463B617A6951
:102E50003B6953439946BB6B534398468023DB053C
:102E6000994500D38EE233683B65002B00D192E296
:102E70004B4600249D00B023B422FB181C604B4637
:102E8000BA18136080239B02AB42AD41B8236D4258
:102E9000FB181D708023DB05984500D356E273684C
:102EA000FB61002B00D15AE2434600249D00BC2365
:102EB000C022FB181C604346BA18136080239B0293
:102EC000AB42AD41C4236D42FB181D7004233B642B
:102ED000BB6B002B1ADDF823FB181B6859469B457A
:102EE00000DA2FE2504609010AF016FA0323C2174E
:102EF00013401B189B109B003B64042B00DA1EE25E
:102F000004E0C046582103201C3703205B46002BF9
:102F100000DC00E2FA6F78691100434259430B006C
:102F2000F96059460C1A110062431B1A9B00BA61E2
:102F3000BB600A000B0059464B43B96C5B448C469E
:102F4000F0219B006344FB627918830009685B42AF
:102F50007B605B468C46F8219B00634479180968C6
:102F60003B633B6C7C634B433B6293005B423B6641
:102F7000043B7B659B00BB65D3439B00A422BB66DF
:102F80008B007B665B46BA1813600300A422BA1854
:102F900012683B67934200DD3A67BB6B002B00DC95
:102FA00058E13A6F002A00DC54E17B643B6C396BDA
:102FB00053439B007B62FB69FB669300CB1ABB62A9
:102FC00000237B67FB63A433FB181B6803219B1A58
:102FD000BB671300013B043A8B43D31AFB65902275
:102FE0007B6CBA1813603A6C934202DD9023FB1895
:102FF0001A60BA6A7B6F94469B009C446246FA64EE
:103000003A6B944698226344BA1813609422FB6A80
:10301000BA1813603B6F9A465346D346042B01DD22
:1030200004239B468022BB6FBA18534413605B464F
:103030005E1E7B6DF96F99469423FB181A685B46F8
:1030400090465B425B1A9B00A422C1449844012332
:10305000BA185B4213604B46FE20196880050BF0DE
:1030600080F88C239821FB181860A423791809682C
:10307000FB188C4684211A687918931B9C009B00CE
:103080005B420B6093009C22BA181360A0220023BD
:10309000BA18644413608423FB181B6888229C467A
:1030A000A4446346BA1813609C22BA18126899584F
:1030B0008C23FB1818680BF068F888239C22FB18F7
:1030C000BA181B681268051C9850002E20D0434681
:1030D00019680BF05AF8011C20680BF03CF82060CE
:1030E000012E15D04346281C59680BF04EF8011CE0
:1030F00060680BF030F86060022E09D04346281C4F
:1031000099680BF042F8011CA0680BF024F8A0604D
:10311000A023A022FB181B68BA18013313607A6E33
:1031200094469022BA18126864449342B3D1A423FF
:10313000A422FB181B68BA18013B1360BB6E9C46A7
:103140003B6EE1449C46E044013E84D25A465346DD
:103150009C1A8023FB181B68A8219D1AF022BA181C
:1031600012687B6F9446A8225B199B006344BA18CF
:103170001360F823AC22FB181B68BA181360902365
:1031800001943E6FFB1800961B68F86E5A4679183A
:1031900099468046FDF72EFA002C2DDDBA6FF96FA7
:1031A00094464D43BA6C6544A8239446AD006544EB
:1031B000FB181D60AC23FB181960A82123005A4698
:1031C000386D7918FDF7C0FAA823FD6CFB181D6057
:1031D000F823FB181D68AC23FB181D605D464B46A9
:1031E000A82001930494039602950095230042467B
:1031F000396D3818FDF7D0FA04235B429C46BA6D4E
:10320000E244944694229833FB181B68BA1863442E
:10321000136098239822FB181B68BA18103B1360A0
:10322000FB6D534500D0F7E63A6C796C9446FB6B26
:103230008A1A796A63448C467A64396AFA6EFB6347
:1032400062448C46FA667A6F62447A67BA6B9A4235
:1032500000DDC4E6A4227B6BBA181360002B5ADD94
:10326000BA6C1C009146BB6900259B009944002361
:10327000CB469A463E69A046B44200DDB04643467E
:10328000002B2EDDA822AB009946BA185B441360D0
:10329000AC22A821FB6FBA181360386D43463A6F11
:1032A0007918FDF751FAF023A822FB181B68BA1809
:1032B0004B441360F823AC22FB181B68BA18136048
:1032C000534604930123A8205B4203930293BB6BF4
:1032D000381801933B6F0093FA694346396DFDF747
:1032E0005BFA7B6BAD19A41BAB42C4DCFA68BB690B
:1032F0009446BA6863449446BB617A68FB6A634447
:103300009446FB623B6B7A6963443B637B6B9B1A1D
:103310007B6313003AE6A8221423BA18D018FFF7EB
:1033200089FAA8220823BA18D018FFF783FABD46F5
:1033300033B03CBC90469946A246AB46F0BD042350
:103340003B64E3E5F823FB181968CBE50120404214
:103350000BF0A8F87368FB61002B00D0A4E543468E
:103360009D0080239B029D424AD82B006A4616335B
:10337000DB08DB00D31A9D4627240F236C449C43B3
:10338000FC6194E5012040420BF08CF833683B650A
:10339000002B00D06CE54B469D0080239B029D4294
:1033A0001ED82B006A461633DB08DB00D31A9D4675
:1033B00027240F236C449C433C655CE528000DF0FA
:1033C0003BFD1D4C002800D137E58023DB01236045
:1033D00080231B0328006360A3600DF049FD2CE5EA
:1033E000280010300BF01CF8041E19D00F221023F7
:1033F00002409B1ADBB2C418621E13703C653AE5AA
:10340000280010300BF00CF8041E0FD00F221023F0
:1034100002409B1ADBB2C418621E1370FC6146E5C1
:10342000012040420BF03EF83C6524E5012040427B
:103430000BF038F8FC613AE51C370320F0B5DE46A6
:1034400045464E465746E0B5214C1600A5443AAADB
:1034500094460A000B931F4B099063441B09049187
:103460001D01FDAB13CA13C313CA13C31268FDA910
:103470001A60194B194A1B6847A80593184B47ACAB
:103480001B680193174B1B6806930093059BFEF77F
:1034900021F83AAA944647ABFD93FF93124BFFAA3B
:1034A00063441B680432FE9613608623DB009C464F
:1034B000AC446046CCAAFDA90D90FEF767F96BAB52
:1034C0000C9323000A9498462C000E950EE0C046FB
:1034D0006CF6FFFFEF030000F01E03200AE81C411A
:1034E000E81E0320EC1E0320D80800004346404697
:1034F00045461B68806C05930C9BAF6F814620CBC3
:103500004146404642460C93A823096B006E9269DF
:1035100007910890F158281C06920AF036FE8C2379
:103520008246F158381C0AF030FE011C50460AF061
:1035300015FE316F824608980AF027FE716D8346AA
:1035400048460AF022FE011C58460AF007FE011CFC
:1035500050460AF003FEB16B824607980AF015FE4A
:10356000F169834606980AF010FE011C58460AF0DD
:10357000F5FD3168834605980AF007FE011C5846A0
:103580000AF0ECFD011C50460AF0E8FDAC23206077
:10359000F158281C0AF0F9FD90238246F158381C96
:1035A0000AF0F3FD011C50460AF0D8FD716F824607
:1035B00008980AF0EAFDB16D834648460AF0E5FD39
:1035C000011C58460AF0CAFD011C50460AF0C6FD0F
:1035D000F16B824607980AF0D8FD316A8346069857
:1035E0000AF0D3FD011C58460AF0B8FD7168834605
:1035F00005980AF0CAFD011C58460AF0AFFD011CEF
:1036000050460AF0ABFDB0236060F158281C0AF068
:10361000BCFD94238246F158381C0AF0B6FD011C0B
:1036200050460AF09BFDB16F824608980AF0ADFD46
:10363000F16D834648460AF0A8FD011C58460AF081
:103640008DFD011C50460AF089FD316C82460798B9
:103650000AF09BFD716A834606980AF096FD011CEC
:1036600058460AF07BFDB168834605980AF08DFD47
:10367000011C58460AF072FD011C50460AF06EFD0E
:10368000B423A060F158281C0AF07FFD98238246DD
:10369000F158381C0AF079FD011C50460AF05EFD15
:1036A000F16F824608980AF070FD316E83464846F5
:1036B0000AF06BFD011C58460AF050FD011C5046F3
:1036C0000AF04CFD716C824607980AF05EFDB16A03
:1036D000834606980AF059FD011C58460AF03EFD43
:1036E000F168834605980AF050FD011C58460AF01F
:1036F00035FD011C50460AF031FDB823E060F15859
:10370000281C0AF042FD9C238246F158381C0AF01E
:103710003CFD011C50460AF021FD80238246F158F1
:1037200008980AF032FD716E834648460AF02DFD76
:10373000011C58460AF012FD011C50460AF00EFD0D
:10374000B16C824607980AF020FDF16A834606981C
:103750000AF01BFD011C58460AF000FD3169834642
:1037600005980AF012FD011C58460AF0F7FC011CEE
:1037700050460AF0F3FCBC232061F158281C0AF0E3
:1037800004FDA0238246F158381C0AF0FEFC011CFF
:1037900050460AF0E3FC84238246F15808980AF068
:1037A000F4FCB16E834648460AF0EFFC011C584613
:1037B0000AF0D4FC011C50460AF0D0FCF16C8246A1
:1037C00007980AF0E2FC316B834606980AF0DDFCAC
:1037D000011C58460AF0C2FC7169834605980AF03C
:1037E000D4FC011C58460AF0B9FC011C50460AF0F2
:1037F000B5FCF16E606148460AF0C7FC882381463B
:10380000F15808980AF0C1FC011C48460AF0A6FCD1
:10381000A4238146F158381C9A460AF0B6FCC0230E
:10382000071CF158281C0AF0B0FC011C381C0AF0D7
:1038300095FC011C48460AF091FC716B051C06982A
:103840000AF0A3FC316D071C07980AF09EFC011CCE
:10385000381C0AF083FCB169071C05980AF095FC36
:10386000011C381C0AF07AFC011C281C0AF076FCAA
:1038700004239C464DABE044A0611C34984500D025
:1038800034E6D8230E9D9B00EC1820000D99FEF71E
:1038900079FFA4239B009B46AB442100902258460D
:1038A0000AF0FAFDC8239B00EC18D033E91818225F
:1038B00020000AF0F1FDCE239B00E818D033E91870
:1038C00018220AF0E9FD8422D423D200AA18126833
:1038D0009B00EB181A60D523744A2F00AA1812888F
:1038E0009B00EB18FE211A8000232268B03792005B
:1038F000BA18890511609361136393641366936723
:10390000C9229200AA181268D13C9200BA1813601A
:1039100091611363936413669367CA229200AA1895
:103920001268FF3C9200BA181360936111639364AC
:1039300013669367CB229200AA18126806209200A1
:10394000BA18136093611363916413669367CC2272
:103950009200AA1812689200BA1813609361136358
:10396000936411669367CD229200AA1812689200A0
:10397000BA18136093611363936413660623A360FC
:10398000E360236198466B33FF339946A9449167FE
:103990004A46203BEA50802292009446AC4462465C
:1039A000414662604B3B02910539059203945A46A9
:1039B0000191FF3B05310097FEF74CFF4046A823DD
:1039C000A060E060206148465B00E850012143466A
:1039D000059A062062600394029301915A4600976B
:1039E0000531FFF713FA2B68B8461C93EB69FDAC61
:1039F0001D93AB6B1E936B6D1F932B6F20938C23CA
:103A0000EB5821936B682B932B6A2C93EB6B2D93C4
:103A1000AB6D22936B6F23939023EB582493AB6889
:103A200025936B6A26932B6C2793EB6D2893AB6FD2
:103A300029939423EB582A93EB682E93AB6A1B933C
:103A40006B6C07932B6E0C93EB6F0D939823EB58D5
:103A50000E932B690F93EB6A1093AB6C11936B6E03
:103A60002F938023EB5830939C23EB5831936B6951
:103A700012932B6B1393EB6C34961493AB6E1593DC
:103A80008423EB581693A023EB581793AB69189334
:103A90006B6B19932B6D1A93EB6E32938823EB5853
:103AA00008935346EB58339302E0C04624040000C9
:103AB00043461F685B6842469946434641469B68B9
:103AC000D2680E694D691D984946059306920AF021
:103AD0005CFB059982461E980AF057FB011C504674
:103AE0000AF03CFB391C82461C980AF04EFB011C74
:103AF00050460AF033FB311C824620980AF045FB01
:103B0000291C834621980AF040FB011C58460AF004
:103B100025FB069983461F980AF037FB011C58467F
:103B20000AF01CFB011C50460AF018FB49462060B5
:103B30002C980AF02AFB059982462D980AF025FB5D
:103B4000011C50460AF00AFB391C82462B980AF0E9
:103B50001CFB011C50460AF001FB311C82462398D5
:103B60000AF013FB291C834624980AF00EFB011C63
:103B700058460AF0F3FA0699834622980AF005FBA4
:103B8000011C58460AF0EAFA011C50460AF0E6FA0F
:103B90004946606026980AF0F8FA05998246279807
:103BA0000AF0F3FA011C50460AF0D8FA391C824692
:103BB00025980AF0EAFA011C50460AF0CFFA311CA7
:103BC000824629980AF0E1FA291C83462A980AF0CD
:103BD000DCFA011C58460AF0C1FA06998346289877
:103BE0000AF0D3FA011C58460AF0B8FA011C5046F4
:103BF0000AF0B4FA4946A0601B980AF0C6FA059983
:103C0000824607980AF0C1FA011C50460AF0A6FA4B
:103C1000391C82462E980AF0B8FA011C50460AF068
:103C20009DFA311C82460D980AF0AFFA291C834692
:103C30000E980AF0AAFA011C58460AF08FFA069963
:103C400083460C980AF0A1FA011C58460AF086FA3D
:103C5000011C50460AF082FA4946E06010980AF0CA
:103C600094FA0599824611980AF08FFA011C504681
:103C70000AF074FA391C82460F980AF086FA011C81
:103C800050460AF06BFA311C824630980AF07DFAF1
:103C9000291C834631980AF078FA011C58460AF02C
:103CA0005DFA069983462F980AF06FFA011C584670
:103CB0000AF054FA011C50460AF050FA49462061B5
:103CC00013980AF062FA0599824614980AF05DFA90
:103CD000011C50460AF042FA391C824612980AF03A
:103CE00054FA011C50460AF039FA311C82461698E3
:103CF0000AF04BFA291C834617980AF046FA011C71
:103D000058460AF02BFA0699834615980AF03DFAB0
:103D1000011C58460AF022FA011C50460AF01EFA0D
:103D20004946606119980AF030FA059981461A9857
:103D30000AF02BFA011C48460AF010FA391C814699
:103D400018980AF022FA011C48460AF007FA311CBA
:103D5000071C08980AF019FA291C061C33980AF067
:103D600014FA011C301C0AF0F9F90699051C329866
:103D70000AF00BFA011C281C0AF0F0F9011C381C8F
:103D80000AF0ECF918239C46FFABA061A0331C3469
:103D9000E044A34200D08BE6FD9BFE9A069371930C
:103DA000FFAB5C680433FFAB9D680833FFABDF6893
:103DB0000C33FFAB10331B68FF990F937793FFAB66
:103DC0001433079272921A68FFAB183308917391FB
:103DD0001968FFAB1C330C9474941C68FFAB203340
:103DE0000D9575951D68FFAB2433349E0E9776971D
:103DF000109278921191799112947A9413951F6888
:103E0000FFAB28331B687B9515937D93FFABDA6A74
:103E10002C33FFAB196B3033FFAB5C6B3433FFAB30
:103E20009D6B3833FFAB3C3314977C971F68FFAB17
:103E300040331B6816921B938393FFAB44337E92EF
:103E40001A68FFAB483317917F911968FFAB4C3369
:103E5000189480941C68FFAB5033199581951A977C
:103E600082971C9284921D9185911E941D68FFABD0
:103E70005F6D5433FFAB58331B688694219389934D
:103E8000FFABDA6D5C33FFAB196E6033FFAB5C6E7A
:103E90006433FFAB68331F9587951D68FFAB6C33A8
:103EA000209788971F68FFAB70331B682292279377
:103EB0008F93FFAB74338A921A68FFAB78332391E8
:103EC0008B911968FFAB7C3324948C9425958D9548
:103ED00026978E972892909229911C68FFAB803389
:103EE0001D68FFAB84331F68FFAB88331B6891915B
:103EF0002D939593FFAB8C331A68FFAB9033196801
:103F0000FFAB94332A9492941C68FFAB98332B95A3
:103F100093951D68FFAB9C332C9794971F682E9246
:103F20009692049A2F9197913094989431959995FF
:103F300032979A97FDAB32CA32C332CA32C3116884
:103F4000FDAC1960FD49FE4B09681B680191FD49F4
:103F5000FD4A09682000009141A9FDF71BF80B9F5D
:103F6000419938680AF0F7F84299834678680AF070
:103F7000F2F84399041CB8680AF0EDF84499051C5E
:103F8000F8680AF0E8F84599824638690B970AF014
:103F9000E2F80B9B071C469958690AF0DCF880464A
:103FA000011C2D980AF0F1F8391C814626980AF078
:103FB000ECF8011C48460AF0D1F8534681465146B8
:103FC0001F9805930AF0E1F8011C48460AF0C6F86C
:103FD000291C814618980AF0D8F8211C82461198AD
:103FE0000AF0D3F8011C50460AF0B8F85946824648
:103FF00007980AF0CAF8011C50460AF0AFF8011CF5
:1040000048460AF0ABF8049A51680AF0A7F841460E
:104010000B902E980AF0B9F8391C814627980AF0BF
:10402000B4F8011C48460AF099F805998146209891
:104030000AF0ABF8011C48460AF090F8291C8146AA
:1040400019980AF0A2F8211C824612980AF09DF8ED
:10405000011C50460AF082F85946824608980AF038
:1040600094F8011C50460AF079F8011C48460AF001
:1040700075F8049A91680AF071F8414633902F98C8
:104080000AF083F8391C814628980AF07EF8011C52
:1040900048460AF063F80599814621980AF075F8B8
:1040A000011C48460AF05AF8291C81461A980AF061
:1040B0006CF8211C824613980AF067F8011C5046E0
:1040C0000AF04CF8594682460C980AF05EF8011C3A
:1040D00050460AF043F8011C48460AF03FF8049A9B
:1040E000D1680AF03BF84146349030980AF04DF818
:1040F000391C814629980AF048F8011C48460AF004
:104100002DF80599814622980AF03FF8011C48468F
:104110000AF024F8291C81461B980AF036F8211C65
:10412000824614980AF031F8011C50460AF016F83D
:10413000594682460D980AF028F8011C50460AF0AC
:104140000DF8011C48460AF009F8049A11690AF0B2
:1041500005F84146359031980AF017F8391C814628
:104160002A980AF012F8011C484609F0F7FF059951
:10417000814623980AF009F8011C484609F0EEFF31
:10418000291C81461C980AF000F8211C82461598CB
:1041900009F0FBFF011C504609F0E0FF594682463A
:1041A0000E9809F0F2FF011C504609F0D7FF011CE0
:1041B000484609F0D3FF049A516909F0CFFF211C4A
:1041C0003690169809F0E1FF291C81461D9809F0E8
:1041D000DCFF011C484609F0C1FF594681460F9893
:1041E00009F0D3FF011C484609F0B8FF391C81468D
:1041F0002B9809F0CAFF41468246329809F0C5FF64
:10420000011C504609F0AAFF05998246249809F03E
:10421000BCFF011C504609F0A1FF011C484609F0F3
:104220009DFF049A916909F099FF414681462C98B7
:1042300009F0ABFF391C8046259809F0A6FF011C48
:10424000404609F08BFF0599071C1E9809F09DFF59
:10425000011C381C09F082FF291C071C179809F063
:1042600094FF211C051C109809F08FFF011C281CCD
:1042700009F074FF5946041C069809F086FF011CDA
:10428000201C09F06BFF011C381C09F067FF049A21
:10429000FDAC116809F062FF099B0B9A18605A6027
:1042A000339A9A60349ADA60359A1A61369A5A616A
:1042B0004A469A613368CC937368CD93B368CE93C2
:1042C000F368CF933369D0937369D193B369D29371
:1042D000F369D393336AD493736AD593B36AD6934D
:1042E000F36AD793336BD893736BD993B36BDA9329
:1042F000F36BDB93336CDC93736CDD93B36CDE9305
:10430000F36CDF93336DE093736DE193B36DE293E0
:10431000F36DE393336EE493736EE593B36EE693BC
:10432000F36EE793336FE893736FE993B36FEA9398
:10433000F36FEB938023F358EC9307E0E81E032020
:10434000F01E0320EC1E03200AE81C418423F358CE
:10435000ED938823F358EE938C23F358EF93902337
:10436000F358F0939423F358F1939823F358F2936E
:104370009C23F3580B96F393A023F358F493A423B0
:10438000F358F593A823F358F693AC23F358F79317
:10439000B023F358F893B423F358F993B823F358A0
:1043A000FA93BC23F358FB93C023F358FC930A9B66
:1043B00010985A681F6891469A6849469046DA688C
:1043C0001E695D69059209F0E0FE41468246179834
:1043D00009F0DBFE011C504609F0C0FE391C824684
:1043E000069809F0D2FE011C504609F0B7FE311CB8
:1043F0008246259809F0C9FE291C83462C9809F0AD
:10440000C4FE011C584609F0A9FE059983461E9872
:1044100009F0BBFE011C584609F0A0FE011C5046E5
:1044200009F09CFE49462060119809F0AEFE414615
:104430008246189809F0A9FE011C504609F08EFE2C
:10444000391C8246079809F0A0FE011C504609F06D
:1044500085FE311C8246269809F097FE291C83466A
:104460002D9809F092FE011C584609F077FE059937
:1044700083461F9809F089FE011C584609F06EFE1C
:10448000011C504609F06AFE49466060129809F026
:104490007CFE41468246199809F077FE011C504681
:1044A00009F05CFE391C8246089809F06EFE011C7A
:1044B000504609F053FE311C8246279809F065FEEC
:1044C000291C83462E9809F060FE011C584609F00D
:1044D00045FE05998346209809F057FE011C584671
:1044E00009F03CFE011C504609F038FE4946A06028
:1044F000139809F04AFE414682461A9809F045FE93
:10450000011C504609F02AFE391C82460C9809F01D
:104510003CFE011C504609F021FE311C82462898C1
:1045200009F033FE291C83462F9809F02EFE011C4A
:10453000584609F013FE05998346219809F025FE97
:10454000011C584609F00AFE011C504609F006FEFF
:104550004946E060149809F018FE414682461B98CF
:1045600009F013FE011C504609F0F8FD391C824683
:104570000D9809F00AFE011C504609F0EFFD311CB0
:104580008246299809F001FE291C8346309809F0DB
:10459000FCFD011C584609F0E1FD0599834622986F
:1045A00009F0F3FD011C584609F0D8FD011C5046E6
:1045B00009F0D4FD49462061159809F0E6FD414611
:1045C00082461C9809F0E1FD011C504609F0C6FD29
:1045D000391C82460E9809F0D8FD011C504609F09E
:1045E000BDFD311C82462A9809F0CFFD291C834667
:1045F000319809F0CAFD011C584609F0AFFD059934
:104600008346239809F0C1FD011C584609F0A6FD18
:10461000011C504609F0A2FD49466061169809F058
:10462000B4FD414681461D9809F0AFFD011C484686
:1046300009F094FD391C80460F9809F0A6FD011C75
:10464000404609F08BFD311C071C2B9809F09DFD9D
:10465000291C061C329809F098FD011C301C09F039
:104660007DFD0599051C249809F08FFD011C281C6F
:1046700009F074FD011C381C09F070FD0A9BA06153
:1046800018330A93FFAB1C34BC33A34200D08EE630
:10469000C4239C460B9ECCADB444634634003C9688
:1046A0000A9308962369A6699846E36821689946A3
:1046B000A36862680793FFABA0330591301C1968AB
:1046C000069209F062FD6769FFAB84331968824680
:1046D000381C09F05AFD011C504609F03FFDFFABA4
:1046E000996E82464046683309F04FFDFFABD96CA6
:1046F000834648464C3309F048FD011C584609F0F2
:104700002DFD011C504609F029FDFFAB196B8246B7
:104710000798303309F039FDFFAB59698346069895
:10472000143309F032FD011C584609F017FDFD99BC
:104730008346059809F029FD011C584609F00EFD35
:10474000011C504609F00AFD011C286809F003FD10
:10475000FFABA43328601968301C09F016FDFFABCD
:10476000883319688246381C09F00FFD011C504639
:1047700009F0F4FCFFABD96E824640466C3309F079
:1047800004FDFFAB196D83464846503309F0FDFC2C
:10479000011C584609F0E2FC011C504609F0DEFC01
:1047A000FFAB596B82460798343309F0EEFCFFAB40
:1047B000996983460698183309F0E7FC011C5846AE
:1047C00009F0CCFCFE998346059809F0DEFC011C3B
:1047D000584609F0C3FC011C504609F0BFFC011CFF
:1047E000686809F0B8FCFFABA83319686860301C32
:1047F00009F0CBFCFFAB8C3319688246381C09F0FA
:10480000C4FC011C504609F0A9FCFFAB8246196F9D
:104810004046703309F0B9FCFFAB596D83464846FA
:10482000543309F0B2FC011C584609F097FC011CF6
:10483000504609F093FCFFAB996B824607983833DA
:1048400009F0A3FCFFABD969834606981C3309F035
:104850009CFC011C584609F081FCFF998346059891
:1048600009F093FC011C584609F078FC011C5046E5
:1048700009F074FC011CA86809F06DFCFFABAC33B7
:104880001968A860301C09F080FCFFAB90331968F0
:104890008246381C09F079FC011C504609F05EFC88
:1048A000FFAB596F82464046743309F06EFCFFAB94
:1048B000996D83464846583309F067FC011C5846F9
:1048C00009F04CFC011C504609F048FCFFAB824645
:1048D000D96B07983C3309F058FCFFAB196A834643
:1048E0000698203309F051FC011C584609F036FCAB
:1048F000FFAB596883460598043309F046FC011C58
:10490000584609F02BFC011C504609F027FC011CFD
:10491000E86809F020FCFFABB0331968E860301C90
:1049200009F033FCFFAB943319688246381C09F058
:104930002CFC011C504609F011FCFFAB996F82461C
:104940004046783309F021FCFFABD96D83464846D9
:104950005C3309F01AFC011C584609F0FFFB011CEE
:10496000504609F0FBFBFFAB196C824607984033B9
:1049700009F00BFCFFAB596A83460698243309F013
:1049800004FC011C584609F0E9FBFFAB996883461B
:104990000598083309F0F9FB011C584609F0DEFBC5
:1049A000011C504609F0DAFB011C286909F0D3FB11
:1049B000FFABB43319682861301C09F0E6FBFFAB8C
:1049C000983319688246381C09F0DFFB011C5046F9
:1049D00009F0C4FBFFABD96F824640467C3309F037
:1049E000D4FBFFAB196E83464846603309F0CDFB1C
:1049F000011C584609F0B2FB011C504609F0AEFB01
:104A0000FFAB596C82460798443309F0BEFBFFABFD
:104A1000996A83460698283309F0B7FB011C58466B
:104A200009F09CFBFFABD968834605980C3309F06D
:104A3000ACFB011C584609F091FB011C504609F0E3
:104A40008DFB011C686909F086FBFFAB596E68613C
:104A50004846643309F099FBFFAB803319688146FF
:104A6000404609F092FB011C484609F077FBFFAB7A
:104A70009C3319688046381C09F087FBFFABB833BC
:104A80001968071C301C09F080FB011C381C09F058
:104A900065FB011C404609F061FBFFABD96A061CAF
:104AA00006982C3309F071FBFFAB996C071C079833
:104AB000483309F06AFB011C381C09F04FFBFFABBF
:104AC0001969071C0598103309F05FFB011C381C9D
:104AD00009F044FB011C301C09F040FB011CA869D3
:104AE00009F039FB0A9B1C34A8611C359C4200D09C
:104AF000D8E5089ECC9B3360CD9B7360CE9BB360A2
:104B0000CF9BF360D09B3361D19B7361D29BB36128
:104B1000D39BF361D49B3362D59B7362D69BB36204
:104B2000D79BF362D89B3363D99B7363DA9BB363E0
:104B3000DB9BF363DC9B3364DD9B7364DE9BB364BC
:104B4000DF9BF364E09B3365E19B7365E29BB36598
:104B5000E39BF365E49B3366E59B7366E69BB36674
:104B6000E79BF366E89B3367E99B7367EA9BB36750
:104B7000EB9BF3678023EC9AF250ED9A0433F250EA
:104B8000EE9A0433F250EF9A0433F250F09A043361
:104B9000F250F19A0433F250F29A0433F250F39A3D
:104BA0000433F250F49A0433F250F59A0433F2507D
:104BB000F69A0433F250F79A0433F250F89A043319
:104BC000F250F99A0433F250FA9A0433F250FB9AF5
:104BD0000433F250FC9A0433F2503AAA8D239446DF
:104BE0001B0163441B68CCAA13CB13C28E231B0189
:104BF00063441B68FDAC07CB07C4049B099D00936D
:104C0000494B28006344CCA91B68FDAAFCF7A0F817
:104C10002B00FDAA23CB23C2220013CB13C21B6897
:104C20003AA913608D238C463EAA11001B016344F0
:104C30001B6831CB31C18E231B0163441B68CCA997
:104C400031CB31C1384BFDA963441B689BA800934D
:104C5000CCABFCF7E3FAFDAB08931C009B9B0B93DA
:104C6000A29B1293A99B1993B09B2093B79B279368
:104C7000BE9B2E93C59B35939C9B0C93A39B139338
:104C8000AA9B1A93B19B2193B89B2893BF9B2F9308
:104C9000C69B36939D9B0D93A49B1493AB9B1B9338
:104CA000B29B2293B99B2993C09B3093C79B3793A8
:104CB0009E9B0E93A59B1593AC9B1C93B39B239338
:104CC000BA9B2A93C19B3193C89B38939F9B0F93A8
:104CD000A69B1693AD9B1D93B49B2493BB9B2B93D8
:104CE000C29B3293C99B3993A09B1093A79B1793A8
:104CF000AE9B1E93B59B2593BC9B2C93C39B339378
:104D0000CA9B3A93A19B1193A89B1893AF9B1F93A7
:104D1000B69B2693BD9B2D93C49B3493CB9B3B9317
:104D20003C9B3C96984601E0E40800004146C96877
:104D300040468946414642464346866909691B68A2
:104D40005568926847690791301C3599059306921A
:104D500009F01BFA2E998246381C09F016FA011C3C
:104D6000504609F0FBF927998246079809F00DFA99
:104D700020998346484609F008FA011C584609F074
:104D8000EDF9011C504609F0E9F919998246069897
:104D900009F0FBF912998346281C09F0F6F9011C69
:104DA000584609F0DBF90B998346059809F0EDF9AF
:104DB000011C584609F0D2F9011C504609F0CEF901
:104DC00036992060301C09F0E0F92F998246381C92
:104DD00009F0DBF9011C504609F0C0F92899824618
:104DE000079809F0D2F921998346484609F0CDF990
:104DF000011C584609F0B2F9011C504609F0AEF901
:104E00001A998246069809F0C0F913998346281C1E
:104E100009F0BBF9011C584609F0A0F90C9983462A
:104E2000059809F0B2F9011C584609F097F9011CE0
:104E3000504609F093F9311C6060379809F0A5F9E4
:104E4000391C8246309809F0A0F9011C504609F03F
:104E500085F929998246079809F097F9229983469E
:104E6000484609F092F9011C584609F077F9011CEF
:104E7000504609F073F91B998246069809F085F9A6
:104E800014998346281C09F080F9011C584609F042
:104E900065F90D998346059809F077F9011C584684
:104EA00009F05CF9011C504609F058F9311CA0606A
:104EB000389809F06AF9391C8246319809F065F989
:104EC000011C504609F04AF9079982462A9809F0D0
:104ED0005CF949468346239809F057F9011C584666
:104EE00009F03CF9011C504609F038F90699824650
:104EF0001C9809F04AF9291C8346159809F045F9D0
:104F0000011C584609F02AF9059983460E9809F0C4
:104F10003CF9011C584609F021F9011C504609F0E2
:104F20001DF9311CE060399809F02FF9391C8246CF
:104F3000329809F02AF9011C504609F00FF9079937
:104F400082462B9809F021F949468346249809F0B6
:104F50001CF9011C584609F001F9011C504609F0E2
:104F6000FDF8069982461D9809F00FF9291C834621
:104F7000169809F00AF9011C584609F0EFF805994E
:104F800083460F9809F001F9011C584609F0E6F82C
:104F9000011C504609F0E2F8311C20613A9809F0F2
:104FA000F4F8391C8246339809F0EFF8011C50469A
:104FB00009F0D4F8079982462C9809F0E6F849469A
:104FC0008346259809F0E1F8011C584609F0C6F817
:104FD000011C504609F0C2F8069982461E9809F055
:104FE000D4F8291C8346179809F0CFF8011C5846BD
:104FF00009F0B4F805998346109809F0C6F8011C29
:10500000584609F0ABF8011C504609F0A7F849468C
:105010006061269809F0B9F8079981462D9809F042
:10502000B4F8011C484609F099F8391C81463498B7
:1050300009F0ABF8311C071C3B9809F0A6F8011CDD
:10504000381C09F08BF8011C484609F087F8291C28
:10505000061C189809F099F80699051C1F9809F084
:1050600094F8011C281C09F079F80599051C119881
:1050700009F08BF8011C281C09F070F8011C301C89
:1050800009F06CF81C239C460A9BE044A0611C3488
:10509000984500D04AE6FFAB84333C9E0793FFABB4
:1050A000CCAC14333C940A933D96089B1A68586D17
:1050B0000592079A996BD6698146186F06918046CA
:1050C000311C3598DD69176809F05FF8391C824694
:1050D0002E9809F05AF8011C504609F03FF8414655
:1050E0008246279809F051F820998346484609F0EE
:1050F0004CF8011C584609F031F8011C504609F0E3
:105100002DF819998246069809F03FF812998346BE
:10511000281C09F03AF8011C584609F01FF80B99B1
:105120008346059809F031F8011C584609F016F835
:10513000011C504609F012F8311C2060369809F025
:1051400024F8391C82462F9809F01FF8011C50469C
:1051500009F004F841468246289809F016F84946B5
:105160008346219809F011F8011C584608F0F6FF13
:10517000011C504608F0F2FF069982461A9809F081
:1051800004F8291C8346139808F0FFFF011C5846B9
:1051900008F0E4FF059983460C9808F0F6FF011C1F
:1051A000584608F0DBFF011C504608F0D7FF311CC1
:1051B0006060379808F0E9FF391C8246309808F0A3
:1051C000E4FF011C504608F0C9FF41468246299879
:1051D00008F0DBFF49468346229808F0D6FF011C01
:1051E000584608F0BBFF011C504608F0B7FF06996F
:1051F00082461B9808F0C9FF291C8346149808F0C2
:10520000C4FF011C584608F0A9FF059983460D9874
:1052100008F0BBFF011C584608F0A0FF011C5046D7
:1052200008F09CFF311CA060389808F0AEFF391CD4
:105230008246319808F0A9FF011C504608F08EFF05
:10524000414682462A9808F0A0FF494683462398A3
:1052500008F09BFF011C584608F080FF011C5046D7
:1052600008F07CFF069982461C9808F08EFF291CE6
:105270008346159808F089FF011C584608F06EFF18
:10528000059983460E9808F080FF011C584608F0E7
:1052900065FF011C504608F061FF311CE060399841
:1052A00008F073FF391C8246329808F06EFF011C2B
:1052B000504608F053FF414682462B9808F065FFA0
:1052C00049468346249808F060FF011C584608F0C0
:1052D00045FF011C504608F041FF069982461D9883
:1052E00008F053FF291C8346169808F04EFF011C56
:1052F000584608F033FF059983460F9808F045FF9C
:10530000011C584608F02AFF011C504608F026FFF1
:10531000311C20613A9808F038FF391C82463398D6
:1053200008F033FF011C504608F018FF4146824642
:105330002C9808F02AFF49468346259808F025FF57
:10534000011C584608F00AFF011C504608F006FFF1
:10535000069982461E9808F018FF291C8346179864
:1053600008F013FF011C584608F0F8FE0599834623
:10537000109808F00AFF011C584608F0EFFE011CC7
:10538000504608F0EBFE49466061269808F0FDFEA5
:10539000414681462D9808F0F8FE011C484608F069
:1053A000DDFE391C8046349808F0EFFE311C071CE6
:1053B0003B9808F0EAFE011C381C08F0CFFE011CE7
:1053C000404608F0CBFE291C061C189808F0DDFEAC
:1053D0000699051C1F9808F0D8FE011C281C08F02F
:1053E000BDFE0599051C119808F0CFFE011C281C74
:1053F00008F0B4FE011C301C08F0B0FE079A089BB0
:10540000043207920A9A0433A06108931C349A422A
:1054100000D04AE63AAA9446744B744A63441B6827
:1054200062441B6812680893704B3D9E63441B687E
:10543000FDACDB690A936D4B63441B689B6B0B935C
:105440006A4B63441B685B6D0C93684B63441B6839
:105450001B6F0D938C23D358644A0E93634B6244A5
:1054600063441B685B680F93604B63441B681B6A53
:1054700010935E4B63441B68DB6B11935B4B63447F
:105480001B689B6D1293594B63441B685B6F1268DA
:1054900013939023D358554A1493544B6244634456
:1054A0001B6812689B681593504B63441B685B6ACA
:1054B00016934E4B63441B681B6C17934B4B634412
:1054C0001B68DB6D1893494B63441B689B6F1993F2
:1054D0009423D358454A1A93444B624463441B684F
:1054E000DB681B93414B63441B689B6A1C933F4BD7
:1054F00063441B685B6C1D933C4B63441B681268E0
:105500001B6E1E93394B63441B68DB6F1F939823FC
:10551000D358364A2093354B624463441B68126863
:105520001B692193314B63441B68DB6A22932F4B29
:1055300063441B689B6C23932C4B63441B685B6E1A
:1055400024938023D358294A25939C2362441268CC
:10555000D358264A2693254B624463441B685B69F3
:105560002793224B63441B681B6B28931F4B1268C5
:1055700063441B68DB6C29931C4B63441B689B6E64
:105580002A938423D358194A2B93A0236244126888
:10559000D358164A2C93154B624463441B68126817
:1055A0009B692D93114B63441B685B6B2E930F4BD0
:1055B00063441B681B6D2F930C4B63441B68DB6EAD
:1055C00030938823D358094A3193A4236244126844
:1055D000D3583293064B63441B689846FDAB079340
:1055E000902343443393349604E0C046DC08000023
:1055F000D408000043461F685B684246994643460C
:1056000041469B68D2680E694D6948460A990593E0
:10561000069208F0BAFD0B998246059808F0B5FD90
:10562000011C504608F09AFD08998246381C08F083
:10563000ACFD011C504608F091FD0D998246301CCE
:1056400008F0A3FD0E998346281C08F09EFD011C5E
:10565000584608F083FD0C998346069808F095FD9E
:10566000011C584608F07AFD011C504608F076FDF2
:1056700010992060484608F088FD119982460598E7
:1056800008F083FD011C504608F068FD0F99824622
:10569000381C08F07AFD011C504608F05FFD139994
:1056A0008246301C08F071FD14998346281C08F0CE
:1056B0006CFD011C584608F051FD1299834606986E
:1056C00008F063FD011C584608F048FD011C5046D7
:1056D00008F044FD16996060484608F056FD179999
:1056E0008246059808F051FD011C504608F036FD31
:1056F00015998246381C08F048FD011C504608F0F8
:105700002DFD19998246301C08F03FFD1A998346F9
:10571000281C08F03AFD011C584608F01FFD189996
:105720008346069808F031FD011C584608F016FD26
:10573000011C504608F012FDA0601C99484608F074
:1057400024FD1D998246059808F01FFD011C504656
:1057500008F004FD1B998246381C08F016FD011C58
:10576000504608F0FBFC1F998246301C08F00DFDE6
:1057700020998346281C08F008FD011C584608F0B3
:10578000EDFC1E998346069808F0FFFC011C584664
:1057900008F0E4FC011C504608F0E0FC2299E060AF
:1057A000484608F0F2FC23998246059808F0EDFC83
:1057B000011C504608F0D2FC21998246381C08F0A2
:1057C000E4FC011C504608F0C9FC25998246301CB7
:1057D00008F0DBFC26998346281C08F0D6FC011C47
:1057E000584608F0BBFC24998346069808F0CDFC87
:1057F000011C584608F0B2FC011C504608F0AEFCF3
:1058000028992061484608F0C0FC299982460598ED
:1058100008F0BBFC011C504608F0A0FC279982460A
:10582000381C08F0B2FC011C504608F097FC2B997C
:105830008246301C08F0A9FC2C998346281C08F0ED
:10584000A4FC011C584608F089FC2A998346069856
:1058500008F09BFC011C584608F080FC011C5046D7
:1058600008F07CFC2E996061484608F08EFC2F9968
:105870008146059808F089FC011C484608F06EFC3A
:105880002D998146381C08F080FC011C484608F020
:1058900065FC3199071C301C08F077FC3299061C16
:1058A000281C08F072FC011C301C08F057FC3099D1
:1058B000051C069808F069FC011C281C08F04EFC29
:1058C000011C381C08F04AFC18239C46339BE0441A
:1058D000A0611C34434500D08CE6FFAB84330693B3
:1058E000FFAB14333C9C3393079B0D99DA691E6F11
:1058F00091469A6B301C90465A6D1F680592069A25
:1059000020CA069208F041FC0E998246281C08F035
:105910003CFC011C504608F021FC0C99824605987D
:1059200008F033FC011C504608F018FC0A99824626
:10593000484608F02AFC0B998346404608F025FCAF
:10594000011C584608F00AFC08998346381C08F0E8
:105950001CFC011C584608F001FC011C504608F0D4
:10596000FDFB011C206808F0F9FB109920604846F7
:1059700008F00BFC11998246404608F006FC011C19
:10598000504608F0EBFB0F998246381C08F0FDFBEF
:10599000011C504608F0E2FB13998246301C08F0C7
:1059A000F4FB14998346281C08F0EFFB011C5846B1
:1059B00008F0D4FB12998346059808F0E6FB011C19
:1059C000584608F0CBFB011C504608F0C7FB011CF1
:1059D000606808F0C3FB16996060484608F0D5FB84
:1059E00017998246404608F0D0FB011C504608F04B
:1059F000B5FB15998246381C08F0C7FB011C5046C0
:105A000008F0ACFB19998246301C08F0BEFB1A99CD
:105A10008346281C08F0B9FB011C584608F09EFB81
:105A200018998346059808F0B0FB011C584608F009
:105A300095FB011C504608F091FB011CA06808F082
:105A40008DFB1C99A060484608F09FFB1D9982467B
:105A5000404608F09AFB011C504608F07FFB1B995A
:105A60008246381C08F091FB011C504608F076FB7A
:105A70001F998246301C08F088FB20998346281C19
:105A800008F083FB011C584608F068FB1E9983460A
:105A9000059808F07AFB011C584608F05FFB011CD2
:105AA000504608F05BFB011CE06808F057FB2299A8
:105AB000E060484608F069FB23998246404608F0BA
:105AC00064FB011C504608F049FB21998246381CB2
:105AD00008F05BFB011C504608F040FB259982460C
