:020000041000EA
:1000000000B5324B212058609868022188439860DF
:10001000D860186158612E4B002199600221596106
:100020000121F02299502B49196001219960352056
:1000300000F044F80222904214D00621196600F024
:1000400034F8196E01211966002018661A6600F04E
:100050002CF8196E196E196E052000F02FF8012189
:100060000842F9D1002199601B49196000215960AB
:100070001A491B48016001219960EB211966A021F2
:10008000196600F012F800219960164914480160C1
:100090000121996001BC002800D000471248134993
:1000A000086003C880F30888084703B5996A0420EC
:1000B0000142FBD001200142F8D103BD02B5186610
:1000C0001866FFF7F2FF186E186E02BD00000240BE
:1000D000000000180000070000035F00212200005C
:1000E000F4000018222000A00001001008ED00E03C
:1000F00000000000000000000000000074B24E7A12
:1001000000200420F7010010C3010010C5010010F9
:10011000C1010010C1010010C1010010C101001097
:10012000C1010010C1010010C1010010C701001081
:10013000C1010010C1010010C9010010CB01001065
:10014000CD010010CD010010CD010010CD01001037
:10015000CD010010CD010010CD010010CD01001027
:10016000CD010010CD010010CD010010CD01001017
:10017000CD010010CD010010CD010010CD01001007
:10018000CD010010CD010010CD010010CD010010F7
:10019000CD010010CD010010CD010010CD010010E7
:1001A000CD010010CD010010CD010010CD010010D7
:1001B000CD010010CD010010CD010010CD010010C7
:1001C00000BE00BE00BE00BE00BE00BEEFF3058054
:1001D000103800BEF2EB8871E435051004360510C6
:1001E0003402001090A31AE700201F49086006C8D7
:1001F00081F3088810471D48006800282FD10DA4FE
:100200000ECC002902D000F012F8F9E71849194A7B
:10021000002000E001C19142FCD1174988471749ED
:1002200088471749884700BEFDE701C901C29A42C5
:10023000FBD3704704360510C0000020902C00202E
:10024000D46105100000042000000420D4610510D2
:10025000001004200010042000000000704709482E
:100260000CF008FF0047000008ED00E0000000D09F
:10027000902C0020A058032069B8001055030010EE
:100280009DB900105756000006005250ABB36053A2
:10029000B891041006005250861C0302C891041045
:1002A000060052505422A29DD491041005005250D1
:1002B000DE65F468D4610510F8B5C0460448054B06
:1002C00010B5834203D0044B002B00D0984710BDDB
:1002D000902C0020902C00200000000006480749C8
:1002E000091A8B10C90FC91810B5491003D0044B57
:1002F000002B00D0984710BD902C0020902C00209F
:100300000000000010B5074C2378002B09D1FFF73F
:10031000D5FF054B002B02D0044800E000BF0123AD
:10032000237010BDD830002000000000E88C0410BD
:10033000054B10B5002B03D00449054800E000BF71
:10034000FFF7CCFF10BDC04600000000DC300020ED
:10035000E88C041070B5192009F052FDD0238022DA
:100360001B0692045A620EF061FA00F047F806F09C
:1003700013FD07F09BFF06F0B5FF09F0CDF8002252
:100380000524144B1A7006F0B5F9134D013C2100F9
:1003900028000EF03FFAFA2080000AF041FB002C02
:1003A000F4D10A200EF096F8012200210B4809F042
:1003B000FFFF0B4810F0EAFB01220A4B0A4C1A70AF
:1003C0002378012BFCD108F02DF92378012BFAD0EA
:1003D000F6E7C04684580320E88C0410B857032081
:1003E00069880010835803208858032010B50248FC
:1003F00010F0F4FE10BDC04690380320092370B5FC
:1004000086B0059304330493023B0393013B0293AC
:10041000023B324D324C0193324B22003249334879
:1004200000932B0005F024FE142005F01DFEFA2099
:1004300080000AF0F5FA2E4E21003200280006F066
:100440002FF83378682B08D02A4C20000EF08EF855
:10045000FA2080000AF0E4FAF7E773783D2BF3D135
:1004600001222100280006F03FF8234E320021002F
:10047000280006F073F83378002BF7D10122210011
:10048000280005F0EFFE0121200005F0CDFE03213C
:10049000200005F05FFE0321280005F089FF1321ED
:1004A000200006F0C9F81221200006F003F900210F
:1004B000200006F0E1F80321200006F06BF802218D
:1004C000200006F083F85521200005F061FE182178
:1004D000280005F007FF06B070BDC0467C20032051
:1004E0006032002040420F009C2000209420002019
:1004F00048580320FC8C04109C580320F0B5C646D5
:10050000334C344D344E22002900300000B505F044
:10051000D9FF6378DB439B0720D023781B0702D4E5
:1005200080BCB846F0BD2D4C0622002120000DF005
:100530009FFE2100300005F095FF0023E05E05F0EE
:10054000FFFD274D28600223E05E05F0F9FD68609D
:100550000423E05E05F0F4FDA860E1E7214B0622EC
:100560009846180000210DF083FE1F4F062200213F
:1005700038000DF07DFE4146280005F055FF39009A
:10058000280005F033FF43460020185E05F0C4FD47
:100590004346164D28600220185E05F0BDFD434617
:1005A00068600420185E05F0B7FDA8600023F85EBF
:1005B00005F0BCFD0E4D28600223F85E05F0B6FD87
:1005C00068600423F85E05F0B1FDA860A5E7C046A9
:1005D000CC4D0320603200207C200320783E032095
:1005E00018430320683E0320703E03200C3D032087
:1005F000283D0320F0B55746DE464E464546E0B559
:100600008BB008919246190005900993DA170323DD
:100610008C46134063449B109B009846002B00DCE3
:1006200090E05246159B00249B000193149B9B1A5B
:10063000159A9B1A089A9B00029353681268190135
:1006400094460491069251469A00039252468D00B8
:100650000021013A92000792002289465900DE00EB
:10066000CB189B009B461300424665440092019ABA
:1006700094469C44039B1A199F195346002B1EDD78
:10068000069B059819196346804600989B004344D1
:1006900080460094086818600098081A845804314D
:1006A0005C6084599C60C059D86010338D42F1D190
:1006B00043460799009363468C4604339C440421C7
:1006C000029B5A4463448C461400049A3E00E14461
:1006D0009446009A5E4465444A45C8DC1A00009B73
:1006E0009846099B434526DD1499159C089B0D1BD4
:1006F000514609CB6D1A00291DDD41469E004B4332
:100700009B00C01853469C00059B47469C46099B8E
:10071000AB469846159B994600234A449100614494
:10072000C558CD5004339C42FAD1524401375A4443
:100730008019B845F0D10BB0F0BCBB46B246A94613
:10074000A046F0BD0022CCE7F0B54746CE4680B5C6
:100750001F00002B1DDD002A1BDD9300C0180B6855
:10076000002498464B689100D200494252428C4680
:1007700091469B00614645182900A2004244166834
:10078000D21840C18142FAD14A460134A81AA74280
:10079000F0D1C0BCB946B046F0BDC046F0B5DE46AB
:1007A00057464E4645460023E0B51360836887B040
:1007B0009A46059200230268052693460093013B62
:1007C000039002910493052355469B1B98465D4375
:1007D0005B46002B00D18DE14544AD005D442B68A4
:1007E0005C006B6864085F007F08391C381C0DF0E2
:1007F00008FC002800D0DFE0211C381C0DF0FCFBB9
:10080000002800D0DFE00027731C9A46022B53D942
:10081000AB685B005B08191C181C99460DF0F1FBD6
:10082000002800D046E14846211C0DF0E5FB0028D9
:1008300001D04C4602275346032B3DD0EB685B00AA
:100840005B08191C181C99460DF0DBFB002800D032
:1008500038E14846211C0DF0CFFB002801D04C4662
:1008600003275346042B27D02B695B005B08191C18
:10087000181C99460DF0C5FB002800D02AE1494616
:10088000201C0DF0ABFB002801D04C46042753463A
:10089000052B11D06D696D006D08291C281C0DF009
:1008A000B0FB002800D01DE1291C201C0DF096FB98
:1008B000002801D005272C1C029B009A47440021E8
:1008C0009F50201C0DF082FB002800D17EE0049B8D
:1008D000013300D1E3E006239B1B45460193039BB4
:1008E0009B689A465D4306239F1B53469B0099468F
:1008F000019B52461C005443009A7F199446A50060
:1009000065449C460023BF005F44B8461F00644412
:10091000A4005D445C444346286819680DF027FB39
:10092000011C20680DF009FB2060012E2DD94346E3
:10093000286859680DF01BFB011C60680DF0FDFA7A
:100940006060022E21D04346296898680DF00FFBA5
:10095000011CA0680DF0F1FAA060032E15D04346EB
:100960002968D8680DF003FB011CE0680DF0E5FA7A
:10097000E060052E09D14346296818690DF0F7FAA1
:10098000011C20690DF0D9FA206101374D444C4417
:10099000BE42C0D1009B013E04330093019B052B56
:1009A00000D010E71A00029B5A6107B0F0BCBB46AA
:1009B000B246A946A046F0BD211C201C0DF021FB2B
:1009C000002800D018E73C1C01271DE7474530D020
:1009D00059465C460098BB005B4409581D68039A61
:1009E00092682550196001009200594489189B189B
:1009F00008681C680C60186089189B1808681C68D7
:100A00000C60186089189B1808681C680C601860D6
:100A100089189B1808681C680C60186089189B1856
:100A200018680A6808601A60059A13680193013310
:100A300013604546039B5A469B685D439A460623CE
:100A40009B1B0193EC1843465B199B009F58A40025
:100A50005C442068391C0DF076FA2060012E00D825
:100A600041E76068391C0DF06EFA6060022E00D11B
:100A700039E7A068391C0DF066FAA060032E00D19A
:100A800031E7E068391C0DF05EFAE060042E00D119
:100A900029E72069391C0DF056FA206123E7062367
:100AA00045469B1B0193039B9B689A465D434346C7
:100AB000049318E7211C201C0DF0A3FA002800D194
:100AC000B7E6B0E6211C201C0DF09BFA002800D1EF
:100AD000C5E6BEE6211C201C0DF093FA002800D1CB
:100AE000D3E6CCE6211C201C0DF08BFA002800D1A7
:100AF000E0E6D9E61B68FFDEF0B55746DE464E4617
:100B00004546E0B599B01493249B8246259C2698CF
:100B10005D1C00D1229B651C00D1229C239DEE17F9
:100B200003253540239EB4466544AD10AF0007252C
:100B3000229E0E97AE4335000096149E002E00DCD8
:100B400088E29B001693230110930301D318179397
:100B50006B1EDB0801330391D9015B010F93A300E6
:100B60007C43201880001193131815930023D3465B
:100B7000139108930E9B002B00DCC2E10F9A039B9C
:100B8000944663441293179BD84601930023029323
:100B90000298434601000CCB089C5943A44661448B
:100BA000890051180991411C594361448900511829
:100BB0000A91811C59436144890051180B91C11C51
:100BC0004B4363449B00D318019E0C93009B34005D
:100BD000002B00DC45E2039B0025994600234C4690
:100BE000AA46AB46A946069504952F1C0595079580
:100BF0000D9325683168281C0DF0B9F959460DF0A0
:100C00009FF971688346281C0DF0B1F951460DF02B
:100C100097F9B1688246281C0DF0A9F907990DF0E3
:100C20008FF9F1680790281C0DF0A1F905990DF0D6
:100C300087F9059065683169281C0DF098F9391C11
:100C40000DF07EF97169071C281C0DF090F90499CC
:100C50000DF076F9B1690490281C0DF088F9069919
:100C60000DF06EF9F1690690281C0DF080F94946E7
:100C70000DF066F98146A568316A281C0DF077F9F8
:100C800059460DF05DF9716A8346281C0DF06FF925
:100C900051460DF055F9B16A8246281C0DF067F9EE
:100CA00007990DF04DF9F16A0790281C0DF05FF9D6
:100CB00005990DF045F90590E568316B281C0DF09C
:100CC00056F9391C0DF03CF9716B071C281C0DF00E
:100CD0004EF904990DF034F9B16B0490281C0DF015
:100CE00046F906990DF02CF9F16B0690281C0DF0D1
:100CF0003EF949460DF024F981462569316C281CDE
:100D00000DF035F959460DF01BF9716C8346281C1E
:100D10000DF02DF951460DF013F9B16C8246281CE7
:100D20000DF025F907990DF00BF9F16C0790281CCF
:100D30000DF01DF905990DF003F905906569316D08
:100D4000281C0DF014F9391C0DF0FAF8716D071C10
:100D5000281C0DF00CF904990DF0F2F8B16D049017
:100D6000281C0DF004F906990DF0EAF8F16D0690D3
:100D7000281C0DF0FCF849460DF0E2F88146A56903
:100D8000316E281C0DF0F3F859460DF0D9F8716E4C
:100D90008346281C0DF0EBF851460DF0D1F8B16EEA
:100DA0008246281C0DF0E3F807990DF0C9F8F16EA2
:100DB0000790281C0DF0DBF805990DF0C1F805909F
:100DC000E569316F281C0DF0D2F8391C0DF0B8F828
:100DD000716F071C281C0DF0CAF804990DF0B0F8CB
:100DE000B16F0490281C0DF0C2F806990DF0A8F818
:100DF000F16F0690281C0DF0BAF849460DF0A0F8E6
:100E00008146803620340D9B009A08330D939A4218
:100E100000DDEEE6139B019C9C46051C5946381CE0
:100E200064440DF08DF85146071C04980DF088F8C5
:100E30000799061C06980DF083F805998146281C31
:100E40000DF07EF8129B051C9A46229A009B9A424E
:100E500030DDAB460493534620CB2168281C9A46CC
:100E60000DF085F8011C381C0DF06AF86168071C4C
:100E7000281C0DF07CF8011C301C0DF061F8A168F5
:100E8000061C281C0DF073F8011C48460DF058F89C
:100E9000E1688146281C0DF06AF8011C58460DF0E7
:100EA0004FF88346049B229A0133103404939A42EC
:100EB000D1D1051C311C0A9E30680DF03EF8391C5A
:100EC000099F041C38680DF038F8291C0C9D386007
:100ED000346028680DF031F80B9E4946041C3068D8
:100EE0000DF02BF81099019A8C46029B62440192F6
:100EF0000E9A0433306002932C609A4200DD47E67C
:100F0000C3460F9A039B944663440E9A0293239B15
:100F10009246159D934200DC90E05B465C68534628
:100F20005C43089B2F009C465B461B6864449C46C0
:100F3000009BA4006444002B00DC99E00023039F85
:100F400099463B00A04600262F001C003968206807
:100F50000DF00DF8311C0CF0F3FF061C7968606889
:100F60000DF005F8311C0CF0EBFF061CB968A06809
:100F70000CF0FDFF311C0CF0E3FF061CF968E06883
:100F80000CF0F5FF311C0CF0DBFF061C3969206901
:100F90000CF0EDFF311C0CF0D3FF061C7969606981
:100FA0000CF0E5FF311C0CF0CBFF061CB969A06901
:100FB0000CF0DDFF311C0CF0C3FF061CF969E06981
:100FC0000CF0D5FF311C0CF0BBFF061C2037203481
:100FD00008239C46009BE1444B45B7DC44460F9BED
:100FE000EF18029B0193229A009B9A4217DD9946C3
:100FF0000023984643464246F958019B98580CF006
:10100000B6FF011C301C0CF09BFF061C01239C4604
:101010000333E1449C46229BE0444B45EAD12068DF
:10102000311C0CF08AFF01239C46119BE2449C4634
:10103000239B20606544534500D06EE71699039AC0
:101040008C46089B62440392149A013308939A4297
:1010500000D08FE519B0F0BCBB46B246A946A04609
:10106000F0BD0025039BA9469A462E1C2F1CECE6DA
:10107000039B00260193B6E7F0B557464E46DE4681
:1010800045468024E0B5B5B006AF3C1920609420F9
:101090007B63E823AE4E38180160BA63FB181C6806
:1010A0003378BFF35B8FDB0700D477E2A94D902242
:1010B0002369BA1813608422A368BA1813608022C7
:1010C000BA1812686D68934202DD8423FB181A6017
:1010D00094218423902279180E688C21FB18BA1869
:1010E00012681B6856435343226879180A60002A25
:1010F00000D180E29B003B660023BB6763687B678F
:10110000002B00D163E2B300FB6500233B6798220C
:101110000423BA1813609033FB181B68002B19DDE9
:101120008023E422FB18BA181B6812681900934246
:1011300000DA4AE2280009010BF0F6FF0323C21788
:10114000134098221B189B109B00BA181360042BA5
:1011500000DA35E28023FB181968002900DCA9E1D8
:1011600090207B6B38181A000068796484464243EB
:10117000091A3A616244B9647A609821E4227918C4
:10118000BA18126809684A43BA619A007A6104324F
:10119000FA61A02201339B00BA181360E423FB1804
:1011A0001B689B009B460023FB63FB643B64BB66A0
:1011B0009C227B6CBA1813609022BA181268934272
:1011C00002DD9C23FB181A609423FB181B68002B7C
:1011D00000DC47E19C23FB181A68002A00DC41E18F
:1011E0009423E021FB181B687918BB6598230968D4
:1011F000FB188C461B68B86E53439B00BB607B6F2B
:101200001100FB6783006344FB6000238C46FB6690
:10121000FB620B00B021791839630321013B043ACA
:101220008B436044D31A38603B629822BA18BB6D76
:1012300012689A46934200DD9246FA68FB6E944625
:101240009B0063447B66FB6B88227B65FB6CBA1852
:101250003B659C23FB181B6813609C23FB181A68D2
:101260008823FB181B68D21ABA62A422BA1813602A
:10127000042B03DDA4220423BA1813608823FB186F
:101280003A681B68D21A7A62002B65DDA423BA6B18
:10129000FB189146A8221B68BA18013B98467B6D43
:1012A0009B0099447B6E1360AC220023BA18136034
:1012B000AC23AC22FB181B68BA18013313604346F9
:1012C000002B2CDDA8230025FB181C684B46266844
:1012D0005968301C0CF04BFE011C60680CF02DFEB0
:1012E00043466060012B16D04B46301C99680CF0C9
:1012F0003EFE011CA0680CF020FE4346A060022BBD
:1013000009D04B46301CD9680CF031FE011CE06856
:101310000CF013FEE06001355C445545D6D1012345
:101320005B429C46A133FB181B68E0449C46A82303
:10133000A822FB181B68BA1804331360AC23A4223C
:10134000FB18BA181B681268E1449342B0DB03E053
:10135000E0220320A43803208823A422FB18BA1813
:101360001B681268396B9D1A7B6EBE6A0B60E423A2
:10137000FB181B6891464B609C230196FB181B6869
:1013800088460093F86F5346FFF734F9002D37DD98
:1013900041467C6A386D4C440319B86B4A46844612
:1013A000786B9B004860A420381802608C203818A5
:1013B000006863440B602B0081463963FFF7C4F972
:1013C000E022FB6EBA181B1914689B00A0463C6B08
:1013D00043442360E423FB1819689C236160FB18D5
:1013E00004961B6849460393A423FB181A685346C6
:1013F0000292019300922B002000FA6FFFF77CFB12
:10140000882388227969FB188C461B68BA18043B2C
:10141000F96913603A6D62448C463A657A6E10320F
:101420007A667A6D62447A653A6A9A4200D014E725
:101430009822BA181268B96D9446FB6A8A1AB9697B
:1014400063448C46BA65B968FA6EFB6262448C46A6
:10145000FA66FA6F6244FA679422BA1812689A42DE
:1014600000DDE2E69022BA181268BB6E9446802234
:10147000BA1812686344BB6693421BDA8423FB18D4
:101480001B68002B38DC90233969FB188C467A6C7A
:101490001B68D21A7A643A6C62443A64BA6CD31A02
:1014A000BB647A68FB6C63449446FB64FB6B6344E7
:1014B000FB637DE68023FA6D9B029A4207D93A6F5F
:1014C000002A04D0531E1878101A0CF0B9FE80239D
:1014D0003A6E9B029A4207D9BA6F002A04D0531E73
:1014E0001878101A0CF0ACFEBD462FB0F0BCBB460D
:1014F000B246A946A046F0BDBA6B3B6C92469B0033
:101500009A44B023FE18B13B9946BD6CBC6E84234F
:10151000FB181B68A8469D4200DD9846AC22A3003C
:10152000BA1813607A6B8C2072609C225344BA18EC
:10153000381831001268006833604346FFF704F939
:10154000E022AC23BA181268FB1894461B688C2161
:1015500063443360E423FB181B687918736000232D
:1015600004934B46039302939423FB181B683000AB
:1015700001939C23FB181B6800937A6F434609680C
:10158000FFF7BAFA8423FB181B689C46ED1A8023E8
:10159000FB181B686444A342B9DC74E730000FF009
:1015A0001BFB364D002800D181E58023DB012B6039
:1015B00080231B0330006B60AB600FF029FB76E5E6
:1015C00098220423BA181360C4E51100B2E5802301
:1015D000B200FA659B029A423AD813006A46163363
:1015E000DB08DB00D31A9D4627200F23684498436D
:1015F000386778678BE59A0080233A669B029A42A7
:101600000FD813006A461633DB08DB00D31A9D4659
:1016100027200F23684498437D33FB18B867186070
:101620006CE5100010300CF0EDFDB867002800D11B
:1016300064E50F221023844602409B1ADBB29C44CF
:1016400061464A1E13708C23FB18B967196055E573
:10165000100010300CF0D6FD3867002800D156E598
:101660000F221023844602409B1ADBB29C44614641
:101670004A1E39671370796749E5C046A4380320CC
:10168000F0B557464E46DE464546E0B5B7B006AF24
:10169000824684207B65F023CB4E38180160BA6304
:1016A000FB181C683378BFF35B8FDB0700D49DE227
:1016B000C64D23696D683B67A368BB67534501DD71
:1016C0005346BB67842179180E6880213A6FBB6F3F
:1016D00056435343226879180A60002A00D1B4E2C5
:1016E0009B003B650023FB666368BB66002B00D153
:1016F00097E2B300FB6400237B6688220423BA18B8
:1017000013608033FB181B68002B16DDEC23FB18DD
:101710001B6851469A4500DA7FE2280009010BF068
:1017200003FD0323C217134088221B189B109B0044
:10173000BA181360042B00DA6AE25346002B00DC6F
:1017400032E27A6D386F1100434259430B00B9629F
:1017500051460C1A110062431B1A9B00BA647B604D
:101760000A000B0051464B43B96B53448C46E821A9
:101770009B006344FB637918830009685B423B600C
:1017800053468C469B006344EC21BB658823791843
:10179000FB1809681B687C674B4390213B619300F1
:1017A0005B4279180B60043BBB609B00FB60D3433A
:1017B00094229B00BA181360EC23A822FB181B6824
:1017C000BA189B001360544603008C22BA181360A9
:1017D000A34200DD14608423FB181B68002B00DC8F
:1017E00076E18C23FB181A68002A00DC70E1842360
:1017F000FB181B68B96D7B648823FB181B68534377
:101800009B00FB61BB6EFB659300CB1A3B62002320
:10181000B8213B667B63A31A7918FB621300396316
:101820000321013B043A8B43D31A7B61AC227B6CCE
:10183000BA1813608822BA181268934202DDAC23EA
:10184000FB181A603A6A3B6E94469B009C446246C1
:101850007A62BA6D944698226344BA181360FB6B9F
:101860003B648C23FB181B68FB679C22FB6FBA1838
:101870001360042B03DD9C220423BA181360FA6F53
:10188000FB6A94466344BB61002A00DCA0E09C2311
:10189000396CA0208A46FB181B6838185A1E9346DC
:1018A000BA685B42524402607A6D9B1A9B009A446C
:1018B0000423A4225B4299460023BA181360A02394
:1018C000FE20FB181B68800519680CF03CFBB42354
:1018D000FB181860A423FB181B685A46DB439B1AAD
:1018E0009822BA18126800269446B0229C009B00E9
:1018F0005B42BA1864441360B023FB181B684A4665
:101900009846A04443469958B423FB1818680CF035
:101910002EFB43464A4698505B46051C002B22DDB1
:10192000534619680CF023FB011C20680CF005FBE2
:101930005B462060012B16D05346281C59680CF0DA
:1019400016FB011C60680CF0F8FA5B466060022B25
:1019500009D05346281C99680CF009FB011CA068AB
:101960000CF0EBFAA060A823FB181B6801369C461C
:10197000AC23FB181B6864449E42BDD1A423A4225F
:10198000FB181B68BA1801331360012294215242DC
:10199000944679180968E3448C46A021A132BA180C
:1019A0001268791862440A600422524294469432C2
:1019B000BA181268E14494469C22BA181268E244AC
:1019C000934200DA7BE703E0E0220320A4380320FF
:1019D000E8219C2279180968BA188C46FB6F1268B6
:1019E000396B9C1ABB699D1A3B6E5B199B00634463
:1019F0000B60EC23FB181B684B608C230194FB18D5
:101A00001B680093AC23FB181B68F86DFEF7F2FD12
:101A1000002C30DD7A6DF96A13008C466B433D6B08
:101A2000B96B80206A609C2263448C463818066833
:101A30009B00BA181268634429002B603000230011
:101A40009046FEF781FEEC2228008C237D6ABA18AE
:101A500005601568FB18456004941D68AC22434678
:101A600003950293BA181268009301922300310083
:101A7000FA6DFFF741F898229821BA181268791880
:101A8000103A0A60F9683A6C8C46FB6F62443A641B
:101A90007A69043BFB679A4200D0E6E68822BA18CE
:101AA0001268796C94467B6B8A1AF96963448C4698
:101AB0007A643969FA6D7B6362448C46FA653A6EE2
:101AC00062443A668422BA1812689A4200DDADE692
:101AD0007B6F1C1E68DDBB6F002B00DCFEE7BA6B62
:101AE000BB6C93469B009B4400239946B833FE1879
:101AF000B93B9A4623004C4699467D6FBB6FA8467A
:101B00009D4200DD9846B422A300BA1813607A6D96
:101B1000802072608C225B44BA1838183100126839
:101B2000006833604346FEF70FFEE822B423BA187C
:101B30001268FB1894461B68802163443360EC23D1
:101B4000FB181B68791873600023049353460393B2
:101B500002938423FB181B68300001938C23FB182D
:101B60001B680093BA6E43460968FEF7C5FFBB6F5A
:101B70009C46ED1A7B6F6444A342BFDCBA6ABB6C1F
:101B800094467A6863449446BB643A68FB6B4C465F
:101B900063449446FB63BB6D3A6F6344BB657B6FE4
:101BA0009B1A7B67130010E68023FA6C9B029A4213
:101BB00007D97A6E002A04D0531E1878101A0CF038
:101BC0003FFB80233A6D9B029A4207D9FA6E002AA6
:101BD00004D0531E1878101A0CF032FBBD4631B0F9
:101BE000F0BCBB46B246A946A046F0BD30000EF0A0
:101BF000F3FF374D002800D15BE58023DB012B602C
:101C000080231B0330006B60AB600FF001F850E5E0
:101C100088220423BA1813608FE5EC23FB18196897
:101C20007BE58023B200FA649B029A423AD8130003
:101C30006A461633DB08DB00D31A9D4627200F23A4
:101C4000684498437866B86657E59A0080233A65F9
:101C50009B029A420FD813006A461633DB08DB005A
:101C6000D31A9D4627200F23684498437133FB18ED
:101C7000F866186038E5100010300CF0C3FAF8660A
:101C8000002800D130E50F221023844602409B1A21
:101C9000DBB29C4461464A1E13708023FB18F96630
:101CA000196021E5100010300CF0ACFA78660028BD
:101CB00000D122E50F221023844602409B1ADBB29A
:101CC0009C4461464A1E79661370B96615E5C046A4
:101CD000A438032030B587B00D4B02AD00951A68CB
:101CE000694602929A880400AA809B796A46AB7181
:101CF000072301930023D3732BF000FF0098A84221
:101D000003D0029901310CF0CFFA200007B030BDAA
:101D1000108D0410F0B5DE4657464E464546E0B5F8
:101D20000E000168C7688946416805698A4681686E
:101D30008DB08B464169806907930690506813689F
:101D4000926805910A90291C30680B9209930895B6
:101D50000CF0F3F80599039070680CF0EEF8069912
:101D6000051CB0680CF0E9F8802680463606079816
:101D70000CF080F9B446039B009001916344180075
:101D800051460CF0F4F85946061C281C0CF0EFF8EC
:101D9000011C301C0CF0D1F8391C061C404604977D
:101DA0000CF0E5F8011C301C0CF0C7F80CF062F9DF
:101DB0000022684B0BF023FC009A019B0BF01FFCE8
:101DC000060048460F000CF055F902000B003000E9
:101DD0003900169C0BF0ECFB0BF00AFD4946206025
:101DE00003980CF0C4F85946061C40460CF0BFF8A6
:101DF000011C301C0CF0A4F80499061C281C0CF0E3
:101E0000B6F8011C301C0CF098F80CF033F90022E5
:101E1000504B0BF0F4FB009A019B0BF0F0FB06001B
:101E200050460F000CF026F902000B00300039007C
:101E30000BF0BEFB0BF0DCFC49466060281C0CF08C
:101E400096F85146061C40460CF091F8011C301CD7
:101E50000CF073F80499061C03980CF088F8011C28
:101E6000301C0CF06DF80CF005F90022394B0BF02A
:101E7000C6FB009A019B0BF0C2FB060058460F0000
:101E80000CF0F8F802000B00300039000BF090FB6A
:101E90000BF0AEFC4946A06040460CF068F8514695
:101EA000061C281C0CF063F8011C301C0CF048F8D0
:101EB0005946051C03980CF05AF8011C281C0CF01C
:101EC0003CF80CF0D7F80022224B0BF098FB009A5C
:101ED000019B0BF094FB060004980F000CF0CAF86D
:101EE00002000B00300039000BF062FB0BF080FCAD
:101EF000089B0999E060181C98460CF038F8079D7B
:101F0000291C0CF034F8011C40460CF016F8059F13
:101F10000A992061381C0CF02AF8291C0CF027F8CB
:101F2000011C381C0CF009F8069E0B996061301CEE
:101F30000CF01DF8291C0CF01AF8011C301C0BF0D9
:101F4000FCFFA06100200DB0F0BCBB46B246A94624
:101F5000A046F0BD0000E03FF0B5DE4657464E46D5
:101F600045468A464168E0B58846C768816891B0B1
:101F7000066889464046391C141C04930BF0F7FF91
:101F80004946051C301C0BF0F2FF0A90011C281C6E
:101F900009950BF0D2FF0CF06DF802000B000BF06E
:101FA00007FB06900791201C02940CF063F80B00CD
:101FB000020004000D00069807990BF020FB0BF0BF
:101FC00017FC5246391C106048460BF0D0FF834680
:101FD0004146301C0BF0CBFF5A460E90011C584670
:101FE0000B920BF0ADFF0CF045F802000B000BF06C
:101FF000DFFA02000B00200029000C920D930BF079
:10200000FEFA0BF0F5FB5446311C6060301C0BF0FF
:10201000AEFF4146041C40460BF0A9FF051C011C05
:10202000201C0BF08AFF4946089048460BF09FFFA2
:10203000391C8346381C0BF09AFF594601900898CA
:102040000BF07BFF01990BF07BFF02990F900BF0D7
:102050008EFF53464946986040460BF088FF391C76
:102060008046301C0BF083FF81461A980CF002F872
:1020700006001B980F000BF0FDFF02900391291C36
:10208000201C0BF05DFF59460BF057FF01990BF038
:1020900054FF04990BF06BFF0BF0ECFF04000D00F4
:1020A000404649460BF04CFF0BF0E4FF02000B00EA
:1020B0000BF07EFA32003B000BF0A1FA02000B009D
:1020C000200029000BF074FA029A039B04000D0013
:1020D000069807990BF093FA02000B0020002900E4
:1020E0000BF066FA0BF084FB5346D86004980BF0B3
:1020F000C1FF04000D00404649460BF01EFF0BF0E7
:10210000B9FF02000B000BF053FA22002B000494DD
:1021100005950BF074FA04000D00089859460BF071
:102120000FFF01990BF009FF1A990BF020FF0BF03C
:10213000A1FF02000B00200029000BF039FA029ADF
:10214000039B04000D000C980D990BF058FA020047
:102150000B00200029000BF02BFA0BF049FB534633
:102160000A99186109980BF0EBFE0BF083FF02004F
:102170000B000BF01DFA049A059B0BF040FA0400CB
:102180000D000B980E990BF0D8FE0BF073FF0200B8
:102190000B000BF00DFA32003B000BF030FA02009E
:1021A0000B00200029000BF003FA04000D000F982B
:1021B0001B990BF0DCFE0BF05DFF02000B00200012
:1021C00029000BF0F5F90BF013FB53465861002082
:1021D00011B0F0BCBB46B246A946A046F0BDC04611
:1021E000F0B50400DE4657464E4645460800E0B5C9
:1021F00045680968AA46856895B0AB46C5684669D2
:10220000876910910E950169556810689268049667
:1022100090461A68069711925A689B681292139317
:10222000FE239B05236099460BF087FE0BF022FFEF
:10223000009001911E980BF01DFF06000F00009802
:1022400001990022924B0BF0DAF932003B000BF0BF
:10225000D6F90BF0CDFA04990390E061281C0BF03D
:102260006CFE0BF007FF0022894B049005910BF0E8
:10227000C6F932003B000BF0C2F90BF0B9FA06992F
:10228000051CA06340460BF058FE0BF0F3FE002245
:102290007F4B069007910BF0B2F932003B000BF038
:1022A000AEF90BF0A5FA0A90606550460BF0E2FE1D
:1022B0000022784B089009910BF0A1F932003B0005
:1022C0000BF09DF90BF094FA0B90206758460BF039
:1022D000D1FE00226F4B0C900D910BF090F9320063
:1022E0003B000BF08CF90BF083FA8C238246E05014
:1022F0000E980BF0BFFE0022664B0E900F910BF074
:102300007EF932003B000BF07AF90BF071FAA8234A
:102310008346E0500022009801995E4B0BF06FF964
:1023200032003B000BF06BF90BF062FA494600906B
:1023300060602162002206980799564B0BF05FF906
:1023400032003B000BF05BF90BF052FAA5658046BA
:10235000E06310980BF08EFE00224D4B0BF04FF90E
:1023600032003B000BF04BF90BF042FA5946902338
:10237000051C60670022E1500C980D99444B0BF04E
:102380003EF932003B000BF03AF90BF031FAAC2386
:102390000022E050049805993E4B0BF030F93200D2
:1023A0003B000BF02CF90BF023FA49460A9A8346BE
:1023B0006262009AA0602164E2650E980F99002283
:1023C000334B0BF01CF932003B000BF018F90BF00B
:1023D0000FFA94230B99A067E5501C33E150414656
:1023E000E1605946A162494621665146039BE16777
:1023F0006364089809990022254B0BF000F932001C
:102400003B000BF0FCF80BF0F3F99823E0501C3381
:10241000E55000251E9911982561E562A564656661
:102420000BF0A5FD011C48460BF087FD8023E05012
:102430001C33E5501C33E550343B1E9912986561FE
:102440002563E564A566E5500BF091FD011C484647
:102450000BF073FDA023E0501C33E550343BA56125
:1024600065632565E566E5501C33E5501E991398B4
:102470000BF07DFD011C48460BF05FFDC023E050D2
:10248000002015B0F0BCBB46B246A946A046F0BD40
:102490000000E0BF0000E03FF0B5DE4657464E4684
:1024A0004546E0B59A460B68141C8A689B464B6803
:1024B000C9688BB00500101C8846009301920BF090
:1024C000D9FD02900391201C0BF0D4FDC02306001F
:1024D0000F000298039900221B060BF090F83200BF
:1024E0003B000BF08CF80BF083F908902860404615
:1024F0000BF0C0FD02000B000BF05AF832003B005D
:102500000BF07DF80BF074F9041CA86158460BF031
:10251000B1FDC02300221B06049005910BF06FF85B
:1025200032003B000BF06BF80BF062F92863009867
:102530000BF0A0FD02000B00069007910BF038F89D
:1025400032003B000BF05BF80BF052F900219023B6
:102550008946A8642966A967E950686004980599C6
:1025600002000B000BF024F832003B000BF047F8A0
:102570000BF03EF96C630490E86102980399020045
:102580000B000BF015F832003B000BF038F80BF0A5
:102590002FF949469423E8646966E967E950C02346
:1025A00006980799049A1B06AA6000220BF027F8E8
:1025B00032003B000BF023F80BF01AF9089B494658
:1025C000AB63802328622C65A966E9501833E95073
:1025D000404614990BF0CBFC019F1599061C381C42
:1025E0000BF0C5FC5146041C58460BF0C0FC311CD6
:1025F0000BF0A6FC211C06940BF09FFC011C0BF0B9
:102600009FFC51460990E86000980BF0B0FC1499CB
:10261000041C381C0BF0ABFC011C201C0BF090FCC4
:102620001599041C40460BF0A2FC011C201C0BF069
:1026300087FC011C0BF084FC1499029068620098DE
:102640000BF095FC1599089058460BF090FC019AF8
:102650008024944624066444071C514620000BF055
:1026600086FC08990BF06CFC391C0BF066FC011C15
:102670000BF066FC1499E86358460BF078FC15994A
:10268000049000980BF073FC802212064244041C54
:10269000514610000BF06BFC04990BF051FC211C0F
:1026A0000BF04EFC011C0BF04BFC4A468423EA66FF
:1026B0006865EA501833EA505146286101980BF0DA
:1026C00056FC08990BF039FC391C0BF039FC011C45
:1026D0000BF036FC071CA8628020029B00062B64CE
:1026E000514658440BF043FC311C0BF026FC069974
:1026F0000BF026FC011C0BF023FC8823A865484640
:102700002867E8501833E850514640466F610BF097
:102710002EFC04990BF011FC211C0BF00EFC011C8B
:102720000BF00EFC099AE8626A64029B4A46EB656C
:102730004B466B678C230020EA501833EA500BB0ED
:10274000F0BCBB46B246A946A046F0BD0123F0B599
:10275000E3214746CE469C46294B804605009946D4
:10276000284E80B58900076846444144FA0F6F68D7
:10277000D2077B005B08346813435A086240644602
:102780001C4201D04B465A4004C50436A942EDD143
:10279000E32342469B00C626D458194B01259C468C
:1027A000F6004644E20F4C68D20763005B080768F6
:1027B00013435A087A401D4201D063465A40043000
:1027C00004C1B042EED14246C62140460E4BC9007C
:1027D000D3581268DB0F52005208DB0741581343ED
:1027E0005A084A40DB0701D5054B5A404146064B83
:1027F000CA5000220433CA50C0BCB946B046F0BD2E
:10280000DFB0089934060000BC090000F0B5454669
:10281000DE4657464E46E0B53C4CD723A54434AA85
:10282000944663441B091B018A6805930B68019257
:1028300037921A6804902D929A6933912E921A6BEE
:1028400038AC2F929A6C30921A6E06929A6F089258
:1028500090229A5807925A680A92DA690B925A6B38
:102860000C92DA6C0D925A6E0E92DA6F0F929422DD
:102870009A5810929A6811921A6A12929A6B13924D
:102880001A6D14929A6E159280229A581692982276
:102890009A581792DA6818925A6A1992DA6B1A9251
:1028A0005A6D1B92DA6E1C9284229A581D929C22B9
:1028B0009A581E921A691F929A6A20921A6C219253
:1028C0009A6D22921A6F239288229A582492A022FB
:1028D0009A5825925A692692DA6A27925A6C289257
:1028E000DA6D29925A6F2A928C229A582B92A4223E
:1028F0009B582C934B68984638AB3293C42343447F
:1029000009934346A0461C0002E0C0469CFDFFFF21
:10291000E168A26889462169236848460391309995
:10292000029201930BF023FB0399824606980BF069
:102930001EFB011C50460BF003FB67698246391CE5
:1029400008980BF014FBA6698346311C07980BF01E
:102950000EFB011C58460BF0F3FA011C50460BF01D
:10296000EFFA656882462E99281C0BF000FB2F9920
:10297000834602980BF0FBFA011C58460BF0E0FA74
:102980002D99834601980BF0F2FA011C58460BF082
:10299000D7FA011C50460BF0D3FA4346494618605B
:1029A0000D980BF0E4FA039982460E980BF0DFFACB
:1029B000011C50460BF0C4FA391C82460F980BF0EC
:1029C000D6FA311C834610980BF0D1FA011C5846F8
:1029D0000BF0B6FA011C50460BF0B2FA291C8246E5
:1029E0000B980BF0C4FA029983460C980BF0BFFACF
:1029F000011C58460BF0A4FA019983460A980BF083
:102A0000B6FA011C58460BF09BFA011C50460BF01D
:102A100097FA43464946586014980BF0A8FA039970
:102A2000824615980BF0A3FA011C50460BF088FA69
:102A3000391C824616980BF09AFA311C8346179877
:102A40000BF095FA011C58460BF07AFA011C50461F
:102A50000BF076FA291C824612980BF088FA02993C
:102A6000834613980BF083FA011C58460BF068FA62
:102A70000199834611980BF07AFA011C58460BF025
:102A80005FFA011C50460BF05BFA434649469860DA
:102A90001B980BF06CFA039982461C980BF067FAAE
:102AA000011C50460BF04CFA391C82461D980BF065
:102AB0005EFA311C83461E980BF059FA011C5846E9
:102AC0000BF03EFA011C50460BF03AFA291C8246E4
:102AD00019980BF04CFA029983461A980BF047FAB2
:102AE000011C58460BF02CFA0199834618980BF0FC
:102AF0003EFA011C58460BF023FA011C50460BF01D
:102B00001FFA43464946D86022980BF030FA0399E1
:102B1000824623980BF02BFA011C50460BF010FA5A
:102B2000391C824624980BF022FA311C83462598E2
:102B30000BF01DFA011C58460BF002FA011C50461E
:102B40000BF0FEF9291C824620980BF010FA02992E
:102B5000834621980BF00BFA011C58460BF0F0F954
:102B6000019983461F980BF002FA011C58460BF09E
:102B7000E7F9011C50460BF0E3F94346494618615A
:102B800029980BF0F4F9039981462A980BF0EFF994
:102B9000011C48460BF0D4F9391C81462B980BF0E8
:102BA000E6F9311C071C2C980BF0E1F9011C381CCC
:102BB0000BF0C6F9011C48460BF0C2F9291C061C93
:102BC00027980BF0D4F90299051C28980BF0CFF93F
:102BD000011C281C0BF0B4F90199051C26980BF078
:102BE000C6F9011C281C0BF0ABF9011C301C0BF0C2
:102BF000A7F94346586118239C46099B1C34E044BE
:102C0000A34200D084E6379B1A68629308929A69BF
:102C100009921A6B0A929A6C0B921A6E0C929A6F26
:102C20000D9290229A580E925A680F92DA69109279
:102C30005A6B1192DA6C12925A6E1392DA6F1492E6
:102C400094229A5815929A6816921A6A17929A6B59
:102C500018921A6D19929A6E1A9280229A581B92A3
:102C600098229A581C92DA681D925A6A1E92DA6B60
:102C70001F925A6D2092DA6E219284229A582292E3
:102C80009C229A5823921A6924929A6A25921A6C65
:102C900026929A6D059C27921A6F203428928822DA
:102CA0009A58A1462992A0229A582A925A692B92A0
:102CB000DA6A2C925A6C2D92DA6D2E925A6F2F92FC
:102CC0008C229A583092A4229B5831935CAB069385
:102CD0003EAB0793329B98464346424641464046A8
:102CE0001B6895690193069B146B096E926C40CB2F
:102CF000876F0291101C0B99039206930BF037F922
:102D00000C99824602980BF032F9011C50460BF0E8
:102D100017F90D998246381C0BF029F90E99834654
:102D2000301C0BF024F9011C58460BF009F9011C6A
:102D300050460BF005F909998246281C0BF017F94B
:102D40000A998346201C0BF012F9011C58460BF01F
:102D5000F7F80899834601980BF009F9011C5846C9
:102D60000BF0EEF8011C50460BF0EAF84B461299B6
:102D7000186003980BF0FBF81399824602980BF049
:102D8000F6F8011C50460BF0DBF814998246381C0B
:102D90000BF0EDF815998346301C0BF0E8F8011C98
:102DA00058460BF0CDF8011C50460BF0C9F81099AD
:102DB0008246281C0BF0DBF811998346201C0BF08F
:102DC000D6F8011C58460BF0BBF80F9983460198C2
:102DD0000BF0CDF8011C58460BF0B2F8011C504620
:102DE0000BF0AEF84B461999586003980BF0BFF8FA
:102DF0001A99824602980BF0BAF8011C50460BF063
:102E00009FF81B998246381C0BF0B1F81C99834639
:102E1000301C0BF0ACF8011C58460BF091F8011C6B
:102E200050460BF08DF817998246281C0BF09FF83E
:102E300018998346201C0BF09AF8011C58460BF099
:102E40007FF81699834601980BF091F8011C5846BB
:102E50000BF076F8011C50460BF072F84B462099A7
:102E6000986003980BF083F82199824602980BF042
:102E70007EF8011C50460BF063F822998246381CFC
:102E80000BF075F823998346301C0BF070F8011C89
:102E900058460BF055F8011C50460BF051F81E999E
:102EA0008246281C0BF063F81F998346201C0BF008
:102EB0005EF8011C58460BF043F81D9983460198B3
:102EC0000BF055F8011C58460BF03AF8011C50461F
:102ED0000BF036F84B462799D86003980BF047F86B
:102EE0002899824602980BF042F8011C50460BF0DC
:102EF00027F829998246381C0BF039F82A9983461D
:102F0000301C0BF034F8011C58460BF019F8011C6A
:102F100050460BF015F825998246281C0BF027F82F
:102F200026998346201C0BF022F8011C58460BF012
:102F300007F82499834601980BF019F8011C5846AC
:102F40000AF0FEFF011C50460AF0FAFF4B462E998C
:102F5000186103980BF00BF82F99824602980BF03A
:102F600006F8011C50460AF0EBFF30998246381CE7
:102F70000AF0FDFF3199071C301C0AF0F8FF011C14
:102F8000381C0AF0DDFF011C50460AF0D9FF2C99CD
:102F9000061C281C0AF0EBFF2D99051C201C0AF0CA
:102FA000E6FF011C281C0AF0CBFF2B99041C01989A
:102FB0000AF0DDFF011C201C0AF0C2FF011C301CBE
:102FC0000AF0BEFF4B46586104239C461433E0448C
:102FD0009C46079BE144434500D07DE6339B059D1D
:102FE000DC68296A20680AF0ABFF049EA96B306098
:102FF00060680AF0A5FF7060A068296D0AF0A0FF64
:10300000B060E068A96E0AF09BFF8023F060206941
:10301000E95898460AF094FF98233061E9586069AE
:103020000AF08EFF7061A069696A0AF089FFB061D9
:10303000E069E96B0AF084FFF061206A696D0AF0CB
:103040007FFF3062E96E606A0AF07AFF842770625F
:10305000A06AE9590AF074FF9C23B062E958E06A5B
:103060000AF06EFFF062206BA96A0AF069FF306314
:10307000606B296C0AF064FF7063A06BA96D0AF0A5
:103080005FFFB063E06B296F0AF05AFFF063882698
:10309000206CA9590AF054FF049B1864A023606CAB
:1030A000E9580AF04DFF049BE96A5864A06C0AF0E5
:1030B00047FF049B696C9864E06C0AF041FF049B35
:1030C000E96DD864206D0AF03BFF049B696F1865B9
:1030D000606D0AF035FF8C25049A059B5065A06D44
:1030E00059590AF02DFFA423049A9065059AE06DC2
:1030F000D1580AF025FF049B059AD865116B206E04
:103100000AF01EFF049B059A1866916C606E0AF027
:1031100017FF049B059A5866A06E116E0AF010FF07
:10312000049B059A9866E06E916F0AF009FF049B74
:10313000059AD8669023206FD1580AF001FF049BAE
:10314000059A1867A823606FD1580AF0F9FE049B0E
:10315000059A5867A16F506B0AF0F2FE049B059A1E
:103160009867E16FD06C0AF0EBFE4146049B059A2C
:10317000D8676158506E0AF0E3FE4146049B059AF9
:103180005850E159D06F0AF0DBFE049BD8519423CC
:10319000059FA159F8580AF0D3FE049B9851AC231F
:1031A0006159F8580AF0CCFE049B585199239B00B2
:1031B0009D44F0BCBB46B246A946A046F0BDC04601
:1031C000F0B5DE4657464E4645460400E0B5436836
:1031D00087B05800A3684008590049080AF0B0FEBB
:1031E0002368590049080AF0ABFE2369051C580002
:1031F00063694008590049080AF0A2FEE3685900D3
:1032000049080AF09DFE011C281C0AF099FEE3699A
:10321000051C5800236A4008590049080AF090FE2E
:10322000A369590049080AF08BFEA36A061C5800DE
:10323000E36A4008590049080AF082FE636A5900AF
:1032400049080AF07DFE011C301C0AF079FE636B10
:10325000071C5800A36B4008590049080AF070FE8B
:10326000236B590049080AF06BFE236C061C5800BA
:10327000636C4008590049080AF062FEE36B59008C
:1032800049080AF05DFE011C301C0AF059FE061CBC
:10329000011C381C0AF0A2FE002800D13E1C311C83
:1032A000281C0AF09BFE002800D12E1CE36C58005D
:1032B000236D4008590049080AF042FEA36C5900EA
:1032C00049080AF03DFEA36D051C5800E36D400857
:1032D000590049080AF034FE636D590049080AF0A4
:1032E0002FFE011C281C0AF02BFE636E071C5800E1
:1032F000A36E4008590049080AF022FE236E5900C7
:1033000049080AF01DFE236F051C5800636F400832
:10331000590049080AF014FEE36E590049080AF002
:103320000FFE011C281C0AF00BFEE36F80465800BC
:103330008023E1584008490049080AF001FEA36FC4
:10334000590049080AF0FCFD8823051CE0580433A5
:10335000E15840004900490840080AF0F1FD842383
:10336000E158490049080AF0EBFD011C281C0AF04D
:10337000E7FD051C011C40460AF030FE002800D184
:103380004546291C381C0AF029FE002800D13D1CA6
:10339000291C301C0AF022FE002800D1351CC02355
:1033A0002100E55001AABA3B02A8A8310493029477
:1033B000FDF7F4F90121C422019B98260B405B42E2
:1033C0008B430133A354343A9246002250469C2743
:1033D00022509432A1509346923AA2510132E251C6
:1033E0009D32944660469C3A2250A03291469F3AC4
:1033F00090464A4640462300A05048461832A258FC
:10340000903392009A181568255040461060604627
:10341000B8222058A2588046604692009A18156833
:10342000255040461060B422E059A25884469200CC
:103430009A1810685D46E05160461060B022A258AC
:10344000A75992009A181068A0511760AC225846EC
:10345000A258265892009A18106860511660A82247
:10346000A258554692009B1852461868A2586051BF
:103470001A60C523E15407B0F0BCBB46B246A9466A
:10348000A046F0BDC023002210B5C2500022043374
:10349000C2520B68040003604B6843608B68836012
:1034A000CB68C3600B6903614B6943618B698361BE
:1034B000CB69C3610B6A03624B6A43628B6A8362A6
:1034C000CB6AC3620B6B03634B6B43638B6B83638E
:1034D000CB6BC3630B6C03644B6C43648B6C836476
:1034E000CB6CC3640B6D03654B6D43658B6D83655E
:1034F000CB6DC3650B6E03664B6E43668B6E836646
:10350000CB6EC3660B6F03674B6F43678B6F83672D
:10351000CB6FC3678023CA58C2500433CA58C25005
:103520000433CA58C2500433CA58C250FFF748FE89
:10353000200010BDF0B5DE464E4645465746E0B584
:10354000214C9146A5443AAA94460A0031931F4B58
:103550003B9063441B091B013A919846D3AB13CAB5
:1035600013C313CA13C31268D3A91A60184B194A9C
:103570001B6847A80493184B47AC1B680193174B73
:103580001B6805930093049BFEF786FF47ABD3931C
:103590004B46D49347ABD5933AAA832394468620CF
:1035A0001B0163441B68C0004044A2AAD3A9D69360
:1035B0000990FFF72BF96BAB089343460A934B46F0
:1035C0003094A1461C000BE014F7FFFF47030000F6
:1035D000782003200AE81C41702003207420032077
:1035E0004B464E461B68B76F0793089B494640CB36
:1035F00048464A460893A823896C006E9569126B69
:1036000005910690E158301C04920AF0B0FC8C231E
:103610008246E158381C0AF0AAFC011C50460AF008
:103620008FFC216F824606980AF0A1FC616D8346EB
:1036300005980AF09CFC011C58460AF081FC011C0C
:1036400050460AF07DFCA16B824604980AF08FFC7C
:10365000E1698346281C0AF08AFC011C58460AF0DE
:103660006FFC2168834607980AF081FC011C5846CC
:103670000AF066FC011C50460AF062FC43461860E2
:10368000AC23301CE1580AF072FC90238246E158CA
:10369000381C0AF06CFC011C50460AF051FC616FAA
:1036A000824606980AF063FCA16D834605980AF0ED
:1036B0005EFC011C58460AF043FC011C50460AF00F
:1036C0003FFCE16B824604980AF051FC216A834674
:1036D000281C0AF04CFC011C58460AF031FC6168B9
:1036E000834607980AF043FC011C58460AF028FC60
:1036F000011C50460AF024FC43465860B023301C9D
:10370000E1580AF034FC94238246E158381C0AF050
:103710002EFC011C50460AF013FCA16F824606984D
:103720000AF025FCE16D834605980AF020FC011C97
:1037300058460AF005FC011C50460AF001FC216CB9
:10374000824604980AF013FC616A8346281C0AF03A
:103750000EFC011C58460AF0F3FBA168834607984B
:103760000AF005FC011C58460AF0EAFB011C504611
:103770000AF0E6FB43469860B423301CE1580AF097
:10378000F6FB98238246E158381C0AF0F0FB011C36
:1037900050460AF0D5FBE16F824606980AF0E7FB37
:1037A000216E834605980AF0E2FB011C58460AF098
:1037B000C7FB011C50460AF0C3FB616C82460498AB
:1037C0000AF0D5FBA16A8346281C0AF0D0FB011C35
:1037D00058460AF0B5FBE168834607980AF0C7FB34
:1037E000011C58460AF0ACFB011C50460AF0A8FB2D
:1037F0004346D860B823301CE1580AF0B8FB9C233C
:103800008246E158381C0AF0B2FB011C50460AF00F
:1038100097FB80238246E15806980AF0A8FB616E68
:10382000834605980AF0A3FB011C58460AF088FB62
:10383000011C50460AF084FBA16C824604980AF0F1
:1038400096FBE16A8346281C0AF091FB011C58464E
:103850000AF076FB2169834607980AF088FB011C71
:1038600058460AF06DFB011C50460AF069FB4346BE
:103870001861BC23301CE1580AF079FBA023824672
:10388000E158381C0AF073FB011C50460AF058FB43
:1038900084238246E15806980AF069FBA16E8346AC
:1038A00005980AF064FB011C58460AF049FB011C0C
:1038B00050460AF045FBE16C824604980AF057FB3B
:1038C000216B8346281C0AF052FB011C58460AF063
:1038D00037FB6169834607980AF049FB011C58468B
:1038E0000AF02EFB011C50460AF02AFB4346E16E0B
:1038F000586105980AF03BFB88238246E1580698F8
:103900000AF035FB011C50460AF01AFBA42382463C
:10391000E158381C0AF02BFBC023071CE158301C6F
:103920000AF025FB011C381C0AF00AFB011C50465A
:103930000AF006FB616B061C281C0AF018FB216DBF
:10394000051C04980AF013FB011C281C0AF0F8FA65
:10395000A169051C07980AF00AFB011C281C0AF043
:10396000EFFA011C301C0AF0EBFA4346986104237D
:103970009C461833E1449C464DABE044994500D049
:103980002EE60A9BA146D8249846A427A4004444C6
:10399000BF00474420000999FFF774FD21009022E1
:1039A0003800C8240AF06AFCFC21A40044448900C1
:1039B0004144182220000AF061FCCE2081218000C1
:1039C000C9004144182240440AF058FC8422D42300
:1039D000D200424412689B0043441A60D523874AB0
:1039E0004546424412889B004344FE211A8000232E
:1039F0002268B0359200AA1889051160936113639B
:103A0000936413669367C922920042441268444645
:103A10009200AA181360916113639364136693670D
:103A2000CA2292004244126806269200AA18136025
:103A300093611163936413669367CB2292004244AF
:103A4000126806209200AA181360936113639164B0
:103A500013669367CC229200424412689200AA181F
:103A6000136093611363936411669367CD22920090
:103A7000424412689200AA1813609361136393641E
:103A80001366A8235B009B46916742465946E4189B
:103A900020334344A660E6602661535080229200A2
:103AA00042444B396260924604933A0006230294E2
:103AB000FF3901960095FDF7DFFA42465946049B0F
:103AC000A660E6602661535053464B3963603A0066
:103AD00006230294062001960095FF39FDF7D0FDDC
:103AE00043461B688C2206934346DB69D3AC07939D
:103AF00043469B6B089343465B6D099343461B6F9C
:103B00000A9343469B5804320B9343465B680C93DD
:103B100043461B6A0D934346DB6B0E9343469B6DF6
:103B20000F9343465B6F109343469B5804321193A7
:103B300043469B68129343465B6A139343461B6C50
:103B400014934346DB6D159343469B6F1693434690
:103B50009B58043217934346DB68189343469B6A8D
:103B6000199343465B6C1A9343461B6E1B93434663
:103B7000DB6F1C9343469B58183A1D9343461B69C1
:103B80001E934346DB6A1F9343469B6C2093434638
:103B90005B6E219343469B581C32229343469B58AD
:103BA000183A239343465B69249343461B6B259342
:103BB0004346DB6C269343469B6E279343469B58B4
:103BC0001C32289343469B58183A299343469B69D5
:103BD0002A9343465B6B2B9343461B6D2C934346C2
:103BE000DB6E2D9343469B581C322E9343469B58C5
:103BF000A8462F934B46329302E0C04624040000AF
:103C000043461F685B6842469946434641469B6867
:103C1000D2680E694D6907984946049305920AF0E7
:103C2000A6F90499824608980AF0A1F9011C5046A9
:103C30000AF086F9391C824606980AF098F9011CA8
:103C400050460AF07DF9311C82460A980AF08FF935
:103C5000291C83460B980AF08AF9011C58460AF081
:103C60006FF90599834609980AF081F9011C5846B5
:103C70000AF066F9011C50460AF062F949462060D4
:103C80000D980AF074F9049982460E980AF06FF9BB
:103C9000011C50460AF054F9391C82460C980AF06F
:103CA00066F9011C50460AF04BF9311C8246109807
:103CB0000AF05DF9291C834611980AF058F9011C95
:103CC00058460AF03DF9059983460F980AF04FF9D6
:103CD000011C58460AF034F9011C50460AF030F92C
:103CE0004946606013980AF042F904998246149894
:103CF0000AF03DF9011C50460AF022F9391C8246AF
:103D000012980AF034F9011C50460AF019F9311CD6
:103D1000824616980AF02BF9291C834617980AF058
:103D200026F9011C58460AF00BF9059983461598A7
:103D30000AF01DF9011C58460AF002F9011C504610
:103D40000AF0FEF84946A06019980AF010F90499A3
:103D500082461A980AF00BF9011C50460AF0F0F856
:103D6000391C824618980AF002F9011C50460AF0E4
:103D7000E7F8311C82461C980AF0F9F8291C8346A2
:103D80001D980AF0F4F8011C58460AF0D9F8059974
:103D900083461B980AF0EBF8011C58460AF0D0F84D
:103DA000011C50460AF0CCF84946E0601F980AF022
:103DB000DEF80499824620980AF0D9F8011C504692
:103DC0000AF0BEF8391C82461E980AF0D0F8011C91
:103DD00050460AF0B5F8311C824622980AF0C7F81E
:103DE000291C834623980AF0C2F8011C58460AF0A1
:103DF000A7F80599834621980AF0B9F8011C58469E
:103E00000AF09EF8011C50460AF09AF849462061D3
:103E100025980AF0ACF80499824626980AF0A7F88B
:103E2000011C50460AF08CF8391C824624980AF08E
:103E30009EF8011C50460AF083F8311C82462898EF
:103E40000AF095F8291C834629980AF090F8011C7D
:103E500058460AF075F80599834627980AF087F8BE
:103E6000011C58460AF06CF8011C50460AF068F82C
:103E7000494660612B980AF07AF8049981462C989B
:103E80000AF075F8011C48460AF05AF8391C8146B8
:103E90002A980AF06CF8011C48460AF051F8311CC7
:103EA000071C2E980AF063F8291C061C2F980AF0AC
:103EB0005EF8011C301C0AF043F80599051C2D988A
:103EC0000AF055F8011C281C0AF03AF8011C381CAD
:103ED0000AF036F818239C46A061FDAB1C34E04480
:103EE000A34200D08CE6329BD49A9946D39BD599B5
:103EF000D69CD79DD89ED99F06930792DA9BDB9AD2
:103F000008910994DC99DD9C0A950B96DE9DDF9E55
:103F10000C970D93E09FE19B0E92E29A0F91109403
:103F200011951296139714931592E399E49CE59DCD
:103F3000E69EE79FE89BE99A16911794EA99EB9C15
:103F400018951996EC9DED9E1A971B93EE9FEF9B8B
:103F50001C921D91F09AF1991E94F29C2096219743
:103F600022932392249125941F95F39DF49EF59F0F
:103F7000F79AF69BF899F99C26952796FA9DFB9E51
:103F80002897FC9F2A923A9A29932B912C942D954D
:103F90002E962F97D3AB32CA32C332CA32C31168BE
:103FA000D3AC1960FD49FE4B09681B680191FD49BE
:103FB000FD4A09682000009141A9FDF7CDFF319F1E
:103FC0004199386809F0B9FF42998346786809F049
:103FD000B4FF43998246B86809F0AFFF4499041CC6
:103FE000F86809F0AAFF4599051C386909F0A5FF92
:103FF0004699061C786909F0A0FF071C011C2A9845
:1040000009F0B5FF311C8046239809F0B0FF011C70
:10401000404609F095FF291C80461C9809F0A7FF2F
:10402000011C404609F08CFF211C8046159809F0C0
:104030009EFF514604900E9809F099FF011C0498C8
:1040400009F07EFF59460490079809F090FF011C83
:10405000049809F075FF011C404609F071FF3A9A77
:10406000516809F06DFF391C04902B9809F07FFF0F
:10407000311C8046249809F07AFF011C404609F063
:104080005FFF291C80461D9809F071FF011C404606
:1040900009F056FF211C8046169809F068FF51462A
:1040A00005900F9809F063FF011C059809F048FF7F
:1040B00059460590089809F05AFF011C059809F027
:1040C0003FFF011C404609F03BFF3A9A916809F016
:1040D00037FF391C05902C9809F049FF311C8046A8
:1040E000259809F044FF011C404609F029FF291CCE
:1040F00080461E9809F03BFF011C404609F020FF56
:10410000211C8046179809F032FF514631901098D3
:1041100009F02DFF011C319809F012FF594631902A
:10412000099809F024FF011C319809F009FF011CCE
:10413000404609F005FF3A9AD16809F001FF391CA1
:1041400031902D9809F013FF311C8046269809F014
:104150000EFF011C404609F0F3FE291C80461F9803
:1041600009F005FF011C404609F0EAFE211C8046CB
:10417000189809F0FCFE51463290119809F0F7FEAC
:10418000011C329809F0DCFE594632900A9809F079
:10419000EEFE011C329809F0D3FE011C404609F0E6
:1041A000CFFE3A9A116909F0CBFE391C32902E9855
:1041B00009F0DDFE311C8046279809F0D8FE011C6D
:1041C000404609F0BDFE291C8046209809F0CFFE2C
:1041D000011C404609F0B4FE211C8046199809F0E4
:1041E000C6FE51463390129809F0C1FE011C339867
:1041F00009F0A6FE594633900B9809F0B8FE011C51
:10420000339809F09DFE011C404609F099FE3A9A48
:10421000516909F095FE51463390139809F0A7FEB5
:10422000211C80461A9809F0A2FE011C404609F0A4
:1042300087FE594680460C9809F099FE011C4046BD
:1042400009F07EFE311C8046289809F090FE391C4A
:1042500034902F9809F08BFE011C349809F070FE01
:10426000291C3490219809F082FE011C349809F031
:1042700067FE011C404609F063FE3A9A916909F015
:104280005FFE391C8046299809F071FE311C071C1D
:10429000229809F06CFE011C381C09F051FE291C03
:1042A000061C1B9809F063FE011C301C09F048FE37
:1042B000211C051C149809F05AFE5146041C0D9847
:1042C00009F055FE011C201C09F03AFE5946041C59
:1042D000069809F04CFE011C201C09F031FE011C5F
:1042E000281C09F02DFE3A9AD3AC116809F028FE7B
:1042F0003B9B049A18605A60059A9A60319ADA607A
:10430000329A1A61339A5A6142469A614B461B6847
:104310004A46A2934B465B68A3934B469B68A49383
:104320004B46DB68A5934B461B69A6934B465B69DE
:10433000A7934B469B69A8934B46DB69A9934B46D1
:104340001B6AAA934B465B6AAB934B469B6AAC9342
:104350004B46DB6AAD934B461B6BAE934B465B6B98
:10436000AF934B469B6BB0934B46DB6BB1934B4685
:104370001B6CB2934B465B6CB3934B469B6CB493F4
:104380004B46DB6CB5934B461B6DB6934B465B6D52
:10439000B7934B469B6DB8934B4607E070200320C4
:1043A00078200320742003200AE81C41DB6DB993B8
:1043B0004B461B6EBA934B465B6EBB934B469B6E54
:1043C000BC934B46DB6EBD934B461B6FBE934B4677
:1043D0005B6FBF934B469B6FC0934B46DB6FC193A4
:1043E0008023D358C2938423D358C3938823D358AC
:1043F000C4938C23D358C5939023D358C693942346
:10440000D358C7939823D358C8939C23D358C993A0
:10441000A023D358CA93A423D358CB93A823D3580B
:10442000CC93AC23D358CD93B023D358CE93B4239D
:10443000D358CF93B823D358D093BC23D358D19318
:10444000C023D358D293309B3092984643461F687E
:104450005B6842469946434641469B68D2680E696E
:104460004D690D9849460493059209F080FD049921
:104470008246149809F07BFD011C504609F060FD4E
:10448000391C8246069809F072FD011C504609F05D
:1044900057FD311C8246229809F069FD291C83468C
:1044A000299809F064FD011C584609F049FD059959
:1044B00083461B9809F05BFD011C584609F040FD3E
:1044C000011C504609F03CFD494620600E9809F059
:1044D0004EFD04998246159809F049FD011C50468D
:1044E00009F02EFD391C8246079809F040FD011C99
:1044F000504609F025FD311C8246239809F037FD0E
:10450000291C83462A9809F032FD011C584609F0FF
:1045100017FD059983461C9809F029FD011C584692
:1045200009F00EFD011C504609F00AFD4946606085
:104530000F9809F01CFD04998246169809F017FDA2
:10454000011C504609F0FCFC391C8246089809F011
:104550000EFD011C504609F0F3FC311C82462498E4
:1045600009F005FD291C83462B9809F000FD011C6C
:10457000584609F0E5FC059983461D9809F0F7FCBB
:10458000011C584609F0DCFC011C504609F0D8FC1F
:104590004946A060109809F0EAFC049982461798F1
:1045A00009F0E5FC011C504609F0CAFC391C8246A2
:1045B000099809F0DCFC011C504609F0C1FC311CD3
:1045C0008246259809F0D3FC291C83462C9809F0D3
:1045D000CEFC011C584609F0B3FC059983461E9891
:1045E00009F0C5FC011C584609F0AAFC011C504604
:1045F00009F0A6FC4946E060119809F0B8FC04995E
:104600008246189809F0B3FC011C504609F098FC4A
:10461000391C82460A9809F0AAFC011C504609F090
:104620008FFC311C8246269809F0A1FC291C834688
:104630002D9809F09CFC011C584609F081FC059955
:1046400083461F9809F093FC011C584609F078FC3A
:10465000011C504609F074FC49462061129809F08B
:1046600086FC04998246199809F081FC011C504689
:1046700009F066FC391C82460B9809F078FC011C95
:10468000504609F05DFC311C8246279809F06FFC0A
:10469000291C83462E9809F06AFC011C584609F033
:1046A0004FFC05998346209809F061FC011C58468F
:1046B00009F046FC011C504609F042FC4946606185
:1046C000139809F054FC049981461A9809F04FFC9C
:1046D000011C484609F034FC391C81460C9809F04D
:1046E00046FC011C484609F02BFC311C071C28988D
:1046F00009F03DFC291C061C2F9809F038FC011C10
:10470000301C09F01DFC0599051C219809F02FFCAF
:10471000011C281C09F014FC011C381C09F010FCB9
:1047200018239C46FFABA06114331C34E044A34221
:1047300000D08BE6309BA2AD99463C93C4234C46F7
:10474000C8464B44089307944246D26843464146C4
:10475000914642469E694C68096892685F691B6988
:104760000491301CFD990693059209F000FCF6991E
:104770008246381C09F0FBFB011C504609F0E0FBA7
:10478000EF998246069809F0F2FBE899834648467D
:1047900009F0EDFB011C584609F0D2FB011C504604
:1047A00009F0CEFBE1998246059809F0E0FBDA9921
:1047B0008346201C09F0DBFB011C584609F0C0FBB6
:1047C000D3998346049809F0D2FB011C584609F09E
:1047D000B7FB011C504609F0B3FB011C286809F027
:1047E000ACFB2860FE99301C09F0C1FBF7998246AA
:1047F000381C09F0BCFB011C504609F0A1FBF099E4
:104800008246069809F0B3FBE9998346484609F0C9
:10481000AEFB011C584609F093FB011C504609F001
:104820008FFBE2998246059809F0A1FBDB9983464C
:10483000201C09F09CFB011C584609F081FBD4990F
:104840008346049809F093FB011C584609F078FB55
:10485000011C504609F074FB011C686809F06DFBEF
:10486000FF996860301C09F082FBF8998246381C79
:1048700009F07DFB011C504609F062FBF19982466C
:10488000069809F074FBEA998346484609F06FFBE5
:10489000011C584609F054FB011C504609F050FB1E
:1048A000E3998246059809F062FBDC998346201C57
:1048B00009F05DFB011C584609F042FBD59983467F
:1048C000049809F054FB011C584609F039FB011CFF
:1048D000504609F035FB011CA86809F02EFBFFAB20
:1048E0005968A860301C043309F041FBF9998246ED
:1048F000381C09F03CFB011C504609F021FBF299E1
:104900008246069809F033FBEB998346484609F046
:104910002EFB011C584609F013FB011C504609F000
:104920000FFBE4998246059809F021FBDD99834647
:10493000201C09F01CFB011C584609F001FBD6990C
:104940008346049809F013FB011C584609F0F8FA55
:10495000011C504609F0F4FA011CE86809F0EDFA70
:10496000FFAB9968E860301C083309F000FBFA9946
:104970008246381C09F0FBFA011C504609F0E0FAA7
:10498000F3998246069809F0F2FAEC998346484674
:1049900009F0EDFA011C584609F0D2FA011C504604
:1049A00009F0CEFAE5998246059809F0E0FADE9919
:1049B0008346201C09F0DBFA011C584609F0C0FAB6
:1049C000D7998346049809F0D2FA011C584609F099
:1049D000B7FA011C504609F0B3FA011C286909F026
:1049E000ACFAFFABD9682861301C0C3309F0BFFA70
:1049F000FB998246381C09F0BAFA011C504609F0AE
:104A00009FFAF4998246069809F0B1FAED99834627
:104A1000484609F0ACFA011C584609F091FA011C0D
:104A2000504609F08DFAE6998246059809F09FFAFA
:104A3000DF998346201C09F09AFA011C584609F0B8
:104A40007FFAD8998346049809F091FA011C5846D8
:104A500009F076FA011C504609F072FA011C6869E7
:104A600009F06BFAEE996861484609F080FAF59909
:104A70008146069809F07BFA011C484609F060FA65
:104A8000FC998146381C09F072FAFFAB1969071CC2
:104A9000301C103309F06BFA011C381C09F050FA75
:104AA000011C484609F04CFAE099061C201C09F04C
:104AB0005EFAE799041C059809F059FA011C201CBC
:104AC00009F03EFAD999041C049809F050FA011C27
:104AD000201C09F035FA011C301C09F031FA011CC8
:104AE000A86909F02AFA1C239C46089BE044A861A7
:104AF0001C35984500D027E6079BA29A99461A6074
:104B0000A39A5A60A49A9A60A59ADA60A69A1A6142
:104B1000A79A5A61A89A9A61A99ADA61AA9A1A621E
:104B2000AB9A5A62AC9A9A62AD9ADA62AE9A1A63FA
:104B3000AF9A5A63B09A9A63B19ADA63B29A1A64D6
:104B4000B39A5A64B49A9A64B59ADA64B69A1A65B2
:104B5000B79A5A65B89A9A65B99ADA65BA9A1A668E
:104B6000BB9A5A66BC9A9A66BD9ADA66BE9A1A676A
:104B7000BF9A5A67C09A9A67C19ADA674A468023F1
:104B8000C299D150C3990433D150C4990433D15040
:104B9000C5990433D150C6990433D150C799043311
:104BA000D150C8990433D150C9990433D150CA990E
:104BB0000433D150CB990433D150CC990433D15024
:104BC000CD990433D150CE990433D150CF990433C9
:104BD000D150D0990433D150D1990433D150D299C6
:104BE0000433D1503AAA9446504BA2AA63441B689E
:104BF00013CB13C24E4BD3AC63441B6807CB07C423
:104C00003A9B3B9D00934B4B28006344A2A91B6831
:104C1000D3AAFDF77FF82B00D3AA23CB23C213CB53
:104C200013C23AA91B688C4613603EAA11003F4B81
:104C300063441B6831CB31C13D4BA2A963441B685F
:104C400031CB31C13B4BD3A963441B6871A800939E
:104C5000A2ABFDF7C5FAD3AB1C000793719BA0462E
:104C60000993789B10937F9B1793869B1E938D9B34
:104C70002593949B2C939B9B3393729B0A93799BD4
:104C80001193809B1893879B1F938E9B2693959BD4
:104C90002D939C9B3493739B0B937A9B1293819BD4
:104CA0001993889B20938F9B2793969B2E939D9B74
:104CB0003593749B0C937B9B1393829B1A93899BD4
:104CC0002193909B2893979B2F939E9B3693759B44
:104CD0000D937C9B1493839B1B938A9B2293919BA4
:104CE0002993989B30939F9B3793769B0E937D9B44
:104CF0001593849B1C938B9B2393929B2A93999B44
:104D00003193A09B3893779B0F937E9B1693859B43
:104D10001D938C9B2493939B2B939A9B3293A19BE3
:104D200039934B463D933C9B994605E0280800008B
:104D3000380800003C080000484649464A464B46B1
:104D4000866909691B6855689468D2684769069145
:104D50003398311C0592049309F009F9391C8246F5
:104D60002C9809F004F9011C504609F0E9F806995D
:104D70008246259809F0FBF8059983461E9809F0AC
:104D8000F6F8011C584609F0DBF8011C504609F002
:104D9000D7F8211C8246179809F0E9F8291C8346A8
:104DA000109809F0E4F8011C584609F0C9F8049974
:104DB0008346099809F0DBF8011C584609F0C0F851
:104DC000011C504609F0BCF84346311C1860349869
:104DD00009F0CDF8391C82462D9809F0C8F8011C5D
:104DE000504609F0ADF806998246269809F0BFF8BA
:104DF000059983461F9809F0BAF8011C584609F036
:104E00009FF8011C504609F09BF8211C8246189817
:104E100009F0ADF8291C8346119809F0A8F8011C87
:104E2000584609F08DF8049983460A9809F09FF8CE
:104E3000011C584609F084F8011C504609F080F81E
:104E40004346311C5860359809F091F8391C824668
:104E50002E9809F08CF8011C504609F071F806995B
:104E60008246279809F083F805998346209809F02F
:104E70007EF8011C584609F063F8011C504609F001
:104E80005FF8211C8246199809F071F8291C8346A5
:104E9000129809F06CF8011C584609F051F8049971
:104EA00083460B9809F063F8011C584609F048F84E
:104EB000011C504609F044F84346311C986036986E
:104EC00009F055F8391C82462F9809F050F8011C5A
:104ED000504609F035F806998246289809F047F8B7
:104EE00005998346219809F042F8011C584609F0BB
:104EF00027F8011C504609F023F8211C82461A9815
:104F000009F035F8291C8346139809F030F8011C84
:104F1000584609F015F8049983460C9809F027F8CB
:104F2000011C584609F00CF8011C504609F008F81D
:104F30004346311CD860379809F019F8391C82466D
:104F4000309809F014F8011C504608F0F9FF069952
:104F50008246299809F00BF805998346229809F0B2
:104F600006F8011C584608F0EBFF011C504608F0FB
:104F7000E7FF211C82461B9808F0F9FF291C834695
:104F8000149808F0F4FF011C584608F0D9FF049962
:104F900083460D9808F0EBFF011C584608F0D0FF3F
:104FA000011C504608F0CCFF4346311C186138986C
:104FB00008F0DDFF391C8246319808F0D8FF011C4B
:104FC000504608F0BDFF069982462A9808F0CFFFA8
:104FD00005998346239808F0CAFF011C584608F03B
:104FE000AFFF011C504608F0ABFF211C82461C9805
:104FF00008F0BDFF291C8346159808F0B8FF011C76
:10500000584608F09DFF049983460E9808F0AFFFBC
:10501000011C584608F094FF011C504608F090FF10
:10502000434605995861249808F0A1FF06998246E5
:105030002B9808F09CFF011C504608F081FF391C9A
:105040008246329808F093FF311C071C399808F00B
:105050008EFF011C381C08F073FF011C504608F03D
:105060006FFF291C061C169808F081FF211C051CE7
:105070001D9808F07CFF011C281C08F061FF0499B2
:10508000041C0F9808F073FF011C201C08F058FF47
:10509000011C301C08F054FF434698611C239C46B9
:1050A000089BE144E044994500D045E6A2ACA04607
:1050B000F6AB0693DAAB3C940893079B33981A68D7
:1050C000596D0492069A8946D669196FDD69059172
:1050D000311C9C6B176808F04AFF391C82462C98DB
:1050E00008F045FF011C504608F02AFF059982464A
:1050F000259808F03CFF494683461E9808F037FF84
:10510000011C584608F01CFF011C504608F018FF0F
:10511000211C8246179808F02AFF291C8346109804
:1051200008F025FF011C584608F00AFF0499834641
:10513000099808F01CFF011C584608F001FF011CEB
:10514000504608F0FDFE41460860311C349808F0D6
:105150000EFF391C82462D9808F009FF011C5046AD
:1051600008F0EEFE05998246269808F000FF4946B1
:1051700083461F9808F0FBFE011C584608F0E0FE2D
:10518000011C504608F0DCFE211C8246189808F0ED
:10519000EEFE291C8346119808F0E9FE011C5846D2
:1051A00008F0CEFE049983460A9808F0E0FE011C40
:1051B000584608F0C5FE011C504608F0C1FE4146A5
:1051C0004860311C359808F0D2FE391C82462E9872
:1051D00008F0CDFE011C504608F0B2FE059982464B
:1051E000279808F0C4FE49468346209808F0BFFE81
:1051F000011C584608F0A4FE011C504608F0A0FE11
:10520000211C8246199808F0B2FE291C8346129888
:1052100008F0ADFE011C584608F092FE0499834642
:105220000B9808F0A4FE011C584608F089FE011CEA
:10523000504608F085FE41468860311C369808F0DB
:1052400096FE391C82462F9808F091FE011C5046AC
:1052500008F076FE05998246289808F088FE4946AF
:105260008346219808F083FE011C584608F068FE2A
:10527000011C504608F064FE211C82461A9808F072
:1052800076FE291C8346139808F071FE011C5846CF
:1052900008F056FE049983460C9808F068FE011C3D
:1052A000584608F04DFE011C504608F049FE4146A4
:1052B000C860311C379808F05AFE391C8246309875
:1052C00008F055FE011C504608F03AFE059982464A
:1052D000299808F04CFE49468346229808F047FE7C
:1052E000011C584608F02CFE011C504608F028FE10
:1052F000211C82461B9808F03AFE291C834614980C
:1053000008F035FE011C584608F01AFE0499834641
:105310000D9808F02CFE011C584608F011FE011CE7
:10532000504608F00DFE41460861311C389808F0DF
:105330001EFE391C8246319808F019FE011C5046A9
:1053400008F0FEFD059982462A9808F010FE4946AD
:105350008346239808F00BFE011C584608F0F0FD28
:10536000011C504608F0ECFD211C82461C9808F0F8
:10537000FEFD291C8346159808F0F9FD011C5846CE
:1053800008F0DEFD049983460E9808F0F0FD011C3C
:10539000584608F0D5FD011C504608F0D1FD4346A3
:1053A00049465861249808F0E2FD059981462B98FA
:1053B00008F0DDFD011C484608F0C2FD391C81469D
:1053C000329808F0D4FD311C071C399808F0CFFD45
:1053D000011C381C08F0B4FD011C484608F0B0FD63
:1053E000291C061C169808F0C2FD211C051C1D98DE
:1053F00008F0BDFD011C281C08F0A2FD0499041C46
:105400000F9808F0B4FD011C201C08F099FD011C48
:10541000301C08F095FD414688611C218C46069A97
:10542000079B04320692089A04330793E0449A4299
:1054300000D042E63AAA94463D9B764A9946754B7F
:10544000624463441B6812681B68D3AC0793714BBA
:1054500063441B68DB6908936E4B63441B689B6B5A
:1054600009936C4B63441B685B6D0A93694B6344FF
:105470001B681B6F0B938C23D358664A0C93654BA8
:10548000624463441B685B680D93624B63441B6812
:105490001B6A0E935F4B63441B68DB6B0F935D4B82
:1054A00063441B689B6D10935A4B63441B685B6F8E
:1054B000126811939023D358564A1293554B624465
:1054C00063441B6812689B681393524B63441B68C8
:1054D0005B6A14934F4B63441B681B6C15934D4BD5
:1054E00063441B68DB6D16934A4B63441B689B6FD8
:1054F00017939423D358474A1893464B6244634406
:105500001B68DB681993434B63441B689B6A1A93BF
:10551000404B63441B685B6C1B933E4B63441B68AE
:1055200012681B6E1C933B4B63441B68DB6F1D931F
:105530009823D358374A1E93364B624463441B6802
:1055400012681B691F93334B63441B68DB6A20930B
:10555000304B63441B689B6C21932E4B63441B6848
:105560005B6E22938023D3582A4A23939C23624460
:105570001268D358274A2493264B624463441B681D
:105580005B692593234B63441B681B6B2693214B5C
:10559000126863441B68DB6C27931E4B63441B68D3
:1055A0009B6E28938423D3581A4A2993A0236244DC
:1055B0001268D358174A2A93164B624463441B68F7
:1055C00012689B692B93134B63441B685B6B2C9392
:1055D000104B63441B681B6D2D930E4B63441B687B
:1055E000DB6E2E938823D3580A4A2F93A423624458
:1055F0001268D35822003093074B63441B689846C7
:10560000D3AB06939023434431934B464446904694
:10561000329303E0340800002C0800006368E2685D
:105620009946A368089948460493059208F09FFCA0
:1056300009998246049808F09AFC011C504608F02B
:105640007FFC276882460799381C08F090FC011CF3
:10565000504608F075FC266982460B99301C08F00C
:1056600086FC656983460C99281C08F080FC011CA7
:10567000584608F065FC0A998346059808F077FCBF
:10568000011C584608F05CFC011C504608F058FC10
:10569000414608600E99484608F069FC0F99824619
:1056A000049808F064FC011C504608F049FC0D9970
:1056B0008246381C08F05BFC011C504608F040FC98
:1056C00011998246301C08F052FC12998346281C1E
:1056D00008F04DFC011C584608F032FC1099834636
:1056E000059808F044FC011C584608F029FC011CF0
:1056F000504608F025FC414648601499484608F099
:1057000036FC15998246049808F031FC011C50467D
:1057100008F016FC13998246381C08F028FC011C7E
:10572000504608F00DFC17998246301C08F01FFC0B
:1057300018998346281C08F01AFC011C584608F0EA
:10574000FFFB16998346059808F011FC011C58468A
:1057500008F0F6FB011C504608F0F2FB4146886059
:105760001A99484608F003FC1B998246049808F0F1
:10577000FEFB011C504608F0E3FB19998246381CD9
:1057800008F0F5FB011C504608F0DAFB1D99824633
:10579000301C08F0ECFB1E998346281C08F0E7FB40
:1057A000011C584608F0CCFB1C998346059808F06C
:1057B000DEFB011C584608F0C3FB011C504608F0F4
:1057C000BFFB4146C8602099484608F0D0FB2199AC
:1057D0008246049808F0CBFB011C504608F0B0FB51
:1057E0001F998246381C08F0C2FB011C504608F085
:1057F000A7FB23998246301C08F0B9FB2499834605
:10580000281C08F0B4FB011C584608F099FB2299AB
:105810008346059808F0ABFB011C584608F090FB46
:10582000011C504608F08CFB414608612699484609
:1058300008F09DFB27998246049808F098FB011C0C
:10584000504608F07DFB25998246381C08F08FFBF6
:10585000011C504608F074FB29998246301C08F060
:1058600086FB2A998346281C08F081FB011C5846B8
:1058700008F066FB28998346059808F078FB011C20
:10588000584608F05DFB011C504608F059FB4346A2
:105890002C995861484608F06AFB2D998146049876
:1058A00008F065FB011C484608F04AFB2B9981462D
:1058B000381C08F05CFB011C484608F041FB2F999E
:1058C000071C301C08F053FB3099061C281C08F0FC
:1058D0004EFB011C301C08F033FB2E99051C05986B
:1058E00008F045FB011C281C08F02AFB011C381C91
:1058F00008F026FB434698611C239C46319B1834D4
:10590000E044A34200D089E6F6AB05933C9CDAABB9
:105910003193069B0899DA691F6891469A6B48464D
:1059200090465A6D1E6F0492059A20CA059208F09F
:105930001EFB09998246404608F019FB011C50469F
:1059400008F0FEFA07998246381C08F010FB011C8B
:10595000504608F0F5FA0B998246301C08F007FB18
:105960000C998346281C08F002FB011C584608F0DD
:10597000E7FA0A998346049808F0F9FA011C584698
:1059800008F0DEFA011C504608F0DAFA011C206823
:1059900008F0D6FA0E992060484608F0E8FA0F9908
:1059A0008246404608F0E3FA011C504608F0C8FA67
:1059B0000D998246381C08F0DAFA011C504608F0AE
:1059C000BFFA11998246301C08F0D1FA1299834629
:1059D000281C08F0CCFA011C584608F0B1FA1099BE
:1059E0008346049808F0C3FA011C584608F0A8FA48
:1059F000011C504608F0A4FA011C606808F0A0FAE7
:105A000018996060281C08F0B2FA17998246301C79
:105A100008F0ADFA011C504608F092FA1699824639
:105A2000049808F0A4FA011C504608F089FA149969
:105A30008246484608F09BFA15998346404608F08E
:105A400096FA011C584608F07BFA13998346381CD5
:105A500008F08DFA011C584608F072FA011C5046F5
:105A600008F06EFA011CA06808F06AFA1E99A0609E
:105A7000281C08F07CFA1D998246301C08F077FA41
:105A8000011C504608F05CFA1C998246049808F004
:105A90006EFA011C504608F053FA1B9982464046A4
:105AA00008F065FA1A998346484608F060FA011C26
:105AB000584608F045FA19998346381C08F057FAF9
:105AC000011C584608F03CFA011C504608F038FA10
:105AD000011CE06808F034FA2099E060484608F0BC
